:10000000403A00203955000091550000C1530000CE
:10001000C1530000C1530000C1530000C153000090
:10002000C1530000C1530000C1530000F94F00004C
:10003000C1530000C1530000B54F0000C153000080
:10004000F9540000D3CD0000F9540000F954000029
:10005000F9540000F9540000F9540000F95400006C
:10006000F9540000F9540000F9540000F95400005C
:10007000F9540000F9540000F9540000F95400004C
:10008000F9540000F9540000F9540000F95400003C
:10009000F9540000F9540000F9540000F95400002C
:1000A000F9540000F9540000F9540000F95400001C
:1000B000F9540000F9540000F9540000F95400000C
:1000C000F9540000F9540000F9540000F9540000FC
:1000D000F9540000F9540000F9540000F9540000EC
:1000E000F9540000F9540000F9540000F9540000DC
:1000F000F9540000F9540000F9540000F9540000CC
:10010000D0400B1CD1409C46203AD3401843524269
:1001100063469340184370479140031C90409C46AF
:10012000203A9340194352426346D34019437047E3
:100130007BB972B90029BEBF00204FF0004106E034
:1001400008BF00281CBF6FF000414FF0FF3000F0E7
:10015000C5B9ADF1080C6DE904CE002909DB002B0F
:100160001ADB00F04DF8DDF804E0DDE9022304B00D
:100170007047404261EB4101002B1BDB00F040F86F
:10018000DDF804E0DDE9022304B0404261EB410107
:10019000524263EB43037047524263EB430300F068
:1001A0002FF8DDF804E0DDE9022304B0404261EB02
:1001B00041017047524263EB430300F021F8DDF840
:1001C00004E0DDE9022304B0524263EB43037047CD
:1001D00053B94AB9002908BF00281CBF4FF0FF31AE
:1001E0004FF0FF3000F07AB9ADF1080C6DE904CEA4
:1001F00000F006F8DDF804E0DDE9022304B0704702
:100200002DE9F0478C460D460446089E002B51D13F
:100210008A4217466DD9B2FA82FEBEF1000F0BD0AA
:10022000CEF1200C01FA0EF520FA0CFC02FA0EF7C2
:100230004CEA050C00FA0EF44FEA174A250CBCFBF9
:10024000FAF81FFA87F90AFB18CC45EA0C4508FBB7
:1002500009F3AB420AD9ED1908F1FF3280F023818E
:10026000AB4240F22081A8F102083D44ED1AA4B24D
:10027000B5FBFAF00AFB105544EA054400FB09F906
:10028000A14509D9E41900F1FF3380F00A81A145A5
:1002900040F2078102383C44A4EB090440EA0840DC
:1002A0000021002E61D024FA0EF400233460736024
:1002B000BDE8F0878B4207D9002E54D0002186E894
:1002C00021000846BDE8F087B3FA83F1002940F029
:1002D0008E80AB4202D3824200F2FA80841A65EB30
:1002E00003050120AC46002E3FD086E81010BDE883
:1002F000F08712B90127B7FBF2F7B7FA87FEBEF114
:10030000000F34D1EB1B3A0C1FFA87FC0121B3FB21
:10031000F2F8250C02FB183345EA03450CFB08F301
:10032000AB4207D9ED1908F1FF3002D2AB4200F21F
:10033000D1808046ED1AA3B2B5FBF2F002FB105556
:1003400043EA05440CFB00FCA44507D9E41900F17D
:10035000FF3302D2A44500F2B8801846A4EB0C0487
:1003600040EA08409DE731463046BDE8F087CEF1CF
:10037000200405FA0EF307FA0EF720FA04F83A0CF7
:1003800025FA04F448EA0308B4FBF2F14FEA1845F1
:1003900002FB11441FFA87FC45EA044501FB0CF3FC
:1003A000AB4200FA0EF409D9ED1901F1FF3080F0EB
:1003B0008A80AB4240F2878002393D44EB1A1FFA33
:1003C00088F5B3FBF2F002FB103345EA034500FB6E
:1003D0000CF3AB4207D9ED1900F1FF386FD2AB42F5
:1003E0006DD902383D44EB1A40EA01418FE7C1F173
:1003F000200722FA07F88B4005FA01F448EA0303C4
:1004000020FA07FE4FEA134CFD404EEA040EB5FBFE
:10041000FCF94FEA1E440CFB19551FFA83F844EA15
:10042000054509FB08F4AC4202FA01F200FA01FAB0
:1004300008D9ED1809F1FF3043D2AC4241D9A9F1F6
:1004400002091D442D1B1FFA8EFEB5FBFCF00CFBB0
:1004500010554EEA054400FB08F8A04507D9E418FA
:1004600000F1FF3529D2A04527D902381C4440EAC3
:100470000940A4EB0804A0FB02894C45C6464D4642
:1004800015D312D056B1BAEB0E0364EB050404FA8F
:1004900007F7CB401F43CC40376074600021BDE8B4
:1004A000F0871846F8E69046E0E6C245EAD2B8EB97
:1004B000020E69EB03050138E4E72846D7E740461A
:1004C00091E78146BEE7014678E702383C4445E7BC
:1004D000084608E7A8F102083D442BE7704700BF33
:1004E00043685B6C10B5044603B1984763685B6A68
:1004F0002BB12046984710B1064B01221A70636851
:100500005B6B2BB12046984710B1034B01221A7048
:1005100010BD00BF41000020000000204368DB69DF
:100520002DE9F04705460F46164603B19847DFF818
:1005300040804FF000096B682EB91B6AABB12846AA
:10054000BDE8F04718475C6988F8009024B132464E
:1005500039462846A047044698F8003013B1361BA8
:100560002744E8E710F0CAF9F6E7BDE8F08700BFD6
:1005700041000020F7B50023444801930FF0E0FB51
:10058000044620B9424805F057FD03B0F0BD41488C
:1005900005F052FD63682BB11B6D1BB101AA04214C
:1005A00020469847019B002BF4D03B4805F044FDC2
:1005B0006368DB6C002B5DD0082101222046984740
:1005C000014610B1354805F037FD6368DB6C002B40
:1005D00053D01021012220469847014610B13048DF
:1005E00005F02AFD2F4810F0C7FA6368002B47D0AA
:1005F0001B6D002B44D001216A46204698470146D6
:10060000002840D0284805F017FD63682BB19B6C8B
:100610001BB12246254920469847254805F026F873
:10062000234902462046FFF779FF224805F01EF8CD
:10063000204902462046FFF771FF63689B6A0BB1B1
:10064000204698471C4D1D4E4FF000072B78002B7D
:10065000FCD02F7063689B69002BF7D04022314695
:100660002046984702460028F0D031462046FFF742
:1006700055FFEFE76FF02201A4E76FF02201AEE72C
:100680006FF02201BEE700990D48BCE70A15010092
:10069000121501002C1501003A1501004F1501003B
:1006A0006F15010040420F008F150100E1040000AA
:1006B000CB150100F0150100000000200100002012
:1006C000B415010008B50446084611461A46A0476D
:1006D00010F0A4F904F0ECFE10B504464FF0FF3121
:1006E00020460FF099FE03460028F7D008334268F1
:1006F000BFF35B8F53E8001F21F0010E43E800ECCD
:10070000BCF1000FF6D1BFF35B8FCB0700D590474C
:1007100010F0F4F8E2E710B590F90B40C0688C4295
:100720004FF00C04B6BF614304FB01014158202483
:1007300092FBF4F401EB8401196002F01F0010BD7C
:1007400007B501ABFFF7E7FF019A012303FA00F0B9
:1007500013680343136003B05DF804FB07B501ABF6
:10076000FFF7D9FF019A012303FA00F0136823EA87
:100770000003136003B05DF804FB2DE9F047436804
:10078000058904460068A77A5D43FF222844E27287
:1007900000214FF00C0E4FF0200CB94205DB002574
:1007A00023899D4223DBBDE8F087D4F80C90B5FB8C
:1007B000F3F20EFB01F81F2A09EB08064FEA930338
:1007C00006F1040AC8BF1F3203F10303C6F804A0F0
:1007D000C6F808A0CABF92FBFCF2E17249F8080013
:1007E00023F00303C8BF00EB82000131D5E7626844
:1007F000E36820686A431E1D865081189A684A6023
:100800009A682046116099602A460021FFF798FFF8
:100810000135C5E72DE9F04F8BB0867A00AF04466D
:10082000BB60B3000A3323F00703ADEB030D43684D
:10083000FA6003336A4623F0030342F80439E946B9
:100840004FF0FF3500234FF00C0E581EB342786274
:1008500009DA2BB110688008033020F003005060E3
:10086000506888420BD27B6A013314D13A6D002361
:1008700013606FF00B002C37BD46BDE8F08FE068C9
:100880000EFB030000F1040C40680432604518BF01
:100890001D460133D9E76E1CE8D0237C13F0010319
:1008A00005D04FF02002EFF3118382F311883B62F1
:1008B0000C236B431A1DE36813441E68B3427DD0BA
:1008C00096E80A001960316859F825204B602368C2
:1008D0002946F31A204693FBF2F2FFF73FFFA9EBFC
:1008E000890309EB850A7B617B6A9D4216DB237CC9
:1008F000D90702D53B6A83F31188FB681A467B6AE5
:10090000136023687A6AF31A59F8222093FBF2F3F2
:10091000BA6813603B6D00201E60ACE723685AF88C
:10092000042BF31A93FBF2F37A699B003B610AEB09
:100930004A0313444FF0010BBB6105EB0B037B60D3
:10094000DAF8008079680BFB08F3FB61F3183B6071
:100950003B6920460BEB0302FFF7F2FE3B6822687F
:10096000218908F1FF389844A8EB020862684A43DD
:1009700090450AD2E268B969F8690A44111D3150FC
:100980009168596091680B6093600BF1010BBBF1AA
:10099000040FD5D1237CD80705F1010502D53B6AA8
:1009A00083F31188237C13F0010305D04FF020025C
:1009B000EFF3118382F311883B6295E7013D6A1CD6
:1009C000A3F10C037FF479AF002690E72DE9F04FF7
:1009D00087B0837A9B000A3323F0070300AFADEBA7
:1009E000030D4368033323F003030446E8460093F2
:1009F0006D460120814280F08380237C13F0010347
:100A00000E46154605D04FF02002EFF3118382F316
:100A10001188BB600C2303FB01F958F82630FB60FA
:100A200003FB05FB23687B602A463146204603EB27
:100A30000B0AFFF785FEE2687B684A44111D43F804
:100A40000B109368CAF804309368C3F800A0C2F88A
:100A500008A0237CDA0702D5BB6883F3118894F8D9
:100A600010A01AF0010A05D04FF02003EFF3118A0D
:100A700083F31188C7F808A0002E4AD007F11403A9
:100A80002A4631462046FFF746FE7A69042390FB4A
:100A9000F3F083001068D84000F00F000F2838D121
:100AA00025F003037B60FB684FF0000A013B7A6886
:100AB000F968B4F808E0524401FB02FB616803EBFB
:100AC0000B0001FB0EF188420FD2314620463B60FD
:100AD000FFF744FE22683B6852F80B0002EB0B0163
:100AE0004968086052F80B2051600AF1010ABAF116
:100AF000040FDCD195FBFAF5013EA9F10C098CE756
:100B00002B689B08033323F0030345F8043F0130AF
:100B100070E7237CDB0701D58AF311881C37BD46BB
:100B2000BDE8F08F002070470B6801330B60014B6C
:100B30001B681847804700202DE9F04F85B09B4681
:100B40000E9CDFF890A0012CB8BF0124012B0CBF34
:100B500030232023154680468946019402930126BE
:100B60000A2700220AF101040AB9AA451FD2B5FBDF
:100B7000F4F049463030C04701360122013F012FD1
:100B8000B5FBF4F14FF00A0304FB1155BAFBF3FA7D
:100B9000E8D1494605F13000C047BBF1030F03D14E
:100BA000019B9C1B002C0FDC05B0BDE8F08F019B66
:100BB000BB42E3DBBBF1020FE0D849460298039247
:100BC0000136C047039AD9E749462020C047013C77
:100BD000E8E700BFFFC99A3B0A688B6830B512B1DD
:100BE0004C68A34202DB01338B6030BD651EAB4213
:100BF0000BBF8C605C1C00218C600CBFD154D054A6
:100C000030BD0000014B1860704700BF80470020D6
:100C10002DE9F04F89B04FF0000A06460F460492C6
:100C20001C464FF0FF39D0465546049B187810B942
:100C300009B0BDE8F08F45B9252800F00C81394690
:100C4000B047049B01330493EFE7642861D019D8BF
:100C500039280AD8312850D22D283CD030283DD010
:100C6000252808D13946B0476FE0582800F0898020
:100C7000632800F0EA8039462520B047049B3946B6
:100C80001878F0E7702872D006D8692841D06C280F
:100C90003CD06828D5D0EEE7752858D017D87328EF
:100CA000E9D1236804F1040B1C46254615F8010B15
:100CB000002840F0BF80B8F1030F40F0D580E41A5F
:100CC000A9EB0404002C00F3BB805C463DE07828CF
:100CD00057D07A28DEE74FF00308B2E7B9F1000FEA
:100CE0000EDAB8F1000F00F0BC80A0F13009B8F1C5
:100CF000000F08BF4FF00208A3E7B9F1000FF4DBC3
:100D00000A2303FB0909A9F13009F0E70AF1010AF6
:100D100097E7BAF1010FC5BF073424F00703256830
:100D20001D68D4BF043403F10804002D05DA3946E8
:100D30002D20B0476D4209F1FF39CDF800904346B0
:100D40002A4639463046FFF7F7FE002579E7BAF123
:100D5000010FC5BF073424F0070322681A68CDF8D5
:100D60000090CCBF03F1080404344346E9E7394658
:100D70003020B04739467820B0474FF008094FF08F
:100D80000108BAF1010FC7BF073424F00703236835
:100D90000593C2BF03F108041B6805934FF00802D6
:100DA0004FF00003D8BF04340393079393460BF12D
:100DB000FF3B059B4FEA8B0023FA00F010F00F0079
:100DC00009D1079B13B9BBF1000F22D14FF0300EB0
:100DD00007E0069AEBE709288CBF4FF0570E4FF05B
:100DE000300E394670440692B047039B0795013395
:100DF0000393BBF1000FECD1B8F1030FA5D1039B16
:100E0000C3EB4905002DA0DD39462020B047013D48
:100E1000F8E7531E91450693EBDBB8F1010F03D1C0
:100E200039463020B047E4E7B8F1020FE1D1394646
:100E30002020F7E7394603932C46B047039B34E75D
:100E400039462020B047013C3CE72068251D394643
:100E5000B0472C4679E7AA46A8464FF0FF3901254E
:100E6000EFE64FF00108ECE65C460546E9E60000D7
:100E700013B502AC002344F8043D02460B46034878
:100E80002146FFF7C5FE02B010BD00BF290B0000D0
:100E90000FB407B504A951F8040B0191FFF7E8FF5F
:100EA00003B05DF804EB04B0704700000CB430B53B
:100EB00085B008AB044653F8042B0190029100253D
:100EC00001A9074800930395FFF7A2FE0398029B30
:100ED0009842B8BF255405B0BDE8304002B0704715
:100EE000D90B00007047000010B54FF02003EFF35E
:100EF000118483F3118800F02FF8084A0123C2F807
:100F000040354FF08042C2F87835054B4FF0FF3244
:100F10009A62DA6284F31188002010BD00E001407B
:100F200000ED00E020B1034B800143F001031847BE
:100F3000704700BF10160100054B1B68082B01BF4E
:100F4000044B1868B0FA80F0400918BF00207047C1
:100F5000300100103401001008B54FF0804300222A
:100F6000C3F80C21C3F81021C3F838254FF0805284
:100F700003F54043D2F80414C3F82015D2F808143E
:100F8000C3F82415D2F80C14C3F82815D2F810149D
:100F9000C3F82C15D2F81414C3F83015D2F818146D
:100FA000C3F83415D2F81C14C3F84015D2F8201435
:100FB000C3F84415D2F82414C3F84815D2F82814FD
:100FC000C3F84C15D2F82C14C3F85015D2F83014CD
:100FD000C3F85415D2F83414C3F86015D2F8381495
:100FE000C3F86415D2F83C14C3F86815D2F840145D
:100FF000C3F86C15D2F84424C3F87025FFF79CFFA2
:1010000010B1334B334A1A60FFF796FF18B1324BD9
:10101000FB22C3F81825FFF78FFF48B12F49304B4B
:101020000A681B6822F00F0203F00F0313430B60E2
:10103000FFF782FF18B12B4B4FF400721A604FF08C
:101040008043D3F80024D20744BF6FF00102C3F8F5
:1010500000244FF01023D3F80022002A03DBD3F83A
:101060000432002B2FDA204B0122C3F80425D3F8D9
:101070000024002AFBD04FF010221221C2F80012E7
:10108000D3F80024002AFBD04FF010231222C3F81B
:101090000422154B1A46D3F800140029FBD0002176
:1010A000C3F80415D2F80034002BFBD0BFF34F8FE8
:1010B0000E490F4BCA6802F4E0621343CB60BFF3E2
:1010C0004F8F00BFFDE70B4B0B4A1A6008BD00BFF6
:1010D0008C5600404881030000F00040E40E0040C0
:1010E000580200104096024000E0014000ED00E090
:1010F0000400FA05844700200090D0030047000058
:10110000044A91689368CB1A23F07F438342F9D352
:10111000704700BF10E000E0034B044A1B68B3FBBC
:10112000F2F35843FFF7ECBF8447002040420F0022
:1011300000F1804000F51C3001230360BFF36F8F86
:10114000BFF34F8F70470000064A10F0800F00F089
:101150000F0314BFD2F81005D2F81405D84000F0E0
:101160000100704700700240054B1B68082B01BF4F
:10117000044B1868B0FA80F0400918BF002070478F
:101180003001001034010010084B1B68082B09D1F6
:10119000074B1868012808D0022805D0C31E584202
:1011A00058417047002070470120704730010010FF
:1011B0003401001030B54C680D689C4208D2002103
:1011C0004160056093420BD1201C18BF012030BD47
:1011D000436005600868E41A18444C600860F1E751
:1011E000002030BD4B689A4228BF1A4610B50C68E3
:1011F00004604260981A0B684860134400300B602A
:1012000018BF012010BD4B689A4228BF1A4610B57E
:101210005AB10C68046042609B1A4B600B68101C4A
:1012200013440B6018BF012010BD1446F2E7000004
:10123000054B10F0800FA3F1900208BF134600F099
:101240000F0003EB00107047B801002010F0800F72
:1012500014BF0023102300F00F0018447047000053
:10126000024A00231360024A137070471C7C02403C
:101270004300002007B5084A00231370074A019372
:1012800002A81370012300F8043D054B1B68984722
:1012900003B05DF804FB00BF420000204C020020B8
:1012A0004802002070470000F8B54D680B4F95428A
:1012B00028BF154606460C462A460968384604F0FB
:1012C00017FA3760756060682368401B1D446060D2
:1012D0002560003018BF0120F8BD00BF5402002077
:1012E000F8B54C68944228BF144606460D468CB1AA
:1012F000094F09682246384604F0FAF937606B68EE
:1013000074601B1B6B602B682344201C2B6018BF70
:101310000120F8BD0460F2E75402002007B5002365
:101320008DF804300B4BD3F82025ADF80620D3F808
:10133000C034094A002B13680CBF4FF480714FF082
:1013400001210B431360054B01A81B68984703B0AC
:101350005DF804FB007002402401002048020020D8
:1013600013B5124C0122236802FA01F10B432360EA
:101370000F4B10F0800F1B680ED019400AD10623C6
:101380008DF804308DF806008DF80710094B01A880
:101390001B68984702B010BD1942FBD106238DF897
:1013A00004308DF806008DF80720EFE724010020B7
:1013B000B40000204802002008B5054B1A781046FA
:1013C000FFF744FFBDE8084001461046FFF7C8BFDD
:1013D0004C02002000B5084BBFF35B8F024653E878
:1013E000000F00EA020143E8001EBEF1000FF6D133
:1013F000BFF35B8F5DF804FBB400002008B5014625
:10140000FFF72EFFFFF714FF837B032B0AD108465B
:10141000FFF71CFF012303FA00F0C043BDE80840BA
:10142000FFF7D8BF0368002BF1D008BD8720FFF776
:10143000E5BF8620FFF7E2BF8520FFF7DFBF8420EE
:10144000FFF7DCBF8320FFF7D9BF8220FFF7D6BFAD
:101450008120FFF7D3BF000013B5FFF701FF0D4B4D
:1014600093F88E20032A12D0D3F880407CB96FF015
:101470008070FFF7AFFF06238DF8043008238DF846
:101480000630054B8DF807401B6801A8984702B04D
:1014900010BD00BF280100204802002008B5FFF75A
:1014A000DFFE084B93F89E20032A05D16FF0010060
:1014B000BDE80840FFF78EBFD3F89030002BF5D081
:1014C00008BD00BF2801002013B5FFF7C9FE104B6F
:1014D00093F81E21032A05D16FF48070FFF77AFF7D
:1014E00002B010BDD3F81041002CF9D16FF4807018
:1014F000FFF770FF06238DF8043088238DF806303F
:10150000044B8DF807401B6801A89847E8E700BF27
:101510002801002048020020204B13B5D3F80044D6
:10152000C3F80044BFF36F8FBFF34F8FBFF36F8FCC
:10153000BFF34F8FE1050BD5194B01221A7002A89A
:1015400000230193022300F8043D164B1B689847C3
:10155000A2050AD5124A002302A80193137003239F
:1015600000F8043D0F4B1B689847630513D50C4BDF
:101570001A7882B100221A70084B0121C3F80815AD
:101580005820FFF7D5FD02A80423019200F8043D7E
:10159000044B1B68984702B010BD00BF00700240AA
:1015A00042000020480200202DE9F04F774B87B021
:1015B0001A780193002A40F08580DFF8D8B1744B87
:1015C0001868744B1D6828407CD010F001257CD031
:1015D00095FAA5F5B5FA85F50F2D86BFA5F110048E
:1015E000E4B245F080042046FFF722FE4FFA84FA69
:1015F000BAF1000F0646828904F00F086ADA036820
:10160000416804A8984700B93060634B82221A6091
:10161000019B059A049901201870A840B368DBF873
:101620000050134425EA000004F00F04BAF1000F43
:10163000B360CBF80000594BE4B27CDA072C9BBFB7
:10164000142000FB0434C3F8A016C4F800168CBFA5
:10165000C3F8A426C4F80426FFF786FD504D514E6A
:10166000002879D0BAF1000F5FFA88F8B5BF2A4692
:101670003246042428244C4D4C4E04EB88040027A9
:1016800002EB48082F60BFF36F8FBFF34F8F2046E8
:10169000FFF74EFD0220FFF73FFD2B68002BF1D036
:1016A0001E20FFF739FD33689B0653D50120FFF755
:1016B00033FDB8F8003003F1804303F51C331B6899
:1016C000002BDFD007B0BDE8F08F90FAA0F0B0FAA1
:1016D00080F581E75FFA88F3072B304926D9D1F8E6
:1016E000C09419F4803F18BF4FF000094B46716851
:1016F000376804A8B847049B002B84D0059B4B4552
:1017000081D201204FF00208A84086F80E80C04325
:10171000FFF760FE06238DF80C30254B8DF80E4048
:101720008DF80F801B6803A8984748E703F594736A
:1017300051F82390DAE7072C9BBF142000FB0434F8
:10174000C3F8A017C4F800178CBFC3F8A427C4F8C7
:10175000042781E70220A4E7BAF1000FB4BF0420F8
:1017600028205FFA88F815EA2A0A38BFB24600EB4B
:101770008800FFF7DDFC3AF8183003F1804303F5E9
:101780001C331A68002AFCD09CE700BF43000020ED
:10179000B4000020240100201C7C024000700240A4
:1017A0005416010070160100047102407474024066
:1017B0004802002038B5174BD3F86C44C3F86C448A
:1017C000BFF36F8FBFF34F8FFFF7CEFC38B1124AD4
:1017D000136823F0011103F001130C43136001257A
:1017E0001CB9BDE83840FFF7DFBE94FAA4F3B3FAA2
:1017F00083F30F2BD9B2C8BFA1F1100005FA03F390
:10180000CCBFC0B241F0800024EA0304FFF7A8FD7A
:10181000E6E700BF007002405002002037B50446E2
:10182000FFF71EFDFFF704FD837B032B0CD1204641
:10183000FFF70CFD012303FA00F0C043FFF7CAFDD8
:10184000FFF7B2FE03B030BD0568002DF8D1204689
:10185000FFF7FCFC012303FA00F0C043FFF7BAFDD9
:1018600006238DF80430044B8DF806408DF80750A0
:101870001B6801A89847E3E7480200200720FFF70C
:10188000CDBF0620FFF7CABF0520FFF7C7BF042062
:10189000FFF7C4BF0320FFF7C1BF0220FFF7BEBFA1
:1018A0000120FFF7BBBF000038B5494B4FF4006281
:1018B000C3F80024BFF36F8FBFF34F8FFFF764FCB3
:1018C000444988B14FF02003EFF3118483F311886A
:1018D0000868414B0322002870D149F27530086036
:1018E0001A60086084F311884FF02003EFF311842D
:1018F00083F311880868394AC023002860D149F26F
:10190000753008601360086084F31188304B012043
:10191000C3F80005BFF36F8FBFF34F8FD3F80004F8
:101920000005FBD54FF40060C3F80004BFF36F8FD0
:10193000BFF34F8F4FF02003EFF3118483F311882F
:10194000086800283ED149F275330B6010600B60C7
:1019500084F31188224B40F2E3721A600433402270
:101960001A60BFF36F8FBFF34F8FA3F604030024F9
:101970008022C3F81C25C3F830451A4B40F2FF12F1
:101980001A60194B1C60FFF76BFC184B1C70184B4E
:1019900002221A70FFF7F8FB78B14FF02003EFF343
:1019A000118583F3118808680B4B70B949F27532C1
:1019B0000A6018600A6085F3118838BD1A6091E7E3
:1019C0001360A1E700231360C2E71C60F3E700BFC8
:1019D0000070024000EC064014ED064014EC064096
:1019E0000078024024010020B40000204C020020B6
:1019F000440000200E4B002210B51A70A8B9FFF762
:101A0000B3FB0C4A0C4B002814BF184610460B4C75
:101A1000C4F80403272003F043FC0123C4F8043571
:101A2000BFF36F8FBFF34F8F10BD0348EFE700BFC9
:101A3000420000200714C0010714E00100700240BA
:101A400008B5FFF7F5FB818108BD00001A4B70B5A2
:101A50001C7874BB194A106001221A70264664F083
:101A60007F05082CEDB20CBF4FF4007140212846D1
:101A7000FFF7E6FF2846FFF7DBFB0134092C8673EE
:101A800006608660EBD100242546082CE6B214BF20
:101A900040214FF400713046FFF7D2FF3046FFF788
:101AA000C7FB0134092C857305608560EDD10448BE
:101AB00070BD044870BD00BF4400002048020020F3
:101AC0000000AD0B0500AD0B2DE9F0478046FFF798
:101AD000BDFB4FF02003EFF3118783F3118818F05B
:101AE0000F0903D1244B1B78434540D1234B244A93
:101AF0001B681568DB4301269BB286402B433342AB
:101B0000924636D14046FFF793FB18F0800F03460C
:101B10004FF00C0426D01B4A04FB09240A6802F08B
:101B20006042B2F1005F8A6817D1D00754BF164AED
:101B3000164A1A6007C984E8070000229A609A735F
:101B40005C60134B134835438022CAF80050C3F839
:101B5000042187F31188BDE8F087D20754BF0E4AED
:101B60000E4AE6E70E4A04FB09240E4AE1E70E4856
:101B7000EFE70E48EDE700BF4C02002024010020F3
:101B8000B4000020B8000020E5110000071200009A
:101B900000E100E00000AD0BA9120000E11200001E
:101BA00048000020B51100000A00AD0B0B00AD0B82
:101BB00008B5FFF73DFB4FF02002EFF3118382F3EE
:101BC000118882680A6002681AB9807B83F31188E1
:101BD00008BD0420FAE70000044B40F48070C3F80D
:101BE0001805BFF36F8FBFF34F8F7047007002402F
:101BF00000F00F03072B11D810F0800F084A0BBF1D
:101C000003F5887303F5847302EB830352F8230012
:101C100008BF5868431E584258417047002070471B
:101C20000070024010B508220021044603F08CFD2C
:101C30000E4BD3F880242270D3F884246270D3F83A
:101C40008824D3F88C1442EA01226280D3F89024CD
:101C5000D3F8941442EA0122A280D3F89824D3F84E
:101C60009C3442EA0323E38010BD00BF00700240B1
:101C700008B5FFF779FA58B1EFF3108272B64C202D
:101C8000FFF756FA4C20FFF753FA82F3108808BD8D
:101C90004C20BDE80840FFF74BBA000013B5FFF732
:101CA000DFFA0F4B9A7B032A05D16FF48030FFF7E0
:101CB00091FB02B010BD1C687CB96FF48030FFF757
:101CC00089FB06238DF80430064B8DF806408DF80D
:101CD00007401B6801A89847EBE7FFF7C9FFE8E753
:101CE00028010020480200205020FFF721BA54208C
:101CF000FFF71EBA014B1878704700BF4C02002056
:101D000070B50446FFF730FA1F49054604F00F028C
:101D1000D8B14FF02003EFF3118583F311882046EB
:101D2000FFF794FA012303FA00F00B6823EA00039B
:101D30000B605200154B02F2C5721A6000225A6005
:101D400004331B6885F3118870BD4FF02003EFF357
:101D5000118683F311882046FFF778FA012303FAEE
:101D600000F00B68D2B223EA0003072A0B6008D800
:101D700002F59472064B43F82250BFF36F8FBFF306
:101D80004F8F86F3118870BD240100200078024037
:101D9000007002402DE9F74301464FF02003EFF3B6
:101DA000118583F31188FFF743FA11F0800F044681
:101DB000304E1CD108463268FFF748FA012303FA77
:101DC00000F030EA020309D00846FFF799FF032329
:101DD000A37385F3118803B0BDE8F083C0430240CC
:101DE00023603260244A136818401060EFE701F066
:101DF0000F02072A0FD880292048214B31D002F248
:101E0000DA32520002601A681868D2B242F0020256
:101E100002431A601B68DFF860803768D8F800203A
:101E2000084667EA0209FFF711FA012303FA00F0F6
:101E300019EA000FCDD027EA00070023376023609E
:101E40000323A3738DF807300E4B8DF80610104353
:101E50000622C8F800008DF804201B6801A89847E6
:101E6000B7E740F2B47202601A681868D2B242F062
:101E70000402CDE7B40000202401002000780240D5
:101E80000478024048020020F7B5164B164CD3F8F0
:101E900080542368154EDA43154B37781B6892B28D
:101EA00038461A43FFF7D2F9012303FA00F0104233
:101EB00002D03846FFF76EFF05F080056FF0011085
:101EC0003570FFF787FA236843F00103236002A807
:101ED00000230193052300F8043D064B1B68984737
:101EE00003B0F0BD00700240240100204C0200202D
:101EF000B400002048020020554B2DE9F041D3F8F2
:101F00000453002229461646012400297CD1FFF7FC
:101F10002BF9002869D04F4B1B78002B65D1960216
:101F200063D54D494C4E40F2A9730B604B4B1C6876
:101F300014F0FF041CBF1868044040F2AA70086047
:101F4000186810F0FF001CBF1968084040F2AB7120
:101F50003160196811F0FF01B6461CBF1E683140A0
:101F600040F2AC76CEF800601E6834403C4E08D09B
:101F700037682743376040F2A977CEF800701C60BD
:101F80001C68354F40F2AD743C601C68204008D09E
:101F9000346844EA0044346040F2AA743C6018603B
:101FA00018682D4840F2AE740460186801400DD0E6
:101FB000CC0748BF42F40002C806274840F2AB7481
:101FC000046019601B6848BF42F00102336833F0B7
:101FD00001111CBF05F08070024313F0011F04D0F3
:101FE0006B0544BF316042F480621E4F02F400066C
:101FF00022F400044FF00108E4B9FFF7D5FA2EB33C
:10200000BDE8F041FFF740BF91FAA1F31648B3FADB
:1020100083F39F00384407683FB10660BFF36F8FBA
:10202000BFF34F8F04FA03F0024304FA03F321EAEB
:1020300003016AE794FAA4F5B5FA85F557F8253057
:1020400008FA05F5984724EA0504D5E7BDE8F081CC
:1020500000700240430000200078024004780240F3
:10206000500200208416010000710240F8B5114EA4
:10207000114A34681268240C2404144301271CB943
:1020800040F2FF133360F8BD94FAA4F5B5FA85F574
:10209000E8B20F2DC6BF1038C0B240F0800000F08B
:1020A0000F03072B01D8FFF775FE07FA05F524EAA1
:1020B0000504E4E724010020B400002010B5272027
:1020C00003F012F980B1094CFFF7D0FF0023C4F8E8
:1020D0000435BFF36F8FBFF34F8F272003F0F0F865
:1020E0004FF0FF33C4F8083310BD00BF007002404A
:1020F00008B5FFF7E3FF094BD3F80423C3F808231F
:102100000022C3F80025BFF36F8FBFF34F8FFFF797
:10211000A7F8034B01221A7008BD00BF00700240EF
:1021200044000020F8B5214A214B224D47B213EA62
:10213000270338BF134600F00F0401211B5D01FA8D
:1021400003F3C5F804330646FEF7FEFF68BB002F15
:10215000B4BFD5F81035D5F8143501FA04F1B5BF80
:1021600019431943C5F81015C5F81415BFF36F8F3F
:10217000BFF34F8F013C062C17D8002F15DB4FF013
:102180002003EFF3118483F311883046FFF7B8FD85
:102190003046FFF75BF8084A012303FA00F01368A2
:1021A00023EA0003136084F31188F8BD661601006A
:1021B0004B16010000700240B4000020030610B569
:1021C00004460AD400F00F03072B06D89B00074AE9
:1021D000D358012B01D1FFF793FD054BC3F81845E8
:1021E000BFF36F8FBFF34F8F10BD00BF4474024029
:1021F000007002400023436003607047036823B906
:102200000160002341600B60704743681960F8E784
:102210000068704703680BB11A680260184670477F
:102220000020704707B502A9002241F8042D0A4892
:102230000DF0AAFE10B100F0C1FA0190019840B172
:102240000123002243604FF0000362F30003028188
:10225000037203B05DF804FB3C03002002F064BE8F
:1022600030B50C4D0C4987B000240E2303934FF476
:1022700040720A4B059404940294019400942846F9
:102280000EF0AEFC284606490EF078FC204607B05A
:1022900030BD00BFC80200208827002005260000AE
:1022A000E816010008B500F071FA0948FFF7A2FF2F
:1022B00004232822074808490DF054FE074B084A1A
:1022C0001A604FF40040BDE8084000F055BE00BF62
:1022D000A4020020AC020020E8260020884700204D
:1022E0005D220000F8B50F4BBFF35B8F002553E86C
:1022F000007F43E80052002AF9D1BFF35B8F0A4CFC
:102300000A4E361B3609B54200DBF8BD63685B79BF
:102310002BB123685B6813B13946204698470135D5
:102320001034F0E79C020020DC140100EC140100E2
:102330002DE9F8432D4B0746187888B34FF020035A
:10234000EFF3118483F311882948FFF763FF0546F3
:1023500084F31188C0B1BFF35B8F264B53E8002F85
:10236000013A43E800210029F8D1BFF35B8F87BB16
:10237000214C224EDFF88C90361B3609B846B0450A
:1023800010DB284600F096FA27B91D4B1B680BB1ED
:10239000FFF7A8FF1648FFF73BFF003018BF0120EA
:1023A000BDE8F88363685B797BB16B89AA7AC3F374
:1023B000891309EBC303197902F00703994204D387
:1023C000236829461B682046984708F10108103405
:1023D000D5E70B4BBFF35B8F53E8002F013243E887
:1023E00000210029F8D1BFF35B8FCAE794020020D7
:1023F000A402002098020020DC140100EC1401006B
:102400009C0200203C140100184B70B51B684181F0
:1024100005469847164CE860BFF35B8F54E8003FD1
:10242000013344E80032002AF8D1BFF35B8F4FF04C
:102430002003EFF3118683F311880E482946FFF736
:10244000DDFE86F311880C4B1B7823B10020BDE81C
:102450007040FFF76DBF23680A2B06D1074B186841
:1024600018B1BDE870400EF0B3BA70BD88470020C7
:1024700098020020A402002034030020380300202A
:1024800070B504460E461546FFF7CCFE58B1046100
:10249000447A4661012262F3071444722946BDE87A
:1024A0007040FFF7B1BF70BD2DE9F0410546884689
:1024B00017461E46FFF7B6FE68B10561457AC0F8BB
:1024C0001480022363F30715457287613146BDE826
:1024D000F041FFF799BFBDE8F0812DE9F8430546CB
:1024E000894690461F46BDF82060FFF79BFE78B1F5
:1024F0000561457AC0F81490032363F3071545720C
:10250000C0F81880C7613146BDE8F843FFF77CBFCB
:10251000BDE8F88310B51C4600F0E5F920B121466E
:10252000BDE81040FFF770BF10BD0000F8B50D4FBB
:102530003D7865B90C4C0D4E361B3609B54207DBAC
:1025400001233B700020FFF7F3FE0028FAD1F8BD0D
:1025500063685B791BB1236820469B689847013507
:102560001034EBE734030020DC140100EC1401000C
:10257000044A054B9B1AB1EBD30F34BF52F831001C
:10258000002070473C140100DC140100064B426837
:10259000C31A1B1101331371426801231160537177
:1025A000024A1370704700BFDC140100940200203F
:1025B00070B5114BBFF35B8F53E8005F6A1C43E8B3
:1025C00000210029F8D1BFF35B8F2DB90B4C0C4EC5
:1025D000361B3609B54200DB70BD237B43B123684F
:1025E000DB6803B19847042200212046FFF7CEFFA5
:1025F00001351034EEE700BFA0020020DC1401001A
:10260000EC14010008B5FFF7D3FF0EF007FA094AF2
:10261000106028B1084B1B68092B01DD0EF0D8F9BA
:102620000020FFF785FE0028FAD14FF47A700EF0F3
:102630008FF9F5E7380300209802002037B50546EA
:10264000002201A910480DF09FFC0446D0B90122D8
:10265000019BBFF35B8F53E8001F43E80020002875
:10266000F9D1BFF35B8F01981F222946043002F095
:10267000DDFF01987E2380F8233080F82440043069
:1026800003B030BD0148FBE7AC020020F0160100AA
:10269000054B984205D3783398428CBF0020012027
:1026A00070470020704700BFEC26002007B50438B3
:1026B0000190BFF35B8F50E8003F5A1E40E80021B5
:1026C0000029F8D1BFF35B8F012B03D101A9034887
:1026D0000DF082FC03B05DF804FB00BFAC020020EB
:1026E0002DE9F8431C4603899DF82070C3F3CC0301
:1026F000A3420E4603D800231360BDE8F883116897
:1027000021448B423CBF191B11600C2BD2F8008076
:1027100017D9072CD0F814901AD81830082343453D
:1027200028BF43461D4620441A4677B1314602F081
:10273000DFFFA8EB05082E44B8F1000F0FD1BDE86C
:10274000F88314304FF00009E9E701463046EEE720
:10275000083C1B2CF0D9D9F800901C3CF9E7C4F1D7
:102760001C05454528BF4546201D2A4657B1314620
:10277000484402F0BDFFA8EB0508D9F800902E44AC
:102780000024D9E709EB00013046F2E720231A467E
:10279000014902480DF0E6BB882A00203C030020D6
:1027A0000430BFF35B8F50E8003F013340E8003254
:1027B000002AF8D1BFF35B8F7047000073B502ACFD
:1027C000002344F8043D084E0120FFF7B1FD00222C
:1027D0000546214630460DF0D7FB08B1002DF3D158
:1027E000019802B070BD00BF3C03002007B502A9EC
:1027F000002241F8042D05480DF0C6FB10B1FFF78B
:10280000DDFF0190019803B05DF804FB3C0300205C
:10281000407A00097047437A1B098B4216D9032B73
:1028200003DC00EB810148697047012903D800EB04
:1028300081018869704743690239062903D803EB8F
:1028400081014868704707391B68F6E70020704728
:102850007FB5047A019014F0010410D0019B1A7A1C
:10286000920706D504AC5B6944F8043D104D039B08
:10287000BBB901A90E480DF0AFFB04B070BD437A9F
:102880001D09EBD0A542E9D921460198FFF7C3FF06
:102890000646FFF7FDFE10B13046FFF707FF013493
:1028A000F0E71E68214628460DF096FB0396DEE70A
:1028B0003C03002000B50346021DBFF35B8F52E8C6
:1028C000001F013942E8001EBEF1000FF7D1BFF32F
:1028D0005B8F5B681BB95DF804EBFFF7B9BF5DF870
:1028E00004FB006970472DE9F74F0D4600909046B4
:1028F000FFF77CFF044668B300264FF0000266F342
:10290000071201234272A8F1020A022200F1140BFD
:102910004360027246615946D146BAF1000F0FDC9E
:10292000009B2361637AB8F1030F68F307136372A6
:102930001AD84FEA88022946584602F0D9FE09E023
:102940000191FFF753FF0199074638B92046FFF779
:102950007FFF3C46204603B0BDE8F08F0860AAF137
:10296000070A06600146D8E72946082204F1180044
:10297000D4F8148002F0BCFE4E460835072E3746C8
:1029800028BF07274FEA8709294608F104004A466D
:1029900002F0AEFEF61B4D44D8F80080EED1D9E728
:1029A00013B500240094FFF79BFE02B010BD000099
:1029B0000EB403B503AB014653F8042B044801934E
:1029C00002F064FF02B05DF804EB03B0704700BF93
:1029D000B32C00002DE9F0478EB00EAF81460D46B6
:1029E000FFF77FFF06464846FFF712FF83000E33CE
:1029F00023F00703ADEB030D82460EAC4FF0000849
:102A0000D04516D14846FFF703FF0F281ED8DFE850
:102A100010F01900200026002D00360041004E0065
:102A20005D006E0081009600AD00C600E100FE0072
:102A30001D0141464846FFF7EEFE44F8280008F124
:102A40000108DDE731462846FFF7B2FFBD46BDE885
:102A5000F087226831462846FFF7AAFFF6E794E898
:102A60000C0031462846FFF7A3FFEFE7A368009369
:102A700094E80C0031462846FFF79AFFE6E7E36842
:102A80000193A368009394E80C0031462846FFF7B1
:102A90008FFFDBE723690293E3680193A368009348
:102AA00094E80C0031462846FFF782FFCEE76369C1
:102AB000039323690293E3680193A368009394E866
:102AC0000C0031462846FFF773FFBFE7A369049364
:102AD0006369039323690293E3680193A3680093F6
:102AE00094E80C0031462846FFF762FFAEE7E36941
:102AF0000593A36904936369039323690293E368CD
:102B00000193A368009394E80C0031462846FFF730
:102B10004FFF9BE7236A0693E3690593A369049338
:102B20006369039323690293E3680193A3680093A5
:102B300094E80C0031462846FFF73AFF86E7636ABF
:102B40000793236A0693E3690593A3690493636972
:102B5000039323690293E3680193A368009394E8C5
:102B60000C0031462846FFF723FF6FE7A36A08935E
:102B7000636A0793236A0693E3690593A369049341
:102B80006369039323690293E3680193A368009345
:102B900094E80C0031462846FFF70AFF56E7E36A3F
:102BA0000993A36A0893636A0793236A0693E36908
:102BB0000593A36904936369039323690293E3680C
:102BC0000193A368009394E80C0031462846FFF770
:102BD000EFFE3BE7236B0A93E36A0993A36A08932A
:102BE000636A0793236A0693E3690593A3690493D1
:102BF0006369039323690293E3680193A3680093D5
:102C000094E80C0031462846FFF7D2FE1EE7636BBE
:102C10000B93236B0A93E36A0993A36A0893636A8D
:102C20000793236A0693E3690593A3690493636991
:102C3000039323690293E3680193A368009394E8E4
:102C40000C0031462846FFF7B3FEFFE6A36B0C935A
:102C5000636B0B93236B0A93E36A0993A36A08934C
:102C6000636A0793236A0693E3690593A369049350
:102C70006369039323690293E3680193A368009354
:102C800094E80C0031462846FFF792FEDEE64368E2
:102C900070B51C68054600266A68A8682B685268EB
:102CA000214630449847241A0644F5D16B681C60CD
:102CB00070BD08B54B688A681B68D0544A681368B1
:102CC00001331360CA68934202D10846FFF7DFFF61
:102CD000002008BD2DE9F04F0B7A03F00503052B0A
:102CE00089B004460D46164600F0918012F00207A6
:102CF00002F0010902F0080807D016F0440FCA6874
:102D000059D18B49FFF754FE0746B9F1000F0AD09D
:102D1000AB7A884A03F0070352F823201AB1864998
:102D20002046FFF745FEAB7AB5F80A90C3F3C20A16
:102D3000C9F38919B8F1000F09D003F007037F4ADE
:102D40007F4952F823202046FFF732FE804649464D
:102D50005046FFF70DFC7B4902462046FFF728FE50
:102D6000804447442B7AD90753D421462846FFF79D
:102D700031FE2B7A03F00503052B16D0F1070BD596
:102D8000AB7A6C4A03F0070352F8233023B16E4A42
:102D900069492046FFF70CFEF20606D4B3064CBF85
:102DA0006A496B492046FFF703FE2046FFF76FFF95
:102DB00009B0BDE8F08F674B1F68002FA5D0664BA8
:102DC0004FF4616C1968B2FBF1F14FF47A7EB1FBFC
:102DD000F7F3B3FBFCF20CFB123C07FB13130EFBE7
:102DE00003F14FF03C0AB1FBF7FB07FB1B110EFB95
:102DF00001F1BCFBFAF3B1FBF7F70AFB13C1009139
:102E00000297CDF804B05549FFF7D2FD7CE70027C3
:102E1000A8E703F00503052B0DF1180823D10027BF
:102E2000B946E368069342464B46A1682846FFF739
:102E3000B7FD069A63681A603AB1A368134413F8A1
:102E4000017CA7F10A02574257412046FFF71FFFB6
:102E5000069B9944002BE4D1002F8AD0404920469C
:102E6000FFF7A6FD85E72846FFF73BFD3249DFF86F
:102E700004A102462046FFF79BFD4FF0000908AA77
:102E8000082342F80C3D41464B462846FFF788FD93
:102E9000059B2BB9059B072B7FF66BAF9944EEE79B
:102EA000F30606D4B0064CBF284929492046FFF74F
:102EB0007FFD4FF0000B5F4529DC4FF0000B059BB9
:102EC0009B452BD218F80B2026492046FFF770FDB2
:102ED0000BF1010BBBF1080FF1D123492046FFF79D
:102EE00067FD4FF0000B059A93451CD218F80B2094
:102EF000A2F120015F2928BF2E221C492046FFF79E
:102F000057FD0BF1010BBBF1080FECD1C2E75146A5
:102F10002046FFF74DFD0BF1010BCCE7144920468D
:102F2000FFF746FDD4E751462046FFF741FDE8E7AD
:102F3000201701000C170100493501006817010036
:102F4000451701004B170100601701000116010031
:102F500000160100580300205C030020291701001F
:102F60004F170100511701005B1701005D170100A9
:102F70005717010059170100084A10B50123084CE2
:102F800013600021A04204D801B11360054B186002
:102F900010BD40085B000121F4E700BF5C03002086
:102FA00040420F0058030020F8B50D46164604466F
:102FB0004718BC4201D12846F8BD736814F8011BBC
:102FC0005B6830469847F4E77047000008B503484F
:102FD0000CF0B6FE024B586008BD00BFAC170100F4
:102FE0006C03002010B508460C46FFF7D9FB2146BC
:102FF00004480F22FFF76EFE2046BDE81040FFF7A1
:1030000059BC00BFB4170100034B9B6903B11847BB
:103010006FF02200704700BF7803002013B5094C01
:1030200002ABE26843F8042DA168802001F092FD14
:103030000199A268E3680A445B1AA260E36002B0E7
:1030400010BD00BF7803002008B509480378C3F31A
:10305000411300EB83035B6A3BB100F1080200F10E
:1030600010019847C043C00F08BD184608BD00BFF7
:103070007803002037B500220B4601920546002850
:1030800053D12D4C39BB0822214601F057FE0028B0
:1030900004DA802001F0D0FC03B030BD2278E5884E
:1030A000C2F3411304EB8303586BA06010B901F025
:1030B000C3FCEEE7E56025610DB1D309ECD0FFF765
:1030C000C3FF0028E5D02369AB42D4BFE360E560CD
:1030D000FFF7A4FFE0E7E268002A01AB06DC024646
:1030E000A16801F02BFE0028D6DAD2E7A16801F032
:1030F00025FE002804DA802001F09EFC2846C9E75E
:103100000199A268E3680A445B1AA260E360002B9D
:10311000C2D12378C3F3411304EB83035B6BA36039
:10312000FFF792FF0028B4D0D2E78028B4D1024B39
:10313000DB68002BB0D0CBE77803002000B5014658
:1031400000F10803BFF35B8F53E8002F42F001004A
:1031500043E8000EBEF1000FF6D1BFF35B8FD3073B
:1031600004D403485DF804EB0DF032B95DF804FBBC
:103170005C2600202DE9F34150F8303C10F8345C17
:103180001033044610D1C3689A073DD550F8282C57
:10319000FAB913F0040304D11A461946284601F07F
:1031A000D9FC002344F8303C54F8303C10330DD0A7
:1031B00054F8206C56B154F8247C54F81C8C0DF053
:1031C000C3FC00284DD02046FFF7B8FF02B0BDE891
:1031D000F08150F82C1C01AB284601F0BBFC10B16B
:1031E0006FF01503DEE7019A54F82C3C134444F8C1
:1031F0002C3C54F8283C9B1A44F8283C54F8243CB6
:10320000134444F8243CCFE750F8282C50F82C1CE9
:1032100001AB284601F018FD0028E1D1019E54F8C9
:103220002C3C334444F82C3C54F8283C9B1B44F879
:10323000283C54F8243C334444F8243C002EB0D0BD
:10324000284601F0A3FDB6FBF0F303FB1060002855
:10325000A7D154F8283C002BA3D0284601F03AFD12
:10326000A2E744F8200CA4F118000DF0E6FB42465A
:1032700039462846B047A9E72DE9F0438B4C6369EE
:1032800085B005460E46904663B92F7807F01F07B4
:10329000012F00F08C800BD3022F00F0D0806FF054
:1032A000150002E098470028EFD105B0BDE8F08393
:1032B0006A786888D8F80030092AF0D801A151F856
:1032C00022F000BFED320000FF3200009F3200000C
:1032D0009F3200009F320000F932000003330000EB
:1032E0009F320000313300003B3300000020187093
:1032F000587002233360D8E7C0B201F015FB0020FC
:10330000D3E7020A131F012BC9D9072AC7D8236A9A
:103310000021C0B21C78002CC1D05D78954203D149
:10332000884200F0BB8001312344F3E71B78BBE007
:1033300094F84D201A700123B6E0C6B28DF80660ED
:1033400056B1FF27256AB8462B7843B9E3691BB10C
:103350000DF106010320984784F84D60CFE76B78A4
:10336000042B08D0052B08D0022B01D195F805803D
:103370002B781D44E8E7EF78FAE79DF806304345DF
:10338000F6D1002FF4D1EB788DF80C306A792B79D7
:1033900043EA0223ADF80A30AB788DF8083002A872
:1033A00001F012FB9DF8080001F0B6FBE0E7687839
:1033B000D8F800300A2805D00B2807D000287FF461
:1033C0006EAF94E70020187037606EE7AB8895F811
:1033D0000290256A8DF80730FF27B8462B7843B94D
:1033E000E3691BB10DF10701072098470020306009
:1033F0005BE76B78042B04D0052B06D02B781D449B
:10340000ECE7EF7895F80280F8E79DF80730434540
:10341000F4D1B945F2D1EB788DF80C306A792B797B
:1034200043EA0223ADF80A30AB788DF8083002A8E1
:1034300001F0CAFA9DF8080001F06EFBDEE76B7838
:103440002879D8F800808DF80800012B18D00FD308
:10345000032B7FF424AF6B88002B7FF420AF01F0A7
:10346000EBFAE369002B3FF44AAF02A9082013E00E
:10347000414601F037FB002388F8013037603EE712
:103480006B88002B7FF40BAF01F014FBE369002B7A
:103490003FF435AF02A90920984730E7022AC8F85F
:1034A00000307FF443AF5B88336028E77803002067
:1034B00010B5D8B10F4B02681A620F4A5A6203F175
:1034C00044025A63026912B1C16999639A624269FE
:1034D00022B1016A094CDC62D9639A61826902B146
:1034E0005A61C06820B1D861002010BD6FF015008E
:1034F00010BD00BF780300207932000009300000C1
:103500002DE9F341314D95F84C400746002C4DD143
:10351000C06801F035FC002849DB01F0CDF9002836
:1035200045DB02AE402306F8084D3046ADF80230C8
:103530008DF8044001F048FA002838DB4FF080088D
:1035400030468DF8008001F03FFA00282FDB20493B
:10355000204601F003FC002829DB1D49404601F00C
:10356000FDFB002823DB97F824309C4222D3194C22
:10357000DFF8648004F5887700260122A661C4F88C
:103580001C8026622046114644340DF04DFABC42A0
:10359000F3D1002001F0C0FA002808DB802001F000
:1035A000BBFA002803DB012385F84C30002002B071
:1035B000BDE8F081BB6A03EBC40253F83410107904
:1035C00001F0CCFB0028F2DB0134CCE778030020CB
:1035D00075300000E40300207531000001F0BABA34
:1035E00001F0ACBB002070472DE9F04F8E498F4AA7
:1035F0008F4F0446521A8F4892108BB000FB02F393
:103600008D4A03930026BF1A4FF00113C7F3C90771
:103610000193B1463546B046049122784AB9874BAA
:10362000A01C984200F0FE80FFF7DEFF0BB0BDE863
:10363000F08F6278052A05D8DFE802F09D04039D2B
:103640001A07A04622781444E7E700214FF0010C46
:1036500095F82420914238DB4FF00002012363F3F8
:1036600002026FF3C50267F38F1275497548C0E017
:10367000E278002AE6D1A2782AB309F101095FFABB
:1036800089F9DFE7049B00FB023569688C4205D1AC
:10369000AA68002AF1D048469047EEE70132039B22
:1036A0009342EFD101224FF0000362F302036FF364
:1036B000C50367F38F13224661496348FEF7F4FEA2
:1036C0004FF0FF30B2E72C20E9E7AA6AA07802EBBE
:1036D000C10202921279904201D00131B8E74FF055
:1036E000010BE0788DF8240094F805E0207940EA99
:1036F0000E20ADF8220094F9020000285FFA8BF248
:103700002BDA0BF11000019B0CFA00F018422CD1BF
:1037100062F07F008DF8200008A8CDF81CC006924A
:10372000059101F00FF905A991E80610E8B99DF897
:103730002010029BA17011F0800F197118BF103278
:103740004FF0010115BF019B019B914001FA02F26C
:1037500014BF0B431343019374E7019B0CFA0BF066
:10376000184202D18DF82020D6E70BF1010BBBF1F6
:10377000100FB6D1B1E7032E2BD1FFF733FF8346ED
:10378000A0B101F073FF0290304801F06FFF029A80
:10379000824219D0012262F3020A6FF3C50A67F36D
:1037A0008F1A52462A492B48FEF76AFE20464FF0F0
:1037B000000E10F8022BD11E5208013A02440029D3
:1037C0001ADA0136F6B23DE75946A01C01F090FF27
:1037D000ECE7002EEAD1B8F1000F18D14FF000024B
:1037E000012363F3020268F3C50215491A4867F31F
:1037F0008F12FEF745FE63E700F801E0013A00EBA7
:10380000010C92F800B00CF801BC0239D7E7A4EB28
:10381000080288F80220C2F3072288F8032088F8FB
:103820000490CEE7104601E7944C0020C04C0020E5
:10383000C4140100A38B2EBA3C140100934C002049
:103840001D180100D7180100B31801003F1801002E
:10385000FA170100441801009218010008B50C483D
:10386000FFF7C2FE90B101234FF0000263F30202A2
:103870000849094B09485B1ADB086FF3C50263F37B
:103880008F120749FEF7FCFD002008BD004808BD67
:10389000F44B00203C140100C4140100F81801008E
:1038A000E0170100034B1B689B68012283F8A920E5
:1038B000704700BFD8040020044B1B6803289B6896
:1038C00008BF0122187008BF1A737047D80400207F
:1038D000044B987098760130C0B283F82500D876F2
:1038E000704700BF0F4C002010B58468D4F89400D6
:1038F000D4F890301B1A03F07F039A4228BF1A466F
:103900000020D4F894309042034403F07F0308D1A0
:10391000D4F89020C4F89430934204BF002363731A
:1039200010BD23441B7C0B540130EAE7836801225D
:103930009A731A7B12B15A68986810477047836867
:1039400000229A7370478368187B003018BF0120EB
:10395000704783680122DA735A7B12B15A689868FB
:103960001047704783680022DA7370478368587B7A
:10397000003018BF0120704783681A7B0AB19A7B18
:1039800032B9587B28B1D87B003018BF012070476E
:103990000120704701207047836859609A60704722
:1039A0000229836808D004290BD001290ED1D3F84D
:1039B000A03013600020704793F8A730C3F3400392
:1039C000F7E793F8A73003F00103F2E76FF0220066
:1039D00070476FF02200704710B50F4B14464278C5
:1039E0001B68212A9B680FD0222A09D0202A10D1D7
:1039F0000722216803F1A00001F07AFE002010BD2B
:103A0000428883F8A720F9E7A033236007230B60DF
:103A1000F4E76FF0150010BDD8040020084B0948EA
:103A20001B6810B59C68012323730DF006F86368CA
:103A30002BB1A27B1AB1A068BDE81040184710BD99
:103A4000D8040020DC0400202DE9F04F274B1B6830
:103A500085B000229C68114602AB8346FFF7C0FD8B
:103A6000234A244BD4F890509B1AC3F3C90A002769
:103A70000DF10C09029B9F420CD301236373636811
:103A8000C4F890501BB1E27B0AB1A068984705B01A
:103A9000BDE8F08F0023042249465846FFF7A0FDF9
:103AA000002601230299BA198A4216D06A1CD4F85A
:103AB000941002F07F028A4211D163F302086FF37F
:103AC000C5086AF38F1842460B490C480193FEF76C
:103AD000D7FC019B0136042EE4D10437CAE7254404
:103AE00019F8061029741546F4E700BFD804002021
:103AF0003C140100BC1401001B190100391901001C
:103B000013B583681C780020032C019007D118732B
:103B1000044801AB007DFFF761FD00B9019802B0D8
:103B200010BD00BF3848002038B51F4B1F4C18602F
:103B300083689833E361FFF791FE20602046FFF72A
:103B4000B7FC051E12DA01234FF0000263F30202F4
:103B50001749184B18485B1A6FF3C502DB08174961
:103B600063F38F12FEF78CFC284638BD2046FFF722
:103B7000C7FC051E0FDA01234FF0000263F30202B7
:103B80000B490C4B0E485B1A6FF3C502DB0863F35D
:103B90008F120A49E6E74FF0FF32002109480CF086
:103BA00043FF0025E0E700BFD8040020944C00202C
:103BB0003C140100BC140100A41901002C190100DF
:103BC000BD190100DC04002030B585B0A1238DF8BB
:103BD000043020238DF80530002380F8A9300546F5
:103BE0000E48ADF80C100222ADF80A2001A90A22F5
:103BF0000079ADF80630ADF80830FFF7EFFC084C5F
:103C000095F8A93013B1002005B030BD01200CF0AB
:103C1000B3FF013CF4D16FF00400F5E73848002011
:103C2000A1860100082908B5836807D0102914D09F
:103C300001291FD1C3F8A020002008BD93F8A810C7
:103C400001F0FE0132B983F8A81001218068FFF766
:103C5000BBFFF1E741F00101F5E793F8A81001F08F
:103C6000FD0122B983F8A81093F8A810EEE741F0FF
:103C70000201F7E76FF0120008BD000007B502ABC4
:103C8000012203F8011D1946FFF73AFF642103489A
:103C90000CF0FAFE03B05DF804FB00BFDC0400206A
:103CA00013B5114CBFF35B8F2068BFF35B8F60B916
:103CB0000E480CF045F8BFF35B8F54E8003F44E832
:103CC0000002002AF9D1BFF35B8F436804221B680E
:103CD0000DEB02019847002802DA01F025F9019066
:103CE000019802B010BD00BFF4040020E2190100E9
:103CF0000A2838B50446074D04D1286843680D21C9
:103D00005B68984728684368E1B25B68984720463B
:103D100038BD00BFF804002010B5044C204602F066
:103D200079F92046BDE81040FCF76CBFF13C00007B
:103D300008B504480CF004F8034B1860FFF7ECFFDB
:103D4000002008BDAC170100F804002010B54FF0AA
:103D50002003EFF3118283F31188114C237823B9E8
:103D600082F311886FF0440010BD013BDBB2237079
:103D700023B182F311886FF00F0010BD094B187842
:103D8000012128B1217082F311886FF00A0010BD63
:103D9000197082F31188044A1160187010BD00BFB9
:103DA000FE040020FD0400200400004008B50022AD
:103DB0001046012101F0A6FA002001F071FA00205E
:103DC00008BD0000F8B54FF02002EFF3118382F335
:103DD0001188264A1078441C147070B183F311883E
:103DE0004FF08043D3F80C3403F00113B3F1011FFB
:103DF0000CBF00206FF04300F8BD1D4D2F782FB190
:103E0000107083F311886FF00A00F8BD01262E7040
:103E100083F311884FF0804419B3384601F050FA0B
:103E2000C4F80071D4F80433C4F804632660D4F8ED
:103E3000002192B10022C4F800210E4A13F0010FB4
:103E40004FF0010308BFC4F808330020C2F88031E6
:103E500001F026FA00232B70C2E720BF40BF20BF2D
:103E6000E5E7C4F800112660F4E700BFFE04002077
:103E7000FD04002000E100E070B54FF02002EFF3F8
:103E8000118382F31188224D2A788AB183F3118835
:103E90004FF08042D2F81C34D2F8182403F0030308
:103EA00043F48033934314BF6FF04300002070BD90
:103EB00001242C7083F311884FF08043154EC3F812
:103EC00004210225C3F81815C3F8045311F00301A7
:103ED00034604FF01806C3F80863C3F80C21C3F828
:103EE0001021D5D11022C3F83825C3F80463D3F8C4
:103EF0001824D20302D4C3F80453C9E7C3F8044317
:103F0000FFF760FF0028C3D1034BC3F80041BFE7B0
:103F1000FC0400200800004000E100E02DE9F84327
:103F20004FF08043484DD3F80891D3F80423D3F8D9
:103F300000C18046D3F80403D3F804E1D3F80C1190
:103F4000D3F810412F68AE680435003402F0010246
:103F500018BF01242D68B9F1000F03D04FF00009FC
:103F6000C3F80891BCF1000F5FD04FF080434FF0D1
:103F7000000CC3F800C15AB14FF08043DFF8CCC049
:103F800001224FF00209C3F80823CCF800901A610F
:103F9000BEF1000F37D161B12C4B4FF080490021A9
:103FA00019604046C9F80C11FFF7D0FE0123C9F88B
:103FB000143074B14FF0804300210124C3F8101174
:103FC0004046C3F80443FFF7FDFE10B9204BC3F889
:103FD000004137B11C4B00221A604FF48E7000F084
:103FE0004FFC36B11B4B00221A604FF4927000F068
:103FF00047FC35B3184B00221A604FF49070BDE8AF
:10400000F84300F03DBC4FF080430022C3F8042188
:104010008207C0D50222C3F80823D3F81C349B07BB
:10402000B9D10029C6D00124B6E7002AB0D04FF09C
:104030008043D3F80C3403F00113B3F1011FA7D16F
:104040009AE7BDE8F88300BF1C010040340C004033
:1040500000E100E024010040200100404FF08043D7
:104060004FF4607220B1C3F80423002001F018B9A6
:10407000C3F8082370470000014601480CF0A8B9B6
:1040800078140020020600F00F0307D5072B0ED886
:104090000948242202FB03003C307047072B08D854
:1040A00003F10900044B242202FB0030F4E703482B
:1040B00070470348704700BF60140020BC15002003
:1040C0000017002013B500231822694609480BF099
:1040D000BFFF0028A3BF009B9DE8030003F10C0273
:1040E0000023A4BF82E8030000221846A8BF5A613B
:1040F00002B010BD5C4B002037B5054620480BF0E0
:104100001FFEA8B901214FF0000261F302021D4B0E
:104110001D495B1A60F3C502DB0863F38F121B496C
:104120001B48FEF7ADF96FF01204204603B030BD16
:10413000436815B31B680021984704460028F4D053
:1041400010F1440FF1D001234FF0000263F302029B
:104150000D490C4B5B1ADB086FF3C50263F38F123A
:10416000ADF800200B490C4A0346002D08BF0A4653
:104170000A480649FEF7B1F9D7E75B682946DBE74D
:104180000F1A0100D41401003C1401001A1A010096
:10419000791B0100A21B01009C1B0100A71B010051
:1041A00000B5014600F10803BFF35B8F53E8002F11
:1041B00042F0010043E8000EBEF1000FF6D1BFF35C
:1041C0005B8FD30704D403485DF804EB0CF000B90F
:1041D0005DF804FB5C2600200148FFF7E1BF00BF4B
:1041E0006C14002073B5817806460846FFF74AFF35
:1041F00011F0800F0546F4780BD0002C3BD1FFF76F
:1042000061FF03224560027285F82240FFF734FF08
:104210000AE074B1012C2ED1FFF754FF45600472FF
:10422000FFF72AFF85F8214002B0BDE87040FFF794
:10423000D3BFFFF747FF022345600372B378194AE3
:1042400013F0800F03F00F03DBB20AD0072B9BBFE4
:10425000142101FB0323D2F8A836D3F80836EB600B
:10426000D4E7072B9BBF142101FB0323D2F8A83707
:10427000D3F80837F3E701224FF0000362F302039B
:1042800009480A4A121AD2086FF3C50362F38F1362
:10429000ADF8003022460B4605480649FEF71DF9E9
:1042A00002B070BD007002403C140100D414010043
:1042B000D31C01007C1A0100F0B50378052B85B0F2
:1042C000064600F09080062B0AD0012B38D14F4AC9
:1042D000D371936843F002039360FFF77DFF2FE0F3
:1042E00081780846FFF7CEFE837A0546032B27D850
:1042F000DFE803F00275757511F0800FF47821D0B6
:104300004CB9FFF7DFFE03224560027285F82240B8
:10431000FFF7B2FEE1E701224FF0000362F3020370
:104320003B483C4A121AD2086FF3C50362F38F135D
:10433000ADF8003038480B4638492246FEF7CDF834
:1043400005B0F0BD44B1012C35D1FFF7BBFE85F8B7
:10435000214045600472DBE7FFF7B4FE02234560AD
:104360000372074605F10C01B078FDF721FC024607
:1043700080B101214FF0000361F302032448254975
:10438000091AC90864F3C50361F38F13244823494C
:10439000FEF78AF81D4AE968B2F8C4328B4206D9A2
:1043A0005B1AA2F8C432FDF763FC3846B0E700237D
:1043B000A2F8C432F9E701224FF0000362F30203CE
:1043C0001348144A121AD2086FF3C50362F38F130D
:1043D000ADF8003022460B4612481049AEE7304691
:1043E000FFF700FFACE702A8FDF71CFC9DF80930C1
:1043F000052B04D19DF8083013F0600FA0D0FFF713
:1044000061FE094A42600022027281E760140020C6
:104410003C140100D4140100821C0100631A010045
:10442000AE1C0100D31C0100E01500202DE9F04175
:104430000025DFF8A4812E4665F07F00C0B2FFF7AB
:1044400021FE07690446F7B900F110013B464022FE
:1044500040460BF0FDFD002815DA01224FF0000365
:1044600062F302035649574A5748521AD20867F373
:10447000C503564962F38F132A46FEF715F86FF00D
:104480000B00BDE8F0812369A361E36101231D44B2
:10449000082D84F82030E66084F8216084F82260DA
:1044A000CAD10025DFF830812E46E8B2FFF7EAFDD9
:1044B00007690446CFB900F110013B46402240464F
:1044C0000BF0C6FD002810DA01224FF0000362F362
:1044D00002033B493B4A3E48521AD20867F3C503E0
:1044E00062F38F1339492A46C7E701273D44236900
:1044F00084F82070082D84F82160A361E361E660F0
:1045000084F82260D1D13349D1F86C510C46D5B929
:104510002B464FF4806201F5B6712F480BF098FDE1
:10452000002810DA2649274B2C484FF000025B1A6E
:1045300067F3020265F3C502DB08244963F38F12B7
:10454000FDF79EFF9BE7D4F86C31D4F8B052C4F865
:104550007431C4F878310126002384F87C61C4F8F2
:10456000683184F87D3184F87E31BDB92B464FF433
:1045700080621B4918480BF06BFD00280EDA1049C9
:10458000104B18484FF000025B1A66F3020265F305
:10459000C502DB0863F38F120C49D1E7D4F8B032BF
:1045A000C4F8B8320020C4F8BC32012384F8C03209
:1045B000C4F8AC0284F8C10284F8C202BDE8F081FC
:1045C0003C140100D4140100E11A01002A1A010070
:1045D000071B010060140020404B00202E1B01002F
:1045E00010170020531B01002DE9F04F50F8043C38
:1045F00085B004469BB3DA0712D510F8062C012AC1
:104600003CD065D3022A3CD054F8043C13B1204678
:10461000FFF7C6FD54F8043C23F0010344F8043CC2
:1046200054F8043C9B071AD514F8053C012B09D11A
:104630004FF0FF3187480BF0D1FDFFF7F7FE8548BB
:104640000BF030FE54F80C3C1BB1002114F8050CA3
:10465000984754F8043C23F0020344F8043C7E4B92
:104660007E4DED1AC5F3C90500217D480BF0D4FE3F
:10467000064600283BD105B0BDE8F08FFDF714F9E0
:10468000C2E743F0020300F8052C40F8043C002583
:1046900065F07F00C0B2FFF7F5FC037A13B1407AF2
:1046A000FDF740FD0135092DF2D10025E8B2FFF7F5
:1046B000E9FC037A13B1407AFDF734FD0135092D89
:1046C000F4D10120FDF796F9012304F8073C9BE79C
:1046D000002300F8073CFDF70BFD042304F8053C1C
:1046E00054F8043C43F0020344F8043C8CE714F80B
:1046F000083C327A83B9012161F3020763F3C507ED
:1047000065F38F173B4657495748FDF7CDFE06F135
:104710000C000BF035FDA7E7D6F804A0032AF6D865
:10472000DFE802F002477D84DAF8189008220021C1
:10473000484601F009F84D4AD2F8801489F8001073
:10474000D2F8841489F80110D2F88814D2F88C04B5
:1047500041EA0021A9F80210D2F89014D2F894048A
:1047600041EA0021A9F80410D2F89814D2F89C2448
:1047700041EA0222A9F806200822CAF80C200021EA
:10478000DAF800209AF80900904799F90030002BD8
:10479000374B0ADBB9F8061039B1B3F8C422521A04
:1047A000A3F8C422FDF764FAB1E70022A3F8C422FB
:1047B000ADE79AF82120002AA9D09AF82020002AF3
:1047C000A5D04FF0000B04F11C098AF821B04FF07E
:1047D000FF318AF820B048460BF000FDDAF81810D7
:1047E0000191DAF80410CDF80CB002919AF80900A2
:1047F00001A9FDF769F91F4B98420CD0012363F31F
:1048000002086BF3C50865F38F18024643461A4940
:104810001A48FDF749FE48460BF044FD77E7DAF801
:10482000002001219AF80900904770E79AF80A20C1
:104830005AB904F11C094FF0FF3148460BF0CEFC89
:10484000FDF752FA48460BF02DFDDAF80020022160
:10485000E8E700BF881400203C140100D4140100D4
:1048600078140020511A0100021D0100007002405E
:10487000601400200000AD0B371A01002D1D01004F
:10488000B0F5907F12D0B0F5927F0DD0B0F58E7F4D
:104890000ED101220748074B9A71836843F0010348
:1048A00083600C30FFF77CBC0222F3E70022F1E7C3
:1048B000704700BF6014002038B5174C257935BB10
:1048C000164B236104F11800E56065610BF078FD7B
:1048D00004F128000BF07CFC27202A46012100F07F
:1048E00011FD0120FFF708FC10B110F1440F12D1A7
:1048F0000B48FDF7ABF80B4B98420AD10120FFF7AC
:10490000ADFBFFF793FD30B90123237138BD0020C3
:1049100038BD6FF0040038BD60140020E945000088
:10492000B94200000000AD0B054B1A792AB15A7943
:104930001AB105229A71002070476FF0120070477B
:104940006014002008B50179037803F00F03A1B9C2
:104950006BB301234FF0000263F3020261F3C5025F
:10496000144B154915485B1ADB08154963F38F1280
:10497000FDF786FD4FF0FF3008BD082B0FD901234E
:104980004FF0000263F302020B490A4B0D485B1A19
:104990006FF3C502DB0863F38F120949E8E70129C9
:1049A00005D1B3F1080018BF4FF0FF3008BD00205B
:1049B00008BD00BFD41401003C140100C91B010054
:1049C000951A0100EC1B010038B5164B1B79014606
:1049D0002BB305782846FFF755FBC0B145720B791C
:1049E000498883724C1E0C40416013D001234FF064
:1049F000000263F302020C490C4B0D485B1A6FF383
:104A0000C502DB0863F38F120A49FDF739FD6FF029
:104A1000150402E02846FDF713F8204638BD6FF074
:104A20001204FAE7601400203C140100D4140100C1
:104A30000F1C0100A91A0100194B1A7910B5014683
:104A40005AB35B794BB3FFF71DFB044610B3837A6F
:104A5000032B05D8DFE803F0020D0909FDF747F93C
:104A60000020A369E060E36110BD0846FDF7B4F8DB
:104A7000F6E701234FF0000263F3020209490A4BF3
:104A80000A485B1A6FF3C502DB0863F38F1208490B
:104A9000FDF7F6FC6FF0150010BD6FF0120010BDB1
:104AA000601400203C140100D41401003C1C0100DF
:104AB000BD1A010008B50A4B1A7901464AB15B7963
:104AC0003BB1FFF7DFFA38B10846FDF777FB00206E
:104AD00008BD6FF0120008BD6FF0150008BD00BFE3
:104AE0006014002038B50B4B1A7905460C4652B1BC
:104AF0005B7943B1FFF7C6FA40B12846FDF778F875
:104B00002070002038BD6FF0120038BD6FF0150026
:104B100038BD00BF601400200D4938B50B7905463B
:104B20006BB1FFF7AFFA68B1047A74B9012303726D
:104B3000487960B12846FDF7F5FA204638BD6FF098
:104B4000120038BD6FF0150038BD6FF0440038BD5D
:104B5000601400202DE9F043344C9846237985B049
:104B6000064689461746002B59D06379002B56D04C
:104B7000030657D5FFF786FA0546002852D04FF0B6
:104B8000FF3104F128000BF029FB95F822304BB1DE
:104B900004F128000BF086FB6FF00A04204605B0F4
:104BA000BDE8F0833A464946A86900F0A1FDEF60F0
:104BB000B8F1000F01D0C8F80070AC7A4CB9FDF71D
:104BC00099F8864205D0FDF78FF819480BF06AFB7B
:104BD000E4E7AB6901930127EB6885F822700024B4
:104BE00001A9304602930394FCF76EFF114B9842E3
:104BF0000246EAD01048114985F822404FF00003E0
:104C0000091A67F3020364F3C503C90861F38F133C
:104C10000B480C49FDF748FC6FF00404D5E76FF032
:104C20001204BBE76FF01504B8E700BF6014002062
:104C3000881400200000AD0B3C140100D4140100C6
:104C4000641C0100D11A01002DE9F0411D461F4BE3
:104C500090461A790F46002A30D05B7973B3030669
:104C600030D411B9B8F1000F2CD1FFF70BFA04467C
:104C700040B34FF0FF3116480BF0B0FAE3689845A7
:104C8000464628BF1E4657B9B8F1000F07D105B1F7
:104C90002B600F480BF006FB0020BDE8F081324688
:104CA000E169384600F024FDE3693344E361E368D9
:104CB0009B1BE360002DECD02E60EAE76FF0120042
:104CC000BDE8F0816FF01500BDE8F08160140020B0
:104CD0008814002038B5174D2A79034622B36A7923
:104CE00012B31B0623D4FFF7CDF90446F8B14FF0F9
:104CF000FF3105F128000BF071FAE3687BB901255B
:104D0000A36984F82050E36194F821303BB1FFF7A8
:104D1000D9F944600572FFF7AFF9FFF75DFA06486D
:104D20000BF0C0FA002038BD6FF0120038BD6FF0F4
:104D3000150038BD601400208814002070B50446AA
:104D40000E461546FFF780FF30B906B925B120465B
:104D5000BDE87040FFF7BEBF70BD000008B5074B4F
:104D60001B792BB1FFF78EF928B10160002008BD37
:104D70006FF0120008BD6FF0150008BD6014002030
:104D8000014B1860002070476014002008B5074BE5
:104D90001B7923B1FFF776F920B1406808BD6FF0A9
:104DA000120008BD6FF0150008BD00BF60140020A0
:104DB00070474FF02003EFF3118083F311887047A1
:104DC0000D4A002310B5C2F84031FFF7F2FF0B493E
:104DD000D2F804350C6840F247121B1B23F07F43C6
:104DE000B3FBF2F302FB03420A6080F3118818461A
:104DF000BDE810400CF050B800100140281700200A
:104E000037B51F480AF09CFF002835D043681D4D78
:104E10001B6801219847002440F24713C5F8084554
:104E2000C5F840354FF48033C5F84433C5F8043332
:104E300003F1804303F58A534FF400321C601B6872
:104E40000193019B104B0121C3F8802111202246C0
:104E500000F058FA112000F023FA0C4A01231360E5
:104E60002B60D5F8043503F2471323F07F43C5F8D0
:104E70004035204603B030BD4FF0FF30FAE700BFA9
:104E8000041A01000010014000E100E00810014098
:104E900070B54CF66905B0F1FF3F14BF02462A46D3
:104EA000134CFFF786FF134BD4F804151E68531EEE
:104EB000AB42A1EB0602A8BF2B4622F07F4240F294
:104EC000471502F5A37223EAE37305FB0323B3FB43
:104ED000F5F305FB0363591A21F07F411F2998BFA1
:104EE0005B1923F07F43C4F8403580F3118870BD0F
:104EF000001001402817002008B5FFF75AFF084BA3
:104F0000084AD3F8043512689B1A23F07F4340F215
:104F10004712B3FBF2F380F31188184608BD00BFB7
:104F2000001001402817002008B5FFF742FF064B8C
:104F3000064AD3F80435126880F31188981A20F0D5
:104F40007F40104408BD00BF00100140281700201A
:104F500004488168406A884203D003494FF0805278
:104F60000A6070472426002004ED00E00448002376
:104F70002021C2180133302B82F80013F9D1704779
:104F800000E100E0084A0949936809689966084900
:104F900058664B6843F080534B60002383F31188BD
:104FA0009368986E704700BF24260020DC3701000C
:104FB00000ED00E0202080F311880D498A68282048
:104FC0001044EFF3098C80E8F01F0A4F4FF00066A1
:104FD0004A6A8A603E60506E0023536680F31188EF
:104FE00002F1280090E8F01F8CF309887047000058
:104FF0002426002004ED00E01EF0040F0CBFEFF3A8
:105000000880EFF30980816931F8021C11F0FF017B
:105010000229FFD000B500F01BFA00BD38B5194CCD
:1050200005461948FBF734FFA36AD90602D517488D
:10503000FBF72EFFA36A1A0702D51548FBF728FFD6
:10504000A36A9B070ED51348FBF722FF616BA36A87
:10505000180607D51048FBF71BFF1DB1A36A23F004
:105060008003A362074CA26AD20702D50B48FBF764
:105070000FFFA36A9B0602D50948FBF709FF002032
:1050800038BD00BF00ED00E0AD1E0100C41E0100F0
:10509000D61E0100EA1E0100031F01001A1F0100B5
:1050A0003A1F010038B51B4C05461B48FBF7F0FEC4
:1050B000A36AD80404D51948FBF7EAFE002038BDDE
:1050C000A36A190501D51648F6E7A36A9A0514D50F
:1050D0001448FBF7DDFEA16BA36A1B0407D5124839
:1050E000FBF7D6FE1DB1A36A23F40043A362094B6C
:1050F0009B6A5805E2D50D48DEE7A36A5905FAD444
:10510000A36ADA0501D50A48D6E7A36A9B04D5D578
:105110000848D1E700ED00E05E1D0100C41E01005B
:10512000D61E0100751D01008F1D0100A51D010087
:10513000C11D01003A1F010010B5194C1948FBF7B9
:10514000A7FEA36A9A0102D51748FBF7A1FEA36A3E
:10515000DB0102D51548FBF79BFEA36A180302D5B5
:105160001348FBF795FE0E4CA36A590302D511486C
:10517000FBF78EFEA36A9A0302D50F48FBF788FE61
:10518000A36ADB0302D50D48FBF782FE044A936A4B
:105190006FEA03436FEA13439362002010BD00BF20
:1051A00000ED00E06A1F0100831F0100971F01004E
:1051B000B21F0100D11F0100F71F010012200100E2
:1051C00070B5284D6C68C4F308040646FDF7AEF9C7
:1051D000E31E092B3AD8DFE803F0053335303939BF
:1051E000393939372048FBF753FEEB6A9A0703D564
:1051F0001E48FBF74DFE02E0EB6A5B0005D4002081
:105200003146BDE8704000F0EFB81948FBF740FEAA
:10521000184B1B782BB10120FFF700FF0628EFD1B8
:1052200070BD154B1B781BB10120FFF73BFFF5E765
:10523000124B1B889BB2002BE1D0FFF77DFFEDE7FF
:105240000020E9E70020F0E70D48D2E70D4B0E49BA
:105250000E48A4F110020F2CC8BF1946FBF718FE28
:10526000CDE700BF00ED00E0081E0100201E010098
:10527000421E010028ED00E029ED00E02AED00E0EB
:10528000621E0100EF1D0100DA1D0100991E0100E0
:10529000024A536943F010035361704700ED00E088
:1052A00043B2002B08DB012200F01F0002FA00F0DD
:1052B0005B09024A42F82300704700BF00E100E0AA
:1052C00043B2002B0DDB01225B0900F01F0002FA44
:1052D00000F02033034A42F82300BFF34F8FBFF39F
:1052E0006F8F704700E100E04209054B00F01F009E
:1052F00053F82220012303FA00F01040704700BF4A
:1053000000E100E043B2002BA8BF03F1604301F1CC
:1053100001014FEA4111ADBF03F5614300F00F00F9
:10532000034BC9B2B6BFC9B283F800131954704712
:1053300014ED00E000F044B808B572B6044B186AEA
:1053400018B100221A620AF023FD62B608BD00BF40
:105350002426002070470000F8B50C4616461F466C
:1053600004220A9B099905460BF0C6FCA6F1200110
:1053700021440C4AAC6521F00701002322F0010210
:10538000EB642B65EE658A61069A4A60079A8A602B
:10539000089ACA600F604FF08072CA61A9646B6698
:1053A000F8BD00BFC5060000014910220A60704721
:1053B00010ED00E0404080F3118830BF704700BF1F
:1053C000404080F31188DFF81CC0DCF800C01CF4FA
:1053D000006C0CBFEFF30880EFF3098000B5FFF716
:1053E000EFFE00BD04ED00E038B504460D46FDF7C4
:1053F0009DF8052C1AD8DFE804F0031919131517C6
:105400000D48FBF745FD0BF009FBAA6901460B4867
:10541000FBF73EFD29462046BDE8384000F01CB8A9
:105420000748EEE70748ECE70748EAE72146074860
:10543000FBF72EFDE7E700BF3E200100DC20010066
:105440005E200100842001009E200100B92001009F
:1054500001460068FFF7C8BF052810B50CD00BF057
:1054600073FB60B10BF070FB0C4B0D49002808BFBB
:1054700019460C48FBF70CFDFFF79CFFFCE70BF00F
:1054800073FB0028EED1084C0848A168FBF700FD2B
:10549000A068BDE8104000F00BB800BF1C2101005F
:1054A000182101002D210100242600204D2101009A
:1054B00038B505464FF02003EFF3118483F31188CC
:1054C0000BF0AEFB0A4B9B689D420BD1094B5A680F
:1054D000C2F3080212B92046FFF754FD5A6842F0A1
:1054E00080525A602046BDE838400BF0B9B800BF82
:1054F0002426002000ED00E000B572B60B4A106AC9
:1055000000281EBF002111620AF042FC62B6EFF3D0
:105510000580A0F110004FEAC0000549014409C907
:1055200098475DF804EB034800470000242600205C
:10553000FC110100514F0000202080F31188064823
:105540004FF40061401880F30988022080F314882A
:10555000BFF36F8F00F006F8803B002030BFFFF7ED
:10556000FDBF00BF08B5084B084A23F07F039360D6
:10557000BFF34F8FBFF36F8F0AF024FC0AF02CFCAF
:10558000FFF7F4FC0AF04CFC0000000000ED00E026
:1055900008B5FFF7E3FFBDE80840FFF7D9BC0000FE
:1055A000034B05225A60BFF34F8FBFF36F8F7047D5
:1055B00090ED00E0BFF35F8F014B00225A6070470F
:1055C00090ED00E0124910B50C68082C1CD8FFF7CC
:1055D000F1FF104849680022A24201F10C0103D1F9
:1055E000FFF7DEFF002010BD826051F80C3C23F075
:1055F0001F0343F010031343C36051F8043C43F00E
:10560000010303610132E7E74FF0FF3010BD00BF37
:105610001C16010090ED00E00139034611F8012F3E
:105620000AB91A70704703F8012BF7E710B5013972
:1056300003463AB111F8014F2CB91A4403F8014B53
:105640009342FBD110BD03F8014B013AF1E7C9B217
:10565000034610F8012B914206D0002AF8D1002908
:105660000CBF184600207047184670470246034694
:10567000981A13F8011B0029FAD170470138013933
:1056800010F8013F11F8012F934202D1002BF7D1FE
:105690001A46981A704770B582B1013A0C46034613
:1056A00003D11A782078101A70BD1E782578AE4282
:1056B00000F1010001F10101EFD0F2E7104670BDE9
:1056C000431A934210B500EB020304D3013902469A
:1056D0009A4208D110BD0A4412F8014D03F8014D59
:1056E0008A42F9D110BD11F8014F02F8014BEFE7E2
:1056F00081EA000313F0030F70B503460BD0013BA2
:105700000A4491421BD170BD002AFCD011F8014B14
:1057100003F8014B013A9C07F6D11E1F0D46541B9E
:105720000C44032C06D822F003042144234402F045
:105730000302E4E755F8044B46F8044FEFE711F88D
:10574000014B03F8014FDCE770B5C9B203469C0773
:1057500011D141EA012444EA04441E46951B1D442C
:10576000032D0ED822F00304234402F003021A444E
:10577000934209D170BD002AFCD003F8011B013A05
:10578000E5E746F8044BE9E703F8011BF0E770B5DD
:105790000446B1FBF2F602FB1611CDB20929CCBFCB
:1057A000272100213035294404F8011B3146002E01
:1057B000EFD13021221A934207DC2346002103F85F
:1057C0000119834204D8104670BD04F8011BF1E7AB
:1057D0001978047803F8014900F8011BF1E7D0E9D2
:1057E000002330B502F001045B084FEA32021219BF
:1057F0004FF000056B41C0E9002330BD2DE9F84FA3
:10580000D0E900450234804645F100054FF0000A1A
:105810004FF0000B002605270F4B16F8039020468B
:105820004A462946FAF76CFC4A46B0FBF7F00021DD
:10583000FAF772FCA0FB0723A41A07FB013365EB00
:10584000030501361AEB000A4BEB010B032EE3D1E3
:10585000C8E900ABBDE8F88F812101000B68002B7F
:1058600010B510DD013B02680B6044680A21A2FB01
:10587000012301FB0433190F23F07043C0E9002317
:105880003031C8B210BD3021FBE700002DE9F04FE8
:10589000CFB01F460023099012910493107802F1B3
:1058A000010A002847D025283DD14FF000082023C9
:1058B0000093CDF81480CDF82080464655461AF85E
:1058C000014B98482146FFF7C2FE00283ED12A2C02
:1058D00057D13A680192002AB8BF524207F1040337
:1058E000BCBF019201229AF80040B8BF08921F463F
:1058F00005F1020A019BC92B28BFC82301932E2C56
:105900007CD19AF800302A2B51D0514600250A2428
:105910000A4611F8013BA3F1300009284BD804FBDB
:105920000535303DF4E71299099B9847013006D1BF
:105930004FF0FF33049304984FB0BDE8F08F049C00
:1059400002970134029F04945246A7E7232C14D0F7
:1059500006D8002CEFD0202C08BF4FF00108ADE78F
:105960002D2C07D0302C0AD02B2C059B08BF0123EF
:105970000593A3E701230893A0E701269EE700947F
:105980009CE7A4F13003092B0190B8D80A2115F83F
:10599000010BA0F13002092A044601D9AA46A9E761
:1059A000019B01FB0300A0F130030193EFE73D6889
:1059B0000AF101020437C92D1478A8BF4FF0FF3552
:1059C00002F1010A21465848FFF741FE18B19AF842
:1059D00000400AF1010A672C3EDC652C80F2A680AB
:1059E000472C0EDC452C80F2A180002CA3D0252C66
:1059F00000F0DA82C82C40F3E18299E74FF0FF35DE
:105A0000E0E7632C6ED032DC582CF3D13B1D0293BF
:105A10003968002E00F0BE8230238DF86C30782378
:105A20008DF86D300DF16E072B4610223846FFF7CA
:105A3000AEFE582C04D11BAA1378002B40F0AC8288
:105A40000DF16C09002EA7EB090948440CBF4FF07B
:105A500000084FF0020829E0702C00F0748227DC67
:105A60006E2C00F0308200F33582692CC2D13C6884
:105A70003B1D002C029341DA2D23B4F1004F8DF829
:105A80006C3040D061420DF16D092B4648460A2228
:105A9000FFF77DFE059B81441BA8A9EB0000002BAE
:105AA0003CD1B8F1000F01D14FEAD478013542E280
:105AB000752C00F06682782CA8D0732C9AD13B1DEF
:105AC0003968029300268B5D002B40F04F82002D39
:105AD00080F25382002E00F0FB8132461BA8FFF7B4
:105AE00007FE08E03B1D02933B688DF86C300023F5
:105AF0008DF86D3001264FF00008FBE1059B23B1C6
:105B00002B238DF86C302146BDE7B8F1000F01D092
:105B10002023F6E721460DF16C09B6E7DDF8148085
:105B2000C4E700BF762101007C210100073727F080
:105B3000070797E8030007F108030293CB0243EA43
:105B400050530793C3020693DDE90623C1F30A59B4
:105B50008C4640F2FF7123F000438945CDE91623BE
:105B6000834647D16146002871F10001BBBF2D215A
:105B70008DF86C101BA90DF16D011343A4F14104C4
:105B80002BD1192C21D849230B704E234B7001F1D6
:105B9000030946238B70002389F80030059B1BA85E
:105BA000A9EB0000002B40F02E82B8F1000F07D1C6
:105BB0009DF86C10A1F12D03D3F1000848EB030808
:105BC000C8283FF7B5AE064694E169230B706E23F3
:105BD0004B7001F103096623DCE7192C99BF4E23B2
:105BE00041226E23612294BF0B700B704A7001F149
:105BF0000309CFE7462C42EA090043EAE97108BFEE
:105C00006624014339D043F00043CDE916235A46B8
:105C10006346002A73F10003A9F2FE392FDA2D231F
:105C20008DF86C300DF16D030393002719F1020F0D
:105C300035DBB9F1000F65DC16A809F10109FFF7A2
:105C4000CEFDB9F1040FF7D1002D24F02003B8BF29
:105C50000625472B7DD1002E79D12B1C18BF01239F
:105C6000FA1C9B4602DB6B1C9F4276DD672C0CBF47
:105C70006524452405F1010974E04FF00009059BF6
:105C80000BB12B23CCE7B8F1000F01D02023C7E7DD
:105C90001BABC9E716A8FFF7A2FD09F10109002215
:105CA000179B0B920A93DDE90ABCAF4916980022B4
:105CB000624508BF5945EDD30522A0FB020102FB56
:105CC0000311CDE9160109F10109013F4FF0000E62
:105CD0006FF0004B4FF0000C00230C910D93DDE9A9
:105CE0000C239C4508BF934505D2BEF1000F9DD003
:105CF000CDE916019AE70018494109F1FF394FF043
:105D0000010EE9E716A8FFF779FDDDE9162309F191
:105D1000FF3901374FF0000E00200E930F90DDE9A0
:105D20000E014FF0000C6FF0004B8C4508BF83450F
:105D300006D2BEF1000F3FF47CAFCDE9162378E721
:105D400092185B4109F1FF394FF0010EE4E700239F
:105D500086E70023662C9B468CD107EB050929EAD0
:105D6000E9796624102315934EA900224FF00063B1
:105D700061E93623B9F1100FA8BF4FF01009B9F14E
:105D8000000F39D1DDE91623DDE9180112184B4166
:105D90001093CDF84490CDE91623DDE910230023BC
:105DA00002F07042134306D016A8FFF727FD16A88D
:105DB000FFF715FD0137662C41D1002F039B27DD2E
:105DC0001F44994615A916A8FFF748FD09F8010BCD
:105DD0004F45F7D1002706B955B14E462E2306F898
:105DE000023B30222B4613F1FF3317D20135A94471
:105DF0005B46002B34D1CEE608461391FFF7FEFC3C
:105E000013990846FFF7EBFC09F1FF391399B6E740
:105E1000039A03F1010930231370DCE727B106F878
:105E2000012C01370136DEE715A916A8139203935A
:105E3000FFF714FD139A06F8010C039BF2E715A96E
:105E400016A8FFF70BFD039B3028187018BF07F149
:105E5000FF37039B46BB3DBB03F101095B463BB1EA
:105E60004B4619F8012D302AFAD02E2A18BF994630
:105E700024F02003452B7FF48EAE4A46002F02F813
:105E8000024BBABF7F422D232B230A2189F8013010
:105E900097FBF1F3914601FB137703F130003037A4
:105EA00009F8020B577076E6039A03F102092E23D4
:105EB00053704D444D45D1D015A916A8FFF7CEFC1F
:105EC00009F8010BF6E73B1D02933B68049A1A6040
:105ED000049C37E53B1D02933968FEB130238DF8F1
:105EE0006C3069BB0135009B8DF86D1018BF202305
:105EF00088460093019BB34262DC049C1BAD2644A0
:105F00002D1B331B002B7FF71DAD1299285D099BBC
:105F1000984701303FF40CAD0134F2E71BA80DF1B6
:105F20006C092B460822A0EB0909FFF730FC484416
:105F300001354FF00008009B18BF202300933FE677
:105F40000DF16D00EBE73B1D029330238DF86C30B3
:105F500078238DF86D303968082310220DF16E001A
:105F6000FFF715FC0230E3E7323333330136C82E36
:105F70007FF4A9AD002DFFF6B0ADAE42A8BF2E460E
:105F8000A8E53B1D02930A222B4639681BA8FFF7A0
:105F9000FEFBCDE71BAF47E5A3F1610119299CBFCB
:105FA000203B1370013247E51299099B2046984720
:105FB00001303FF4BDAC049B01330493029787E7A3
:105FC000089B3BB11BAB20220199F2540136B14230
:105FD000FAD192E7019B1BAC9D1B6019721C2146F4
:105FE000FFF76EFB009B202B08BF4FF000084544D5
:105FF000A84501DB019E80E79DF8003008F80430D9
:1060000008F10108F4E7DDF81480D9E54FF0FF301E
:1060100070470000014B1860704700BF50480020D7
:10602000022902D1024B1B6818474FF0FF3070471E
:1060300050480020FFF7F4BF0FB407B504AB0221AE
:1060400053F8042B04480193FFF720FC03B05DF8DC
:1060500004EB04B0704700BF3560000070B508293C
:106060000E4A0F4D00F1FF3028BF082100238B425C
:1060700004D1002102F81310084870BD44782409A7
:1060800002EB43062C5D02F8134010F8014F04F0B8
:106090000F0401332C5D7470E9E700BF2C1700205A
:1060A0008421010000B5BFF35B8F50E8003F43EA55
:1060B000010240E8002EBEF1000FF6D1BFF35B8F66
:1060C00018465DF804FB00002DE9F041064688B053
:1060D00090792F4F8846154608F0E0FE87421ED083
:1060E00002234FF0000463F302042A4A2A4BA879E2
:1060F0000496D21AD208294B03936FF3C50462F3B6
:106100008F14059008F0CAFE23460690052203A9C5
:1061100023480797FCF7FEF908B0BDE8F081284650
:1061200008F0C2FE1F4C04EBC0004388B34219D0F4
:1061300002234FF00007184A63F30207154B9B1A1E
:10614000DB086FF3C507284663F38F1708F0ACFE32
:1061500004EBC000324643881049ADF80070124885
:10616000FCF7BBF9284608F09FFE04EBC00043682B
:10617000002BD1D0284608F097FE04F8308028463E
:1061800008F092FE04EBC00040680AF056FCC3E73A
:10619000B44B0020941401003C140100952101002F
:1061A000DA240100B017002013250100F8B50B4ECA
:1061B00007460025F379ECB2A34202D86FF0010440
:1061C00009E0C4EBC401072231443846FFF763FA03
:1061D00001350028EED12046F8BD00BF5848002008
:1061E000074BBFF35B8F420903EB820300F01F00F4
:1061F0001B6FBFF35B8F43FA00F000F001007047A4
:10620000584800202DE9F047804689461348144D30
:106210004FF0FF3108F0D6FE044600F108060021D9
:106220003046002708F0D4FE2775204608F03CFED3
:1062300005EBC000A0F80280204608F035FE05EB13
:10624000C00003214760304608F006FF80F8029046
:10625000A0F800802046BDE8F08700BFB44B0020C6
:10626000B017002070B5154686B00C4619B9FFF777
:10627000C9FF044668B30122002168460AF0D4FB36
:10628000204608F011FE144E06EBC000C0F804D002
:10629000204608F0DDFE2146104808F09DFE42F23F
:1062A000107168460AF0F0FB204608F0FDFD16F874
:1062B000300030B1204608F09DFE6FF0040006B0BB
:1062C00070BD0DB12C60FAE7204608F093FE284619
:1062D000F5E76FF03600F2E7B0170020FC48002029
:1062E00070B5154D062205F10A010646FFF7D3F9F0
:1062F0000446D8B1062142F20500FFF783FF0446A9
:10630000B0B106223146083008F0ACFE214600222A
:1063100042F20500FFF7A6FF044638B906223146CF
:1063200005F10A00FFF7E4F901236B72204670BD06
:106330006FF03604FAE700BF58480020012310B57B
:106340000621044600F8013B07F012FD18B9A379B5
:1063500063F03F03A37110BD30B5044685B00D4610
:1063600099B100230722694628460093CDF80330EF
:10637000FFF791F948B11048C4EBC404072229463D
:106380002044FFF7B5F905B030BD02A8FFF7D6FFEE
:1063900002A8FFF70BFF0028F7DA0748C4EBC40494
:1063A0000444072202A92046FFF7A2F9002DEAD0F3
:1063B000072221462846E4E7584800202DE9F0430B
:1063C000057D434F434C012D85B0064635D1D0F8AD
:1063D000089099F800300E3B012B44D84FF0000292
:1063E00065F302023C1BE4086FF3C50264F38F12ED
:1063F00039493A48FCF744F8404080F311884FF09F
:10640000040002DF02224FF0000562F30205324A67
:10641000B189B06802918DE80C00FFF71FFEFCF710
:106420000DF93C1B6FF3C505E40864F38F15039069
:106430002B46042269462A4841E001224FF000031E
:1064400062F302033C1B6FF3C503E40864F38F138C
:106450002A4624492448FCF727F8304608F0CAFDAC
:106460006FF0150031E000F108080221404608F005
:1064700002FE99F800303E2BC4D12946D6F8089088
:10648000404608F0F8FD4FF00005022299F8003070
:10649000B189B068029162F30205144A8DE80C00DC
:1064A000FFF7DCFDFCF7CAF83C1B6FF3C505E408F9
:1064B00064F38F1503900E482B4604226946FCF7BF
:1064C00029F8304608F096FD002005B0BDE8F083BD
:1064D000941401003C140100B42101007723010051
:1064E00039230100DB2101005F230100A22101000B
:1064F000102301002DE9F041057D8768012D044638
:1065000016D001234FF0000263F302023D493E4BD7
:106510003E485B1A6FF3C502DB083D4963F38F12F7
:10652000FBF7AEFF404080F311884FF0040002DF1C
:106530008389012B0ED83349334B36484FF0000284
:106540005B1A65F302026FF3C502DB0863F38F1277
:106550002F49E5E73B780E3B012B44D800F10806B4
:106560000221304608F087FD3B780E2B13D00F2B0D
:1065700029D0204608F03EFD2249234B26484FF003
:1065800000025B1A65F302026FF3C502DB0863F3D6
:106590008F121F49C4E7A36803213046B3F8017086
:1065A0001D7808F068FDA368224619783846FFF781
:1065B0008BFD15B119480AF040FA204608F01AFD83
:1065C0000020BDE8F081A568B5F802806F7804214D
:1065D000304608F050FD224629784046FFF774FD0A
:1065E000002FEAD0E6E70749074B0D484FF00002BD
:1065F0005B1A65F302026FF3C502DB0863F38F12C7
:1066000003498DE73C14010094140100AA23010002
:10661000E3210100E223010010240100E0480020F2
:1066200027240100084AD2F8B4303BB9C16841B10F
:10663000016931B1C2F8B400184670476FF04400E8
:1066400070476FF01500704758480020F7B50C46AA
:10665000064618B974B36FF0150440E00023072212
:1066600069460093CDF80330FFF715F80028F1D004
:106670003378012B04D1B37903F0C003C02B11D0C0
:1066800001234FF0000263F302021849184B194826
:106690005B1ADB086FF3C50263F38F121649FBF731
:1066A000EFFED8E73046FFF781FD0028D2DB6FF020
:1066B000440414E0114FFD79012D13D06B1CFB71C4
:1066C0002C4645B90120FFF78BFD20B9082107F1C1
:1066D0007000FFF7E7FC31462846FFF73DFE2046F5
:1066E00003B0F0BD6FF00B04F9E700BF3C140100EC
:1066F0009414010011220100F021010058480020EB
:106700002DE9F0433E4DEE7985B0002E72D195F81B
:10671000623013F0010411D102234FF0000263F341
:1067200002023849384B39485B1A64F3C502DB086A
:10673000374963F38F12FBF7A3FE18E001AA314635
:106740004FF60940FFF78EFDF0B102234FF0000233
:1067500063F302022B492C4B2E485B1ADB0866F3CD
:10676000C50263F38F122A49FBF78AFE3446EC71A7
:10677000002C3FD00024EB799C4232DB2648FFF707
:10678000AFFD05B0BDE8F083019B9E68777817F1F7
:10679000000818BF4FF0010844464FF001090236C7
:1067A000804514DC019808F025FC002FDFD102237E
:1067B0004FF0000263F302021249134B17485B1AB1
:1067C00067F3C502DB0863F38F121149B3E70622B2
:1067D00031460DF109008DF80890FEF789FF012080
:1067E000DEE7C4EBC40102ABE0B21944FFF7B4FD2D
:1067F0000134C0E700210846FFF728FFC1E700BFCA
:10680000584800203C140100941401005924010050
:10681000FD2101008924010059480020AD24010018
:10682000F0B5C04DD5F8B430996811F0010187B0CA
:1068300022D101AA40F60340FFF714FD04460028C8
:1068400040F0AD80019B9B681B7893B9BFF35B8FD1
:106850002B4653F8702FBFF35B8F02F00D02BFF38E
:106860005B8F53E8001F43E800200028F9D1BFF3F5
:106870005B8F019808F0BEFB01AA002141F20300E2
:10688000FFF7F0FC0446002840F08980019BA648F1
:10689000996808220131FEF72BFF019808F0AAFB46
:1068A000214601AA41F20100FFF7DCFC0446002862
:1068B00075D1019883685A782A74D9789A7842EA0F
:1068C00001226A821A796A74197ADA7942EA012213
:1068D000AA825A799B7942EA0323EB8208F08AFB69
:1068E0000320FFF77DFC014688BB01AA41F20900A5
:1068F000FFF7B8FC0446002851D1019B02909E6826
:10690000ADF80C000136062202A93046FEF7C3FEA0
:10691000D0B1FF23062204A930468DF810308DF83F
:1069200011308DF812308DF813308DF814308DF849
:106930001530FEF7B0FE38B1062231467B48FEF72F
:10694000D7FE01232C70EB71019808F053FB01AACC
:10695000002141F20200FFF785FC0446F8B9019BD3
:106960007348996840220131FEF7C2FE019808F091
:1069700041FB2B7F590615D401234FF0000263F32E
:1069800002026C496C4B6D485B1A64F3C502DB086C
:1069900063F38F126A49FBF773FD6FF01204204610
:1069A00007B0F0BD214601AA42F20300FFF75AFCEE
:1069B00004460028F3D1019B6248996808220131FE
:1069C000FEF796FE019808F015FB2B7F9A0676D508
:1069D00095F83C301B0700F18E80082142F201003F
:1069E000FFF710FC0446002870D00821084408F086
:1069F00033FB02260022067042708270C270027160
:106A000042718271C271214642F20100FFF72AFCF5
:106A100004460028C3D1082140F60140FFF7F2FBED
:106A20000746002852D00821084408F015FB8023AF
:106A30004370202304708470047144718471C670A3
:106A4000C3712246394640F60140FFF70BFC04466D
:106A50000028A4D1014601AA4FF60140FFF702FC2D
:106A6000002879D03349344B37484FF000025B1A85
:106A700066F3020264F3C502DB08344963F38F1244
:106A8000FBF7FEFCEF79002F40F0AA80FFF738FEFD
:106A90000646002800F0A48001234FF0000263F3B3
:106AA00002022449244B2A485B1ADB0867F3C5021B
:106AB00063F38F122749FBF7E3FC34466FE70221AB
:106AC00040F66D40FFF79EFB064610B96FF03604A6
:106AD00065E70221083008F0BFFA01234470037013
:106AE0002246314640F66D40FFF7BCFB04460028C5
:106AF0003FF46EAF53E701AA002142F21C00FFF7FA
:106B0000B1FB044600287FF44AAF0198836853F82C
:106B1000012F5B68C5F88430C5F8802008F06AFA58
:106B20005BE700BF5848002070480020594800200B
:106B3000784800203C140100941401004322010015
:106B4000BE210100D04800206B220100C6210100B7
:106B5000ED220100D2210100019808F04BFA01AAB0
:106B600021464FF60240FFF77DFB70B12349244BCD
:106B700024484FF000025B1A66F3020264F3C50278
:106B8000DB0863F38F1220497AE7019B1F4899685D
:106B900032460131FEF7ACFD019808F02BFA01AA4C
:106BA00021464FF60340FFF75DFB70B11349144BCC
:106BB00017484FF000025B1A66F3020264F3C50245
:106BC000DB0863F38F1210495AE7019B114899685B
:106BD00001221144FEF78CFD019808F00BFA51E7F1
:106BE00002210D48FFF75EFAEB79002B3FF4D7AE98
:106BF00004210948FFF756FAD1E600BF3C14010012
:106C00009414010093220100C6210100B94800201C
:106C1000C0220100B8480020C848002010B5FFF786
:106C2000FFFD034B1B6813B1BDE81040184710BDB2
:106C3000C017002038B50546054808F0C3F90446DA
:106C400020B10021083008F0C3F92575204638BD71
:106C5000D44B002010B501464FF02003EFF3118014
:106C600083F311880B4A0023D2F8A040C2F8A03069
:106C700080F3118824B90120BDE81040FFF7DABF86
:106C8000012204F108002275A381194608F0A0F939
:106C9000204610BD58480020F7B51860C31D0546B2
:106CA00023F00303501E0E4680B214461A800021C2
:106CB000042206FB0050FEF747FD023CA4B24FF64B
:106CC000FF77BC4201D103B0F0BD04FB06602B1876
:106CD0000422801B0DEB02012844013C0193A4B265
:106CE000FEF706FDEDE773B50568064695B1EB1DA9
:106CF00023F0030304221C8829460DEB0200FEF753
:106D0000F7FC019B013CA4B21BB1DA1D22F0030287
:106D100014803360284602B070BD70B50C6806461A
:106D20000D461CB1E31D23F003031C8804222946F1
:106D30003046FEF7DDFCF21D22F00302631C1380D7
:106D40002E6070BD02FB01007047401A80B2B0FB9C
:106D5000F2F0704710B5114401384FF6FF73013A55
:106D600092B29A4200D110BD11F8014D00F8014FC6
:106D7000F5E710600860704710B51468206014686B
:106D80006160106010BD884203D01AB1436813607F
:106D90007047002070470B68834209D022B15868C1
:106DA00010601A680A6001E0002BFAD1184670479B
:106DB0000023FBE72DE9F047114FDFF84890042648
:106DC000013EF6B2FF2E19D033B24FEA830803EB2F
:106DD00043031D0104244FF00C0A0AE01AFB04517E
:106DE0000A1D04EB08003A44394409EBC000FFF7E0
:106DF000C0FF013CE4B2FF2CF0D1E1E7BDE8F08731
:106E000044180020C4170020F0B4124B05460F466A
:106E10000C26302472B1614306FB00142344597AD6
:106E2000187A814204BF0131197228463946F0BCF4
:106E300007F008BF4C4306FB004423449C7ADA7AEF
:106E4000A24204D101329A72F0BC07F063BFF0BCD9
:106E5000704700BF44180020F8B505460E461C4692
:106E60008AB1012362782078801A10F0030729D0B4
:106E700003B3012F39D00132D2B2227031462846F5
:106E800007F048FF1CE007F033FF0028E9D0314647
:106E9000284607F003FF0028E3D030230C22734379
:106EA00002FB0533124A1A44937AD27A9B1A18BF0E
:106EB0000123D7E70232D2B22270E368A068984774
:106EC0000020F8BD002BF8D00132D2B2227004238A
:106ED000302212FB06320C2313FB0523044A6068A0
:106EE0001A442146FFF748FFC8E73846F8BD00BFFF
:106EF000441800202DE9F04F00EB400389B01B013E
:106F00004FF00008434E049305460424CDF8048056
:106F1000013CE4B2FF2C0BD1019B002B76D0B8F1E1
:106F2000000F73D142462946284607F08BFE6DE0DC
:106F30000DF1200B00230C274BF8043D4FF03009D6
:106F400007FB04F309FB053031185A4649683058ED
:106F50000293FFF718FF049B17FB0437F3198246CF
:106F60000393BAF1000F19D130220C236A4303FBBB
:106F700004223244917AD07A88421EBFD172012213
:106F8000019230226A4303FB042333441A7A597A6C
:106F900091421CBF5A724FF00108B9E7079B1F7856
:106FA0005A78BF1A07F00307012F04D1013A5A702B
:106FB0009868DA689047079A13785278DBB29A1A81
:106FC00002F00302012A05930DD0029B039909FBED
:106FD0000530304400224068FFF7DDFE079A059B2C
:106FE000C2F804A05370029B09FB0533F1185A46FE
:106FF0004968F058FFF7C7FE012F8246B1D10CB99E
:107000000028B1D02946284607F084FE09B0BDE823
:10701000F08F00BF4418002010B5421E0020013937
:10702000C9B2FF2900D110BD12F8013F002BF6D0E4
:107030005C1E01302340C0B2F8E7F0B5437F05681D
:107040001A460024FF2A01D10020F0BD02EB82077E
:107050008A4205EBC70615F8377004D0B3681C44A4
:1070600013463A46EEE7934200D147771BB203EB53
:1070700083033278B06805F833203378FF2B06D0CD
:1070800003EB830305EBC3039A6802449A60204430
:10709000F0BD30B5551A15F4000F8368446909D165
:1070A00025F07F421A44A2420ED9121B00248260AE
:1070B000446130BD8A1A22F07F42934201D99A1A64
:1070C000F1E72244D41A0022A41A0022EFE7034673
:1070D00000221A709A6A596208460AB1D96A1047A2
:1070E00070472DE9F047857F01230446C377002DC3
:1070F0004CD1437FFF2B02D1C577BDE8F08707F065
:107100006BF96769667FD4F80080C71B27F07F475B
:10711000FF2E06D006EB860608EBC6018B689F4261
:1071200018D2A27AE37A934205D10133DBB2022B63
:1071300008BF0023E372E37A04EB83030122DD60DE
:107140000023656AE377AC46234604210320BDE8AB
:10715000F0476047FF1A1D448A784B7818F836606C
:107160009B1ADBB2012BD3D1D1F80C90013A8A7073
:10717000B9F1000FCCD048696369CA8B281A18444A
:1071800020F07F400B69496AC847C1E7BDE8F08736
:107190002DE9F04FC27F93B08346002A40F0C683AA
:1071A000436905930121837A8177C07A984200F080
:1071B0008F800B44DBB2022B08BF00238BF80A3010
:1071C0000BEB83030191D3F80C80059B434423F020
:1071D0007F43CBF814309BF81D300393DBF800306D
:1071E0000493DBF804300B939BF80930013BDBB2CE
:1071F0000293002307934FF0FF0A029BFF2B6AD1F3
:107200009BF81D30039A9B1A18BF01230293019B20
:10721000E3B1DBF8003004934FF000099BF81D60E8
:10722000FF2E0CD037B2049B07EB870703EBC70494
:10723000A568454540F23681A5EB0805A560029B8F
:10724000019A0399B14218BF13460293DBF800304C
:107250000893DBF8043010939BF80930013BDBB254
:107260000193019BFF2B40F070819BF81D30039A26
:107270009342079B40F051835BB99BF80940DBF8D0
:1072800004300193013CE4B24FF00008FF2C40F0C1
:10729000A08200238BF81E30029B4BB19BF81D305F
:1072A000FF2B40F0E98207F065F808B9CBF8180029
:1072B0009BF81F30002B00F03983DBF824405B463D
:1072C000012203210420A44613B0BDE8F04F60471B
:1072D000019290467FE70B9B029A03EBC2077B6803
:1072E0000693F978BE788E4200F0D780069B3878F6
:1072F00006EB460212019D18731CDBB2984208BFD0
:107300000023BB70069B9A5C032AEBD9052A17D889
:10731000697801EB81030A930A98049B03EBC0048C
:107320006378A0781B1A13F0FF0309D0042A0CD14C
:107330006A6852B9AA6842B9EA6832F07F4204D159
:1073400001212846FFF7C3FECBE7012B40F09B80CD
:107350005846FFF772FE2B78A060042B064640F0DB
:107360008480DBF81430089307F036F8089B099006
:10737000C31A23F07F4343449E4202469EBF626984
:10738000921B9B18626896BF6361F31A00238AB14F
:10739000A98979B101F1FF3E1FFA8EFEA5F80CE034
:1073A0009A422BD3DFF82493B4F81EC0E64547D8A1
:1073B000A4F81CE0AA8808991344A360EA886369CA
:1073C00013446361099A2046FFF763FEA2692B8983
:1073D0001344A3616A8993428CBF9B1A0023A36163
:1073E000AB7B03B1E370049B0A9A03F832A0637885
:1073F00095F801A0013363700021A2E7B4F81EC024
:10740000E645CFD2616AAF4EAF488E19864281BF42
:1074100001F1E87101F5D43101F5A5716162666A87
:10742000216A8CBF4FF001094FF00009761A914490
:107430000CF1FF3C6662A3EB0903A4F81EC0AFE7A2
:10744000666A216AA0480E449E49711881428EBF27
:10745000002101214E4411440CF1010C8CBF6662E5
:1074600066620B44A4F81EC09EE7A37863706B7835
:107470009BF81C209A4201BFFF238BF81C3000238D
:10748000CBF81830B8E704215B46DBF82440012232
:107490000846A0470123BE700793029B013BDBB265
:1074A0000293AAE6DBF818309D4229BFFF235B1B3D
:1074B0008BF81C300023CBF81830A369A9441BB10A
:1074C0008BF81C60CBF818300022049BA26013F8E4
:1074D00037308BF81D30D4F804E0BEF1000F30D007
:1074E000A08BDFF8E4C1636A216A0B44754959181F
:1074F00061459FBFA3F1E873A3F5D433A3F5A5734A
:10750000636292BF019B63620023734410F1FF30FA
:107510001A44E8D2059BA260DBF8141003EB0902C1
:107520002046FFF7B6FDA38BE3830023E370049BA3
:1075300003F837A0637801336370A8EB0508B246FF
:107540006CE6A37863705646F7E7109B019A03EB4D
:10755000C20304935B680A93049B93F80190BAF109
:10756000FF0F00F08E800FFA8AF303EB8303089A73
:10757000D04612F833A002EBC3040025DBF800303C
:107580000B93FF23A28B2370E38B934286BF9B1A3E
:107590009BB200230C930FFA88F303EB8303DB0009
:1075A0001193119BDBF80020DBF81800059002EB2B
:1075B000030EFF209BF81D30DEF80810099306909B
:1075C000FF2B07D003EB830C02EBCC06B0688142A3
:1075D00000F2A980DEF818000D9001EB000C1E46A9
:1075E000FF2E40F0AE800D9830B105988142C0F07A
:1075F000BF80FF2E40F096810998CEF80810834294
:1076000018BFBDF924008EF8003016BF00EB8000D3
:107610008BF81D8002F83080FF2B06D003EB83032C
:1076200002EBC3039A68511A9960A378013363701F
:107630000021002D93D02846FFF749FD8FE709EB85
:1076400049030A9A1B01D51809F101025FFA82F970
:10765000049A12784A4508BF4FF000090A9AD35C91
:10766000032B0ED195F80180089B08EB880403EBEF
:10767000C4046278A3789A4209D001212846FFF712
:1076800026FD049B9B784B45D9D1019BE6E5EB6831
:10769000DBF8141063602B692362AB8AA383AB69A8
:1076A000A361EB69E3602B6A23610026AB68A360EA
:1076B00066616A682046FFF7ECFC01236662E68398
:1076C000E3705BE75A2B17FF592B177FB6562EFE38
:1076D000606800287BD0626A216A964B0A4496490A
:1076E000D3188B429CBFA2F1E872A2F5D432A368F2
:1076F0008BBF6262A2F5A57200226262034498BF4A
:1077000001221344E28BA3600132E2836269934257
:107710004FF0000189BF9B1AD31AA36061619CBF1F
:107720006361A1603DE7B669091A46B9059FB84291
:1077300000D23E1A0993059612F83C3040E70693B2
:10774000F8E730B200EB800002EBC0070E97BF688D
:107750000F9767450AD20E9FBF69002F7FF443AF92
:107760000F9EACEB060C12F8306039E7FF263AE7C3
:10777000069B98453FF459AF069BFF2BA8D01E46A9
:1077800033B203EB83030593059A0B9B03EBC2070C
:10779000FB8BBA8B934288BF9B1A7A688CBF9BB2D3
:1077A0000023002A94D00C9A934291D8FA78E37877
:1077B0009A428DD231465846FFF73FFCBB787B702A
:1077C000059A0B9BB86003F832A0B246E9E60121A6
:1077D0002FE7019B03EBC4056E686B78EA789A4249
:1077E00002D1013CE4B251E503EB43031B01F21863
:1077F000F35C012B25D0022B2AD1D2F804C0936868
:107800009CF80000D2F80C90DBF800E0FF2804D0D0
:107810001968DBF81470B94223D0DBF814009BF828
:107820001D1018600023FF2907D001EB810A0EEB21
:10783000CA0087698068DFB103448CF80010C9F87A
:107840000030936AC2F8248013B1D16A00209847AF
:107850006B782A780133DBB29A4208BF00236B7041
:10786000BBE700EB8000D9F800301EF83010DAE7F3
:1078700003441EF83A10D6E7039BFF2B07D106F00E
:10788000ABFD044606F068FD08B9CBF814409BF840
:107890001D30DBF8002003EB830302EBC3030A2651
:1078A0009D6806F099FDDBF81440031B23F07F432D
:1078B0000333AB422CBFE418641924F07F4407461D
:1078C000DBF828302046984706F086FDC01B20F0E4
:1078D0007F40E41B033024F07F44A0427FF6E8ACF5
:1078E000013EDED101234FF0000263F3020213498F
:1078F000134B14485B1ADB0866F3C50263F38F125F
:107900001149FAF7BDFD404080F311884FF00400A3
:1079100002DF00238BF81E30C0E4002BF9D10123D5
:107920000293AAE4B0457FF42BAF7EE613B0BDE826
:10793000F08F00BF5A2B17FF592B177F3C14010003
:107940008C140100A125010078250100F0B51A4D25
:10795000059F9DF818402C26464305EB060EAA51BC
:107960008EF8081007998EF80930CEF80470013BA4
:10797000DBB2FF2B11D1ECB92C2202FB005208998B
:107980001162099951620A99916253771377946150
:1079900054619472D4722046F0BD1AB207EBC2064D
:1079A000716017F8322002EB4206A41A01EB0611AF
:1079B000E4B2DCE70120F0BD04190020074A2C21C5
:1079C00000FB012310B45C6A2CB1A4460122032100
:1079D000022010BC604710BC704700BF0419002093
:1079E0002DE9F047254F4FF02C08814608FB007029
:1079F0000FFA81FCD0F804E00EEBCC061EF83CE058
:107A0000F478651CEDB2AE4598BF002596F801E00C
:107A1000AE452FD0D6F804C004EB44044FEA041E50
:107A20000CEB0E044FF0030A0CF80EA06360089BE9
:107A3000A360099BE3600A9B23610C9BA361BDF8D3
:107A40002C30A3820D9BE3610E9B236202236362B1
:107A50000F9BA362109B6270E362F570456A036A34
:107A60000846984709FB087300220421A847606A6A
:107A7000BDE8F0870120BDE8F08700BF04190020B1
:107A80002DE9F047DFF890804FF02C0A0AFB008EBA
:107A90000FB2DEF80450814605EBC70015F83750E9
:107AA000C478661CF6B2B54298BF00264578B54248
:107AB0002FD0D0F804C004EB440425010CEB0504DE
:107AC00004270CF80570A380BDF82030E380BDF8D2
:107AD00024302381BDF828306381BDF82C30A38188
:107AE0009DF83030A373022363620D9BA3620E9B4B
:107AF0006270E362C670DEF82030DEF8245008467B
:107B0000984709FB0A8300223946A847606ABDE806
:107B1000F0870120BDE8F087041900202DE9F04727
:107B2000DFF86C904FF02C0A0AFB009E8046DEF8CE
:107B300004000EB200EBC60710F83600FC78651C96
:107B4000EDB2A84298BF00257878A8421DD0786889
:107B500004EB4404240106194FF0050C00F804C09E
:107B60007270B3620222089B7262F362FD70DEF8EB
:107B70002030DEF824400846984708FB0A9300228C
:107B80000421A047706ABDE8F0870120BDE8F087B6
:107B9000041900202DE9F047DFF878804FF02C0A17
:107BA00081460AFB00800FFA81FE456805EBCE078F
:107BB00015F83E50FC78661CF6B2B54298BF002618
:107BC0007D78B54223D0D7F804C004EB44042501E6
:107BD0000CEB05044FF0020E0CF805E0A360089BC7
:107BE000E360099BA362FF250A9B62606570C4F88D
:107BF00024E0E362FE70456A036A0846984709FB81
:107C00000A8300220421A847606ABDE8F0870120AA
:107C1000BDE8F087041900202DE9F047DFF86C90EB
:107C20004FF02C0A0AFB009E8046DEF804000EB2DC
:107C300000EBC60710F83600FC78651CEDB2A842D0
:107C400098BF00257878A8421DD0786804EB4404DA
:107C5000240106194FF0010C00F804C0FF207070D9
:107C600002207062B262F362FD70DEF82030DEF84E
:107C700024400846984708FB0A9300220421A047A5
:107C8000706ABDE8F0870120BDE8F0870419002084
:107C90002DE9F041084C2C2505FB004306465F6AA0
:107CA0001B6A0846984706FB0543BC460022042190
:107CB000BDE8F041604700BF0419002006F08CBB0E
:107CC000401A20F07F40704708B50346012B084654
:107CD0000ED833B119B106220649FDF709FD054852
:107CE00008BD19B106220449FDF702FD024808BD8E
:107CF000002008BD621900205C19002070B50646FE
:107D00000D4604F0A9FC044610B10C24204670BDB9
:107D100004F0B6FC10F0060FF7D1062229461EB17A
:107D20000248FDF7E5FCF1E70148FAE76219002097
:107D30005C190020002303700B70704720BF40BF08
:107D400020BF7047F0B50D4B89B005460E4601AA1D
:107D500003F1180718685968144603C40833BB4276
:107D60002246F7D11B88238008AB1D4415F81C0C54
:107D7000831B5842584109B0F0BD00BFF014010008
:107D800008607047024B1868436800211B68184759
:107D90006819002018B90B6843F000430B60704766
:107DA00018B90B6823F000430B60704770B5031DD2
:107DB000451E00249D4201D1204670BD15F8016F7B
:107DC0000022A018082AC0B201D10446F2E716F03A
:107DD000010F03D00029F0D00139C9B27608013271
:107DE000EFE7000010B50C4A92F83A3192F83911D9
:107DF0008B4238BF92F8384192F8391138BF1B19BD
:107E00005B1ADBB298429DBF92F83911D2F8343137
:107E100053F82100002010BD6819002030B590F8FB
:107E20005C3090F85D10994228D190F91D30002BFC
:107E300026DBC48C828CA0F86440C48DA0F862203C
:107E400054437D2262434FF47A7492FBF4F2A0F81B
:107E5000662090F86020012565F30102D2B200236C
:107E600042F00402013980F87050C36680F8602047
:107E700080F85D1080F85E50184630BD012030BD9E
:107E8000022030BD2DE9F84F0C78944281460F4610
:107E900090463DD01F4ED6F8683133F83430038019
:107EA00000254FF0020B06F5AE7A22B2D6F8680133
:107EB000B9F800E000EBC20130F83220964520D13D
:107EC0004868012820F003030AD9F3B1021D1CD031
:107ED0004279D2B1027902F00302013A012A14D8A0
:107EE000012215444A60EDB213B15146FEF715FF69
:107EF000013496F86C21E4B2A24208BF0024444544
:107F0000D3D13C702846BDE8F88FC1F804B0EBE748
:107F10000025F7E76819002010B5094B93F81021E8
:107F2000824204460AD902464FF48271D3F808010E
:107F3000FEF708FF10B1038CA34200D0002010BD53
:107F4000681900202DE9F04186B002230528054676
:107F50000F4602930CD0062850D055D9073880B26E
:107F6000FFF7DAFF002800F0B68190E840010FE04B
:107F7000B04B9E69D3F81C8002AB00930A46AE4B0F
:107F800003210020FFF7CAFD022819D0029BDBB9AC
:107F9000A84CA37C03F0FF00002B45D001234FF039
:107FA000000263F30202A549A54BA6485B1A6FF3D2
:107FB000C502DB0863F38F12A34917E0FFF7BEFE8B
:107FC000029B022BFAD0E1E7029B012BE0D00123B8
:107FD0004FF0000263F302029849994B9B485B1AE9
:107FE0006FF3C502DB08984963F38F12FAF748FA7A
:107FF000404080F311884FF0040002DF8D4BD3F82E
:10800000D060D3F8D480C3E701234FF0000263F3BC
:1080100002028A498A4B5B1A6FF3C502DB088A4960
:1080200063F38F128A48E1E706AB0222A57443F896
:10803000102D032100932A467F4BFFF76FFD022886
:108040002FD0029B002B40F03181237C9D4203D036
:10805000637C9D4240F0268106AB022243F80C2D42
:10806000002200930321744B1046FFF757FD0228AE
:1080700025D1012211460320FEF7C6FE039B022BE9
:108080001DD101234FF0000263F302026B496C4BD8
:1080900070485B1A6FF3C502DB0863F38F126E49F9
:1080A000A4E7637C9D4204D1012211460320FEF720
:1080B000ABFE029B022BC4D1FFF740FEF9E7039D04
:1080C000002D78D102230493237C03F0FF017BB9B8
:1080D00001234FF0000263F3020261F3C502584B23
:1080E00056495E485B1ADB0863F38F125A497DE7F5
:1080F00004AB00930122504B257403212846FFF75F
:108100000DFD022817D1012211460320FEF77CFE47
:10811000049B022B0FD101234FF0000263F30202F4
:108120004649474B4E485B1A65F3C502DB0863F3CB
:108130008F1249495AE7049DEDB926F00046B04533
:108140008CBF484B484B2A4629460320FEF784FE45
:10815000002800F0A7804FF00002012363F3020221
:1081600065F3C5023549364B40485B1ADB0863F3BB
:108170008F1239493AE7049E012E40F09D8000227B
:10818000384B11460320FEF767FE054630B14FF02D
:10819000000266F302026FF3C502E3E702460146FE
:1081A000314B0320FEF758FE00287BD04FF0000231
:1081B00066F30202D4E7039D012D7DD1FF2F5BD032
:1081C00006AB022243F8042D032100933A461A4BD2
:1081D0000020FFF7A3FC022816D12A4629460320D7
:1081E000FEF712FE059B022B0ED11449144B2048BA
:1081F0004FF000025B1A65F302026FF3C502DB0861
:1082000063F38F121449F1E6059BABB3059B012B79
:1082100032D001234FF0000263F302020749084BFA
:1082200014485B1A6FF3C502DB0863F38F120A4927
:10823000DCE600BF68190020817D00003C140100CD
:108240005C140100672F010085290100332F010014
:1082500010240100932F010071290100B82F0100A3
:10826000E62F010050490020F04900200A300100AB
:10827000243001004A300100237D9BB1174B0422BA
:108280009A60002211460320FEF7E6FD38B14FF058
:108290000002012363F302027DE7FFF74FFD237D18
:1082A000002BFAD1A37C0BB9012302930023A37402
:1082B000029806B0BDE8F08101234FF0000263F39D
:1082C00002020749074B5B1A6FF3C502DB0863F331
:1082D0008F120549A6E60120EBE700BF8049002088
:1082E0003C1401005C1401007129010038B50446FA
:1082F0002E4B002932D01D78002D56D1012816D0E2
:1083000001234FF0000263F302022949294B2A4856
:108310005B1A65F3C502DB08284963F38F12FAF78D
:10832000AFF8404080F311884FF0040002DF18706E
:108330002A46234B2946FEF78FFD002835D04FF003
:10834000000264F3020265F3C5021949194B1D4886
:108350005B1ADB0863F38F121849E0E71A7822B33F
:10836000197000B301280ED1174B00221146204688
:10837000FEF772FDC8B14FF00002012363F3020261
:108380006FF3C502E1E701234FF0000263F302023D
:1083900061F3C502074B06490C485B1ADB0863F31F
:1083A0008F120649BBE70A4BDFE738BD741B00207C
:1083B0003C1401005C140100ED2D01006E2701004A
:1083C000B0490020112E0100D049002010240100E6
:1083D000C0490020000000002DE9F04F8BB00024C0
:1083E000FF25DFF84C918DF81F50804693461F46BD
:1083F00001F1040A1C60089426460223099309AB84
:108400000293454B019308AB00930DF11F025B46AD
:1084100041460020FFF7BEFB02281CD0099BF3B1A8
:1084200001234FF0000263F302023C493C4B3D48FC
:108430005B1ADB086FF3C50263F38F123A49FAF750
:108440001FF8404080F311884FF0040002DF4146DE
:108450000020FFF71DFC099B022BF8D0DEE79DF8FA
:108460001F20FF2A4ED0062AC7D999F810310733AA
:108470009A42C2DA073A92B24FF48271D9F80801EF
:10848000FEF760FC0028B8D090F91D30002BB4DB5B
:108490000368089AD0F804E0002B12DA816823F010
:1084A000004371452CBF52187244D21AC168FF2D87
:1084B00001F104010B4408D19DF81F501C461646DB
:1084C0009BE7734538BF7346F0E731461046059386
:1084D0000492FFF7F5FB04EB0A018842049A059B1E
:1084E000EAD912483444A4FB0001072303FB04111A
:1084F00007A3D3E90023F7F76BFE803038600BB099
:10850000BDE8F08FFF2DECD1F9E700BFAFF300809D
:1085100000CA9A3B00000000817D00003C1401006D
:108520005C140100D5300100AA2701008D49FD1A15
:108530006819002070B504780A78C4F38013B3EB8F
:10854000D21F19D104F00F04012C01F1080600F12B
:10855000020508D0062231462846FDF79CF8B0FAFD
:1085600080F0400970BD062231462846FDF793F899
:108570000028EFD1204670BD002070BD10B5264AFE
:1085800092F8393192F83A11994216D101234FF0FD
:10859000000263F302022149214B22485B1A6FF368
:1085A000C502DB08204963F38F12F9F769FF4040E9
:1085B00080F311884FF0040002DF92F83911D2F8ED
:1085C000343153F8211092F8703108680B7092F82A
:1085D000393192F838410133DBB29C4208BF0023A5
:1085E00082F8393102F5A472FEF7C6FB78B901238F
:1085F0004FF0000263F302020849094B5B1A60F373
:10860000C502DB0863F38F1207490848CDE7BDE8D0
:10861000104004F0F1BB00BF681900203C140100B9
:108620005C1401006A2E01000F290100B12E010027
:108630000B4A92F8783192F8791199420ED192F85A
:10864000783102EB4303A3F8720192F878310133D9
:10865000DBB2032B08BF002382F87831704700BFDC
:108660006819002008B5B0B101234FF0000263F390
:1086700002020949094B0A485B1ADB086FF3C5027D
:1086800063F38F120749F9F7FBFE404080F311882E
:108690004FF0040002DF08BD3C1401005C1401002F
:1086A000CB3101007B26010008B5B0B101234FF0AA
:1086B000000263F302020A490A4B0B485B1ADB080B
:1086C0006FF3C50263F38F120849F9F7D9FE4040F2
:1086D00080F311884FF0040002DF054BD87408BD09
:1086E0003C1401005C140100CB3101000D27010096
:1086F0006819002008B5B0B101234FF0000263F300
:1087000002020B490B4B0C485B1ADB086FF3C502E6
:1087100063F38F120949F9F7B3FE404080F31188E3
:108720004FF0040002DF064BC9B2D97408BD00BF88
:108730003C1401005C140100CB310100F42601005F
:1087400068190020012808B5184B1BD19A7C052A0E
:1087500002D100229A7408BD1549164B4FF0000251
:1087600060F302025B1A6FF3C502DB08124913487B
:1087700063F38F12F9F784FE404080F311884FF0C5
:10878000040002DF1B7C052B0FD101234FF00002F8
:1087900063F302020649074B09485B1A6FF3C502EF
:1087A000DB0863F38F120449E4E708BD6819002071
:1087B0003C1401005C140100AA26010010240100F1
:1087C00035310100012808B5184B1BD19A7C062AC7
:1087D00002D100229A7408BD1549164B4FF00002D1
:1087E00060F302025B1A6FF3C502DB0812491348FB
:1087F00063F38F12F9F744FE404080F311884FF085
:10880000040002DF1B7C062B0FD101234FF0000276
:1088100063F302020649074B09485B1A6FF3C5026E
:10882000DB0863F38F120449E4E708BD68190020F0
:108830003C1401005C140100C12601001024010059
:108840009831010008B5D0B10D4B9B7C052B16D09B
:1088500001234FF0000263F302020A490A4B0B485E
:108860005B1ADB086FF3C50263F38F120849F9F74F
:1088700007FE404080F311884FF0040002DF08BD7E
:10888000681900203C1401005C140100EC31010067
:108890009126010008B5F0B10F4B9A7CC9B2914204
:1088A00019D0DB7C994216D001234FF0000263F30C
:1088B00002020A490A4B0B485B1ADB086FF3C50238
:1088C00063F38F120849F9F7DBFD404080F311880C
:1088D0004FF0040002DF08BD681900203C140100BD
:1088E0005C1401002F320100D9260100044B5B7D8E
:1088F00023B1012100220846FEF786BA704700BF67
:1089000068190020062810B50C460AD9094BC21F69
:1089100092B24FF48271D3F80801FEF713FA206087
:1089200010BD052804D00628034818BF002010BD3C
:10893000024810BD68190020381A00208019002054
:1089400008B54FF00002012363F302020849094B06
:1089500009485B1ADB086FF3C50263F38F120749FE
:10896000F9F78EFD404080F311884FF0040002DFDC
:108970003C1401005C140100112E0100FC270100D1
:10898000002208B511460E4B1046FEF765FAB0B14D
:1089900001234FF0000263F302020A490A4B0B481D
:1089A0005B1ADB086FF3C50263F38F120849F9F70E
:1089B00067FD404080F311884FF0040002DF08BDDE
:1089C000204900203C1401005C140100112E01001C
:1089D0003B270100002208B511460E4B1046FEF75A
:1089E0003BFAB0B101234FF0000263F302020A49DF
:1089F0000A4B0B485B1ADB086FF3C50263F38F1257
:108A00000849F9F73DFD404080F311884FF004001C
:108A100002DF08BDA04900203C1401005C140100E5
:108A2000112E01005727010008B5144A137838B1F8
:108A3000591C11700BBB0120BDE8084004F0DAB9E5
:108A4000B3B901214FF0000261F3020263F3C502E2
:108A50000B490C4B0C485B1ADB0863F38F120B4974
:108A6000F9F70EFD404080F311884FF0040002DF5B
:108A7000013BDBB21370002BDED008BD201B0020B1
:108A80003C1401005C1401008A2D0100272701001D
:108A90000020FFF7C9BF0000C0B208B5031F012BBB
:108AA00016D901234FF0000263F302021049114B63
:108AB00011485B1ADB086FF3C50263F38F120F498D
:108AC000F9F7DEFC404080F311884FF0040002DF2C
:108AD0000B4A537D3BB1043B012B04D95075BDE8D3
:108AE000084005F03FBE05F06FFE0028F7D008BD36
:108AF0003C1401005C140100A82D0100EA270100CC
:108B00006819002038B505460C460021084605F0D6
:108B10008FFD95F8A830DB064FF001020DD51F211F
:108B2000082005F0CBFD2246002105F1A90005F043
:108B3000E1FFBDE8384005F0EFBD08201B2105F03E
:108B4000BDFD2046F5E7000038B51B4A92F87031AC
:108B500092F86C410133DBB29C4208BF002392F8CB
:108B60006F419C4216D101234FF0000263F30202D1
:108B70001249134B13485B1ADB086FF3C50263F30A
:108B80008F121149F9F77CFC404080F311884FF0B7
:108B9000040002DF92F87051D2F8684124F83500E1
:108BA00092F8700104EBC004616082F87031BDE896
:108BB000384004F021B900BF681900203C140100BE
:108BC0005C140100CB2E0100212901002DE9F8439E
:108BD000244C064600272EB194F86D3194F86E218E
:108BE0009A4201D1BDE8F88394F86D81D4F864917C
:108BF000D4F8080139F8382009EBC8034FF4827122
:108C00005D682F60FEF79EF8034639F838001A8C2D
:108C100082421FD1D3F8F82042B9D3F8EC20C3F830
:108C2000F8501AB9C3F8EC50C3F8FC20D3F8FC2074
:108C300002B11560C3F8FC5094F86D3194F86C21C2
:108C40000133DBB29A4208BF0023013E84F86D3144
:108C5000F6B2C0E72B7967F301032B712946FFF7C2
:108C600073FFE9E768190020F7B5012204461146B1
:108C70000020FEF7C9F894F8202042F29B3300212F
:108C800007320093D2B24B4B0846FEF747FF30F055
:108C9000020616D04FF00002012363F302026FF3C5
:108CA000C5024549454B46485B1ADB0863F38F1202
:108CB0004449F9F7E5FB404080F311884FF0040088
:108CC00002DF414B5A7D052A1F4637D1228C197C81
:108CD0000732914232D11E7442F2AC33009301222A
:108CE000344B31463046FEF719FF30F0020507D00D
:108CF0004FF00002012363F3020266F3C502D0E7DE
:108D000042F2B33300932A462A4B29462846FEF7FF
:108D100005FF30F0020311D04FF00002012363F38E
:108D2000020265F3C502BCE70B796FF301030B7117
:108D30000B68C4F8EC30208CFFF706FFD4F8EC1079
:108D4000D4F8F030994203D0D4F8F8309942EBD1FE
:108D50001E4D07E00368C4F8EC30C4F8F030294633
:108D6000FDF7DBFFD4F8EC0018B1D4F8F8309842E6
:108D7000F0D10023C4F8F030C4F8F430D4F8EC108B
:108D800051B94FF6FF732384D7F880319C4208BF56
:108D9000C7F8801103B0F0BD0B796FF301030B71BD
:108DA0000B68C4F8EC30C4F8F830208CFFF7CCFE28
:108DB000E4E700BF658600003C1401005C1401007C
:108DC000B22901003529010068190020BC1A0020D1
:108DD00038B505460C460021084605F029FC95F8F3
:108DE000A8309B064FF001020CD51F21082005F08A
:108DF00065FC214605F1CA0005F0B0FEBDE838402B
:108E000005F090BC08201B2105F058FC2046F5E732
:108E1000262810B504460BD027280BD025280BD1C7
:108E2000022005F01BFC2046BDE8104005F01CBCEC
:108E30001A20F6E75020F4E70A2802D80230400052
:108E4000EFE7272801D80330F9E701234FF00002AC
:108E500063F302020849094B09485B1ADB086FF308
:108E6000C50263F38F120749F9F70AFB404080F30C
:108E700011884FF0040002DF3C1401005C14010073
:108E8000102401001C28010038B52A4C94F87830D1
:108E900094F879209A4206D00133DBB2022B08BF46
:108EA000002384F8783094F8C83094F8C9209A42A6
:108EB00006D00133DBB2022B08BF002384F8C83090
:108EC00094F878202A23272515FB0235601905F030
:108ED00029FC635D03F00F03022B23D0072B21D065
:108EE00002239620637505F029FD002005F094FC0F
:108EF00094F82830C3F30202D3B21946002011F0CF
:108F0000010F00F1010512D0013B134094F8282015
:108F1000C0B263F3020284F828202530BDE838404F
:108F2000FFF776BF0323637505F08CFCE0E7490883
:108F30002846E4E76819002073B5164602AA1C46C5
:108F4000054642F8046D27310120FFF745FA2368F2
:108F5000002B34D00198831B1B0216D501234FF040
:108F6000000263F302021A491A4B1B485B1ADB0822
:108F70006FF3C50263F38F121849F9F781FA404085
:108F800080F311884FF0040002DF3146FEF798FEAF
:108F9000024613480723A2FB000103FB02110AA3A8
:108FA000D3E90023F7F714F9236818440028206058
:108FB00005DB40F2E24068432368984201D302B0E7
:108FC00070BD1B1A2360F7E700CA9A3B000000003F
:108FD0003C1401005C14010088300100C927010025
:108FE0008D49FD1A13B500F16C030446826FC16808
:108FF000808CFFF7A1FF02A9E36E606F40F2E242AE
:10900000B3FBF2F3022221F8023DFCF771FB02B040
:1090100010BD000030B5764C85B0D0B1A37C052BD7
:1090200000F0E48001234FF0000263F30202714973
:10903000714B72485B1A6FF3C502DB08704963F32A
:109040008F12F9F71DFA404080F311884FF00400A9
:1090500002DF237C052B03D0637C052B40F0AF801F
:1090600004AB022243F8082D002200930121654B36
:109070001046FEF753FD022819D0029820B3029D36
:10908000012D40F08C80237D002B00F098805E4BFA
:1090900004229A60002211462846FDF7DDFE0028D2
:1090A00000F08D804FF0000265F302023DE00122E6
:1090B00011461046FDF7A8FE029B022BDDD10121CF
:1090C0000020FEF7E5FDF7E702230393237C03F07E
:1090D000FF017BB901234FF0000263F3020261F349
:1090E000C502454B434949485B1ADB0863F38F12BD
:1090F0004749A6E703AB0122207411460093414B78
:10910000FEF70CFD022813D0039DF5B1039C012C42
:1091100045D100223F4B11462046FDF79DFE0546F6
:1091200088B34FF0000264F302026FF3C50221E03E
:10913000012211461046FDF767FE039B022BE3D187
:1091400001210020FEF7A4FDF7E7A369E26923F0FF
:109150000043934234BF2F4B2F4B2A462946012010
:10916000FDF77AFE58B34FF00002012363F30202C9
:1091700065F3C5021F49204B28485B1ADB0863F3DF
:109180008F1223495DE702460146234B2046FDF737
:1091900063FEA0B14FF0000264F30202E8E701238E
:1091A0004FF0000263F302021249134B1C485B1A92
:1091B0006FF3C502DB0863F38F12154941E7002204
:1091C000184B11460120FDF747FE78B101234FF0FF
:1091D000000263F302020749074B13485B1A6FF35F
:1091E000C502DB0863F38F1205492AE705B030BDDD
:1091F000681900203C1401005C1401006831010072
:1092000073280100817D000070490020B82F010003
:109210005728010040490020E04900200A300100A1
:109220001024010010490020112E010070B5164CC9
:10923000037894F8E120DB09B3EBD21F05460E4614
:1092400007D094F8E100C0F3011010F002000BD138
:1092500070BD00F10801062204F1E200FCF71BFAE0
:109260000028EED1012070BD95F90030002B09DAFD
:109270006B7B03F0C003402B04D1002EF2D0012001
:10928000307070BD002070BD6819002010B501203D
:10929000FEF7A8FD0446B0B901234FF0000263F3C6
:1092A00002021149114B5B1ADB0860F3C50263F33C
:1092B0008F120F490F48F9F7E3F8404080F3118807
:1092C0004FF0040002DF4FF6FF73C38006230371E3
:1092D000102200210830FCF737FA3C232372BDE846
:1092E0001040FFF74BB900BF3C1401005C140100B3
:1092F000472801006D2D010010B503460A4600F114
:109300009C01D0F89C00B0B901234FF0000263F338
:1093100002021C491C4B5B1A60F3C502DB081B49A7
:109320001B4863F38F12F9F7ABF8404080F31188C4
:109330004FF0040002DF1C8CA3F8A24083F8A420A5
:109340000724144A83F8A04092F8704183F89C40A7
:1093500002F5A472FDF710FD78B901234FF0000269
:1093600063F302020749084B5B1A60F3C502DB088E
:1093700063F38F1205490848D5E7BDE8104003F0B4
:109380003BBD00BF3C1401005C14010048290100F2
:109390000831010068190020B12E010070B50646A1
:1093A0000320FEF71FFD002839D04FF6FF73C3805E
:1093B0001C4B93F8E1305A072DD0C3F30203DAB205
:1093C000012A18D0042A17D001234FF0000263F3BA
:1093D00002021549154B16485B1ADB086FF3C502EC
:1093E00063F38F121349F9F74BF8404080F311886B
:1093F0004FF0040002DF0323447A037100F10805F3
:10940000023456B105F036FA00F07F002855FFF718
:10941000B5F8002070BD0223EEE77F20F6E70120BB
:1094200070BD00BF681900203C1401005C140100ED
:1094300010240100E225010030B50368002B89B03B
:109440002FDA446885680690A54223F0004334BFB4
:109450001B1B5B1B00249BB21348059001930093D8
:1094600004942346039402942046FEF709FB30F04F
:10947000020316D001234FF0000263F302020B49EE
:109480000B4B0C485B1ADB0864F3C50263F38F12C5
:109490000949F8F7F5FF404080F311884FF00400C8
:1094A00002DF09B030BD00BFA17D00003C14010007
:1094B0005C140100B22901008127010000000000B6
:1094C00070B58EB002230993FF220023924E934D74
:1094D0000A9304460B938DF823200C9309AB029357
:1094E0000CAB009301960DAB0DF12302012100207E
:1094F000FEF750FB02281CD0099BF3B101234FF06B
:10950000000263F302028649864B87485B1A6FF3B9
:10951000C502DB08854963F38F12F8F7B1FF4040BD
:1095200080F311884FF0040002DF01210020FEF7D4
:10953000AFFB099B022BF8D0DEE79DF82330FF2B11
:1095400004D095F8102107329342C7DA5A1FD2B2DD
:10955000F92A05D8714A92F810210732934205DBA7
:1095600000210120FEF7C2FE0EB070BD0AA9E0B2D4
:10957000FFF7C8F978B901234FF0000263F3020244
:109580006749684B5B1A60F3C502DB0863F38F120F
:1095900066496748C1E703684468002BB8BF836821
:1095A0009C4238BF1C46C3689DF823000BA91C448D
:1095B000FFF7A8F9054678B901234FF0000263F3DD
:1095C00002025749574B5B1A60F3C502DB0863F38D
:1095D0008F1256495748A0E78668436802689E4242
:1095E00038BF1E46002A09DA0C9B22F00042921B6B
:1095F0009A4235BF9A1A00230C920C930C9A04F1EC
:10960000310393420AD200210120FEF76FFE9DF83C
:10961000232001212846FFF70FFFA5E70121084677
:10962000FEF764FE2B68002B25DB9E4223D29B1B9A
:109630009BB2069540490591002502939DF8232091
:10964000049503950195009501212846FEF718FA27
:1096500030F002030FD001234FF0000263F3020247
:109660002F49304B35485B1A65F3C502DB0863F3BD
:109670008F122E4951E70A9E002E3FF475AF0B9DC5
:10968000002D3FF471AFB38CAA8C9A427FF46CAF7B
:109690002B4892B2A2FB000140F2231303FB0211FC
:1096A0001BA3D3E90023F6F793FD0C9B20F07F402A
:1096B0000022984218D302B10C9396F91D20002A7B
:1096C00095F91D2013DA002AFFF64EAF14349C42A0
:1096D0007FF64AAF3046FEF7A1FB02287FF444AF85
:1096E0000B98FEF79BFB3FE71B1A0122E1E7002ADC
:1096F000BFF63AAF14349C427FF636AF2846FEF7E9
:109700008DFB02287FF430AF0A98EAE7AFF30080C0
:109710008D49FD1A07000000817D000068190020B6
:109720003C1401005C140100D530010094270100B5
:109730002E2E01004C2E0100957D0000B229010063
:109740000054CE0970B514460E460546FEF7B6FA2B
:109750002146FEF7B5FAC41C092C0FD90021084692
:10976000FEF7C4FD324600212846FFF765FEAB68D0
:109770001C44262C00D8AC60012070BD002070BDB8
:1097800037B502AD104B45F8043D044604F036FFF2
:10979000002004F05DFF0D4804F0FAFE0121204690
:1097A00004F046FF284604F071FF620002F0FE025A
:1097B0002521082004F082FF054940F25B6005F096
:1097C0000DF803B030BD00BFD6BE898EC9AA000017
:1097D00055555500424B1A7D70B502F0FF01054604
:1097E0001C46B2B101234FF0000263F302023D496F
:1097F0003D4B3E485B1A6FF3C502DB083C4963F3FF
:109800008F12F8F73DFE404080F311884FF00400BE
:1098100002DF1B7CDBB2052B4FF001060ED04FF0B0
:10982000000266F3020261F3C5022F4B2D49314855
:109830005B1ADB0863F38F122D49E2E7A06094F80E
:109840002900267500F0070021746374FFF798FF64
:1098500094F8293094F82820C3F3C20363F302027A
:1098600084F82820FFF710FB94F8293013F0C00F7C
:1098700007D0304604F09AFC821C4178007805F04D
:1098800011F805F10901E268012005F063F805F01F
:109890001DF92A4605211848FFF754FF054628B14F
:1098A00004236375BDE8704004F05CBF0346134AAF
:1098B0000146FEF7B1F930F002030FD001234FF05B
:1098C000000263F302020749074B0D485B1A65F378
:1098D000C502DB0863F38F12054992E770BD00BF34
:1098E000681900203C1401005C140100272A0100C3
:1098F0003D280100F429010080190020ED880000B6
:10990000B229010008B5054B0022986011461046A7
:10991000FDF7A2FA08B1FFF713F808BD604900206F
:109920002DE9F04F14688DB09B46002C9DF85C30FB
:109930000B91824691460A93DBF8006003DA169C8D
:10994000B44238BF3446B442DFF8BC812ED941F26C
:10995000C2530893634B05930025A31B0093CDF8D6
:109960001C805346069504950395029501950122A6
:1099700029462846FEF734F830F002033ED04FF077
:109980000002012363F3020265F3C5025649574BF7
:1099900057485B1ADB08574963F38F12F8F770FDDD
:1099A000404080F311884FF0040002DF1FD20023F3
:1099B0001A4619461846FEF7E3FF41F2D753002531
:1099C0000893341B4C4B0593CDF81C8053460695E9
:1099D0000495039502958DE830000122294628461A
:1099E000FDF7FEFF30F00203C9D134460BE000233F
:1099F0001A4619461846FEF7C3FF00231A461946B1
:109A00001846FEF7E7FF3D4F0B9BFB6041F2EF531B
:109A10000893199B06930025189B0593CDF81C808D
:109A200053460495039502958DE830002A46294651
:109A30002846FDF7D5FF30F00203A0D10520FFF73F
:109A400061FFD7F87C319E422DD0CBF80030D9F899
:109A50000030002BBCBF23F00043C9F80030D7F81A
:109A60007C11D9F80020CDF814808A4238BF0A460C
:109A7000A3B292B2002441F21D61069102930192B9
:109A80000092049403940A9A21462046FDF7F8FFB9
:109A900030F0020307D04FF00002012363F302020B
:109AA00064F3C50272E7FF20FFF790F8144B0A9A9F
:109AB0009A60012211460020FDF7CEF978B101230A
:109AC0004FF0000263F302020749084B0D485B1A8E
:109AD0006FF3C502DB0863F38F1206495EE70DB032
:109AE000BDE8F08F818900003C1401005C14010086
:109AF000B229010007280100D5890000681900205B
:109B0000004A0020112E0100658600001FB5154A8D
:109B1000137C03F0FF04B3B101234FF0000263F3A1
:109B200002021149114B12485B1ADB086FF3C502A0
:109B300063F38F120F49F8F7A3FC404080F31188BC
:109B40004FF0040002DF0523137403940A4C0294BF
:109B50000193136A009302F11C031832FFF7E0FE31
:109B600004B010BD681900203C1401005C14010011
:109B7000042F010025280100D597000007B5052016
:109B8000FFF7C0FE41F62613002100930522104B7B
:109B90000846FDF7C3FF30F0020316D001234FF053
:109BA000000263F302020B490B4B0C485B1ADB0803
:109BB0006FF3C50263F38F120949F8F761FC404067
:109BC00080F311884FF0040002DF03B05DF804FB5E
:109BD000159000003C1401005C140100B229010042
:109BE000882801002DE9F843214D95F83A4195F870
:109BF000383195F84C910134E4B2A34208BF0024F7
:109C000005F5A07705F59478B9F1000F03D095F824
:109C100039319C4201D1BDE8F8833846FDF763F83D
:109C200006460028F7D04046FDF75DF828B93046D3
:109C30001049BDE8F843FDF770B8066095F83A2181
:109C4000D5F8343143F8220085F83A4195F8383197
:109C50000134E4B2A34208BF002495F84C3109F165
:109C6000FF39013B85F84C315FFA89F9CCE700BF39
:109C700068190020A81A002010B5374C94F810215C
:109C8000002A48D004F586734FF48271D4F8080195
:109C9000FDF702F8314B94F83221B4F83011D4F8C2
:109CA0002401FCF7F9FF94F8381194F810212C4B9B
:109CB000D4F83C010A440821FCF7EEFF294BD4F804
:109CC000500102222421FCF7E7FF94F86C21D4F81C
:109CD0005801254BB4F86011013A92B2FCF7DCFF51
:109CE0001F48FDF700F8C8B901214FF0000261F3E9
:109CF00002021E4B1E495B1ADB0860F3C50263F3C8
:109D00008F121C491C48F8F7BBFB404080F31188B8
:109D10004FF0040002DFC4F80C21BBE7174A111F03
:109D2000FDF727F894F8293043F0380384F82930F8
:109D3000FF2384F81A3184F81B3184F81C3184F82D
:109D40001D311F2384F81E31252384F81F31BDE8FF
:109D50001040FFF747BF00BF68190020901A00208D
:109D6000A81A0020BC1A0020C41A00205C140100AC
:109D70003C140100B8250100B12E0100B01A0020EA
:109D800038B5154B1A782ABB012514481D7005F00B
:109D9000D7FF0446B8B91249124B4FF0000265F3E1
:109DA00002025B1ADB0860F3C50263F38F120E49EF
:109DB0000E48F8F765FB404080F311884FF004002F
:109DC00002DFFDF7BBFF636801211B68204698474F
:109DD0000028F6D138BD00BFEC1A0020041A01009B
:109DE0003C1401005C14010062270100A02C01005A
:109DF000024B1868436800215B6818476819002007
:109E0000F0B5484003274FEA102E082600240EF034
:109E10000105013E45EA440516F0FF06ECB24FEAA3
:109E20005E0EF4D125022DB2C0B24FF0080E3446BA
:109E300000F0010646EA44040EF1FF3616F0FF0E6C
:109E4000E4B24FEA5000F3D12C4304EB0414013F79
:109E50000C4417F0FF07A0B2D5D125244140B1FB37
:109E6000F4F004FB1010C0B2C40800F00705145D44
:109E70002C41E40707D45943C1F307411046BDE81C
:109E8000F040FDF793BFF0BD10B590F8A840D0F8B2
:109E9000F02014F0800F18D1D0F8EC30ABB12407CB
:109EA00013D4D0F8F840A34204BF1C68C0F8F840AF
:109EB00092B91A680A601960C0F8F010C0F8F4107E
:109EC0000B680BB9C0F8FC1010BD2AB9D0F8EC3003
:109ED0000B60C0F8EC10EFE7D0F8F4301A680A60B5
:109EE0001960EBE710B490F8A84024070A460FD594
:109EF000D0F8F01031B9D0F8EC101160C0F8EC20B7
:109F000010BC7047D0F8F430196811601A60F7E798
:109F100010BCFFF7B9BF0000F8B5214F054607F5A3
:109F2000AA700E46FCF7DFFE0446B0B333797179B0
:109F3000D7F8142143F07F4343F47E0343F44353A3
:109F400043F0100343EA0123B17943EA0143D2F815
:109F50008C10C1F310010B40C2F88C3092F83830ED
:109F600043F0200382F83830037943F00303037190
:109F7000082209234371C37100211044FBF7E4FB5D
:109F8000D5F88C3023721A0A1B0C28466272A37211
:109F90002146FFF7A7FF0020F8BD0120F8BD00BF54
:109FA00068190020000000002DE9F04F864D1C4686
:109FB0002B7C8FB080468946B3B101234FF000025D
:109FC00063F302028149824B82485B1A6FF3C50238
:109FD000DB08814963F38F12F8F752FA404080F3AF
:109FE00011884FF0040002DF94F820300733DBB211
:109FF0002B7494F91D30002B09DAE36B616C02FBC2
:10A0000003330B44216C63648B4288BF6164268DEB
:10A0100094F85C303244668C92B22285324496B217
:10A0200094F85D209A4200F062820520FFF76AFCF6
:10A0300094F85E30013B032B00F2A983DFE813F0B4
:10A0400004002F02DA023E03D5F880310BB9C5F8BF
:10A05000804194F8603013F0030375D05F48FCF73B
:10A0600042FE0546002800F0428294F8603003F07A
:10A070000302012A58D16FF3010384F86030E38CA6
:10A08000063333449BB2A4F86830027942F00302ED
:10A0900002710C2242710022C27194F87020027287
:10A0A000E26E40F2E241B2FBF1F2A0F80920B4F80E
:10A0B0006220A0F80B20B4F86420A0F80D20B4F8BA
:10A0C0006620A0F80F20A0F811302268C4F878802C
:10A0D000002A0ADAA368616822F000428B422CBF92
:10A0E000434408EB01039B1AA36705F10903636767
:10A0F0003B4B3C4ADA600122114600209C60FCF791
:10A10000ABFE002800F0EF8101234FF0000263F363
:10A1100002022E492E4B34485B1A6FF3C502DB084E
:10A1200063F38F12314957E701234FF0000263F3C5
:10A1300002022649264B5B1A6FF3C502DB082C4945
:10A1400063F38F122B4847E7B4F86870F71BBFB270
:10A15000380400F1CC8194F85C2084F85D20D5F8B7
:10A1600080212B74944208BFC5F88031B4F8623066
:10A17000A28C9A4214D1B4F86410E38C99420FD1A6
:10A1800040F2E2435A43B4F8663042F2107101FBE8
:10A190000323013B93FBF2F3E28D9BB29A4241D041
:10A1A0000220FDF71FFE48BB01234FF0000263F3BE
:10A1B00002020649064B5B1A60F3C502DB080C4934
:10A1C00063F38F120C4807E7681900203C14010064
:10A1D0005C140100042F0100DD280100BC1A0020DE
:10A1E00090490020E58F0000112E01009728010002
:10A1F000AB280100102401006D2D0100238CC380C9
:10A200000823037100230372B4F86230A0F8093008
:10A21000B4F86430A0F80B30B4F86630A0F80D3014
:10A22000FEF7ACF923686668002B09DAA06823F012
:10A230000043B0422CBF8044B0442360A8EB030825
:10A24000A38CB4F862A0CC4913FB07F39BB2B3FB19
:10A25000FAF21FFA82F91AFB09F080B2834280F009
:10A26000AF80C01A40F223124243C31701FB0323FD
:10A27000A0FB01011944BEA3D3E90023F5F7A8FF11
:10A2800020F07F4000EB08030B93238DDFF828B309
:10A29000DB1B4B4423852368B34238BF33460D9301
:10A2A00094F91D3040F2E248002BE36E0C9308FB5A
:10A2B0000AF680F29680E36B626C03FB172795F831
:10A2C0002031AE4A32F8135094F83830C3F3820389
:10A2D00032F8133094F870201D44754305F5742549
:10A2E000A74B08FB02F205F23F25B5FBF3F5730817
:10A2F00005FB09F0963B0744E26400229F4294BFAD
:10A3000067646364E5632364A265A0FB0B0198A303
:10A31000D3E90023F5F75CFF0B9B1B1A0B930C9BF7
:10A32000B3FBF8F008FB00F091A3D3E90023A0FBF6
:10A330000B01F5F74DFF751B20F07F47B4F8643033
:10A34000E384B4F86630A4F824A042F2107202FB51
:10A350000363013BB3FBF6F3E3858A4B3344B3FB62
:10A36000F6F694F86030668613F0040308BF23867F
:10A370000121002004F092FC0022012181461046B8
:10A38000FCF742FD94F820607F4B0736F6B20021BF
:10A39000009632460846FDF7C1FB30F002082DD08A
:10A3A0004FF00002012363F302026FF3C502774905
:10A3B000774B78485B1ADB0863F38F1276490BE61C
:10A3C0000AFB123292B2A2FB010140F2231303FBFB
:10A3D000021167A3D3E90023F5F7FAFEA8EB000307
:10A3E00052E70C9962A3D3E90023A1FB0B01F5F717
:10A3F000EFFE20F07F40471C35469FE7A5FB0BABE7
:10A400005BA3D3E9002350465946F5F7E1FE634AC2
:10A4100020F07F45072320F07F400021434302FBCB
:10A420000133A0FB0201BAEB000019446BEB010100
:10A430004FF47A720023F5F7CBFEE3680D9A94F996
:10A440001DE0574902901A441346564A049312EAF3
:10A450002E0238BF0A465449079105920896069481
:10A46000CDF80C80019500970B9B32464146404643
:10A47000FDF7B6FA30F0020007D04FF000020123DA
:10A4800063F3020268F3C50291E7B9F1000F6BD0E4
:10A49000012211460FB0BDE8F04FFCF7B5BC94F8AF
:10A4A0006030002B00F08A804048FCF71CFC054619
:10A4B000E8B1002384F86030E38C06333344A4F819
:10A4C0006630037943F003030371082343710123CA
:10A4D000C371052204F161010830FBF709F9B4F8F2
:10A4E0006630A5F80D3029462046FFF7CDFC94F8DC
:10A4F000992094F898309A421DD00520FFF702FA6F
:10A500002A48FCF7F0FB0146A8B194F8983084F88B
:10A510009930037943F00303037102234371C3713C
:10A5200094F89A3003722046FFF7AEFCE38D012BBE
:10A5300098BF0133A38694F8203094F91D501C482D
:10A540001C49A2680394073311EA250138BF01466C
:10A55000DBB28DE80C000291231D2246494640469D
:10A560000136FFF7DDF966840FB0BDE8F08F00BF5C
:10A570008D49FD1A070000000054CE09FA2A010097
:10A5800040420F00FF596202F58600003C140100B2
:10A590005C140100B2290100AB2801008D49FD1AAD
:10A5A000C9A70000CDA70000A9860000BC1A0020A2
:10A5B00001C300000DA8000000CA9A3BB4F8663041
:10A5C000F31A190493D494F85C3084F85D3004F1E4
:10A5D0001705052204F161012846FBF789F80521DA
:10A5E0002846FCF719FD637F60F3050363770123B9
:10A5F00023777CE794F8381011F0200730D094F8D6
:10A600005C3084F85D300220FDF7ECFB0123054649
:10A6100068B94FF0000263F302026449644B5B1AAD
:10A6200060F3C502DB0863F38F126249CAE5228C2E
:10A630000371037AC28043F0030303720923437258
:10A64000C372082200210C30FBF77EF8D4F88C305E
:10A650002B731A0A1B0C6A73AB73FDF78FFF46E767
:10A660005548FCF740FB054600283FF440AF94F8FE
:10A670005C3084F85D30514BC4F88C30037943F082
:10A68000030303710923437194F91D30002BACBF00
:10A6900008230E230822C37139461044FBF754F8EF
:10A6A000D4F88C302B721A0A1B0C6A72AB722946D2
:10A6B0002046FFF7E9FB638EA38618E794F89030F5
:10A6C000DA0724D43C48FCF70EFB014600283FF48F
:10A6D0000EAF94F85C3084F85D3094F8903043F01D
:10A6E000010384F89030037943F0030303710623D8
:10A6F00043710C23C371092303726FF00E0343727D
:10A70000052383724FF0FF33C3720373D0E713F056
:10A7100002032DD094F85C3084F85D300220FDF700
:10A7200061FB012368B94FF0000263F302021F4985
:10A730001F4B5B1A60F3C502DB0863F38F122049DD
:10A7400040E5228C0371037AC28043F00303037255
:10A75000062343720C23C37294F891300373B4F848
:10A760009230A0F80D30B4F89430A0F80F3074E7B0
:10A7700001214FF0000261F3020263F3C5020B49AD
:10A780000B4B5B1ADB0863F38F120D49DAE40123EC
:10A790004FF0000263F302020449054B5B1A6FF3AA
:10A7A000C502DB0863F38F120649CBE43C140100B9
:10A7B0005C140100BF280100BC1A00200C400100FD
:10A7C000CE280100DD280100FFF7EEBBFFF7ECBB50
:10A7D00010B5044603F012FF002003F039FF0A48C9
:10A7E00003F0D6FE04F1100003F050FF637DA17D5D
:10A7F0001B0243EA0143217D40F25B601943BDE83F
:10A80000104003F0EBBF00BFC9AA00002DE9F843D8
:10A810001C46724B1A7D074602F0FF061D46B2B178
:10A8200001234FF0000263F302026D496D4B6E4845
:10A830005B1A6FF3C502DB086C4963F38F12F7F7FD
:10A840001FFE404080F311884FF0040002DF1B7CA4
:10A85000228CDBB2073293424FF001010ED04FF051
:10A86000000261F302025F4B5D4961485B1A66F3C7
:10A87000C502DB0863F38F125C49E0E7032285F829
:10A88000186185F81961DBB22A752E746B74238DFB
:10A89000C5F81441A8606385204626856975FFF7D1
:10A8A00097FF962004F04AF8334632463146304648
:10A8B00003F0BEFF95F83921D5F8343153F8221052
:10A8C00020460831FEF71EF9637F13F0400F04F1B4
:10A8D00017024AD0608CE18B013803F03F0380B24D
:10A8E000FFF78EFAFEF794FAA36C626C1344002211
:10A8F0006264226CA364934288BFA264236DE26CFD
:10A90000002613442365EA68E66407F1090130462E
:10A9100004F020F8804604F0ADF8304604F0C4F8A6
:10A92000236DA26C78333146304603EB420903F0C5
:10A9300006FFC84431468044304603F002FF4044DD
:10A9400004F08CF894F82010073120463A46C9B23A
:10A95000FEF7F8FE044640B304236B7503F002FFD4
:10A960000220BDE8F843FEF731B9618DA67F01FBF7
:10A970000666E17F25200E4496FBF0F100FB116690
:10A98000F0B2C108E077515C06F0070641FA06F61E
:10A99000F10703F03F03A5D4B0FBF3F103FB110172
:10A9A000C9B21046FDF702FA9CE70346114A014678
:10A9B000FDF732F930F00203D2D001234FF000024C
:10A9C00063F302020649074B0B485B1A64F3C502A6
:10A9D000DB0863F38F12054931E700BF68190020D7
:10A9E0003C1401005C140100272A0100F628010034
:10A9F000B62A0100ED880000B2290100F8B590F8F0
:10AA0000A8301A0604460F4609D4D0F8EC5035B1E8
:10AA100013F0080FD0F8F0E022D0754520D094F85C
:10AA2000A83043F0800384F8A83003F0EDFE0378EB
:10AA3000012262F3010300224270D4F8EC2003707B
:10AA4000DBB252B143F01003037003786FF3471386
:10AA50000370002383703860F8BD62F30413F3E7DA
:10AA600094F8013194F800112A1DD01811B94178D9
:10AA700084F8001123B1D15C012666F30101D154A1
:10AA800094F80061F61AF6B24670D15C1B2E6FF393
:10AA90000411D15405D91B214170D15C41F0100142
:10AAA000D154296819B1D15C41F01001D154BEF1E3
:10AAB000000FCAD1D4F8F8309D421CBFC4F8F4503E
:10AAC000C4F8F050C1E700002DE9F04F8FB003F05B
:10AAD00071FEC6B236B303F08DFEC7B203F00EFFAF
:10AAE000C4B203F015FF04F099F804F085F803F000
:10AAF000CFFEC5B203F048FE03F010FF03F0F6FEF0
:10AB000004F080F803F0BCFE8248437D8346052BA9
:10AB100001F2C683DFE813F06900A0000A00D20941
:10AB2000D209D209354634463746E3E70125457553
:10AB300003F0DAFF0446962003F000FF9BF8143080
:10AB4000013BC334032B78D8DFE803F0022E5252C6
:10AB500000231A461946184603F06AFE03F058FE11
:10AB600003F0DAFD03F01CFE054678B101234FF037
:10AB7000000263F302026849684B5B1A6FF3C50277
:10AB8000DB08674963F38F126648A1E1014603F0D1
:10AB9000D8FD29460444284603F0CFFD201A03F0CF
:10ABA0005DFF03F093FF20E0002319461A46184684
:10ABB00003F03EFE9BF83921DBF8343153F82200D4
:10ABC000083003F0A9FD03F0EBFD05460028CDD1C8
:10ABD000014603F0B6FD29460444284603F0ADFDC6
:10ABE000201A03F03BFF03F03BFE0FB0BDE8F08FEF
:10ABF00000231A461946184603F01AFE9BF839211D
:10AC0000DBF83431DBF8140153F822100831FDF77A
:10AC100079FF03F0C5FD05460028A7D1014603F0E2
:10AC200090FD29460444284603F087FD201A03F0CE
:10AC300015FF0120FDF7CAFFD7E73749374B4FF023
:10AC400000025B1A65F302026FF3C502DB083449A8
:10AC500063F38F1234483BE12EB903238BF8153090
:10AC600003F080FDC1E7037D013B032B01F2168158
:10AC7000DFE813F004005402F604F604002FECD0D1
:10AC800003F0C6FD9BF878202A234FF0270919FB13
:10AC90000239027802F00F03032B07460BEB09057C
:10ACA00046D143780C2B43D19BF829305B0601D564
:10ACB000002C3DD01BF80930C3F38013B3EBD21F37
:10ACC00036D1062207F10801A81CFAF7E4FC064673
:10ACD00070BB03238BF8153003F0B4FD9BF8C8005C
:10ACE000272303FB00B07A3003F01CFD03F058FD6E
:10ACF00000283FF47AAF01234FF0000263F3020211
:10AD00000549064B5B1A66F3C502DB0863F38F1235
:10AD1000064939E7681900203C1401005C14010061
:10AD2000C42501000A2B010010240100D7250100D1
:10AD30003B7803F00F03052B8FD17B78222B8CD12E
:10AD40001BF8093003F00F03012B40F0CB8039468C
:10AD50002846FDF7EFFB88B13B781BF80920C3F3C9
:10AD60008013B3EBD21F40F0BB800622B91C05F163
:10AD70000800FAF790FCB0FA80F0400900283FF490
:10AD80006CAF9BF87A3133B19BF878319BF879211D
:10AD90009A427FF462AFDBF8CC30002B3FF45DAF1A
:10ADA0000420FDF71FF8054600283FF456AF4FF08A
:10ADB000040A8BF815A003F0D5FCDBF8CC40DBF8D7
:10ADC00008114FF000084FF482722046CBF8CC8077
:10ADD000FBF7BBFF0322208407F1120104F11400EA
:10ADE000FAF786FC04F11003184604F117065246E0
:10ADF00007F10E010A93FAF77BFC052207F11E0109
:10AE00003046FAF775FC05213046FCF705F9627FFC
:10AE10000A9B60F30502627797F82320C2F30402CD
:10AE2000A2773A8BA28440F2E2465643F97EBA7E7C
:10AE300042EA0122E2841946524604F15400FAF72C
:10AE400057FCBB8B42F2107202FB0363013BB3FB66
:10AE5000F6F3E385A44B39463344B3FBF6F363863C
:10AE6000238C85F808804FF0010885F80980EB8075
:10AE700011F8023B0622C3F380132A71AB7205F16D
:10AE80000B00FAF735FC3B8BA5F811307B8BA5F84E
:10AE90001330BB8BA5F8153097F82330C3F342135A
:10AEA000EB75208CFDF7C4FBFDF768FB0320FCF776
:10AEB00099FF28BB8D498E4B4FF000025B1A68F357
:10AEC000020260F3C502DB088A4963F38F128A48E5
:10AED000F7F7D6FA404080F311884FF0040002DF04
:10AEE00000204BE79BF82930DB0900D034B139460C
:10AEF0002846FDF71FFB00F001003FE72046FAE778
:10AF0000238CC3800A2303713B7813F0200300F0E5
:10AF1000E480627C237CE17C43EA0223A27C42EA57
:10AF20000122617F534041F040016177E38380F863
:10AF30000880FDF723FB97F8232094F838306F49F9
:10AF4000520962F3840384F838309BF8203131F8D9
:10AF5000122031F813301344734303F57423684A05
:10AF600003F23F23B3FBF2F3E3637308963B2364DE
:10AF70007B7D40F2E24A4FF000080AFB03F32365B1
:10AF80004146C4F84C80404603F0D9FB5D490A9025
:10AF900000F2524052A3D3E90023A0FB0101F5F7D0
:10AFA00017F9DBF87C51656027239D4238BF1D46A9
:10AFB00020F07F402360E36BE060C4F80880F61A5D
:10AFC00003F08CFD0B90F88A414600FB0AAA40462C
:10AFD00003F0B3FB0B9BAAF1300A9A440A9BAAEB3D
:10AFE000000AAAEB03030A9340F28343009305226D
:10AFF000454BDFF810A141464046FCF78FFD40F27B
:10B000008441FDF79FFB1BF8093003F00F03012B70
:10B0100007D1CDF800804346032241464046FCF765
:10B020007DFDA6FB0A672EA3D3E9002330463946EF
:10B03000F5F7CEF8DBF80830344AA3EB050B94F8AB
:10B04000203006940733DBB20B9340F29B43089306
:10B050002F4B07932F4B0593E36880461D4420F048
:10B060007F4007230021434302FB0133A0FB020181
:10B07000301A194467EB010100244FF47A7200235F
:10B0800004950394F5F7A4F80A99029028F07F43F9
:10B090000193A1FB0A0112A3D3E90023F5F798F865
:10B0A00020F07F4000905B460B9A21462046FCF73B
:10B0B00097FC30F002033FF498AD01234FF00002FB
:10B0C00063F3020209490A4B5B1A64F3C502DB0809
:10B0D000084963F38F121048FAE6037229E700BFAC
:10B0E0008D49FD1A07000000FF5962023C1401005F
:10B0F0005C140100D72501006D2D0100FA2A010022
:10B1000040420F0000CA9A3B458700008D49FD1A56
:10B1100065860000CDA70000B2290100002F00F0D5
:10B120005B8290F8E130C3F3001313B1002C00F000
:10B13000538200228DF834209BF83911DBF834213A
:10B1400052F82160DBF8002106F10804002A00F023
:10B15000E3809BF87A2132B19BF878219BF8791132
:10B16000914240F0D980002B00F0C480337A13F074
:10B170000F0340F02C8103F0B1FCDBF8DC3000F26F
:10B180001627C3480722A3FB000102FB0311BEA33D
:10B19000D3E90023F5F71CF8A0F59670874280F0FC
:10B1A000BB800420FCF71EFE0746002800F0148236
:10B1B0004FF0040A0023DBF800418BF815A0CBF810
:10B1C000003103F025FB0378B24903F0D00343F0CC
:10B1D00025030370327AC2F340185FFA88F30A93AA
:10B1E0000378C2F3801262F3C713222242709BF8E5
:10B1F000E120D20962F386130546062200F8023BDD
:10B2000005F10809FAF774FA06F10A010622484620
:10B21000FAF76EFA524604F1100105F10E00FAF742
:10B2200067FA032204F1140105F11200FAF760FA3B
:10B2300001236B75BBF8F43040F2E2465E4303F045
:10B240004DFCDBF80C30DBF804A1002BCCBF00F583
:10B25000DB6000F2BA60BAF1000F40F0C28085F8FE
:10B2600016A085F817A082460021084603F060FA70
:10B270000021AAEB000A084603F05FFAAAEB0000DF
:10B2800000F11E030B93BBF8F4302B83BBF8F630B0
:10B290006B83BBF8F830AB8304F11701052205F18D
:10B2A0001E00FAF725FAA27F95F8233062F3040313
:10B2B00085F823309BF8202162F3471385F823306B
:10B2C00003F0C0FA284603F02DFA03F069FA82462B
:10B2D000002800F096804FF00002012363F3020281
:10B2E0006FF3C5026C496D4B5B1ADB0863F38F1279
:10B2F0006B4949E49BF8E120337AC2F38012C3F32F
:10B3000080139A4208D1062206F10A016548FAF72D
:10B31000C2F900283FF42AAF337A13F00F0302D0AA
:10B32000062B40F066819BF8E120170740F1508121
:10B33000DBF80021002A40F04B812846FEF72EF86A
:10B340000546002840F0488103F062FA037851492D
:10B35000032262F303030370327ADBB2C2F380127A
:10B3600062F3C7130C2242709BF8E120D20962F30A
:10B3700086130446062200F8023BFAF7B9F90622C2
:10B3800006F10A0104F10800FAF7B2F99BF8E0307F
:10B3900043F002038BF8E030962002238BF815303F
:10B3A00003F0CCFA284603F037FA204603F0BAF946
:10B3B00003F08CFB03F0F4F900283FF416AC4FF0D7
:10B3C0000002012363F3020265F3C5028AE7012B41
:10B3D000A6D100212046FDF729FF00289CD0CAE60F
:10B3E000B244BAF1000FFBDB8245F9D340F2E243ED
:10B3F000AAEB0000B0FBF3F06B7DE88201336B75C4
:10B4000032E74FF48272DBF808112046FBF79DFC0F
:10B41000208487F808A087F809A02B78F8800622F6
:10B42000C3F3C0133A714946BB7207F10B00FAF738
:10B430005FF9BBF8F430A7F81130BBF8F630A7F885
:10B440001330BBF8F830A7F8153095F82330C3F364
:10B450004213FB75208CFDF7EBF8FDF78FF8032006
:10B46000FCF7C0FC00BB01234FF0000263F30202B3
:10B4700009490A4B5B1A60F3C502DB0863F38F12BC
:10B48000074924E5AFF3008000CA9A3B00000000A2
:10B490008D49FD1A4A1A00203C1401005C14010079
:10B4A000F5250100501A0020238CC3800A23037164
:10B4B0000A9B002B00F08980627C237CE17C43EABC
:10B4C0000223A27C42EA0122617F5340E38341F0E0
:10B4D0004001012361770372FDF750F8DBF87C31FE
:10B4E0006360272B38BF2723272200252260984638
:10B4F000DBF8FC20E26040F23B630622A5602946AF
:10B5000000932846C44BDFF830A3FCF707FB40F25A
:10B510003C61FDF757F92B46042229460095284641
:10B52000FCF7FCFADBF8083094F820900694A3EBC3
:10B53000080B40F253630893B84B0793B84B05933D
:10B54000E3680395A6FB0A67434404933046B0A31F
:10B55000D3E900233946F4F73BFE104619464FF471
:10B560007A720023F4F734FEA9A3D3E900230290F2
:10B5700039463046F4F72CFE0B990190A4A3D3E989
:10B580000023A1FB0A01F4F723FE09F1070920F0CB
:10B590007F405FFA89F900905B464A462946284673
:10B5A000FCF71EFA30F002033FF41FAB01234FF00B
:10B5B000000263F302029B499B4B5B1A65F3C502D1
:10B5C000DB0863F38F12994985E580F8088083E7EB
:10B5D0007BB9737A002B3BD103238BF8153003F032
:10B5E000C1F89BF8E0306FF341038BF8E030FFF7D0
:10B5F000FCBA012B0DD0337A03F00B02022AE8D0FB
:10B6000003F00F03072B0BD19BF8E1305C07E0D16F
:10B61000E2E70DA92046FDF709FE0028D9D1EAE7A7
:10B62000042BD9D19BF8E0309807D5D503F0F0F87A
:10B63000337A0278C3F38013B3EBD21FCCD1062246
:10B6400006F10A010830FAF726F80028C1D0C3E74E
:10B65000DBF80031002BBFD12846FDF79FFEBBE78A
:10B6600090F8183190F83921013380F81831D0F86A
:10B67000343153F8226001233371002F00F0C4836A
:10B68000D0F81431307A93F8A820C0F3800002F08B
:10B690000101884200F0D68081F0010161F30002CF
:10B6A00083F8A8209BF81420032A02BF93F83820BF
:10B6B00042F0010283F8382093F8A820110600F127
:10B6C000BD80D3F8EC8093F801E108F1040C0CEB99
:10B6D0000E056C780CB9002535E092060AD5D3F832
:10B6E000DA00D3F8DE10013041F10001C3F8DA00CE
:10B6F000C3F8DE101CF80E3003F00303032BEAD16D
:10B70000EA78022AE7D18BF8153003F02BF803F022
:10B7100047F878B101234FF0000263F30202414978
:10B72000414B5B1A6FF3C502DB0863F38F1240498C
:10B73000FFF72ABA2979DBF81401132908BF16216B
:10B74000FDF7DAFD0125DBF8143193F8012193F8B8
:10B7500000112244D2B2914283F801211ED1D3F8C4
:10B76000EC20D3F8F01000208A4283F8000183F81F
:10B77000010116D1B8F1000F10D0D3F8F4101468FD
:10B78000C3F8EC408A4206BFC3F8F000C3F8F400E7
:10B79000C3F8F04027494046FBF7BFFA4FF00008D6
:10B7A00008E0D3F8F8108A42126808BFC3F8F820FE
:10B7B000C3F8EC20002D47D0DBF81401FDF754FA54
:10B7C0000025CBF8145103F075F918B903F066F9A8
:10B7D00003F06AF9DBF81431002B3FF406AAB8F144
:10B7E000000F03D04146188CFDF7AEF9002D3FF451
:10B7F000FCA9DBF81431188CFCF71AFFDBF81431C4
:10B800001B8CF380FCF7BAFEFFF7EFB9AFF30080B3
:10B810008D49FD1A07000000C587000065860000FD
:10B82000C9A700003C1401005C140100F5250100CB
:10B8300001260100BC1A002000CA9A3B6FF3C71210
:10B8400083F8A8204FF00008DBF81431327A93F81F
:10B85000A830C2F3C002C3F340039A423CD0002593
:10B86000DBF8143100248BF819411C86DBF8140135
:10B870000DA990F8A890FFF7C1F89BF81530032B9D
:10B880004FEAD91913D0002C40F0D7823FB1337A58
:10B89000D80604D40D9B5B78002B00F0CE82DBF839
:10B8A000143193F89B30002B0CBF02230323032B8E
:10B8B0008BF8153040F0E9829BF81430042B40F0EF
:10B8C000BE82DBF8143193F8A82069F3C71283F81D
:10B8D000A82002F047FF76E70320FCF783FA002850
:10B8E000BDD09BF87A3173B3DBF84431DBF84821E3
:10B8F000934205D19BF878219BF87911914222D08F
:10B90000DBF848219342AAD09BF878319BF8792143
:10B910009A42A4D09BF8783133B9DBF81431BBF8E4
:10B9200076211B8C9A420ED09BF87831002B96D052
:10B930009BF87831DBF814110BEB4303B3F870215B
:10B940000B8C9A428BD196F80990B9F1000F00F058
:10B950001882DBF8143193F8A89019F0100914D06C
:10B9600003F022F94FF0010978B9B649B64B4FF010
:10B9700000025B1A69F3020260F3C502DB0863F39D
:10B980008F12B249B248FFF7A3BADBF8143193F82B
:10B99000A830DC060FD4DBF81441337A94F8A820E1
:10B9A00012F0040F25D113F0030300F0EA81022BFB
:10B9B00056D80125C2E003F015F90028EBD1032386
:10B9C0008BF8153002F0CEFE02F0EAFE05460028A4
:10B9D0003CD001234FF0000263F3020299499A4BD5
:10B9E0005B1A6FF3C502DB0863F38F129749FFF709
:10B9F000CBB803F003010329E1D194F91D00F17ADA
:10BA0000002802F0400215DB22B90229CBD011290F
:10BA1000D5D809E08A1ED2B2092AF8D840F205200A
:10BA200020FA02F2D007BED48A4A22FA01F1CA07EC
:10BA3000C5D5B8E72AB90229B5D01129BFD8864A99
:10BA4000F3E78A1E012AAED90B29F5E7DBF81401CA
:10BA50003D21FDF751FCDBF81401FDF705F9B0E6D7
:10BA6000F57A06F1080A192D00F29381DFE815F046
:10BA70001A007E00C10091019101910191018B0199
:10BA8000CC00FA009101910120019101E1009101A6
:10BA90009101840191019101910191019101910123
:10BAA0009101A50194F91D30002B80F27281717A09
:10BAB0000020FCF747F9002800F06B81B6F815105C
:10BAC000638CCB1A1B0400F1FD8394F85C3094F86E
:10BAD0005D209A4240F0F483DBF880210AB9CBF86C
:10BAE0008041327B84F87020B6F80D0040F2E242CB
:10BAF0004243E266307CF27B42EA0022A4F86220F4
:10BB0000B07C727C42EA0022A4F86420F27C307D92
:10BB1000A4F8681042EA0022A4F8662094F8602095
:10BB200002F0FC026FF3820284F86020013B0122E4
:10BB3000002584F85E2084F85D30A586DBF81411BA
:10BB400091F8A83083F0020381F8A830B9F1000F12
:10BB50003FF486AED1F8B920D1F8BD30013243F1BF
:10BB60000003C1F8B920C1F8BD3079E694F91D3061
:10BB7000002B80F20E81717A0120FCF7E3F8002897
:10BB800000F00781B6F81130628C9B1A1D0400F199
:10BB9000998394F85C2094F85D309A4210D0012388
:10BBA0004FF0000263F302022649274B2B485B1A31
:10BBB0006FF3C502DB0863F38F122949FFF788B9D9
:10BBC000052206F10C0104F16100F9F791FD737C87
:10BBD000B27C43EA0223A4F86630022384F85E3084
:10BBE00094F85D300025013B84F8605084F85D30A6
:10BBF000A4E7717A0220FCF7A5F8002800F0C980BC
:10BC0000337B84F89B30BCE094F91D30002B80F22C
:10BC1000C080717A0820FCF795F8002800F0B98000
:10BC200051462046FEF778F9054600287FF417AE06
:10BC300084E794F91D30002BC0F2AB80717A0E209E
:10BC4000E9E700BF3C1401005C1401001526010067
:10BC5000312B010060200200402002004B2B01002C
:10BC600061290100717A0920FCF76CF8002800F0C6
:10BC70009080337B727B43F07F4343F47E0343F435
:10BC8000435343F0100343EA0223B27B43EA0243E7
:10BC9000D4F88C20C2F310021340C4F88C3094F80E
:10BCA000383043F0200384F838300023A38680E640
:10BCB000717A0C20FCF746F800286AD094F890308E
:10BCC00013F0010552D1BB48FBF70DF801460028DF
:10BCD0003FF4C5AD94F8903043F0010384F8903000
:10BCE000037943F003030371062343710C23C371EB
:10BCF000092303726FF00E034372052383724FF022
:10BD0000FF33C37203732046FEF7ECF894F8A830B3
:10BD100043F0800384F8A83002F076FD0378457084
:10BD2000012262F30103D4F8EC200370DBB2C2B14C
:10BD300043F010030370337B84F89130B27B737B44
:10BD400043EA0223A4F89230F37B327C43EA0223D5
:10BD5000A4F8943094F8903043F0020384F89030C3
:10BD6000ECE662F3041303701546E4E713F00203F4
:10BD700007D1A3860125DEE7717A1120FBF7E2FFE8
:10BD800038B10025DAE6717A0720FBF7DBFF0028DF
:10BD90008BD18848FAF7A7FF014600283FF45FAD32
:10BDA0000379057243F003030371022343710723F0
:10BDB000C3712046FEF768F8E3E794F91D30002BC5
:10BDC000E7DB717A1920FBF7BDFF0028E1D0357B56
:10BDD00015F001053FF4B2AE94F85C2094F85D30A4
:10BDE0009A42CED10522744904F16100F9F780FC32
:10BDF000012384F86030022384F85E3094F85D30CB
:10BE0000013B84F85D30BCE790F8193113B9022387
:10BE100080F819319BF81941DBF81431013CE4B288
:10BE20008BF819411D8EB4FA84F464091DB9DA8DBA
:10BE30001A86A8461AE50025FBE7032337E502F03A
:10BE400001FD0D99DBF814010B7890F8A82062F33E
:10BE5000C303C2F3400262F382030B70FCF7B8FF26
:10BE600002F09EFC00283FF4AEAC01234FF000022C
:10BE700063F302025149524B5B1A6FF3C502DB08B0
:10BE800063F38F124F49FEF77FBE962002F056FDF6
:10BE9000002002F0C1FC02F019FED2E701234FF0AE
:10BEA000000263F302024549454B5B1A6FF3C5027A
:10BEB000DB0863F38F124449FEF7CCBE027D042AEF
:10BEC00000F2D181DFE812F0B70105005800B90097
:10BED000B900032B09D190F82830590705D0FCF799
:10BEE000D3FF02F039FCFEF75CBE02F0F5FC9BF8D4
:10BEF0001530032B7DD19BF8283013F0400378D107
:10BF0000DBF804004268546814B102220DA9A0476E
:10BF1000BDF8341040F24712B1FBF2F302FB1313E9
:10BF200040F66B72002406920133284A05929BB2B8
:10BF3000049403940294019400940522214620461F
:10BF4000ADF83430FBF79CFD30F0020351D09BF884
:10BF50001230052B4DD001234FF0000263F3020293
:10BF60001649174B1A485B1A64F3C502DB0863F3E2
:10BF70008F121849FEF7ACBF032B2DD1962002F08B
:10BF8000DDFC002319461A46184602F051FCDBF886
:10BF900034319BF8392153F82200083002F0BCFB01
:10BFA00002F05EFC01238BF8153002F0CFFBFEF7A8
:10BFB000F8BD00BFBC1A0020821A00203C1401000A
:10BFC0005C1401002526010031260100458800008F
:10BFD000812B01004426010002F07EFC9BF8153005
:10BFE000052B06D100230093042219461846FBF7BF
:10BFF00095FD00248BF814408BF815408BF8114008
:10C0000002F020FDB24B224621462046FAF724FFDB
:10C010000546002800F0378101234FF0000263F34A
:10C020000202AC49AC4BAD485B1A64F3C502DB08B5
:10C0300063F38F12AA49FEF74BBFD0F81401002812
:10C04000D7D090F89B1089B19BF81430032B03D004
:10C0500090F83830DA0709D5FDF74EF9DBF814010E
:10C06000FCF702FE0023CBF81431C2E7468D9BF8A3
:10C070001871751CADB2002F6BD09BF81430032BD8
:10C080005DD102F017FD804602F01AFDDBF8147155
:10C09000DFF86892A8EB0008B86C00F1580AD045A8
:10C0A00089A3D3E900233DD8A0FB0901F4F790F858
:10C0B00084B2AAEB080084A3D3E90023A0FB090102
:10C0C000F4F786F881B20023BB643B65D7F8EC3007
:10C0D0007BB35B7913B997F801310BB100237B85F2
:10C0E000DBF8143100229A85DBF81401038EBBB112
:10C0F0009D4280F098805B1B9BB20022062B03863A
:10C10000428540F292809BF81430032B08D1002E18
:10C1100040F08B80476D7B0817F0010733D14365F2
:10C12000002733E0A8FB0901F4F752F8022184B29A
:10C13000C9E797F83830DB07D2D5FB8CCFE731B1B0
:10C1400090F8383043F0010380F8383000210C4675
:10C15000C6E7848D84B1A54204D2641B84853C4625
:10C160002146C1E73E21FDF7C7F8DBF81401FCF7D3
:10C170007BFDCBF814713CE7018E0029F0D1C38D13
:10C1800003860C46B0E743F000434365838E1BB142
:10C190009D424CD25D1B858690F85D2090F85C3006
:10C1A0009A4206D090F85E30013B012B9CBF0023E1
:10C1B000438517B9438DB3423BD0438D01339BB2C6
:10C1C00024B919B913B9002F3FF413AF90F82060C8
:10C1D000444A059207360025F6B203938DE8220003
:10C1E0002346069604970295324629462846FBF7D1
:10C1F00047FC30F002033FF4FCAE9BF812309E4245
:10C200003FF4F7AE01234FF0000263F3020231491D
:10C21000314B35485B1A65F3C502DB0863F38F12B7
:10C220003249FEF755BE082116E70127AEE7222165
:10C2300012E73B46C4E7043B012B10D901234FF022
:10C24000000263F302022349234B29485B1A6FF370
:10C25000C502DB0863F38F122649FEF739BE0023BF
:10C260004375FEF7C2BC01234FF0000263F30202E4
:10C270001849194B5B1A6FF3C502DB0863F38F1281
:10C280001C49FEF7E7BCDBF80000436829465B6801
:10C290009847012211462846FAF7B6FDFEF7A5BCDD
:10C2A00001234FF0000263F302020A490A4B5B1AB2
:10C2B0006FF3C502DB0863F38F120F49FEF7CABCA8
:10C2C0002A239EE428239CE48D49FD1A07000000E0
:10C2D000304900203C1401005C140100112E0100C3
:10C2E0004827010095880000E32B01005226010039
:10C2F0004D2C0100612601007726010000CA9A3BFF
:10C30000F7B51C46614B1A7D074602F0FF061D4635
:10C31000B2B101234FF0000263F302025C495D4BAE
:10C320005D485B1A6FF3C502DB085C4963F38F124B
:10C33000F6F7A6F8404080F311884FF0040002DFC2
:10C340001B7C228CDBB2073293420FD001234FF0CB
:10C35000000263F302024E494E4B51485B1A66F3EA
:10C36000C502DB0863F38F124C49E1E7042285F82C
:10C37000186185F81961DBB22A752E746B74238DF0
:10C38000C5F814410220638526856875AF60FCF707
:10C390001DFC01A92046FEF731FB019994F8A82065
:10C3A0000B7862F3C303C2F3400262F382030B70A3
:10C3B0002046FEF70DFA962002F0C0FA304602F051
:10C3C0002BFA01992046FCF703FD637F13F0400F21
:10C3D00004F1170221D0608CE18B013803F03F0398
:10C3E00080B2FDF70DFDFCF713FDEA6807F10901C6
:10C3F000012002F0AFFA02F069FB94F82010073137
:10C4000020463A46C9B2FDF79DF9044628B30423F5
:10C410006B7502F0A7F903B0F0BD618DA67F01FB3B
:10C420000666E17F25200E4496FBF0F100FB1166C5
:10C43000F0B2C108E077515C06F0070641FA06F653
:10C44000F10703F03F03CED4B0FBF3F103FB11017E
:10C45000C9B21046FBF7AAFCC5E70346114A0146DC
:10C46000FBF7DAFB30F00203D5D001234FF00002D6
:10C4700063F302020649074B0B485B1A64F3C502DB
:10C48000DB0863F38F12054952E700BF68190020EB
:10C490003C1401005C140100272A0100022901005C
:10C4A000B62A0100ED880000B22901002DE9F84309
:10C4B0003C4E0C9C9DF824C0BDF83450BDF828803B
:10C4C00030604FF4827000FB03409DF8209086F8A6
:10C4D0002011C6F8084161190CF10104E7B208F116
:10C4E0000304282C09F1030E5FFA8EFEA6F82C81B6
:10C4F00088BF08F10E0886F84CE18CBF28F00308CD
:10C500000EEB4E0E72600CF1020C09F10402D2B275
:10C510008CBF18FB0EFE4FEA0E1E5FFA8CFCA6F8CD
:10C520002EE186F86CC1C6F834014FEACC0C00EB62
:10C530008200B6F82E41C6F8640160444FF0300E18
:10C54000C6F868016044A6F830E1C6F82401B4FBDF
:10C55000FEFE2044D418C6F83C0100EBC400BDF830
:10C560002C40C6F850010A3424F003044830A4B229
:10C57000A6F8604107FB0404641A86F8103186F8B7
:10C58000382186F832E1C6F8580103D02C44204601
:10C59000BDE8F883012386F87A31FDF76DFB02F0E0
:10C5A0000BF8F4E76819002038B503210520FBF7E4
:10C5B000C9FC04210620FBF7C5FC224C002594F899
:10C5C0001021ABB29A4205F1010534D894F8283015
:10C5D0006FF3C71384F8283094F8E030002060F33C
:10C5E000000384F8E0303022B4F82E31B3FBF2F3CC
:10C5F00084F8323194F8383184F83901013B84F8F9
:10C600006D0184F8700184F84C3194F87831C4F8E5
:10C61000CC00C4F80001A4F8302184F83A0184F871
:10C620006E0184F86F0184F8793101F07BFEBDE87A
:10C630003840FDF721BBA81DFF21C0B2FBF782FCEB
:10C64000BDE700BF6819002000487047921900201C
:10C6500000487047E2190020024B93F82800C009F7
:10C66000704700BF68190020044B93F92820002A66
:10C67000BABF93F82900800900207047681900208C
:10C68000094A92F8E03092F8E100D2F80021C0F3B4
:10C69000C000002A03F0010303FA00F314BF0420D2
:10C6A00000201843704700BF68190020054B93F81D
:10C6B000E00010F001001CBF93F8E100C0F301108E
:10C6C000704700BF6819002010B51446FBF724FC22
:10C6D00010B10020207010BD012010BD2DE9F341E4
:10C6E000054608461849D1F84431D1F8482193420B
:10C6F0000F461FD0D3F8048001F26F1198F8002084
:10C70000FBF7C0FB0446E0B902AE97F86F3106F8BC
:10C71000033D97F8702131460DF10600FBF7B2FB9F
:10C7200034B928B9C5F80080204602B0BDE8F081D0
:10C730000446EEE791F8702101F26F11FBF7A2FBBE
:10C74000044600232B60EFE7681900202DE9F04133
:10C750001F4C05460068A4F59476A4F11C0720B987
:10C760002860BDE8F041FDF73DBA0279D0F80080BD
:10C770000A2A07D80123934040F27E72134218D14F
:10C780001B061BD401234FF0000263F30202114980
:10C79000114B12485B1ADB086FF3C50263F38F126B
:10C7A0000F49F5F76DFE404080F311884FF004000B
:10C7B00002DF2146FAF7B1FA4046D0E7C288D6F840
:10C7C00008014FF48271FAF7BDFA3946F2E700BF6B
:10C7D000901A00203C1401005C1401001024010098
:10C7E000A0290100914210B5144B19D1D3F848216A
:10C7F000D3F84441944211D1002914BF0A460322C0
:10C80000013AD2B203EB420483F8792193F87821FC
:10C81000A4F8720191420FD083F87911012010BD64
:10C8200029B9B3F87631181A18BF012010BD03EBEF
:10C830004103B3F87031F6E7002010BD68190020FD
:10C8400030B4144B93F87A210D4602B393F8782153
:10C85000D1B293F8792135B14FF6FF73984216D0D3
:10C8600030BCFFF7BFBFD3F84401D3F84841A04222
:10C870000DD191420BD0D3F8484183F87911A042F1
:10C8800005D093F87801814208BF83F87921002010
:10C8900030BC70476819002070470000000000009D
:10C8A0002DE9F04FDFF8E8B28FB0994602230D93DF
:10C8B0009BF928308DF82F20002B824688465D4654
:10C8C00001DA0C2050E19BF879202A23272717FB57
:10C8D00002371BF8073003F00F03012B00F2FA8038
:10C8E000DBF8CC60002EECD10BF5A070FAF7FBF969
:10C8F0000A9058B10BF58670FAF7F5F90A9A0446D2
:10C9000030B90BF5A0711046FAF707FA07202BE1B2
:10C910004FF6FF730384984BC0F88C30437FC67783
:10C9200066F3861363F07F0343770623838590F8CD
:10C930003830468466F3451366F3000366F341031B
:10C9400080F8383090F89030068566F3000366F37F
:10C95000410380F8903090F8A830468566F30003D4
:10C9600066F3410366F3820366F3C30366F30413BD
:10C9700066F3451366F3861366F3C713466486644D
:10C9800086650686868680F85C6080F85D6080F843
:10C99000986080F8996080F89B60C0F89C2080F8CF
:10C9A000A830C0F8EC60C0F8F060C0F8F460C0F8DF
:10C9B000F860C0F8FC6080F8006180F80161FDF764
:10C9C000DFF9CBF8CC400EA895F8293010F8092DE6
:10C9D0006AF3020362F3C50369F3871385F829300C
:10C9E000D5F87C31EB612723AB61012100232B6259
:10C9F000FAF712FB1BF8076006F00F06012E6BD149
:10CA00004FF42773584300F59C705C4958A3D3E951
:10CA10000023A0FB0101F3F7DBFBAF69EB69686260
:10CA20009F4238BF1F46B8F1000F5DD1721E5342BE
:10CA3000534195F82860DFF85C91DFF85CB163F34F
:10CA4000861685F8286016F040060DF1340A53D09A
:10CA5000FBF734F96B6ACDF820A01F44064600208E
:10CA6000CDF81C900690CDF814B004970390029076
:10CA70008DE88100334605220321FAF7B1FF022831
:10CA800036D00D98C8B902230D933D4B0593032270
:10CA90004AF2FE330093CDF820A0CDF81C9006900A
:10CAA000049003900290019033461146FAF798FFE4
:10CAB000022846D00D98002847D0002C3FF401AF43
:10CAC000D4F89C002F49FAF728F92F492046FAF7A5
:10CAD00024F9F6E6002476E7022E0CBF4FF4297302
:10CAE00040F2FC53584390E70023A2E7FBF726F9F6
:10CAF0000D9B022BFAD0C4E7FBF7E0F8CDF820A09D
:10CB0000CDF81C900696CDF814B06B6A0A901F48B9
:10CB100003961FFA88F81F44A8FB0001912303FB2A
:10CB2000081113A3D3E9002304970296F3F750FBEF
:10CB3000009601900A9B052203213046B6E7FBF7D9
:10CB4000FDF80D9B022BFAD0B4E795F8283043F09E
:10CB5000800385F8283095F8E03013F0010403D104
:10CB60000120FFF799FE20460FB0BDE8F08F00BF0F
:10CB70008D49FD1A070000000C40010000CA9A3BD5
:10CB80007D9B0000A81A0020741A0020002AE78468
:10CB900068190020817D00000D9B000070B5032105
:10CBA0000520FBF7CFF90546E8B9104C94F828208A
:10CBB00060F3C71284F8282094F8E020D30701D44A
:10CBC000FFF76AFED4F8CC605EB10023C4F8CC3025
:10CBD0000749D6F89C00FAF7A0F806493046FAF75C
:10CBE0009CF8284670BD0C25FBE700BF68190020A3
:10CBF000A81A0020741A0020F7B55C4D02AA00267E
:10CC000042F8046DD5F8480105F5A271FAF7C3F8AA
:10CC10002C46B0B901214FF0000261F30202544BDF
:10CC200054495B1A60F3C502DB085349534863F368
:10CC30008F12F5F725FC404080F311884FF0040077
:10CC400002DF05F5A071FAF768F8019A11790A294F
:10CC500008D8012707FA01F340F27E70034211D190
:10CC60001B0628D401234FF0000263F3020241495E
:10CC70003F4B43485B1A6FF3C502DB0863F38F1227
:10CC80003D49D6E795F8380195F84C310138834293
:10CC90000EDB3849364B3B484FF000025B1A67F316
:10CCA000020266F3C502DB0863F38F123249C0E764
:10CCB000013385F84C31062947D1137A3C2B16D025
:10CCC000527A6ABB94F8E03013F001013FD101239E
:10CCD0004FF0000263F3020261F3C502244B2549C1
:10CCE00029485B1ADB0863F38F122349A1E700236D
:10CCF000D4F8CC50C4F8CC3094F92830002B11DB98
:10CD000001234FF0000263F302021A49184B1F4837
:10CD10005B1A6FF3C502DB0863F38F12164988E7CD
:10CD20000025E9E794F828306FF3C71384F828301A
:10CD300095B994F8E00094F8283000F00100400024
:10CD400050EAD31001D1FFF7A7FD03B0F0BD62F3A5
:10CD5000000384F8E030ECE7D5F89C000C49F9F7C3
:10CD6000DCFF0C492846F9F7D8FFE2E768190020F4
:10CD70005C1401003C14010092290100B12E010055
:10CD800010240100BE2C01003E2D01000C2D0100DD
:10CD9000A81A0020741A002038B50B4CD4F8402192
:10CDA000D4F8445122B10020C4F84001FAF706FE3D
:10CDB0002DB10023C4F844310120FAF7FFFD002013
:10CDC000BDE83840FAF796B800B000400120FAF705
:10CDD00091B8684620F007018D4601B5F8F7BAFA18
:10CDE00001F0CEFBF8F7A8FAF8F7B2F8BDE8014079
:10CDF0008546704770470000014B186803F01DBE60
:10CE0000442100202DE9F0414B4B86B018604B487F
:10CE100002F096FF20B96FF0120006B0BDE8F08175
:10CE2000436801211B689847454802F089FF804606
:10CE30000028F0D001F082FAF9F7BCFF414B08223C
:10CE40001A7002221A7600243F4A1C7403251D72B0
:10CE500005923E4A04923E4A03923E4A02920D22B5
:10CE6000019200933C4A042307212046FAF76EFD05
:10CE70000646B0B101234FF0000263F302023749C6
:10CE8000374B38485B1AEB4064F3C50263F38F12EB
:10CE90003549F5F7F5FA404080F311884FF004006A
:10CEA00002DF324802F04CFF0028B4D0304B04932C
:10CEB00001951B234FF409770125039302930597EE
:10CEC0000095334642460721FFF7F0FA0446B0B119
:10CED0002249234B4FF000025B1A65F30202DB0884
:10CEE00066F3C50263F38F12ADF800203B4602469D
:10CEF0001D492048F5F7F1FA6FF00B008DE7284641
:10CF000001F010FA224621462846F8F7FBF922469E
:10CF100021460B20F8F7F6F9224621461820F8F7AB
:10CF2000F1F92846F8F7BCF90B20F8F7B9F9182001
:10CF3000F8F7B6F9204670E744210020041A0100F2
:10CF4000E21901002421002091EE0000E5ED00002F
:10CF500071ED0000B41E00209C1D00203C14010057
:10CF600064140100A9320100A13201000F1A01006E
:10CF7000781B0020C332010008B50248F9F752FBC4
:10CF8000002008BD2833010073B5254D00264FF061
:10CF9000FF31284603F040FA044618B300F0B6FE0D
:10CFA0000228019421D801280EBF00214FF0FF3143
:10CFB0000120F9F73FFE044618B10146019800F040
:10CFC00059FD019B0021D888FFF73AFC02A850F8D0
:10CFD000043D1E60FFF7BAFB24B1A3892046DBB1F4
:10CFE000F9F7ECF903F08AFCD1E701234FF00002D6
:10CFF00063F302020B490C4B0C485B1ADB086FF31E
:10D00000C50263F38F120A49F5F73AFA404080F3FC
:10D0100011884FF0040002DF01F0ECFFE2E700BFEF
:10D02000A44B00203C140100541401001024010002
:10D03000FC32010013B5838904469BB901214FF0EE
:10D04000000261F3020263F3C5021A491A4B1B483E
:10D050005B1ADB0863F38F121949F5F711FA6FF0C9
:10D06000150012E0027D92B902A941F8042D00F0EA
:10D07000E9F930B1F9F73EFA019911B1114803F01D
:10D08000A7F9204601F0B6FF002002B010BD012133
:10D090004FF0000361F3020306480749091AC90863
:10D0A0006FF3C50361F38F1307480549F5F7FCF9E2
:10D0B000D5E700BF3C140100541401005D330100AA
:10D0C00008330100A44B00207233010037B50C4C2B
:10D0D0000C4D0DF1020101A8FFF700FB0028F8D16B
:10D0E000019B33B1FFF788FD0199284603F070F9E1
:10D0F000EFE74FF0FF31204603F0C6FCE9E700BF41
:10D10000784B0020A44B002010B51E4886B0FFF7D6
:10D1100079FE0446A0B101224FF0000362F302033E
:10D1200019491A4A521AD2086FF3C50362F38F13D2
:10D13000174902461748F5F7B7F9204606B010BD63
:10D1400000F004FE6FF00903039305940494029425
:10D1500001940094104B114911484FF4E07203F010
:10D160003FFD6FF007030393059404940294019428
:10D1700000940C4B0C490D484FF4806203F030FDD5
:10D18000DBE700BF784B00203C1401005414010081
:10D19000183301003C330100CDD000008030002066
:10D1A0004821002089CF000040320020B421002017
:10D1B000C0F307230870000C8870000A4B70C87019
:10D1C000704738B508300D460221144601F044FF7F
:10D1D0000570447038BD000038B504464FF0FF308C
:10D1E0000D46F9F737FDEA1C2060D2B20E21FFF799
:10D1F000E8FF20680321083001F02EFF01230370AF
:10D20000054B1B88A0F80130206829460830BDE88E
:10D21000384001F021BF00BF2022002070B5044635
:10D22000154601320E460834D2B23E21FFF7C9FF3F
:10D230000121204601F010FF067029462046BDE876
:10D24000704001F009BF000070B504461846134B4A
:10D250001646D3E90023002203F0005313430D4682
:10D260001BD00F4BD3E90023002302F00802134325
:10D2700013D00B220421FFF7D1FF08220470A0F87D
:10D280000160033024B9291DBDE87040F8F730BAB9
:10D290000021BDE87040F8F757BA70BD104A002071
:10D2A000184A002070B503788AB004460E4607ADD0
:10D2B000032B20D8DFE803F002191B1D1149284673
:10D2C000F8F7AAF962780492A2780392E2780292BF
:10D2D0002279019262790092A37905950A4A1B216D
:10D2E0003046F3F7E3FD0AB070BD0849E7E70849A7
:10D2F000E5E70849E3E7084A0A212846F3F7D6FD9F
:10D30000E0E700BF0D3401002F34010014340100A8
:10D310001B34010025340100D23401002DE9F04313
:10D32000044640783E4E3F4D01448DB0897A0692C6
:10D330000227227808904FF00003AD1B494267F3A3
:10D34000020302F00F0EC2F3801049B2D2096FF34C
:10D35000C503C5F3C90565F38F1309900A920B91B4
:10D36000314E32480596072205A9CDF81CE0F5F7A5
:10D37000D1F8237803F00F03072B4ED16378002BED
:10D380004BD04FF0000367F30203A27828486FF3F5
:10D39000C50365F38F13ADF80030314602F03F034B
:10D3A0009209F5F79AF8A378990636D0E378DA0768
:10D3B00004F104081FD523780DF13009C3F380135D
:10D3C00009F8243D062241460DF10D00F8F790F9C9
:10D3D00005A94846FFF766FF4FF0000367F3020315
:10D3E0006FF3C50365F38F1305AA3146114804F1A5
:10D3F0000A08F5F759F8E3785B060ED502224FF0DC
:10D40000000362F302036FF3C50365F38F1398F90A
:10D41000002005490848F5F747F80DB0BDE8F0834E
:10D420003C1401004C140100B7330100D934010051
:10D430001A3501003F3501004C35010003460068F4
:10D4400059687047F0B5818993B0002502290446D8
:10D450000C9513D801234FF0000263F30202C24976
:10D46000C24BC3485B1A65F3C502DB08C14963F3CD
:10D470008F12F5F705F8284613B0F0BD8368BE4E4D
:10D480001A7858789B7842EA00228B4232800FD972
:10D4900001234FF0000263F30202B349B34BB748D4
:10D4A0005B1A65F3C502DB0863F38F12B149E0E74D
:10D4B000032104F1080001F0DEFD3388C3F3090203
:10D4C0009B0A042B64D007D8032B25D001210CA87C
:10D4D000FFF782FE0123D8E1082B00F0DA803F2B12
:10D4E000F4D1013A092AF1D801A353F822F000BF80
:10D4F0008FD80000BDD80000E5D80000CDD40000D2
:10D50000CDD4000031D90000CDD40000FBD80000FC
:10D510003BD90000A7D90000032A14D008D8012A5B
:10D52000D4D1A068FFF78AFF954BC3E9000103E05F
:10D530002D2A17D0632AC9D101210CA8FFF74CFE70
:10D5400005700C9898E78E4B4FF0FF3041F6FF7155
:10D55000C3E900018B4B1F200021C3E90001FFF745
:10D5600023F8E9E7A36804210CA81D889F78FFF73A
:10D5700033FEAEB20446C21C39463046FFF7A4F86B
:10D5800000280CBF002302232370A4F80150D8E721
:10D59000013A082A9AD801A353F822F0C1D5000015
:10D5A000EBD500005FD60000CDD40000CDD4000044
:10D5B000CDD40000CDD40000CDD400007BD6000037
:10D5C00009210CA8FFF708FE002303708370C370C5
:10D5D0006FF00E0343710523092283714FF0FF336F
:10D5E00042700271C3710372ABE741210CA8FFF7CF
:10D5F000F3FD00210446402200F8011BF8F7A4F8CF
:10D60000E378217FA27E63F07F03E370A37963F068
:10D610003F03A371E37A43F00403E372E37B43F037
:10D620002803E373237C43F002032374E37D43F078
:10D630000403E375E37E61F03C0163F03C03217772
:10D64000E376617F94F8273041F0080162F0080228
:10D6500063F07F036177A27684F8273071E70921B0
:10D660000CA8FFF7B9FD00210446082200F8011BB1
:10D67000F8F76AF86023637163E707210CA8FFF7E6
:10D68000ABFD0146002301F8013B1846FAF71CFBED
:10D6900057E70A2A00F0EC8027D8052A00F092808C
:10D6A00012D8022A70D0032A7AD0012A7FF40EAF52
:10D6B000A068FFF7C3FE334BC3E9000101210CA8AA
:10D6C000FFF78AFD0023E0E0072A00F06481C0F044
:10D6D000B180082A00F0C680092A7FF4F7AEA3685B
:10D6E000591C187800F0BCFCE8E7122A00F0828090
:10D6F00010D8102A71D079D80F2A7FF4E7AE022112
:10D700000CA8FFF769FD00230370044600F074FDC8
:10D71000607016E7182A71D015D8172A7FF4D6AE94
:10D72000A06800230DAA00F1100100F08DFE112168
:10D730000CA8FFF751FD002300F8013B10220DA9B2
:10D74000F7F7D6FFFDE61C2A63D04B2A7FF4BEAE66
:10D7500003210CA8FFF740FD0146002301F8023B1E
:10D760000130FAF7E7FAECE63C1401004C14010032
:10D7700052340100A8330100202200206C34010043
:10D78000104A0020184A002004210CA8FFF724FDAD
:10D79000002303701B22837003234270C370D0E602
:10D7A00009210CA8FFF718FD00210446082200F803
:10D7B000011BF7F7C9FF0C2363704023A3700123FB
:10D7C000E370BEE6A1680120FAF798FA0446012149
:10D7D0000CA8FFF701FD0470B3E601210CA8FFF7C8
:10D7E000FBFC044600F00AFD2070AAE6A06800F0E9
:10D7F0001BFDEBE7A06800F04FFDE7E709210CA84F
:10D80000FFF7EAFC002300F8013B082100F0B0FA22
:10D8100097E609210CA8FFF7DFFC01460022044629
:10D8200001F8012B0320FFF7C3FC611D1046FFF731
:10D83000BFFC86E6A0680021037902880A9109915D
:10D840000891079106910591847B0494447B03948D
:10D85000C41D02948479019440790090084600F038
:10D86000A3FAB3E7A368591C187800F0A1FB25E7D9
:10D87000A368187800F03AFC012104460CA8FFF7D1
:10D88000ABFC002C0CBF00230C23037059E60D21C8
:10D890000CA8FFF7A1FC02224270C2700122827123
:10D8A0000D220023C27163220370837003714371E0
:10D8B000037242728372C372037342E641210CA861
:10D8C000FFF78AFC00210446402200F8011BF7F70D
:10D8D0003BFF637863F058036370A37843F003035E
:10D8E000A3702EE609210CA8FFF776FC002100F8B2
:10D8F000011B0822F7F728FF23E65D4B0DAA03F171
:10D900001006154618685968144603C40833B34214
:10D910002246F7D119889B782180A37014210CA886
:10D92000FFF75AFC002300F8013B1322294607E7C2
:10D93000A1680020FAF7E2F9C0E64FF08053D3F86F
:10D94000A420013206D1D3F8A8304FF6FF729BB263
:10D95000934220D04FF08055D5F8A030DB071AD580
:10D9600018210CA8FFF738FC002601230446437059
:10D970000670D5F8A400A11CFFF71AFCD5F8A83052
:10D98000A371C3F3072363F03F03E3711022314611
:10D9900004F10800AEE702210CA8FFF71DFC0023EC
:10D9A00003704370CDE521210CA8FFF715FC034659
:10D9B000002203F8012B4FF080520446D2F8901059
:10D9C00001314BD0D2F89410013147D0D2F89810E1
:10D9D000013143D0D2F89C1001313FD0D2F89000F1
:10D9E0001946FFF7E5FB611DD2F89400FFF7E0FB55
:10D9F00004F10901D2F89800FFF7DAFB04F10D01F8
:10DA0000D2F89C00FFF7D4FB4FF08052D2F8803060
:10DA1000013304F1110327D0D2F88410013123D04F
:10DA2000D2F8881001311FD0D2F88C1001311BD0F0
:10DA3000D2F880001946FFF7BBFB04F11501D2F8BC
:10DA40008400FFF7B5FB04F11901D2F88800FFF755
:10DA5000AFFB04F11D01D2F88C00E8E61022002192
:10DA60001846F7F771FECFE710220021184641E76C
:10DA70008E3401002DE9F041044600F108070079D9
:10DA800001288EB00E4600F0D6800238032800F23E
:10DA9000BB80DFE800F0025F656701238DF81D3071
:10DAA00003238DF81E30FF238DF81F308DF82130B1
:10DAB00002238DF822308A4B04228DF82020D3E9EE
:10DAC0000023002203F00053002513438DF81C505F
:10DAD0003DD0844BD3E90023002302F0020213431C
:10DAE00035D0237A03F00F03012B637A1CBF9D1FEF
:10DAF000EDB2234405F10B02D2B20221304693F875
:10DB00000A80FFF78BFB01230370237A0EAA03F030
:10DB10000F031344064613F81C3C4370237AC3F3E7
:10DB200080138370062204F10A010330F7F7E0FD49
:10DB30000A3606F8015CC8F100084FFA88F82A4650
:10DB400007F108013046F7F7D3FD06F805800EB05F
:10DB5000BDE8F081012221463846FFF7DFFBF6E7FA
:10DB60000422F8E75E4BD3E90023002203F00053C0
:10DB7000134304F10A0707D05A4BD3E900230023CB
:10DB800002F4802213432ED1237A0EADC3F3801307
:10DB9000062239460DF1050005F8343DF7F7A8FDDA
:10DBA000637A07AE1C4431462846A47AFFF77AFB15
:10DBB00002224FF0000362F302034B494B4A4C48E8
:10DBC0000596521AD2086FF3C50362F38F13494AC0
:10DBD00003926442002264B2049203A904220694D0
:10DBE000F4F798FCB3E7082213213046FFF716FB41
:10DBF00000230370237AC3F380134370062239464F
:10DC00000230F7F775FDA2E701234FF0000263F33E
:10DC100002023549354B5B1A6FF3C502DB08364902
:10DC200063F38F123548F4F72BFC404080F31188E2
:10DC30004FF0040002DFE17AE58809290BD00C29B6
:10DC400010D007293ED1227B0E2A29D133462A46FD
:10DC500000211A2003E033462A4639460020FFF708
:10DC6000F3FA74E71E4BD3E90023002302F40062A9
:10DC700013433FF46CAF08223046FFF7A2FA0821A5
:10DC8000701801F0E9F900230370A0F80150237B1C
:10DC9000C370B4F80D308380B4F80F30C38056E7FA
:10DCA00002214FF0000361F302030F480F49091AE4
:10DCB000C9086FF3C50361F38F1311481149F4F7D5
:10DCC000F3FB44E70849094B4FF000025B1A60F38D
:10DCD00002026FF3C502DB0863F38F120A49A1E762
:10DCE000104A0020184A00203C1401004C14010086
:10DCF000A1340100C9330100DE330100102401000A
:10DD0000C8340100ED330100FC3301000379012B1D
:10DD10000FD00A2B15D8012000FA03F313F4B06FCB
:10DD200012D113F03C0F10D183F0400343F3801065
:10DD30007047037A03F00303032B0CBF0220032078
:10DD400070474FF0FF30704702207047064B4FF08E
:10DD5000FF3041F6FF71C3E90001044B1F20002191
:10DD6000C3E90001704700BF104A0020184A002094
:10DD7000F7B507460E460C46351B3D448CB1F5F70A
:10DD80008FFF032C019007D904220DEB02012846D6
:10DD9000F7F7AEFC043CEFE7224601A92846F7F767
:10DDA000A7FC002003B0F0BD2DE9F04F85B09946E7
:10DDB00000238DF8083006234FF0010A8DF80A3051
:10DDC0004FF0020B07230D461446139E9DF850702A
:10DDD0008DF809A08DF80BB08DF80CA08DF80D30E2
:10DDE000FEF73AFC8046002840F0D9806F490B7856
:10DDF000B9F1040F6AF347130B706CD915F0100FCB
:10DE000005F0030313D003228DF8042004228DF8BB
:10DE1000052004AA13448DF806B08DF8070013F806
:10DE20000C9C2B0757D5D14600234B600EE0032BEB
:10DE300000F0B88005F00C030C2B00F0B3800B78D9
:10DE400067F347130B704FF005094C600B789DF892
:10DE5000442062F302039DF8482062F3C4030B7070
:10DE6000FEF7F2FB90F84F2002EB8203C2EBC302F5
:10DE700004AB9944835C19F8081C9DF8389061F351
:10DE800003036FF304138354DBB203F00F01012982
:10DE900094BF43F020036FF345138354835C09F070
:10DEA000010969F386136FF3C7138354DBB203F0E0
:10DEB0000F01012900EB020411D19DF83C1061F320
:10DEC000C71383541099062204F10800F7F710FCD9
:10DED0000C23637040E0B9F1010FB6D1A4E7072924
:10DEE00058D1A17801F0C00165F38711A170A8068F
:10DEF0004FF0000104F1020304F10402E17009D4BF
:10DF0000A17811F0C00F05D1042F1EBF0122E270CD
:10DF100004F10A02690644BFE1780132A2EB03036F
:10DF200048BF41F04001DBB248BFE170022B8ABF1D
:10DF3000A178012303F1FF306370E37884BF60F3BD
:10DF40000501A1705B0607D516B333787F2B01D18D
:10DF50000023337002F8013CFEF77AFB90F84F2063
:10DF600002EB8203C2EBC3020424835C64F3030369
:10DF700003F0CF0369F386136FF3C713811883543B
:10DF80004B780BB906234B70404605B0BDE8F08FC7
:10DF90003346DFE76378002BDED1062399E74FF0A5
:10DFA0000C08F1E74FF01208EEE700BF2422002032
:10DFB0002DE9F0410F460646FEF746FB90F84F501C
:10DFC00005EB8502C5EBC202044610F802E00EF034
:10DFD0000F03012B00EB020140D0072B3ED090F83D
:10DFE0004E30AB4204D10135EDB2022D08BF002501
:10DFF00005EB8503C5EBC30304EB0308E05C6EF39C
:10E0000003006FF30410E054A05C14F803E0C0F3C5
:10E01000401060F3451E04F803E0A05C5FFA8EFE3A
:10E02000C0F3801060F3861E04F803E0A25C5FFA80
:10E030008EF0D20962F3C710E0540622023108F1D3
:10E040000200F7F755FB3246394608F1080006365C
:10E05000F7F74EFB88F8016084F84F50BDE8F08177
:10E060002DE9F04106460F46FEF7F2FA90F84F30E0
:10E0700090F84E209A42044636D15D1CEDB2022D36
:10E0800008BF002503EB8302C3EBC2022BB203EBF4
:10E090008300C3EBC0034FF0040EE05C6EF303009B
:10E0A00000F0EF006FF34510E054A05CA118E25CB3
:10E0B000C0F3801060F3861204EB03086FF3C712FD
:10E0C000E254B31D88F801300622023108F1020043
:10E0D000F7F70EFB3246394608F10800F7F708FB60
:10E0E00084F84F50BDE8F0811D46CBE72DE9F7439A
:10E0F00020B903B0BDE8F043FEF750BDFEF7ACFA1F
:10E10000074600284ED1FEF79FFA8046FEF7A0FA98
:10E1100098F84F4004EB8403C4EBC304064618F898
:10E12000040000F00F03072B08EB04091DD199F838
:10E130000330DB070AD53946C0F38010F9F7C4FD78
:10E140000622014609F10400F7F7D2FA164B1878B7
:10E150009988FF23009300F00702C0F3C103400930
:10E16000FEF79EFB03B0BDE8F0833946C0F3801094
:10E1700096F84F50F9F7A8FD0622014609F1020072
:10E18000F7F7B6FA18F804003946C0F38010F9F72B
:10E190009BFD05EB8503C5EBC3053544014606220F
:10E1A000A81CD1E70020DDE72422002008B5B0B983
:10E1B00001234FF0000263F302020A490A4B5B1A83
:10E1C000DB0860F3C50263F38F1208490848F4F7CF
:10E1D00057F9404080F311884FF0040002DF0548F2
:10E1E00008BD00BF3C1401006C140100793501002A
:10E1F000893501002D2200200820704710B5FEF758
:10E2000033FA044610B10C24204610BDFEF74EFA36
:10E21000C307F8D4024B1C705C70024B1C70F3E710
:10E220002D2200202C22002070B50446FEF71CFA97
:10E23000054610B10C25284670BDFEF737FAC30716
:10E24000F8D42378FF2B03D1114B01221A70F2E787
:10E2500010490A78FF2A18D0284622FA00F6F60755
:10E2600011D40126864032430A7003F001034A7834
:10E2700083401343062202FB00104B700230611CE6
:10E28000F7F736FAD7E70130E7E70725D3E700BF0E
:10E290002C2200202D2200202DE9F8430746FEF70E
:10E2A000E3F9064618B10C263046BDE8F883FEF7C0
:10E2B000FDF9C107F7D497F80080B8F1FF0F02D13C
:10E2C000164B1E70F0E7164C237833B10825013742
:10E2D0004FF0060915F1FF3501D21226E4E7237845
:10E2E000EB40DA07F6D563782B4183EA0803DB07B6
:10E2F000F0D409FB0540062239460230F7F7CBF986
:10E300000028E7D10123AB402278DB43DBB21A407F
:10E310002270627813406370C6E700BF2C22002091
:10E320002D220020034A00231370034A13705370F8
:10E33000704700BF2C2200202D220020054B002218
:10E34000C3F808254FF44032C3F84423C3F804232C
:10E35000704700BF00B00040044A1378591C117088
:10E36000012013B9024A1060184670475F2200204E
:10E3700000B0004008B5124B1878B0B901234FF037
:10E38000000263F302020F490F4B5B1ADB0860F3D4
:10E39000C50263F38F120D490D48F4F771F8404040
:10E3A00080F311884FF0040002DF0138C0B218700A
:10E3B000012310B9074A136008BD184608BD00BF05
:10E3C0005F2200203C1401003C140100BE35010016
:10E3D000C835010004B00040014BD3F80405704774
:10E3E00000B0004000F5A870014B43F820107047C2
:10E3F00000B00040F0B5124B124D01210026AE4690
:10E400001A462960C3F80405C3F80061C3F8046123
:10E410001960D3F8004134B9D3F804411CB9D3F8DA
:10E420000445002CF5D1CEF80010D2F80441002CA0
:10E43000E7D1D2F80475002FE3D0C2F80445F0BD4F
:10E4400000E0004004E0004070B58CB00E46154678
:10E450000146102268461C46F8F77CFC10220DEBA2
:10E4600002003146F8F776FC6846FFF7C3FF25B196
:10E47000102208A92846F8F76DFC24B1102208A93B
:10E480002046F7F735F90CB070BD00000028084BA6
:10E4900014BF4FF400124FF48012C3F8082514BFC4
:10E4A0004FF480124FF40012C3F80425704700BFE8
:10E4B00000F00140F0B52D4E2D4F3578DFF8BCE06F
:10E4C000C7F860E52BB2DC0004F1804404F5F834B1
:10E4D000C7F8644505F10B04E4B2E400A7F5AF37D3
:10E4E00004F18044C03F04F5F83407EB8307C4F817
:10E4F0001075002834D049F6C47749F64040022A06
:10E500000CBF02463A4642F2B84741F2883002292F
:10E5100018BF384602F5FA7101444FF47A72B1FB24
:10E52000F2F1144AC4F814259B0003F1804303F56B
:10E530001043D3F840258A428BBFD3F840250122EF
:10E54000511AC3F8402588BFC3F84015084B4FF453
:10E550009062C3F804256B1C03F001033370F0BD17
:10E56000054AC4F814252C21DEE700BF7C240020D6
:10E5700000F0014000100040041000400C11004069
:10E58000024B1B6803B11847704700BF7824002076
:10E59000064B1860064B1022C3F80423054B0222D9
:10E5A000C3F880210120F6F77BBE00BF782400204D
:10E5B0000010004000E100E04FF080434FF0FF32D8
:10E5C0000021C3F8002EC3F8042EC3F8081EC3F8B8
:10E5D0000C2EC3F8101EC3F8142EC3F8182EC3F85F
:10E5E0001C2EC3F8202EC3F8242EC3F8282EC3F8FF
:10E5F0002C2EC3F8302EC3F8342E704708B50120F6
:10E60000F6F75EFE084B0022C3F8FC2F0122C3F888
:10E61000FC2F064A136823F0807323F0010343F0B4
:10E620008073136008BD00BF0010004074170040E5
:10E63000064B02280CBF04220322C3F81025D3F88E
:10E64000502642F00102C3F85026704700100040E7
:10E65000014BC3F80C05704700100040014BC3F894
:10E660000805704700100040074BC3F85405D3F865
:10E67000182522F00072C3F81825D3F8182542F0A7
:10E680000072C3F818257047001000400A4A0023A2
:10E69000C2F82C350123C2F83035C378C2F82435CE
:10E6A000437881781B0443EA0163017843EA01233C
:10E6B000C2F81C35704700BF00100040C2F342038F
:10E6C000022B10B50CBF4FF080740024D307C0F1AB
:10E6D00008034FEA034300F00F0040F4807003F496
:10E6E00070230B4A43EA000348BF44F480142343D9
:10E6F000C2F81435D2F81805064B0340C2F8183595
:10E70000D2F8183543F440331943C2F8181510BD38
:10E71000001000400000F8FE014BC3F804057047EC
:10E7200000100040014BC3F8040570470010004082
:10E7300002280CBF2820292070470120704729207B
:10E74000704702280CBF05200A207047014B0122A8
:10E750001A60704704100040014B01221A60704794
:10E7600000100040074A4FF49063C2F808350123B7
:10E770005360D360A2F5F0320021C2F80012136199
:10E78000704700BF00F00140044B0022C3F8002195
:10E79000C3F80C21C3F81021704700BF00100040DF
:10E7A000034BD3F80001003018BF0120704700BFB1
:10E7B00000100040034BD3F80C01003018BF0120BB
:10E7C000704700BF00100040034BD3F85005B0FA6B
:10E7D00080F04009704700BF00100040044B40F239
:10E7E0000312C3F83425C3F83805C3F83C15704745
:10E7F00000100040034BD3F80004003018BF012084
:10E80000704700BF00100040004870476C23002094
:10E810000048704770230020044B03220021C3F8F6
:10E82000002202460846FFF745BE00BF0010004028
:10E83000034B0321C3F8001201460120FFF73ABE43
:10E8400000100040054B0322C3F8002203F5F0330B
:10E850004FF49062C3F80825704700BF00100040D5
:10E86000034AD2F8003243F48873C2F8003270478A
:10E8700000100040014BD3F84805704700100040DD
:10E88000024B0022C3F81C21704700BF001000405B
:10E89000034BD3F81C01003018BF0120704700BFA4
:10E8A0000010004030B50024A30003F1804303F5BD
:10E8B00080531568C3F8005601349588C3F8205674
:10E8C000082C02F10602EFD1024B40EA0120C3F806
:10E8D000400630BD00100040034AD2F8403623F015
:10E8E000FF03C2F84036704700100040024B002280
:10E8F000C3F81421704700BF00100040034BD3F849
:10E900001401003018BF0120704700BF0010004004
:10E91000014BD3F81004704700100040054B4FF432
:10E920008022C3F8482303F5A033034AC3F808251F
:10E93000704700BF00B000406000700E034B044AF7
:10E940001B7803F5A87342F8230070477C2400204D
:10E9500000900040F8B5A2F57423334CA3F5107372
:10E96000A34288BF02F1E872304B314C84BF02F5FC
:10E97000D43202F5A5724FF00105B2FBF4F44FF06A
:10E9800000064FF004074FF002021D60C3F8F86460
:10E99000C3F80475C3F8FC24264AC3F8344588BF7D
:10E9A00001F1FF31C2F848154FF48021C2F8441339
:10E9B000214902F5A4720C3BC1F83825C1F83C3559
:10E9C0002023C1F80435FFF761FD1C4B1C4A15607C
:10E9D000C3F80465C3F81075C3F808651D60A3F596
:10E9E000FD43743BC1F8483503F500433433C1F8A7
:10E9F0004C25C1F8503503F5AF33C433C1F8543555
:10EA0000A3F5AF33C03BC1F8583503F5AF33C83376
:10EA1000C1F85C354FF41063C1F800384FF49053DF
:10EA2000C1F804382046F8BDBFBDF07F0C8000401F
:10EA300040420F0000B0004000F001400090004054
:10EA40000C900040044A01231360D3600C3202F69C
:10EA5000F4721360D360704704800040044BC3F825
:10EA6000440503F5B8334FF08862C3F804257047B6
:10EA700000800040064B074AC3F8402502F5DE42FD
:10EA80004032C3F84425044AC3F80425704700BF48
:10EA900000F001400011004040000004014BD3F899
:10EAA0004405704700800040014B1860704700BF6C
:10EAB00074240020014B1868704700BF74240020A4
:10EAC000014BD3F84005704700800040024B4FF0E7
:10EAD0000062C3F80425704700F00140014BD3F8F1
:10EAE0004805704700800040014BD3F84805704747
:10EAF00000800040134B70B500240225C3F8004588
:10EB0000114EC3F80055114D02290CBF294631465C
:10EB1000C3F80415C3F808050D48C3F80C05C3F87D
:10EB200010250C4AC3F814250B4AC3F800424FF0D5
:10EB30000071C3F80441C3F80841C2F8041501226A
:10EB40001A6070BD00F000400100000101000101E9
:10EB5000702300206022002000F0014010B50E4B11
:10EB600000220224C3F80025C3F800450B4CC3F86B
:10EB70000445C3F80805C3F80C1509480949C3F84A
:10EB80001005C3F814150121C3F80012C3F80421BD
:10EB9000C3F80821196010BD00F000400000010119
:10EBA00070230020602200200C4B0222C3F80423B3
:10EBB000D3F804216AB10222C3F80823084A4FF4AB
:10EBC0000041C2F88011D3F80801B0FA80F0400982
:10EBD000704720BF40BF20BFEAE700BF00F0004001
:10EBE00000E100E0034BD3F80004003018BF01201F
:10EBF000704700BF00F00040014BD3F8000470479D
:10EC000000F00040044A0023C2F8283102F56042B7
:10EC1000C2F80035704700BF00100040084BD3F821
:10EC2000280160B103F56043D3F8000138B1D3F88F
:10EC3000040120B1D3F80801B0FA80F04009704710
:10EC400000100040012908B516D001234FF0000242
:10EC500063F302020D490E4B0E485B1ADB086FF39B
:10EC6000C50263F38F120C49F3F70AFC404080F3AE
:10EC700011884FF0040002DF18201AB1BDE80840E7
:10EC8000F6F70EBBBDE80840F6F71ABB3C140100CE
:10EC90007C140100343601000536010008B5C1B10D
:10ECA00001291BD001234FF0000263F302020C493B
:10ECB0000C4B0D485B1ADB086FF3C50263F38F1230
:10ECC0000A49F3F7DDFB404080F311884FF0040060
:10ECD00002DF0B20BDE80840F6F706BB1820F9E775
:10ECE0003C1401007C1401001024010016360100C0
:10ECF00088420AD018B94B1E584258417047012823
:10ED000005D1B1FA81F04009704701207047002019
:10ED10007047000008B5114BC1B101291BD0012378
:10ED20004FF0000263F302020D490E4B0E485B1ACE
:10ED3000DB086FF3C50263F38F120C49F3F7A0FBF6
:10ED4000404080F311884FF0040002DF4FF400626E
:10ED5000C3F8002108BD4FF08072F9E700E100E040
:10ED60003C1401007C14010010240100283601002D
:10ED7000032808B516D901234FF0000263F30202FD
:10ED80001249134B13485B1A6FF3C502DB08124993
:10ED900063F38F12F3F774FB404080F311884FF058
:10EDA000040002DF0D4B185C78B901234FF000021C
:10EDB00063F302020549064B5B1A60F3C502DB08E8
:10EDC00063F38F1204490648E4E708BD3C140100D0
:10EDD00084140100AE3601006C360100AA36010031
:10EDE000E3360100023810B51C46032817D8DFE8C7
:10EDF00000F0020C1236032911D11C4B00219C603B
:10EE00000020BDE81040F8F727B8042907D1184BB7
:10EE100001219C60F4E7032918D004291BD00123A9
:10EE20004FF0000263F302021249134B13485B1ABE
:10EE3000DB086FF3C50263F38F121149F3F720FB70
:10EE4000404080F311884FF0040002DF0D4B002199
:10EE50009C600120D5E70C4B01219C60F9E7042957
:10EE6000DDD10A4B01219C600320CAE7204A002023
:10EE7000304A00203C1401008414010010240100D9
:10EE80008F360100404A0020504A0020604A00208E
:10EE900001460020FFF7A6BA70470000014B03EBC4
:10EEA00040107047B44B00208279044B03EB4213AF
:10EEB000DB69C01A024BC01058437047B44B0020A6
:10EEC000ABAAAAAA10B5094B827903EB42130A68D0
:10EED0009B695C6823689A4294BF0A600B60FFF7E5
:10EEE000E3FF94E80C0002FB003010BDB44B00209F
:10EEF0002DE9F34105460191164602F047F8074611
:10EF00004FF02003EFF3118883F311886B8A002BF5
:10EF10003DD02A8A9A422AD90021284601F07CFA5B
:10EF200028B388F311880446019B002B3CD0731C46
:10EF3000012B06D902F02AF8C01BB04294BF361A42
:10EF4000B61BA3791E4F07EB431332469B691B6820
:10EF500001A91B68204698470546206128BBA07977
:10EF6000214607EB401001F038FA2C4618E0688A79
:10EF7000431E6B8288F311882C8A241AE8691823AF
:10EF800003FB04040E4BED1A6D11A571CCE788F359
:10EF900011883146284601F03FFA04460028C3D1C3
:10EFA000204602B0BDE8F0812361012323710023D4
:10EFB00023606371019AA3812369E281A360EFE773
:10EFC000B44B002083695B680A461968FFF790BF5D
:10EFD000836819440160704710B40A46146814B974
:10EFE00010BC01F0FFB9537943F00103537122467D
:10EFF000F4E70000F8B5154D0446002604B9F8BD45
:10F0000023792768013BDBB22371002BF7D12169FB
:10F0100059B163799B0707D4A37905EB43132046C5
:10F020009B691B689B6898472661A079A66005EBE1
:10F03000401326605B691BB1204698473C46DDE7DC
:10F04000214605EB401001F0C8F9F7E7B44B00206A
:10F050000379013303717047838802681944818002
:10F06000D018704730B4838804689D188580E018F4
:10F0700030BCF6F73DBB83885B1A83800368194474
:10F0800001600846704770B504680E4615464CB1DD
:10F09000A3681D4204D063682A462146304698473B
:10F0A0002468F4E770BD10B504688068A46801297D
:10F0B0002468C16904D14B40C4F80435002010BD58
:10F0C000003321FA02F118BF012301F001018B4244
:10F0D0004FF0010303FA02F314BFC4F80835C4F873
:10F0E0000C35EBE770B504688068A468C0692568D2
:10F0F000D5F81465D5F81045D5F8045560406C4036
:10F100003440604001291CBFD04000F0010018606D
:10F11000002070BD8368186872B108605A68196071
:10F1200002B959600020704710605868814208BFDA
:10F130005A600DE0024600680028F3D08142F9D100
:10F140000868002AF0D15A681860914200D15860CE
:10F1500000230B60E6E7000008B5094B1A786AB98E
:10F160000121197006200521F6F7CCF80620F6F7E4
:10F1700097F8044B4FF00042C3F80423002008BD69
:10F18000A8240020006000401F288ABF094B4FF0D0
:10F19000A04300F01F0003EB8000D0F8003723F4F9
:10F1A0004033C0F80037D0F8003743EA0141C0F8D7
:10F1B0000017704700030050F8B50268836897682D
:10F1C0009968DA689869DC690A4059691B690143E2
:10F1D00022EA01023968D1F810155C404C4022EA5D
:10F1E0000404012500260AB92046F8BD2A4209D0A8
:10F1F0003B7906F01F00002140EA4310FFF7C4FFEF
:10F2000022EA050201366D00EDE7F8B5846803686F
:10F21000E2689D68A368A1691A4063690B4322EA0A
:10F2200003020127002602B9F8BD174212D0E16996
:10F23000236995F804E04B40F34013F0010F06F00A
:10F240001F0014BF0221032140EA4E10FFF79CFF6C
:10F2500022EA070201367F00E5E70000F7B5036800
:10F2600086689B6801F01F040D464D491B79D1F853
:10F27000042344EA4314D2B2002303F5A27051F8E8
:10F280002000C0F3052084426FD122FA03F0C007AA
:10F290006BD59A0002F1804202F5C042D2F8100507
:10F2A00020F00100C2F81005012202FA03F3C1F8B0
:10F2B000083320460021FFF767FFB068E84010F0F0
:10F2C000010050D0F068E84010F001004BD07069A8
:10F2D000E84010F0010254D0B369EB40DB0748D49A
:10F2E0003369F269EB4022FA05F503F0010305F0FA
:10F2F0000105AB4214BF01250225294E002202F56B
:10F30000A27356F8230010F0030034D1930003F1E8
:10F31000804101F5C04103F58073D1F8107527F4E1
:10F320004F3727F44077C1F8107524029BB2D1F80B
:10F33000107504F47C5403F1804303F5C04344EAA0
:10F3400005453D43C1F8105518600190019BD1F867
:10F35000103543F00103C1F81035D2B2012303FA8E
:10F3600002F2C6F8042303B0F0BD0133082B84D1A8
:10F370009FE70325C1E70132082AC0D16FF01200D0
:10F38000F1E7F16933694B4023FA05F515F0010FF8
:10F39000204614BF02210321FFF7F6FE1046E2E7E4
:10F3A000006000402DE9F84F0746856803F470407F
:10F3B000B0F5804F1E463ED02ADCB0F5805F3ED0CF
:10F3C000B0F5405F3FD050BB06F44078B8F5807F81
:10F3D0003DD0A8F500746342634106F0010E4FEA88
:10F3E0004E08012948EA0E0818BFD4B248EA0020A6
:10F3F000DFF8FCA012BFA1464FF01F09002440EA2D
:10F40000830806F0020BA14523D20020BDE8F88F47
:10F41000B0F5E04F19D006DCB0F5A04F11D06FF079
:10F420001500BDE8F88FB0F5404F06D0B0F5504F4D
:10F43000F5D10720C8E70220C6E70620C4E701206F
:10F44000C2E70320C0E70420BEE70520BCE7032392
:10F45000C3E73B689B681A7904F01F0343EA421331
:10F460001F2BC6BF03F01F0352464FF0A04203F507
:10F47000E07342F823800123AA68A340BBF1000F88
:10F4800033D013436A69AB600123A34016F0200F09
:10F4900014BF134322EA03036B61AA690123A3404B
:10F4A00016F0400F14BF134322EA0303AB612A692D
:10F4B0000123A34016F0040F14BF134322EA0303F1
:10F4C0002B61EA69012316F0800F03FA04F314BFDD
:10F4D000134322EA0303EB6121463846FFF7BEFEE1
:10F4E00000289ED10134E4B28DE722EA0303C9E784
:10F4F0000003005001292DE9F04118BFD4B28768FC
:10F50000064612BF25461F2500244FF00108AC42D5
:10F5100002D90020BDE8F081FB6808FA04F223EA72
:10F520000203FB6021463046FFF798FE0028F1D128
:10F530000134E4B2EBE701292DE9F04118BFD4B260
:10F540008768064612BF25461F2500244FF0010894
:10F55000AC4202D90020BDE8F081FB6808FA04F251
:10F560001343FB6021463046FFF778FE0028F2D1B6
:10F570000134E4B2ECE70000F0B585B000262B4D75
:10F58000029603962C68012C0BD12948FFF714FE34
:10F5900002902848FFF710FE03902E602B6800931E
:10F5A000009B254E002301279E46D6F8042307FA28
:10F5B00003F111421ED09A0002F1804202F5C242CC
:10F5C0001168012916D103F5A2700DF1100C56F83F
:10F5D0002050C2F800E0C5F340300CEB8000C5F3CA
:10F5E0000425A940126850F8085C01922943019A49
:10F5F00040F8081C0133082BD7D1029A1AB10C49E4
:10F600008868FFF740FD039A2AB1094B03F10C010A
:10F610005869FFF738FD012C05D10548FFF7F5FDC6
:10F620000448FFF7F2FD05B0F0BD00BF7C6100406B
:10F63000044B0020104B002000600040054B1B686D
:10F640002BB9054B1878003018BF012070470120F6
:10F65000704700BF1C210040F4240020034B1868B1
:10F6600018B1D3F85C03C3F85C0370472421004051
:10F6700082680B4692E8030083E80300002070478D
:10F68000024B0422C3F80423704700BF002000404F
:10F69000024B0422C3F80823704700BF002000403B
:10F6A00008B5FFF7CBFF08BD024B1868003018BF44
:10F6B0000120704708210040024B4FF40072C3F84C
:10F6C0000423704700200040024B4FF40072C3F83F
:10F6D000082370470020004001207047024B19604A
:10F6E000024B1A60704700BFEC240020F024002079
:10F6F000034B1B6813B1034A10681847704700BFDB
:10F70000EC240020F0240020034B8022C3F80823BF
:10F710000122DA6000F03BBB0020004008B500F099
:10F7200035FB0B4B01221A608022C3F8FC224FF0FC
:10F730002002EFF3118382F31188064A12781AB17E
:10F74000054A0421C2F8001183F3118808BD00BFE7
:10F7500008200040F424002000E100E030B54B799F
:10F76000012B20D18B79032B1DD1CC792CB1012C0D
:10F7700019D103689B681B78ABB10A7912B1022AD0
:10F7800011D10E220B6847F61225AB426CD027D858
:10F79000B3F5965F61D012D8B3F5167F4CD005D87B
:10F7A000B3F5967F70D06FF0220030BDB3F5966F41
:10F7B00050D0B3F5166FF6D14FF41D233EE0B3F5EC
:10F7C000615F4CD004D8B3F5165FECD1304B35E017
:10F7D000B3F5964F46D0B3F5E14FE4D12D4B2DE074
:10F7E000B3F5E13F48D011D84DF6C025AB423ED02D
:10F7F00004D8B3F5164FD6D1274B1FE0B3F5614FB0
:10F8000038D0B3F5963FCED1244B17E0B3F5E12FB6
:10F8100036D008D8B3F5613F30D0214DAB42C2D1CC
:10F820004FF080630AE0B3F5612F2BD01D4DAB4242
:10F83000B9D14FF0805301E04FF41C331A4D2243ED
:10F84000C5F82435C5F86C25836803C983E803002F
:10F85000002030BD4FF49E23F0E7144BEEE74FF449
:10F860006C13EBE7124BE9E74FF40003E6E74FF4C4
:10F870006503E3E70F4BE1E70F4BDFE70F4BDDE7F6
:10F880000F4BDBE70F4BD9E74FF4A033D6E700BFB0
:10F890000050270000F0750000509D0000903A01D4
:10F8A00090D0030040420F000020004000B0130041
:10F8B00000A04E0000F0EB0000E0D70100B0AF0365
:10F8C00000705F0700D0BE0E08B50C4BD3F80423C0
:10F8D00012F0800F1A4605D1D2F8040310F004008C
:10F8E00006D108BDFFF7AAFE0028F5D0012008BD0B
:10F8F000034B1868003018BF012008BD00200040ED
:10F9000008210040F7B50023094C0A4F1E46D8B223
:10F91000151A002D02DD256801330DB903B0F0BDC5
:10F92000266025680195019DD7F818550D54EEE71E
:10F93000082100400020004007B50B4A0023136057
:10F9400012680192019A094A1370094B01221A6048
:10F95000C3F81415FFF772FE0028FBD0054B0122F7
:10F960001A6003B05DF804FB1C210040F424002061
:10F97000082000400C200040084B1A6882B052B1A9
:10F98000002018601B680193019B054BD3F81835C4
:10F990000B7002B070474FF0FF30FAE708210040CB
:10F9A000002000402DE9F3410D4E0E4FDFF8388066
:10F9B0000024E5B2531B002B03DDFFF73FFE0134AB
:10F9C00018B9284602B0BDE8F081002333603068E2
:10F9D000019001983B704B5DC8F81C35E9E700BF0A
:10F9E0001C210040F4240020002000404FF0A043E0
:10F9F00037B51C4C4022C3F80825032100220825F6
:10FA0000C3F81817C3F82027C4F814550625C4F8FE
:10FA10000C552025C3F80855C3F81417C3F81C2744
:10FA20000523C4F808350723C4F810358168FFF7AB
:10FA300095FE054690B90423C4F800350A4B1860BA
:10FA40001B680193019B094B0121216002460220A2
:10FA50001970F5F757FC0220F5F722FC284603B091
:10FA600030BD00BF0020004008210040F4240020E9
:10FA7000F0B58378C7784FF02005EFF3118485F354
:10FA80001188067890F801C09B1B3B40934238BF19
:10FA90009AB206EB020E07EA0E0E354680F800E039
:10FAA00084F311880A440C46944216D1664509D164
:10FAB0004FF02005EFF3118285F31188057845702A
:10FAC00082F31188641AA2B29C1A03799C429EBFE9
:10FAD000064B012119601046F0BD00EB050E013503
:10FAE0009EF805E004F801EB3D40DDE700D0004062
:10FAF0002DE9F843114D0E46144605F1450805F170
:10FB0000180914B92046BDE8F8834FF0FF312846A4
:10FB100000F0BAFF224631464046FFF7A9FF0746EC
:10FB2000284600F08AFF2FB94FF0FF31484600F019
:10FB3000ABFFE6E7E41BA4B23E44E2E7F824002072
:10FB400082B04FF02003EFF3118283F31188094B49
:10FB5000196861B10849D1F80805002119601B68CE
:10FB60000193019BC0B282F3118802B070476FF01D
:10FB70000A00F8E700D1004000D00040DB072DE983
:10FB8000F3478846144605D41D48FFF771FF02B0BD
:10FB9000BDE8F08772B34FF02003EFF3118583F3D4
:10FBA00011880D20F5F7A0FB07460D20F5F788FB1F
:10FBB00085F31188134EDFF85490002232603268CA
:10FBC0000192019A104A0121116025464FF4005A12
:10FBD00033688BB1FFF7B4FF0028C9F880A1F7DBC9
:10FBE000013DADB208F80500002DF1D117B10D208F
:10FBF000F5F756FB2046CAE720BF40BF20BFE7E726
:10FC00002825002000D1004000D0004000E100E0A5
:10FC100037B5204C01221146204600F005FF04F1C3
:10FC200018000122002100F0FFFE072384F848306D
:10FC3000042384F849300F2384F833300C23002543
:10FC400084F83430144B84F8455084F8465084F8D6
:10FC5000475084F8305084F8315084F83250D3F84B
:10FC6000042542F00102C3F804250C4A156012680D
:10FC70000192019A0122C3F8042305211A600D2084
:10FC80002A46F5F73FFB0D20F5F70AFB284603B09F
:10FC900030BD00BFF824002000D0004000D100405B
:10FCA00010B5FFF74DFF00282DDB174B93F83220DE
:10FCB00093F8311093F83340511A34EA0101C0B27D
:10FCC00013D099180132224081F8350083F8322090
:10FCD00010BD99180132224081F84A0083F847206C
:10FCE0000A48BDE8104000F0A8BE93F8472093F8FA
:10FCF000461093F84840511A34EA0101E9D1044B07
:10FD000001221A60ECE710BDF82400201025002025
:10FD100004D00040094B70B553F820400130002654
:10FD200053F82050AC4200D370BD236820465B6876
:10FD3000984700B166600C34F4E700BFC837010093
:10FD4000104B70B5104C05461E469C4204D10E4C1B
:10FD5000B44209D1002412E062681AB12268126824
:10FD6000AA420CD00C34F0E763680BB90C34EFE70F
:10FD7000236828461968F5F781FC0028F6D120464B
:10FD800070BD00BF404B0020804A00207047704784
:10FD9000F5F70EB808B50A4D4FF02002EFF31183C6
:10FDA00082F3118801F00EF8012102280446D8BF21
:10FDB000084601F0BDF82C62F5F7FCFAECE700BF4D
:10FDC000242600200248034A0021121AF5F7BCBC81
:10FDD00000000020E82600200248034A0349121AC6
:10FDE000F5F786BC80470020C04C00204C3801004D
:10FDF00008B50220FFF78EFF0748F1F749F8032006
:10FE0000FFF788FF00F02CFFF0F7B4FB034A137BE9
:10FE100023F00103137308BDF0370100B82500205B
:10FE200080B586B006AFF2F73DFA324B83F308880F
:10FE3000314B324E324D0024E02283F82220DC7711
:10FE40001C765C769C765A6A42F4E0225A62F5F798
:10FE50001FFAF5F7A9FA2046FFF75CFF0120FFF72C
:10FE600059FF00F03FFD274B756205930123049372
:10FE70000394029401940094234B24494FF480622C
:10FE8000284600F093FE6B7B23F0040213F01B0F57
:10FE90006A73344605D12B6A013302D1284600F03B
:10FEA00031FC1B4B059301231A4E04930F2303933C
:10FEB00000230293019300934FF4A072164B17494D
:10FEC000304600F073FE737BE66023F00403737327
:10FED000134BA361E361134BA56023F00703124C9E
:10FEE000094A83F3098863B6002181F3118810461B
:10FEF000204700BF8043002000ED00E024260020C2
:10FF0000B8250020E0370100F1FD00004036002058
:10FF1000E53701004C25002095FD0000403A002007
:10FF20003C260020403A0020C50600000B4B0C4840
:10FF300070B50024834201D3002070BD1A699D680A
:10FF40005C610021A94201D11C33F3E75E691660B0
:10FF5000DE685A6101313244F4E700BF404B0020B3
:10FF6000404B002030B500248360C2600161846191
:10FF70004461A34202D10060406030BD45690D601C
:10FF8000013441611144F4E738B503460C464FF0A3
:10FF90002000EFF3118580F31188586950B120607B
:10FFA0005A6912685A619A6901329A61002085F390
:10FFB000118838BD1AB922606FF00B00F7E71946B7
:10FFC000284600F047FC0028F3D1024B9B685B6990
:10FFD000236038BD2426002070B504460D464FF03E
:10FFE0002003EFF3118683F3118800F020FB80B12A
:10FFF0002A684261427B0021D206816604D1036AED
:020000021000EC
:10000000013301D100F07EFB3046BDE8704000F0C6
:1000100027BB2B6862691A602B686361A369013B87
:10002000A36186F3118870BD38B5074C074DAC420B
:1000300001D3002038BD04F114036361A36120469D
:10004000F0F79BFB1C34F2E7404B0020784B00207C
:100050002DE9F04F1D1E85B006460C46174656DDAD
:1000600000F07AFF80462B484FF4004E00214FF4F9
:10007000A0220023CEFB0501F0F75AF818EB000888
:10008000254B264AF31A9B1002FB03FA5FFA8AFA01
:1000900006F1140B009403AB02AA39463046F0F780
:1000A000B9FB10F10B0F0BD1009403AB02AA394638
:1000B0003046F0F7AFFB10F10B0F08BF6FF00B00ED
:1000C0006379029A84F804A062F30303637163689E
:1000D000039A62F31F336360B0B1ADB110F10C0F3E
:1000E00012D14FF02003EFF3118083F311882A46D9
:1000F000594600F0AFFB6B1CCCD000F02DFFB8EBE5
:100100000005C7D56FF00A0005B0BDE8F08F4FF0CD
:100110000008B5E7FFFF0400404B0020B76DDBB6D9
:1001200070B5047802684178134EC4EBC404A4008F
:10013000120B01F00F013019F0F748FC4FF02003CB
:10014000EFF3118583F3118804F11400304400F0BB
:10015000B9FB40B1EFF305830D2B04D833B1074B46
:100160005B681B0502D485F3118870BD2846BDE885
:10017000704000F075BA00BF404B002000ED00E079
:100180000430FFF7CDBF07B50A1D04D2002369462E
:10019000FFF75EFF18B1002003B05DF804FB0422F6
:1001A0000DEB02010098F5F7A3FA00980430F3E78D
:1001B00010B10438FFF7B4BF70470000034B9B68D1
:1001C0000146186E08B1FFF7DEBF704724260020F5
:1001D00000238360C36000604060704770B50D46C7
:1001E0002F498A68D37B013B0446D373C368084612
:1001F0004BB1A26889688A4211D095B900F048FADB
:100200006FF00F0070BD8A6892F90E2022610133F1
:10021000E3608368A36000F03BFA002070BD2269B0
:10022000F4E791F90E1092F90E309942A8BF1946E1
:1002300021EAE1714FF02003EFF3118683F3118877
:10024000A06890F90E30994201DA00F011FB2A46BD
:100250002146304600F0FEFA0028DCD023682169F0
:100260009C4208BF002333B193F90E309942A8BFD6
:10027000194621EAE1714FF02003EFF3118583F372
:100280001188A06890F90E30994201D000F0F0FA80
:1002900085F3118800F0FCF96FF00A0070BD00BF13
:1002A0002426002070B51B4B9A68D37B013B044683
:1002B000D373C368012B05D0013BC360BDE8704018
:1002C00000F0E6B94FF02003EFF3118683F31188B5
:1002D0000169806890F90E30994201D000F0C8FAA7
:1002E000204600F0A4F90546A06088B1437BDB06F8
:1002F00004D1036A013301D100F004FA86F31188B6
:100300000023AB6695F90E30236186F31188D5E79B
:10031000E060FAE724260020F8B505460F461446AB
:100320004FF02002EFF3118682F31188A3B1082069
:10033000FFF744FF002834D00123446003600446E3
:1003400023685FB92A6803F00303134323606B68D3
:100350002C6073B96C600CE02360F1E73A6832F00E
:10036000030203F0030314D16A6823605AB96C6076
:100370002C60042105F1080000F02EFF304600F04B
:100380006FF90020F8BD136803F0030323431360E3
:10039000E0E7134323603A6802F0030214433C6031
:1003A000E7E76FF00B00F8BD10B5044630B1026806
:1003B000930703D0446809B1FFF7FAFE204610BD49
:1003C00000230360436000F108038360C36070474B
:1003D0000A4600234168FFF79FBF00230A461946DB
:1003E000FFF79ABF38B54FF02003EFF3118583F381
:1003F0001188436853B9016042600421083000F05D
:10040000EBFE2846BDE8384000F02AB91C6804F02D
:10041000030421431960EFE72DE9F041044686B05B
:100420000D464FF02003EFF3118783F31188026824
:1004300082B11368416823F003038A42036008BF56
:10044000436001211046FFF7AFFF87F3118806B024
:10045000BDE8F08119B987F311880020F7E787F329
:100460001188042103460DEB010000F019FE6A1CFF
:1004700002D000F08BFD06460027049BEA1B6FF3B9
:100480001033012101A8049300F020FE08B10B30C5
:10049000E3D14FF02003EFF3118883F31188206834
:1004A00038B10368626823F003039042236008BFF9
:1004B00063600121FFF778FF88F311880028C6D117
:1004C0006B1CDAD000F062FD871BBD42D5DAC4E7B1
:1004D00090E80C001A6002685360704708B5F4F7A2
:1004E0000BFD054B054A1B68184410610021184696
:1004F000BDE8084000F01CBD58260020242600203E
:100500004FF02003EFF3118083F311887047000050
:1005100038B5104C234653F8285F9D4200D005B9EA
:10052000E56870B9A36863B15A7BD20609D11A6A2B
:10053000013206D1DA897F2A03D9074A1268934229
:1005400006D1A368AB4201D0FFF7C8FF656238BD92
:10055000636238BD24260020EC37010090F90E00BC
:1005600091F90E309842ACBF002001207047000086
:10057000F8B50D460746FFF7C3FF0C4B04460C4881
:1005800000224FF4004600211A61C6FB07014FF418
:10059000A0220023EFF7CCFD064B1860064B1D6030
:1005A000FFF79CFF84F31188F8BD00BF24260020CC
:1005B000FFFF0400582600205426002010B50146F5
:1005C000FFF79EFF4B7B5A0604460DD50846FFF702
:1005D0007FFF4B7B23F040034B73054B9868431A16
:1005E00058425841FFF794FF84F3118810BD00BFB3
:1005F0002426002008B50246FFF782FF13689A42BE
:1006000008BF002380F31188184608BD10B50146C5
:10061000FFF776FF04460846FFF75AFF4B7B23F0AF
:1006200002034B7384F3118800238B6010BD10B557
:100630000021FFF7DFFF044628B1FFF7E7FF04F1D1
:10064000180000F0AFFB204610BD10B50446FFF7C0
:10065000DDFF04F11800BDE8104000F0A3BB00006E
:10066000EFF305830D2B09D81BB1074B5B681B0506
:1006700004D5064B9A685B6A9A4202D180F31188CE
:100680007047F4F77FBC00BF00ED00E02426002097
:1006900010B5FFF735FF0A4B9A68D37B0133044648
:1006A000D3730120FFF734FF84F311884FF0200348
:1006B000EFF3118083F31188BDE81040FFF7D0BF3E
:1006C0002426002010B50368984208BF002393B188
:1006D00091F90E4093F90E20944206DA5A684A6066
:1006E0000B605A681160596010BD4268934202D095
:1006F0001B68002BEBD1086043684B6043681960AE
:10070000416010BD38B50446FFF7FAFE21460546A4
:100710000648FFF7D7FF637B43F040036373002075
:10072000FFF7F6FE85F3118838BD00BF4C26002088
:10073000427BD20604D1036A013301D1FFF7E2BF45
:10074000704738B550F8103C0446A0F1180513B1B5
:100750002846FFF75BFF14F80B3C23F0040304F872
:100760000B3C2846BDE83840FFF7E2BF70B50446B1
:10077000FFF7C6FE0B4D06462046FFF7A9FE2146B1
:1007800005F12800FFF79EFF637BA86843F0400354
:100790006373031B58425841FFF7BAFE86F3118872
:1007A00070BD00BF24260020114B1B6810B5F3B1AB
:1007B00010498B68DA897F2A19D80F4A93F90E40BD
:1007C0001268944213DB0D4A126893420FD01A6AE2
:1007D00001320CD10A69824206DC1846FFF7C6FFD7
:1007E000BDE81040FFF77ABE121A0A6110BD10BDB5
:1007F000582600202426002054260020EC37010033
:1008000070B504460D461646FFF7D8FE637B43F0ED
:100810000203637325B1A56021462846FFF752FF06
:10082000731C12D009484FF4004500214FF4A02258
:10083000C5FB06010023EFF77BFC0549421C04F1D0
:100840001800BDE8704000F0EBBA70BDFFFF040077
:100850004307010010B5054B04469868FFF7D0FF29
:100860002046BDE81040F4F78DBB00BF24260020D1
:1008700038B50446FFF744FE637BDB0605461BD113
:10088000236A013318D12046FFF722FE0C48A173DA
:100890002146FFF717FF0120FFF73AFE012385F3FA
:1008A000118863B14FF02003EFF3118083F31188B7
:1008B000BDE83840FFF7D4BEA1730023EFE738BD91
:1008C0004C26002038B5054600202C68A54200D0F3
:1008D00004B938BD2046FFF7B8FE2046FFF728FFD1
:1008E0000120F2E7044B002103F128029A62DA6248
:1008F0000846FFF73DBE00BF2426002038B5124C45
:10090000124BA2681B689A420FD0FFF7F9FD05460B
:10091000A068FFF7DDFDA16804F12800FFF7D2FE13
:100920000120FFF7F5FD85F31188626AA3689A42FA
:1009300009D04FF02003EFF3118083F31188BDE855
:100940003840F4F71FBB38BD24260020EC370100E7
:10095000F8B5044618B9FFF7D1FF2046F8BD19488D
:100960004FF4004500214FF4A0220023C5FB0401F1
:10097000EFF7DEFB451C00F005FB2C184FF02003C1
:10098000EFF3118783F311880F4EB068FFF716FE5F
:10099000B0680E492A46183000F042FA3846F4F79B
:1009A000F1FA00F0EFFA201A002809DD4FF47A710D
:1009B0006422002380FB0101EFF70AFC0446CCE728
:1009C0000024CAE7FFFF040024260020430701009B
:1009D00038B505464FF02003EFF3118483F31188F7
:1009E000437B9A0702D584F3118838BD183000F094
:1009F000D9F90130F7D02846FFF79AFEEFF30583C7
:100A00000D2BF0D81BB1044B5B681B05EBD52046C2
:100A1000BDE83840FFF724BE00ED00E0014B9868C8
:100A2000704700BF2426002000F110038160C260DF
:100A30000060406003614361704770B504464FF049
:100A40002003EFF3118683F31188FFF7F0FD0546CD
:100A500070B1437BDB0604D1036A013301D1FFF798
:100A600051FE0023AB663046BDE87040FFF7F8BD8D
:100A7000A368E2689A4218BF0133A360022104F11F
:100A8000100000F0A9FBEEE710B40A4604464FF050
:100A90002003EFF3118083F31188A36833B1013B86
:100AA000A36080F31188002010BC704721B980F347
:100AB00011886FF00F00F7E7214610BCFFF7CABEA0
:100AC00010B5084C08494FF0FF334FF480622046C0
:100AD00000F01CF904F11000044900F04FF8002068
:100AE00010BD00BF5C260020804300203638010086
:100AF000F8B505460F464FF02003EFF3118483F35A
:100B000011880A484FF40046002100234FF4A02228
:100B1000C6FB0701EFF70CFB0549421C05F1180065
:100B200000F07EF984F31188F8BD00BFFFFF0400D8
:100B300043070100427BD20604D1036A013301D18D
:100B4000FFF7E0BD70470000EFF305800D2807D8E0
:100B500038B1044B586880F40060C0F3C02070477F
:100B60000120704700ED00E0024B9B68187B00F00D
:100B70000100704724260020F0F7D4B9704710B563
:100B80004FF02003EFF3118483F31188437B59075F
:100B900002D484F3118810BD23F004034373FFF7DC
:100BA000C9FF2046BDE81040FFF75ABD30B587B0F9
:100BB00004460E9D04950D9D03950C9D02950B9D7D
:100BC00001950A9D0095F4F7C7FB044B9B6813B988
:100BD000236607B030BD1B6EFAE700BF2426002055
:100BE00070B586B0002605960E9E04960D9E03965F
:100BF0000C9E02960B9E0F9D01960A9E009604463F
:100C0000FFF7D4FF6B1C03D02DB92046FFF7B7FFC9
:100C1000204606B070BD29462046FFF769FFF7E77A
:100C2000036D10B5044603B19847637BDA060AD119
:100C3000226A013207D12046FFF7C0FC637B43F0F4
:100C40000803637310BD9B0702D52046FFF7DEFC47
:100C5000236A0133F2D004F1180000F0A3F8EDE7A5
:100C6000F0B5224F224D87B03E46BD4205F130041B
:100C700014D3204B9A68D37B013BD3734FF02003EE
:100C8000EFF3118583F31188194CB44222D385F315
:100C9000118807B0BDE8F040FFF7FABC54F8043CF7
:100CA000059354F8103C049354F8143C039354F8FF
:100CB000183C029354F81C3C019354F8203C0093D8
:100CC000A4F130000FC8FFF771FF54F8303CDD6429
:100CD0002546CAE7616A4B1C03D0206819B9FFF7A3
:100CE0004EFF3034D1E7FFF703FFFAE7404B002017
:100CF000404B00202426002003730023C3734FF0D1
:100D0000FF33427381730362704700002DE9F041A5
:100D1000054686B098460E46174605F11004FFF7C3
:100D20004FFB002005900490029001903146CDF8D1
:100D30000C800095054B3A462046FFF751FF0449C9
:100D4000204606B0BDE8F041FFF718BFD906000005
:100D50003F380100034B1B680BB9F4F7CDB80020F6
:100D6000704700BFD82600204FF02003EFF311801A
:100D700083F311887047000048B1094B5B689842C3
:100D800005D003681BB19A6881680A449A6090E8AC
:100D90000C001A60026853604FF0FF3383607047A5
:100DA000784A002010B50246FFF7DEFF044690683F
:100DB000431C03D01046FFF7DFFF002084F31188A7
:100DC00010BD0000134B1B7870B5002B14BF4FF003
:100DD000FF326FF00042FFF7C7FF0F4B1C689C42C9
:100DE00006460AD04CB1A568FFF7B4FF281A0028C0
:100DF0000DDBA468FFF7AEFF221A86F31188074BBC
:100E00001B6913B19A42A8BF1A46104670BD002252
:100E1000F3E700BFDC260020784A002024260020CB
:100E200070B5C16016460446FFF79EFF0546FFF702
:100E300091FF184A1368012EACBF8019013093420C
:100E4000A06001D0566833B922605368636053686C
:100E50001C6054600BE09868A168884214DD411A58
:100E6000996059686160236059680C605C60136820
:100E7000934206D09C4204D1FFF7A4FF0021F4F76F
:100E800007F885F3118870BD091AB342A160DBD061
:100E90001B68D8E7784A00202DE9F843214D224EFF
:100EA000224F04464FF00008FFF77EFC2C60FFF74E
:100EB0005BFF3468B44281461BD08CB1A1682B68BB
:100EC000994214DC5B1A2B60D7E90023521843EBDC
:100ED000E173C4F808802046C7E90023FFF74CFF00
:100EE00089F311883CB1E36820469847DFE7C91AC7
:100EF000A1600024F4E7FFF737FF0C49D1E9002394
:100F0000064628682C60121843EBE073C1E9002301
:100F1000FFF758FF2146F3F7BBFF86F31188BDE8C2
:100F2000F88300BFD8260020784A0020E026002061
:100F300070B50E460446FFF717FF0546FFF742FF60
:100F4000431C01D0A04203DD31462046F3F7A0FF49
:100F500085F3118870BD00002DE91848FFF704FFE4
:100F60000446F3F7C9FF064BD3E9002312EB000B4D
:100F700043F1000C5846614684F31188BDE8188897
:100F8000E026002008B5FFF7E7FF08BD08B5FFF72A
:100F9000F9FF4FF47A7164220023A0FB0101EFF7FF
:100FA00017F908BD142330B503FB01000024002904
:100FB00000DA30BD437B846003F00F03022B03D0C3
:100FC000042B01D0012B04D1436805681D6005681E
:100FD0006B6082F311884FF02003EFF3118283F3EB
:100FE000118801391438E2E7836870B505460E466A
:100FF000D3B100221C685A60637B9A0714D5236A18
:1010000002331BD02046FFF720FB082E14BF00231D
:101010006FF00303A366637BDB0605D1236A01330C
:1010200002D12046FFF76EFBEB68C3F30432164390
:1010300066F310330020EB60A86070BD6FF00A000B
:1010400070BDF8B50368984204460E46174606D1AF
:1010500034606368736063681E606660F8BD4368EF
:10106000002BF5D09B6811681868FFF777FA002805
:10107000EED12568AC42EBD0002DE9D0AB683868E2
:101080001968FFF76BFA30B16B68736035606B6895
:101090001E606E60F8BD63689D42D9D02D68EBE795
:1010A00030B5457B036161F303054573C1680024D6
:1010B00064F31031C160090C62F341018173C2898C
:1010C000846064F38F02C28130BD00002DE9F04FCF
:1010D000404B85B09B6800930026012307468A4653
:1010E0009046019304464FF0FF35B146564510DB5C
:1010F0004FF02003EFF3118683F31188019C002C3D
:101100003FD1324629463846FFF74CFF86F3118817
:1011100040E04FF02003EFF3118B83F31188637BE2
:1011200003F00F03022B03D0042B04D0012B06D1B4
:101130002269926801E022691268002A3DD1B8F163
:10114000000F14D0019A92B1022B07D0042B13D0B8
:10115000012B09D16A462146206903E020696A46CD
:1011600021461030FFF76DFFC4F808D001358BF32E
:10117000118801361434B9E720696A4621460830DF
:10118000F0E700230193B8F1000F07D186F311882F
:101190006FF00A04204605B0BDE8F08F02A9424670
:1011A000304602910391FFF755FB04464FF02003B0
:1011B000EFF3118683F31188A3E7E268C4F808907F
:1011C000C2F304310B4363F31032E260CDF80490B4
:1011D000CDE700BF242600200368984207D093E89B
:1011E00005001060186842601846FFF7FDBE7047A2
:0211F000704746
:0211F200FFFFFD
:0811F4000CF0FE7F0100000079
:1011FC00000000001D3F00000000000035530000FF
:10120C00C84A0020F1F60000000000003553000031
:10121C0000000000355300000000000035530000B2
:10122C000000000079F500000000000035530000BC
:10123C000000000035530000000000003553000092
:10124C0000000000355300000000000099CD0000A4
:10125C000000000035530000F8240020A1FC000021
:10126C000000000035530000000000003553000062
:10127C00000000003553000000000000C14D0000CC
:10128C000000000035530000000000003553000042
:10129C000000000035530000000000003553000032
:1012AC000000000035530000000000003553000022
:1012BC0000000000CDCD0000000000003553000000
:1012CC000000000035530000000000003553000002
:1012DC0000000000355300000000000035530000F2
:1012EC0000000000355300000000000035530000E2
:1012FC0000000000355300000000000035530000D2
:10130C0000000000355300000000000035530000C1
:10131C0000000000355300000000000035530000B1
:10132C000000000035530000F91E0000FD10000005
:10133C000000000035530000000000003553000091
:10134C000000000035530000000000003553000081
:10135C000000000035530000000000003553000071
:10136C000000000035530000000000003553000061
:10137C0002160100E90E0000000000000216010038
:10138C0061220000000000000A150100293B00004A
:10139C000000000002160100313D000000000000BA
:1013AC00041A0100AD3D0000000000000F1A0100FE
:1013BC00AD3D000000000000541D0100014E000076
:1013CC000000000002160100C555000000000000DE
:1013DC000216010079CF0000000000005C3701000C
:1013EC0059F10000543701006337010059F1000036
:1013FC004C370100AC170100EDF900006A37010011
:10140C00E219010011FC00000000000002160100AE
:10141C002DFF000000000000021601002900010051
:10142C000000000002160100C10A010000000000CB
:10143C00E7350100040000006A35010003000000DC
:10144C005E3501000300000095330100030000002D
:10145C00F630010003000000EC3201000300000034
:10146C00A835010003000000F43501000400000061
:10147C00583601000400000007370100040000008A
:10148C0092250100040000006C25010003000000FF
:10149C002F3801000300000072210100030000003E
:1014AC00283701000300000016160100030000009D
:1014BC00D6190100030000003018010001000000E3
:1014CC00D517010001000000C01B01000100000045
:1014DC009C17010060030020C417010001000000EC
:0414EC00FFFFFFFF00
:1014F0000C0802170D010102090901010602091871
:10150000180301010909030305034344435F4143F1
:101510004D004344432041434D2064657669636533
:10152000206E6F7420666F756E640A00576169746F
:1015300020666F72204454520A004454522073654E
:10154000742C20737461727420746573740A00467D
:1015500061696C656420746F207365742044434432
:101560002C2072657420636F64652025640A004630
:1015700061696C656420746F2073657420445352F4
:101580002C2072657420636F64652025640A004610
:1015900061696C656420746F206765742062617591
:1015A00064726174652C2072657420636F646520B9
:1015B00025640A0042617564726174652064657413
:1015C00065637465643A2025640A0053656E64207F
:1015D0006368617261637465727320746F207468EC
:1015E000652055415254206465766963650D0A0093
:1015F0004368617261637465727320726561643AF5
:101600000D0A0000000000000000000000000000C3
:101610000338FDD87047736F6300000002000000BC
:1016200024160100000000003C16010026000207FD
:10163000000000204416010022000B11464C4153CB
:10164000485F30005352414D5F30000203040506ED
:101650000708090B08010C011001140118011C01F5
:10166000200124012C010C0D0E0F10111213140077
:101670003001340138013C014001440148014C0172
:101680005001000075120000A51200009D1400001A
:10169000511400004B140000451400003F140000DA
:1016A00039140000331400002D140000B913000099
:1016B000C91400009D1C0000A11800009B18000028
:1016C000951800008F18000089180000831800008A
:1016D0007D180000591400001D13000019150000AA
:1016E000891E0000B51700006C6F6767696E6700A0
:1016F0003C6C6F675F73747264757020616C6C6FA3
:1017000063206661696C65643E00000000000000B3
:101710007C17010084170100000000000000000099
:101720005B2530386C755D20005B253032643A25CE
:101730003032643A253032642E253033642C253023
:1017400033645D20003C25733E200025732E000D80
:1017500000253032782000202020007C0025630006
:101760001B5B306D00000000000000008C170100C2
:101770009017010094170100981701001B5B313B83
:1017800033316D001B5B313B33336D00657272008A
:1017900077726E00696E660064626700E52F000074
:1017A00000000000C92F0000CD2F00005541525409
:1017B0005F300000A92F00006C03002068030020A8
:1017C000010000006C6F675F6261636B656E645F50
:1017D00075617274007573625F6465766963650034
:1017E0007573625F6765745F6465766963655F647E
:1017F000657363726970746F72007573625F666996
:10180000785F61736369695F736E5F737472696E29
:10181000675F64657363726970746F720075736279
:101820005F6669785F64657363726970746F720074
:101830007573625F64657363726970746F72003090
:101840002E30310025733A20746865206E6577204C
:10185000534E2064657363726970746F7220646F95
:1018600065736E27742068617320746865207361E6
:101870006D65206C656E67746820617320434F4E00
:101880004649475F5553425F4445564943455F5378
:101890004E0025733A20496E636F6D706C657465F8
:1018A000206465766963652064657363726970742A
:1018B0006F720025733A2054686572652069732041
:1018C0006E6F207573625F6366675F646174612029
:1018D000666F722025700025733A204661696C6539
:1018E0006420746F2076616C696461746520656E34
:1018F00064706F696E74730025733A204661696C79
:10190000656420746F206669787570205553422095
:1019100064657363726970746F72006364635F619E
:10192000636D5F62756C6B5F6F7574006364635F9A
:1019300061636D5F696E69740025733A20434443A7
:10194000206275666665722066756C6C2100000009
:10195000D33900007D3C00000000000000000000C2
:1019600000000000013B0000E93800002D390000B4
:101970003F39000047390000533900006539000045
:10198000000000006D3900000000000000000000B1
:10199000793900009539000099390000253C000094
:1019A000A139000025733A204661696C6564207492
:1019B0006F20636F6E666967205553420025733A46
:1019C000204661696C656420746F20656E61626C8D
:1019D0006520555342007573625F6364635F6163A2
:1019E0006D00454E54524F50595F3000793E000013
:1019F0000000000000000000C53D00004D3D00005B
:101A000000000000636C6B5F6B33327372630063C2
:101A10006C6B5F6D31367372630068665F636C6F09
:101A2000636B5F656E61626C65006570735F6374A4
:101A3000785F696E697400757362645F776F726B4B
:101A40005F70726F636573735F72656376726571E1
:101A500000757362645F776F726B5F68616E646C50
:101A6000657200757362645F6576656E745F74722B
:101A7000616E736665725F6374726C007573626425
:101A80005F6576656E745F7472616E736665725FB2
:101A900064617461007573625F64635F65705F6346
:101AA0006865636B5F636170007573625F64635F39
:101AB00065705F636F6E66696775726500757362E6
:101AC0005F64635F65705F7365745F7374616C6C92
:101AD000007573625F64635F65705F7772697465D8
:101AE0000025733A20455020627566666572206154
:101AF0006C6C6F63206661696C656420666F722030
:101B00004550494E25640025733A204550206275A2
:101B10006666657220616C6C6F63206661696C65D6
:101B20006420666F722045504F555425640025731C
:101B30003A2045502062756666657220616C6C6F54
:101B400063206661696C656420666F722049534F3B
:101B5000494E0025733A20455020627566666572CD
:101B600020616C6C6F63206661696C656420666FD0
:101B7000722049534F4F55540025733A204E524618
:101B800020484620436C6F636B206465766963650B
:101B9000206E6F7420666F756E64210073746172BD
:101BA000740073746F700025733A20484620636C8C
:101BB0006F636B202573206661696C3A2025640091
:101BC0007573625F6E7266780025733A20696E766F
:101BD000616C696420656E64706F696E7420636FF8
:101BE0006E66696775726174696F6E0025733A205D
:101BF000696E76616C696420656E64706F696E747D
