:10000000F0B3002079410000D141000075400000AC
:10001000754000007540000075400000754000000C
:100020007540000075400000754000000D3E000066
:100030007540000075400000C93D0000754000009B
:100040003941000087490100394100003941000071
:1000500039410000394100003941000039410000B8
:1000600039410000394100003941000039410000A8
:100070003941000039410000394100003941000098
:100080003941000039410000394100003941000088
:100090003941000039410000394100003941000078
:1000A0003941000039410000394100003941000068
:1000B0003941000039410000394100003941000058
:1000C0003941000039410000394100003941000048
:1000D0003941000039410000394100003941000038
:1000E0003941000039410000394100003941000028
:1000F0003941000039410000394100003941000018
:100100007BB972B90029BEBF00204FF0004106E064
:1001100008BF00281CBF6FF000414FF0FF3000F017
:10012000C5B9ADF1080C6DE904CE002909DB002B3F
:100130001ADB00F04DF8DDF804E0DDE9022304B03D
:100140007047404261EB4101002B1BDB00F040F89F
:10015000DDF804E0DDE9022304B0404261EB410137
:10016000524263EB43037047524263EB430300F098
:100170002FF8DDF804E0DDE9022304B0404261EB32
:1001800041017047524263EB430300F021F8DDF870
:1001900004E0DDE9022304B0524263EB43037047FD
:1001A00053B94AB9002908BF00281CBF4FF0FF31DE
:1001B0004FF0FF3000F07AB9ADF1080C6DE904CED4
:1001C00000F006F8DDF804E0DDE9022304B0704732
:1001D0002DE9F0478C460D460446089E002B51D170
:1001E0008A4217466DD9B2FA82FEBEF1000F0BD0DB
:1001F000CEF1200C01FA0EF520FA0CFC02FA0EF7F3
:100200004CEA050C00FA0EF44FEA174A250CBCFB29
:10021000FAF81FFA87F90AFB18CC45EA0C4508FBE7
:1002200009F3AB420AD9ED1908F1FF3280F02381BE
:10023000AB4240F22081A8F102083D44ED1AA4B27D
:10024000B5FBFAF00AFB105544EA054400FB09F936
:10025000A14509D9E41900F1FF3380F00A81A145D5
:1002600040F2078102383C44A4EB090440EA08400C
:100270000021002E61D024FA0EF400233460736054
:10028000BDE8F0878B4207D9002E54D0002186E8C4
:1002900021000846BDE8F087B3FA83F1002940F059
:1002A0008E80AB4202D3824200F2FA80841A65EB60
:1002B00003050120AC46002E3FD086E81010BDE8B3
:1002C000F08712B90127B7FBF2F7B7FA87FEBEF144
:1002D000000F34D1EB1B3A0C1FFA87FC0121B3FB52
:1002E000F2F8250C02FB183345EA03450CFB08F332
:1002F000AB4207D9ED1908F1FF3002D2AB4200F250
:10030000D1808046ED1AA3B2B5FBF2F002FB105586
:1003100043EA05440CFB00FCA44507D9E41900F1AD
:10032000FF3302D2A44500F2B8801846A4EB0C04B7
:1003300040EA08409DE731463046BDE8F087CEF1FF
:10034000200405FA0EF307FA0EF720FA04F83A0C27
:1003500025FA04F448EA0308B4FBF2F14FEA184521
:1003600002FB11441FFA87FC45EA044501FB0CF32C
:10037000AB4200FA0EF409D9ED1901F1FF3080F01B
:100380008A80AB4240F2878002393D44EB1A1FFA63
:1003900088F5B3FBF2F002FB103345EA034500FB9E
:1003A0000CF3AB4207D9ED1900F1FF386FD2AB4225
:1003B0006DD902383D44EB1A40EA01418FE7C1F1A3
:1003C000200722FA07F88B4005FA01F448EA0303F4
:1003D00020FA07FE4FEA134CFD404EEA040EB5FB2F
:1003E000FCF94FEA1E440CFB19551FFA83F844EA46
:1003F000054509FB08F4AC4202FA01F200FA01FAE1
:1004000008D9ED1809F1FF3043D2AC4241D9A9F126
:1004100002091D442D1B1FFA8EFEB5FBFCF00CFBE0
:1004200010554EEA054400FB08F8A04507D9E4182A
:1004300000F1FF3529D2A04527D902381C4440EAF3
:100440000940A4EB0804A0FB02894C45C6464D4672
:1004500015D312D056B1BAEB0E0364EB050404FABF
:1004600007F7CB401F43CC40376074600021BDE8E4
:10047000F0871846F8E69046E0E6C245EAD2B8EBC7
:10048000020E69EB03050138E4E72846D7E740464A
:1004900091E78146BEE7014678E702383C4445E7EC
:1004A000084608E7A8F102083D442BE7704700BF63
:1004B00070470000014B01221A70704780C5002070
:1004C0002DE9FF41CD680646284698460C4617465A
:1004D00003F0DDFEBDF82830009380B20290019554
:1004E00043463A462146304609F0E9FE04B0BDE8ED
:1004F000F08100001FB5044610BB124809F0ACFEA5
:1005000003F084F9092302948DF80930A023ADF893
:100510000A30F023ADF80C300122009423460A493A
:1005200002A806F0ABFE024650B94EF6602107481D
:100530001AF074FC4FF49672114605481AF06EFCDE
:1005400004B010BDE8C5002028B501002C00002033
:1005500000000020436810B45C681346A4460A46B5
:1005600010BC002160470000054B1A68B2FA82F205
:1005700052091A60034B0D211868FFF7EBBF00BF4B
:10058000E84E00200C4F0020436810B41C6813464E
:10059000A4460A4610BC00216047000010B5094C73
:1005A00001220D212068FFF7D5FF01220E212068CE
:1005B000FFF7D0FF206801220F21BDE81040FFF7B0
:1005C000C9BF00BF0C4F002010B50F4CFFF7E6FF6E
:1005D00000220F212068FFF7BDFF4FF4FA7019F0D9
:1005E000EFFF01220F212068FFF7B4FF00224EF633
:1005F000602106481AF012FC4FF496721146044826
:10060000BDE810401AF00ABC0C4F00202C0000205E
:100610000000002010B50C4679B908481AF036FCE5
:1006200007481AF033FCFFF7B9FF064B22460D21AD
:100630001868BDE81040FFF78DBF10BD2C000020EA
:10064000000000200C4F002070B5BDF81000CC68F1
:100650001D46C318122B164643DC2A463146204459
:1006600003F03FFE2246237812F8011F51EA0321CE
:10067000A5F102001C4B19D11C68661C1E601B4BA7
:1006800003EB041381420CDBFFF788FF184B0022B9
:1006900018680D21FFF75EFF164B01221A702846DD
:1006A00070BD12F8014F5C540131EBE70F4C19603B
:1006B0000139002300FB014183420DDBFFF76EFF90
:1006C0000D4B1A68B2FA82F252091A60084B0F21D8
:1006D0001868FFF73FFFE2E712F8014FCC540133EF
:1006E000EAE76FF00605DAE7E04E00205800002048
:1006F0000C4F0020E44E002058C5002010B51F4CC0
:10070000012203212068FFF73FFF01220321206817
:10071000FFF73AFF01221C212068FFF735FF012275
:100720001E212068FFF730FF01221F212068FFF7FC
:100730002BFF01221D212068FFF726FF0022032145
:100740002068FFF707FF002203212068FFF702FF60
:1007500000221C212068FFF7FDFE00221E212068D8
:10076000FFF7F8FE00221F212068FFF7F3FE206844
:1007700000221D21BDE81040FFF7ECBE0C4F002009
:100780002DE9F04106460C461746002F01DCBDE876
:10079000F08123785DB2002D0ADD61782A4630466B
:1007A00003F0CBFD04F1020844462E447F1BECE726
:1007B00004F10104F9D05D426DB221462A4630466B
:1007C00003F08FFD2C44F0E708B500F025FB02484C
:1007D000BDE8084000F026BAB827002070B50D49E2
:1007E0000D4C0E4E6369226909680D4D304600F0CC
:1007F000BDFB0C49636922690968284600F0B6FB15
:100800003046002100F02BFC28460021BDE8704056
:1008100000F025BC78C50020B8270020EC4E002051
:10082000FC4E00207CC5002010B5032186B01A487C
:1008300000F02BFC0124194B00932822184B16487A
:100840000194172100F0A0FC5022C8238DE80C0071
:100850006421144B14480294002200F09AFB134BBD
:1008600013481A68134B196800F057FA124B059495
:10087000C3F80445D3F80024002AFBD00F4A059999
:1008800011600022C3F804250B4AD2F80034002B73
:10089000FBD006B010BD00BFFC4E002040C60020BB
:1008A00000BD010030B50100EC4E00207CC50020E9
:1008B000B827002078C5002000E00140801000101B
:1008C0002DE9F041002286B06A496B481AF098FA87
:1008D00000226A496A481AF093FA6A4806F03CFB1B
:1008E0000546002840F0C2806748684C06F082FE4A
:1008F000674819F035F901220D212060FFF744FE09
:1009000001220E212068FFF73FFE01220F212068FF
:10091000FFF73AFEFFF742FE01220B212068FFF7A6
:1009200033FE01220B212068FFF714FEFFF7E6FEDD
:10093000C82019F045FE0422564904A803F0D1FC52
:100940004FF4007208212068FFF71EFE20684368FC
:1009500008229E68294605ABB047049B012B02D1B3
:10096000059B012B11D100220B212068FFF7F2FD1E
:10097000FFF72AFFFFF732FFFFF756FF01220B2197
:100980002068FFF7E7FDFFF7B9FEDFF83081424F3F
:100990003B4E4FF47A7019F013FE98F80050EDB208
:1009A000012D12D106F07AFC00285FD130461AF0F2
:1009B0006DFAFFF7F3FD2A460B212068FFF7CAFD09
:1009C000FFF79CFE022388F800303B78002BE0D034
:1009D00042F2107231493248FFF7D2FE01220B2158
:1009E0002068FFF7B7FDFFF789FE4FF4967019F006
:1009F000E7FD00220B212068FFF7ACFDFFF7E4FEC6
:100A0000FFF7ECFE0021274800F029FB00212648D3
:100A100000F025FBC825012600221146204B214865
:100A200002960195009500F0B4FA002211461F4B82
:100A30001D4802960195009500F0ABFA1C4B1D482D
:100A40001A681D4B196800F068F9FFF7A7FD00222E
:100A50000D212068FFF77EFDFFF750FE32460B2187
:100A60002068FFF777FD00233B7091E706B0BDE8F3
:100A7000F08100BFB50400002C00002069050000D3
:100A800000000020F50400005CC500200C4F002091
:100A90000ABD010080100010E44E00205800002024
:100AA000104F0020EC4E0020FC4E002098620020E9
:100AB0007CC50020B827002078C5002080C5002014
:100AC00010B540680C46002100F0D4F92046BDE87E
:100AD000104000F0FDB910B540680C46012100F04F
:100AE000C9F92046BDE8104000F0F2B910B504463F
:100AF000E06800F0D1F900B110BD642000F0E6F923
:100B0000F6E710B500210446006800F0B3F9C820EC
:100B100000F0DCF92068012100F0ACF9C820BDE844
:100B2000104000F0D3B9000070B520210446FFF753
:100B3000C7FF1F4E0025715D20460135FFF7CBFF33
:100B40000F2DF8D121212046FFF7BAFF194E0025BD
:100B5000715D20460135FFF7BEFF0F2DF8D1222130
:100B60002046FFF7ADFF144E0025715D204601358C
:100B7000FFF7B1FF0F2DF8D123212046FFF7A0FF8B
:100B80000E4E0025715D20460135FFF7A4FF0F2DA5
:100B9000F8D124212046FFF793FF094E0025715D0F
:100BA00020460135FFF797FF0F2DF8D170BD00BF2C
:100BB0005CBD01007ABD010011BD010020BD010036
:100BC0002FBD010070B525210446FFF779FF124EB5
:100BD0000025715D20460135FFF77DFF0F2DF8D10F
:100BE00026212046FFF76CFF0C4E0025715D204644
:100BF0000135FFF770FF0F2DF8D127212046FFF7B1
:100C00005FFF074E0025715D20460135FFF763FF4A
:100C10000F2DF8D170BD00BF6BBD01003EBD0100BE
:100C20004DBD0100F8B50223436000238360C82650
:100C3000032301270760C36006614661044600F094
:100C40007BF90546002865D12046FFF75AFF394653
:100C50002046FFF735FF07212046FFF73CFF2946D6
:100C60002046FFF738FF08212046FFF734FF2946CA
:100C70002046FFF730FF06212046FFF721FF07211E
:100C80002046FFF728FF07212046FFF724FF072112
:100C90002046FFF720FF04212046FFF711FF2046E2
:100CA000FFF724FF29462046FFF70AFFCF21204601
:100CB000FFF711FF50212046FFF702FF17212046C2
:100CC000FFF709FF30212046FFF7FAFE39212046C1
:100CD000FFF701FF61212046FFF7F2FE3146204673
:100CE000FFF7F9FE29462046FFF7F5FE314620467C
:100CF000FFF7F1FE82212046FFF7E2FE3021204679
:100D0000FFF7E9FE2046FFF70FFF2046FFF75AFFE7
:100D10002846F8BD4FF0FF35FAE72DE9F0410446CB
:100D200015460E46002941D01021FFF7C9FE0220CA
:100D300000F0CCF8B0460827226963695343A8EB5A
:100D4000060293FBF7F393422DDD18F8013B13F0F5
:100D5000800F0CBF0021C021580648BF41F0300170
:100D60009A0648BF41F00C01DB0601D541F00301B2
:100D70002046FFF7B0FE18F8013C13F0080118BF39
:100D8000C021580748BF41F030019A0744BF41F0E5
:100D90000C01C9B2DB0744BF41F00301C9B22046D0
:100DA000FFF799FEC8E7022000F090F89DB11321EB
:100DB0002046FFF785FE022000F088F82E4608271F
:100DC000226963695343721B93FBF7F393420BDC75
:100DD000022000F07BF820461221FFF771FE20462A
:100DE000BDE8F041FFF782BE16F8011B2046FFF771
:100DF00072FEE5E7436810B45C681346A4460A46F1
:100E000010BC00216047436810B41C681346A44618
:100E10000A4610BC0021604710B51448144C18F065
:100E20009FFE01221C212060FFF7EDFF012203211C
:100E30002068FFF7E8FF01221E212068FFF7E3FF8B
:100E4000002203212068FFF7DEFF00221C2120681A
:100E5000FFF7D0FF002203212068FFF7CBFF2068B7
:100E600000221E21BDE81040FFF7C4BF0ABD0100EB
:100E70004076002010B4064B064C01290A4654F86F
:100E80002010186810BC18BF0022FFF7B3BF00BFC6
:100E900040760020487600200A4B37B51C680A4A85
:100EA000636852F820209D68002101AB2046A847C6
:100EB00028B90198003018BF012003B030BD4FF0B1
:100EC000FF30FAE7407600204876002019F078BB22
:100ED000F0B587B006AB012503F8110D1048029359
:100EE00002AB04930395059518F03AFE0D4C0E4F96
:100EF0000E4E3860316820680022FFF77BFF3868AB
:100F00000B4B22681A6043680A491F6804AA002331
:100F1000B8472A4631682068FFF76CFF07B0F0BD7C
:100F200089BD0100407600204476002048760020EC
:100F300034C6002018C60020074A084B12681A6001
:100F4000074A12685A60074A12689A60064A12688D
:100F5000DA600020704700BF28C6002048760020D5
:100F600030C600202CC6002024C6002030B5002446
:100F7000C46012F00704016008D0514201F007017B
:100F800002F10805224658BF4A42AA1A426083600D
:100F900030BD2DE9F0430029DDF81CC010DB4468AA
:100FA000A1420DDA002A0BDB8468A24208DAC1F103
:100FB000000E16464FF00808089DB41AA54225DC1D
:100FC000BDE8F083099F44689FB105EB0E0999FBCA
:100FD000F8F913F8099004FB065494FBF8F4076839
:100FE00007F8049001356C1AA445EBDC0136E644A1
:100FF000E2E705EB0E0999FBF8F913F8099004FBF9
:1010000006546FEA090994FBF8F4E8E70D46EAE7AD
:10101000002930B51CDB4468A14219DA002A17DB2D
:101020008568AA4214DA62430A44046801F00700A2
:10103000494201F007014FF0080558BF484292FBB2
:10104000F5F233B180230341A05C20EA0300A054F1
:1010500030BD802343FA00F0A35C1843F7E7F8B5EE
:1010600006460F46002573689D420DDA002406E00F
:1010700022463B4629463046FFF7CAFF0134B36893
:101080009C42F5DB0135EEE7F8BDC1607047F0B476
:10109000C7680D46144667B9002937DB4768B9426F
:1010A00034DA002A32DB8568AA422FDAF0BCFFF777
:1010B000AFBF012F0CD1002928DB8268914225DACD
:1010C000002C23DB41688C4220DA2A46091BEDE71D
:1010D000022F0CD1002919DB41688D4216DA002A53
:1010E00014DB8268944211DA121B491BDEE7032FDE
:1010F0000CD100290ADB8268914207DA002C05DB5B
:1011000041688C4202DA521B2146CFE7F0BC70479F
:101110002DE9F74F0C9E9146B28812F0070418BFD4
:10112000012404EBD204A3F12002F3885343326874
:1011300082468B4603FB04240027F3889F4220DA73
:1011400009EB07030025019313E005F00708227857
:10115000802343FA08F31A4206D00D9B019A0BEB49
:1011600005015046FFF793FFB8F1070F08BF0134A0
:101170000135B3889D42E8DB5B0718BF01340137B6
:10118000DBE703B0BDE8F08F2DE9F7430A9F0B9E24
:1011900080460C4691465D1E15F8013F13B903B019
:1011A000BDE8F0832146019600974A464046FFF786
:1011B000AFFFBB881C44EFE708B50446084611465C
:1011C0001A46A04719F062FA02F092FF10B50446E1
:1011D0004FF0FF31204618F081FF03460028F7D07A
:1011E00008334268BFF35B8F53E8001F21F0010E04
:1011F00043E800ECBCF1000FF6D1BFF35B8FCB07E7
:1012000000D5904719F0B2F9E2E710B590F90B401C
:10121000C0688C424FF00C04B6BF614304FB01016F
:101220004158202492FBF4F401EB8401196002F090
:101230001F0010BD07B501ABFFF7E7FF019A0123BF
:1012400003FA00F013680343136003B05DF804FB76
:1012500007B501ABFFF7D9FF019A012303FA00F0AC
:10126000136823EA0003136003B05DF804FB2DE963
:10127000F0474368058904460068A77A5D43FF226A
:101280002844E27200214FF00C0E4FF0200CB942BE
:1012900005DB002523899D4223DBBDE8F087D4F8D8
:1012A0000C90B5FBF3F20EFB01F81F2A09EB0806C0
:1012B0004FEA930306F1040AC8BF1F3203F1030388
:1012C000C6F804A0C6F808A0CABF92FBFCF2E172FF
:1012D00049F8080023F00303C8BF00EB8200013186
:1012E000D5E76268E36820686A431E1D865081184E
:1012F0009A684A609A682046116099602A460021DF
:10130000FFF798FF0135C5E72DE9F04F8BB0867ADE
:1013100000AF0446BB60B3000A3323F00703ADEB14
:10132000030D4368FA6003336A4623F0030342F86F
:101330000439E9464FF0FF3500234FF00C0E581EDC
:10134000B342786209DA2BB110688008033020F0CC
:1013500003005060506888420BD27B6A013314D17D
:101360003A6D002313606FF00B002C37BD46BDE8CB
:10137000F08FE0680EFB030000F1040C40680432BB
:10138000604518BF1D460133D9E76E1CE8D0237CA9
:1013900013F0010305D04FF02002EFF3118382F325
:1013A00011883B620C236B431A1DE36813441E68CB
:1013B000B3427DD096E80A001960316859F82520BB
:1013C0004B6023682946F31A204693FBF2F2FFF79D
:1013D0003FFFA9EB890309EB850A7B617B6A9D428C
:1013E00016DB237CD90702D53B6A83F31188FB689F
:1013F0001A467B6A136023687A6AF31A59F8222026
:1014000093FBF2F3BA6813603B6D00201E60ACE7FB
:1014100023685AF8042BF31A93FBF2F37A699B00C2
:101420003B610AEB4A0313444FF0010BBB6105EB30
:101430000B037B60DAF8008079680BFB08F3FB6133
:10144000F3183B603B6920460BEB0302FFF7F2FE0B
:101450003B682268218908F1FF389844A8EB02080C
:1014600062684A4390450AD2E268B969F8690A4459
:10147000111D31509168596091680B6093600BF1B8
:10148000010BBBF1040FD5D1237CD80705F1010571
:1014900002D53B6A83F31188237C13F0010305D046
:1014A0004FF02002EFF3118382F311883B6295E73E
:1014B000013D6A1CA3F10C037FF479AF002690E78D
:1014C0002DE9F04F87B0837A9B000A3323F007039E
:1014D00000AFADEB030D4368033323F00303044671
:1014E000E84600936D460120814280F08380237C92
:1014F00013F001030E46154605D04FF02002EFF31E
:10150000118382F31188BB600C2303FB01F958F8A7
:101510002630FB6003FB05FB23687B602A463146CF
:10152000204603EB0B0AFFF785FEE2687B684A441E
:10153000111D43F80B109368CAF804309368C3F880
:1015400000A0C2F808A0237CDA0702D5BB6883F3A9
:10155000118894F810A01AF0010A05D04FF020036A
:10156000EFF3118A83F31188C7F808A0002E4AD040
:1015700007F114032A4631462046FFF746FE7A69F2
:10158000042390FBF3F083001068D84000F00F00B4
:101590000F2838D125F003037B60FB684FF0000A69
:1015A000013B7A68F968B4F808E0524401FB02FB99
:1015B000616803EB0B0001FB0EF188420FD231464C
:1015C00020463B60FFF744FE22683B6852F80B0060
:1015D00002EB0B014968086052F80B2051600AF1D8
:1015E000010ABAF1040FDCD195FBFAF5013EA9F12D
:1015F0000C098CE72B689B08033323F0030345F8A1
:10160000043F013070E7237CDB0701D58AF31188A2
:101610001C37BD46BDE8F08F7047000010B54FF095
:101620002003EFF3118483F3118801F0A9FA084A2B
:101630000123C2F840354FF08042C2F87835054B9F
:101640004FF0FF329A62DA6284F31188002010BDF5
:1016500000E0014000ED00E020B1034B800143F0C9
:1016600001031847704700BF50D801008B4238B5BE
:1016700015461C4605D81A46294602F032FE204679
:1016800038BD0024FBE702F058BEC3095A001344DA
:1016900003EBC30383EA4000C0B270472DE9F04179
:1016A0000646A8B00F46144640254FF0200800F02B
:1016B00065F9034618B9002028B0BDE8F081402143
:1016C00008A898470028F6D0B4F9023004F12402A3
:1016D00008A968461F3393FBF8F35BB200F0EBFAFE
:1016E0002246694618A800F008FF00B3B4F902309A
:1016F0006A4607333846082193FBF1F100F025FFD5
:1017000018AA94F90110304600F01FFF94F9011057
:1017100094F9002018AB03EB8202701800F015FF5B
:1017200020220021684602F008FE0120C4E7013DA6
:10173000BDD1C0E72DE9F04F9146A5B0B3F9022025
:1017400093F9017093F900B004AD82464FF0080898
:101750000CAE2846073292FBF8F21C46029503961F
:1017600000F007FF3A46514614A800F002FF14AB00
:101770000AEB070103EB8B003A4600F0FAFE234622
:1017800032462946284600F08CFEB0FA80F00194DB
:1017900024AB400903EB8000638801331BB2009344
:1017A00014A9002350F8882C084600F0A9FD14AABB
:1017B0003946484600F0C9FE214614A800F017FD3E
:1017C0000DEB0804074642460021204602F0B5FD15
:1017D00020220021304602F0B0FD202200212846C0
:1017E00002F0ABFDB7FA87F0400925B0BDE8F08FF5
:1017F000F0B500248646204665B2AB4200DCF0BD61
:1018000051F8245052F824602E440644B5428CBF4F
:101810000125002514BF0127002707FB05F70CBF92
:10182000054600254EF8246047EA05000134E3E749
:1018300000EB81010023884200D3704751F8042C4B
:1018400043EA520341F8043DD307F4E7036870B557
:1018500013F001050646144605D013460A46014614
:10186000FFF7C6FF054621463046FFF7E1FF45B1C9
:1018700004F18042013A56F8223043F0004346F822
:10188000223070BD2DE9F04F87B003920022029103
:10189000154614464FFA82F8984514DB4FF0FF3C8A
:1018A00000220CEB430C00929DF8002002EB030E8B
:1018B0004FFA8EFEE64533DB00EBC30040F8044CE4
:1018C00007B0BDE8F08F039E4FF0000E06EB8209D3
:1018D000F446029959F8047951F82E6001950025D3
:1018E0000095A7FB06ABDDE9006746EA040616EBA8
:1018F0000A0447EB0B055D450EF1010E08BF544588
:101900004FFA8EFA264634BF01240024D045A44461
:101910003446DEDA40F822602C4601326546B9E7EB
:1019200001322F4652B200259A4206DB009A40F857
:101930002E40013200923C46B6E7AEEB0206039918
:10194000059751F82660029951F82210A6FB01ABC9
:1019500000210491DDE9046746EA040616EB0A0853
:1019600047EB0B09D94508BFD04534BF01240C46CD
:10197000013225444F4652B24446D5E7014B186820
:10198000704700BF48C60020002310B51C465AB25D
:10199000914200DC10BD40F823400133F7E710B559
:1019A00000231A465CB2A14203DCB2FA82F040097D
:1019B00010BD50F8234001332243F3E74A110123BD
:1019C00050F8220001F01F0103FA01F108407047AE
:1019D000013949B2002904DA013149B231B9084666
:1019E000704750F82130002BF2D0F5E701F1804329
:1019F000013B50F82330002023B9013900EB41119D
:101A000008B270475B080130F6E710B500235CB2FE
:101A1000A24200DC10BD51F8234040F823400133BE
:101A2000F5E710B5013A52B2002A01DA002010BDE4
:101A300013B250F8234051F823309C4203D8F1D21E
:101A40004FF0FF3010BD012010BD30B5013A52B249
:101A50000023002A03DA181C18BF012030BD15B27C
:101A6000013A50F8254051F825506C40234352B2BA
:101A7000EFE7F0B500248646204665B2AB4200DCB5
:101A8000F0BD51F8245052F82460AE1B361AB5420E
:101A900034BF0125002514BF0127002707FB05F7E8
:101AA0000CBF054600254EF8246047EA05000134C6
:101AB000E3E70000F0B5082289B00C460646FFF7C0
:101AC000A4FFCB6A03930B6B04934B6B05938B6B57
:101AD0000693CB6B0793002708236A46694668463E
:101AE000029701970097FFF783FE082305466A4691
:101AF00031463046FFF77CFE236B0393636B049300
:101B0000A36B0593E36B0693054408236A46694675
:101B100068460797FFF76CFE082305446A4631467E
:101B20003046FFF765FE236A0093636A0193A36A58
:101B30000293A36B0693E36B0793054408236A465D
:101B400031463046059704970397FFF751FE636AC5
:101B50000093A36A0193E36AA26B0293636B0393FE
:101B600004920693E26B236A0592054407936A4642
:101B7000082331463046FFF73BFEE36A0093236BB0
:101B80000193636B0293236A0693A36A0793054448
:101B900008236A4631463046059704970397FFF7B6
:101BA00068FF236B0093636B0193A36B0293E36B5A
:101BB0000393636A0693E36A07932D1A08236A4620
:101BC0003146304605970497FFF753FF636B009348
:101BD000A36B0193E36B0293236A0393636A0493F9
:101BE000A36A0593236B07932D1A08236A4631468F
:101BF00030460697FFF73DFFA36B0093E36B01931D
:101C0000636A0393A36A0493E36A0593636B079380
:101C10002D1A08236A463146304602970697FFF789
:101C200028FF2D1A0D4C0FD435B908223146204615
:101C3000FFF7F7FE01280FD0082322463146304631
:101C4000FFF717FF2D1AEFE70823224631463046EB
:101C5000FFF7CEFD2D18F7D409B0F0BD90D80100E4
:101C600070B59DF910401E4623460546FFF7C0FD9E
:101C700030B9224629463046FFF7D3FE012807D067
:101C80002346324629462846BDE87040FFF7F1BE9C
:101C900070BD70B59DF910401E4623460546FFF7FE
:101CA000E8FE38B12346324629462846BDE8704052
:101CB000FFF79EBD70BD2DE9F04FA5B01D46039105
:101CC00014AB29468046104617460293FFF780FE64
:101CD000C0EB851004B2634203F01F034FF02006EF
:101CE00094FBF6F676B204F01F0904A858BFC3F1BE
:101CF00000093146FFF748FEB9F1000F30B22BDD85
:101D000004AB002203EB8000C9F1200E1346AB4266
:101D100017D32FB27B00019304AB03EB870705F1C8
:101D2000FF3924AB012603EB8909002C55DB24ABDA
:101D30000022C6F10100964603EB860A03EB800001
:101D40002DE057F8236006FA09F10A4340F82320F2
:101D500026FA0EF20133DAE704AB2A46394603EBE2
:101D60008000FFF752FED4E70FFA81FC5AF8883C56
:101D700053F82CB024AB03EB810151F8803CABEB62
:101D80000303A3EB0E039B4504D034BF4FF0010EB9
:101D90004FF0000E50F8881C41F82C300132019BA6
:101DA00051B29942E0DBA6EB0E035E42294604A83D
:101DB0005E41FFF73DFD24AB03EB8503294653F855
:101DC000802C59F8803C384643EAC273013C49F8FC
:101DD000803C24B2FFF72CFDA7E724AB03EB86067B
:101DE0002A4656F8881C4046FFF70FFE25B0BDE88E
:101DF000F08F30B51C4691B0054693F90030684627
:101E0000FFF740FDD4F8AC3069462846984711B03A
:101E100030BD13460A46FFF7ECBF2DE9F04793F9B2
:101E2000006092B0044689461046314615469846F1
:101E3000FFF7B5FD002840F093804246494602A8CE
:101E4000FFF7E7FF434602AA21460AA8FFF7D1FFA2
:101E500002A908464246FFF7DCFF43462A464946A8
:101E60004846FFF7C6FF08F10407424629462846C0
:101E7000FFF7CFFF3B462A46214620460096FFF754
:101E8000EFFE3B462A46294628460096FFF7E8FE25
:101E90003B462A46214628460096FFF7FAFE43466F
:101EA0002A4621462046FFF7A4FF3B46224621460C
:101EB00028460096FFF7D4FE3B4600962A46214668
:101EC0002046FFF7CDFE2368DB074CD533463A4664
:101ED00021462046FFF78CFC314682462046FFF71C
:101EE000A7FC06F18043013B54F8230040EACA7086
:101EF00044F82300424621462846FFF78AFF3B4626
:101F00000AAA294628460096FFF7C3FE3B460AAABE
:101F1000294628460096FFF7BCFE0AA908463B461C
:101F20002A460096FFF7B5FE43460AAA21462046F8
:101F3000FFF75FFF02AA3B46104621460096FFF7D7
:101F4000A8FE324629462046FFF75FFD3246494645
:101F50002846FFF75AFD324602A94846FFF755FDCD
:101F600012B0BDE8F08731462046FFF761FCC1E7BB
:101F70002DE9F04115468AB004468846202200210A
:101F800002A802F0DAF92E1D95F9007003232A4603
:101F9000414620460293FFF73CFF334602AA214602
:101FA00020460097FFF775FE2B4642462146204605
:101FB000FFF71FFF0097334605F1840221462046B4
:101FC000FFF74EFE0AB0BDE8F0812DE9F0439BB06B
:101FD0001646229C14F9045B0095984607468946EC
:101FE00023460246314602A8FFF753FE02A9229A71
:101FF0000846FFF70EFF229B02AA39463846FFF734
:10200000F8FE229B02AA31463046FFF7F2FE234635
:102010004A46414602A80095FFF722FE23464A465B
:10202000414640460095FFF734FE23463A46314686
:102030000AA80095FFF72DFE229B0AAA49464846AA
:10204000FFF7D7FE2346324639460AA80095FFF728
:1020500007FE229A41463046FFF7DBFE23460AAAD6
:10206000314630460095FFF714FE23463246394686
:1020700012A80095FFF70DFE229B12AA414640468A
:10208000FFF7B7FE23464A46414640460095FFF714
:1020900000FE229A02A912A8FFF7BBFE12A923464E
:1020A0000AAA08460095FFF7F4FD23463A4612A90E
:1020B0000AA80095FFF7EDFD0AA9229B02AA08468F
:1020C000FFF797FE23464A460AA948460095FFF7C0
:1020D000E0FD2A4612A93846FFF797FC1BB0BDE881
:1020E000F083F0B50F46A1B00646194638461546AE
:1020F0001C46FFF754FC28B121463046FFF744FC4C
:1021000021B0F0BD224639466846FFF77EFC2246E4
:10211000294608A8FFF779FC214610A8FFF734FCF0
:102120000123214618A81093FFF72EFC224608A988
:102130006846FFF776FC28B9224610A93046FFF71B
:1021400064FCDDE7009BDA0709D421466846FFF707
:102150006FFB2246294610A8FFF778FBE6E7089BAD
:10216000DB0707D4214608A8FFF762FB2246294671
:1021700018A8F1E7002823461CDD08AA694668462E
:10218000FFF777FC21466846FFF752FB224618A965
:1021900010A8FFF746FC002805DA10A923462A46B6
:1021A0000846FFF725FB10A9234618AA0846FFF7A3
:1021B00060FCCEE708A96A460846FFF75AFC2146AC
:1021C00008A8FFF735FB224610A918A8FFF729FC3D
:1021D000002805DA18A923462A460846FFF708FB17
:1021E00018A9234610AA0846FFF743FCBEE7097862
:1021F000490049B2FFF7D3BBF0B5154689B01C467C
:1022000007460E461A4629466846FFF702FE234651
:102210006A4639463846FFF7ECFD23462A466946AA
:102220006846FFF7E6FD23466A4631463046FFF72B
:10223000E0FD09B0F0BD2DE9F0438BB01446129DCE
:1022400015F9046B00961F46804689462B460246C8
:10225000214602A8FFF71DFD02A9129A0846FFF7C2
:10226000D8FD129B02AA41464046FFF7C2FD129BD1
:1022700002AA21462046FFF7BCFD2B464A463946B6
:1022800038460096FFF705FD129A394602A8FFF777
:10229000C0FD02A92B46424608460096FFF7F9FC0E
:1022A00002A92B46224608460096FFF7F2FC2B4671
:1022B0004246214620460096FFF7EBFC129B224641
:1022C00049464846FFF795FD2B4602AA414620465F
:1022D0000096FFF7DEFC129B224639463846FFF790
:1022E00088FD2B464A46394638460096FFF7D1FC12
:1022F000324602A92046FFF788FB0BB0BDE8F08309
:102300002DE9F04FB1B01E463B9C049094F900704B
:10231000069218A83A460591FFF777FBBB00079392
:10232000059BBA00134419463A4628A80293FFF7C2
:102330006CFB94F90050002E00F089802A4631464B
:1023400008A8FFF762FB10AE2A4618A930460DF127
:102350008009FFF75AFB2A4628A94846FFF755FB94
:10236000234608AA28A918A8FFF746FFD4F8A450C6
:10237000234608AA28A918A8A847234608AA494618
:102380003046FFF739FFBDF9E850023D2DB2002D70
:1023900064DC069B1D68009405F0010610AB760115
:1023A000ED4303EB060805F0010520AB1E446D016B
:1023B00010AB03EB050920AB1D4404F1040A2B46C6
:1023C0004A4631464046FFF700FE534610AA18A978
:1023D00008A80097FFF75DFC08A923463246084687
:1023E000FFF707FD08A92346059A0846FFF701FDF8
:1023F00008A93B4652460846FFF773FE08A9234644
:10240000029A0846FFF7F5FC08A92346424608460B
:10241000FFF7EFFC00943346424629464846FFF753
:102420000AFF234608AA20A910A8FFF7E5FE3A46AE
:1024300010A90498FFF7E9FA049B079C23443A4645
:1024400020A91846FFF7E1FA31B0BDE8F08F294620
:1024500008A8FFF799FA0123089374E7294606981C
:10246000FFF7ACFAB0FA80F04009C0F101084FEA7A
:102470004818400106EB080B06EB000AC84409EBBC
:10248000000352464146584600940393FFF79DFDD2
:10249000009443465A4603995046FFF7CCFE013D4F
:1024A00074E72DE9F041B3F902500F4603F1240619
:1024B000904605F11F04202294FBF2F464B2014619
:1024C000234632463846FFF793F990B9B5EB441FDF
:1024D00011DA29463846FFF771FA051C18BF0125A5
:1024E0002346324639464046FFF782F92846BDE882
:1024F000F0810125F4E70546F2E730B5144695B0C2
:1025000005460CAA2346084604A902910392FFF748
:10251000C8FFB0FA80F014AB400903EB8000638879
:10252000019401331BB2009350F8482C002304F1AE
:1025300044012846FFF7E4FE21462846FFF757FEF0
:10254000B0FA80F0400915B030BDF0B500254F1E3F
:102550006CB28C4205F1010500DBF0BD3B1B23F0A2
:10256000030603F003039659DB0026FA03F3035531
:10257000EEE7F8B5144604230E46D11C91FBF3F1A7
:1025800049B20546671EFFF7FFF9002251B28C429F
:1025900002F1010200DCF8BD7B1A23F00300715C3C
:1025A00003F00303DB0001FA03F329581943295010
:1025B000ECE72DE9F04190B006460C4691F9005049
:1025C000FFF715FE48BB04F104082A463146404691
:1025D000FFF727FA012823D106EB85072A4639465B
:1025E0004046FFF71EFA01281AD1224639466846AE
:1025F000FFF70FFCD4F8A8302246314608A89847C8
:102600002A4608A96846FFF720FA002814BF6FF091
:102610000200002010B0BDE8F0814FF0FF30F9E774
:102620006FF00100F6E770B50C4690B0254691F9C1
:102630000120064601466846FFF79BFF94F90120FA
:1026400015F9440BB1180DEB8000FFF792FF102233
:1026500029466846FFF7E5F928B121466846FFF7A5
:10266000A8FF10B070BD6FF00300FAE7CB780278D6
:10267000534003704B884278534043700A68837814
:1026800083EA122383700A68C3785340C370CB79FE
:10269000027953400371CB884279534043714A68B1
:1026A000837983EA122383714A68C3795340C371E3
:1026B000CB7A027A53400372427A4B895340437279
:1026C0008A68837A83EA122383728A68C37A5340C2
:1026D000C372CB7B027B53400373CB89427B534055
:1026E0004373CA68837B83EA12238373CA68C37BFC
:1026F0005340C37370471FB502788DF800204279AC
:102700008DF80120827A8DF80220C27B8DF803209B
:1027100002798DF80420427A8DF80520827B8DF8AD
:102720000620C2788DF80720027A8DF80820427BB7
:102730008DF8092082788DF80A20C2798DF80B2057
:10274000027B8DF80C2042788DF80D20C37A8279B7
:102750008DF80E208DF80F3010236A461946FEF7CB
:1027600085FF05B05DF804FBF8B5064608780C4611
:10277000FEF78BFF05466078FEF787FFA278637847
:102780005340E27853405D4045403570607827788B
:10279000FEF77BFF0546A078FEF777FFA3785F4042
:1027A000E3785F407D4045407570A0786578277874
:1027B000FEF76BFF6F400546E078FEF766FFE378B3
:1027C0005F407D404540B5702078FEF75EFF63783E
:1027D00025785D40A3785D404540E078FEF755FFE1
:1027E000EDB26840F070F8BDF0B5284E07460C46D3
:1027F0000FCE8DB001AD0FC50FCE0FC596E8070007
:1028000085E80700002F3CD0002C3CD0381F214623
:10281000024610344B780D781B0443EA0563CD78EB
:102820002B438D78043143EA05238C4242F8043F60
:10283000F0D1174C04218A07036918D14FEA33639A
:102840001A0EA55CDAB2A25C42EA0562C3F3074540
:10285000C3F30723655DE35C42EA054242EA0322D3
:102860000CAD21F003032B4453F82C3C534050F89B
:10287000042F013153402C290361DCD101200DB01C
:10288000F0BD3846FBE72046F9E700BFB0B40100D1
:102890003CD901002DE9F043154689B08046002857
:1028A0005BD000295AD0002A5AD010230A46684625
:1028B0001946FEF7DBFE294668462A4CFFF7D6FE8E
:1028C00005F11007A146A03500261DF80630E35C8F
:1028D0000DF806300136102EF7D16846FFF70BFFD2
:1028E000694604A8FFF740FF01A905A8FFF73CFFD0
:1028F00002A906A8FFF738FF03A907A8FFF734FFCE
:10290000334604AA31466846FEF7B0FE39466846AB
:102910001037FFF7ABFEBD42D6D100261DF80630BA
:1029200019F803300DF806300136102EF6D168463E
:10293000FFF7E1FE29466846FFF798FE33466A46F0
:1029400031464046FEF792FE684632460021FEF7C9
:102950009AFE012009B0BDE8F083FBE70846F9E7DD
:102960001046F7E73CD9010010B591F90030002B73
:1029700001F10F02B4BF872300230F3014788A427D
:1029800083EA440300F8013903D012F80139DB0966
:10299000F4E710BD08B528B158220021FEF773FEF8
:1029A000012008BD08BD10B5044690B110220021D9
:1029B000FEF769FE04F1300010220021FEF763FEED
:1029C0000023636400224FF48033C4E91423012000
:1029D00010BD10BD70B50D461646044618B319B3A8
:1029E00058220021FEF74FFE2946A6643046FFF725
:1029F000FBFE204610220021FEF745FE04F11005E3
:102A0000A26C21462046FFF745FF21462846FFF7E6
:102A1000ABFF294604F12000FFF7A6FF2046FFF791
:102A2000C2FF012070BD70BD084670BDF8B50D46EF
:102A30001646044600285BD00AB90120F8BD0029DB
:102A400056D0D0E9142352EA030151D012F1FF32DB
:102A500043F1FF33C0E91423406C48B3C0F11007C1
:102A6000BE4200F1300009D2334631462A462044A6
:102A7000FEF7FCFD636C1E446664DEE73B462A46B7
:102A800039462044FEF7F2FD00236364F61B3D4403
:102A9000631E04F10F005A7893F831104A4003F88E
:102AA000012F8342F7D1A26C21462046FFF7F2FEA8
:102AB00004F10F07102E11D9631E691E5A7811F800
:102AC000010F424003F8012FBB42F7D1A26C21460F
:102AD0002046FFF7DFFE1035103EEBE7002EACD0AE
:102AE00033462A46314604F13000FEF7BFFDC3E706
:102AF0000020F8BD70B50C46054670B371B34A6C42
:102B0000102A1AD101F11002611E013A04F10F06D8
:102B100091F831004B78434012F8010F434001F81F
:102B2000013F8E42F4D1A26C21462846FFF7B2FE47
:102B30002046FFF72FFF012070BD02F13000002179
:102B4000C2F110022044FEF79EFD636C23448022F4
:102B500083F8302004F12002D6E770BD084670BD2E
:102B6000054B1B68082B01BF044B1868B0FA80F0B6
:102B7000400918BF002070473001001034010010D8
:102B800008B54FF080430022C3F80C21C3F8102190
:102B9000C3F838254FF0805203F54043D2F80414AF
:102BA000C3F82015D2F80814C3F82415D2F80C1471
:102BB000C3F82815D2F81014C3F82C15D2F8141441
:102BC000C3F83015D2F81814C3F83415D2F81C1411
:102BD000C3F84015D2F82014C3F84415D2F82414D1
:102BE000C3F84815D2F82814C3F84C15D2F82C14A1
:102BF000C3F85015D2F83014C3F85415D2F8341471
:102C0000C3F86015D2F83814C3F86415D2F83C1430
:102C1000C3F86815D2F84014C3F86C15D2F84424F0
:102C2000C3F87025FFF79CFF10B1334B334A1A608D
:102C3000FFF796FF18B1324BFB22C3F81825FFF7B8
:102C40008FFF48B12F49304B0A681B6822F00F02F2
:102C500003F00F0313430B60FFF782FF18B12B4BF8
:102C60004FF400721A604FF08043D3F80024D2076B
:102C700044BF6FF00102C3F800244FF01023D3F8D3
:102C80000022002A03DBD3F80432002B2FDA204B7A
:102C90000122C3F80425D3F80024002AFBD04FF00A
:102CA00010221221C2F80012D3F80024002AFBD00F
:102CB0004FF010231222C3F80422154B1A46D3F802
:102CC00000140029FBD00021C3F80415D2F8003409
:102CD000002BFBD0BFF34F8F0E490F4BCA6802F495
:102CE000E0621343CB60BFF34F8F00BFFDE70B4B98
:102CF0000B4A1A6008BD00BF8C5600404881030093
:102D000000F00040E40E00405802001040960240DF
:102D100000E0014000ED00E00400FA054CC6002090
:102D20000090D003004700001F2886BF00F01F005E
:102D3000044A4FF0A042012303FA00F0C2F808054C
:102D4000704700BF000300501F2886BF00F01F001F
:102D5000044A4FF0A042012303FA00F0C2F80C0528
:102D6000704700BF000300502DE9F8430579594E24
:102D70008046242068433418277F002F40F0A68027
:102D8000D8F8007063600B7B3250012B087800F29A
:102D90008B80FFF7D9FF0B781F2B86BF03F01F0333
:102DA0004D4A4FF0A04203F5E073012042F82300A2
:102DB0004C78FF2C7BD02046FFF7C6FF1F2C8BBF23
:102DC00004F01F032346444A4FF0A04203F5E0738A
:102DD000032042F823008B78FF2B6BD01F2B8BBF77
:102DE00003F01F021A463C484FF0A04002F5E07283
:102DF0004FF0040E40F822E09946242202FB0562BF
:102E000082F82030C878D077FF2816D00B79002BB5
:102E100053D0FFF799FFCB781F2B86BF03F01F031A
:102E20002D4A4FF0A04203F5E073032042F823003F
:102E3000242303FB05630A799A770B78C7F80835D2
:102E40008B68C7F80C45C7F81095C7F824354B7B3D
:102E50000A7B003318BF0123022A31D0032A32D063
:102E6000012A01D143F00203C7F854358B79C7F822
:102E7000C03524236B43F35813B14022C7F8042311
:102E80000722C7F800252BB1D8F8000040F307301F
:102E900001F060F8242303FB056500236B77012311
:102EA0002B770E48BDE8F883FFF73EFF73E74FF03E
:102EB000FF3490E74FF0FF399FE7FFF735FFAAE7B0
:102EC00043F00403D0E743F00603CDE70448BDE830
:102ED000F88300BF58760020000300500000AD0BBF
:102EE0000500AD0B2DE9F3410479424D24236343E2
:102EF0001746EA180E46517F8046002977D1EB58D5
:102F000023B117F0140F04BF0123537796E80F0085
:102F10004FF0240E0EFB045E0EF10C0C8CE80F003B
:102F20009EF81F00FF2804D09EF81E30C3B1FFF7A3
:102F3000FBFE316821B101F06043B3F1005F06D1BF
:102F4000B26882B102F06043B3F1005F0BD024237A
:102F500003FB045428480023637702B0BDE8F081E6
:102F6000FFF7F2FEE5E7D8F800307068C3F84415C3
:102F7000C3F84805F168C3F834250022C3F83815B2
:102F8000C3F81821D3F818210192019A17F0010211
:102F900018BF0122C3F8502517F0020218BF012202
:102FA000C3F840253A075CBF01221A61242262431C
:102FB000AA5892B9D3F81821002AFBD0242303FB86
:102FC0000454E07FFF2803D0A37F1BB1FFF7BCFEB2
:102FD0000A48C2E7FFF7A8FEFAE717F0040F4FF020
:102FE000400214BFC3F80823C3F80423F0E70448E1
:102FF000B3E700BF587600200A00AD0B0000AD0B10
:103000000B00AD0B0F4BD3F8183107B5A3B10E4B26
:103010000E4900221A60C87F1B680193FF28019B9C
:1030200003D08B7F5BB1FFF78FFE00234B770B72D2
:1030300007480B684968984703B05DF804FBFFF741
:1030400073FEF2E70030004018310040587600204F
:10305000607600200023436003607047036823B953
:103060000160002341600B60704743681960F8E716
:103070000068704703680BB11A6802601846704711
:103080000020704707B502A9002241F8042D0A4824
:1030900016F084FE10B100F04FFA0190019840B193
:1030A0000123002243604FF0000362F3000302811A
:1030B000037203B05DF804FB2477002000F03EBEED
:1030C00030B50C4D0C4987B000240E2303934FF408
:1030D00040720A4B0594049402940194009428468B
:1030E00017F0B6FB2846064917F080FB204607B0CC
:1030F00030BD00BFB0760020389300204934000076
:103100003CDA010008B500F00DFA0948FFF7A2FF0C
:10311000042328220748084916F02EFE074B084AC8
:103120001A604FF40040BDE8084000F0F3BA00BF59
:103130008C760020947600209892002050C60020C3
:10314000BD300000F8B50F4BBFF35B8F002553E88F
:10315000007F43E80052002AF9D1BFF35B8F0A4C8D
:103160000A4E361B3609B54200DBF8BD63685B7951
:103170002BB123685B6813B1394620469847013567
:103180001034F0E784760020A8B40100A8B4010050
:103190002DE9F8432D4B0746187888B34FF02003EC
:1031A000EFF3118483F311882948FFF763FF054685
:1031B00084F31188C0B1BFF35B8F264B53E8002F17
:1031C000013A43E800210029F8D1BFF35B8F87BBA8
:1031D000214C224EDFF88C90361B3609B846B0459C
:1031E00010DB284600F022FA27B91D4B1B680BB1F3
:1031F000FFF7A8FF1648FFF73BFF003018BF01207C
:10320000BDE8F88363685B797BB16B89AA7AC3F305
:10321000891309EBC303197902F00703994204D318
:10322000236829461B682046984708F10108103496
:10323000D5E70B4BBFF35B8F53E8002F013243E818
:1032400000210029F8D1BFF35B8FCAE77C7600200C
:103250008C76002080760020A8B40100A8B401007C
:1032600084760020E0B30100184B70B51B684181E3
:1032700005469847164CE860BFF35B8F54E8003F63
:10328000013344E80032002AF8D1BFF35B8F4FF0DE
:103290002003EFF3118683F311880E482946FFF7C8
:1032A000DDFE86F311880C4B1B7823B10020BDE8AE
:1032B0007040FFF76DBF23680A2B06D1074B1868D3
:1032C00018B1BDE8704017F0BBB970BD50C6002002
:1032D000807600208C7600201C770020207700204C
:1032E00070B504460E461546FFF7CCFE58B1046192
:1032F000447A4661012262F3071444722946BDE80C
:103300007040FFF7B1BF70BD2DE9F041054688461A
:1033100017461E46FFF7B6FE68B10561457AC0F84C
:103320001480022363F30715457287613146BDE8B7
:10333000F041FFF799BFBDE8F0812DE9F84305465C
:10334000894690461F46BDF82060FFF79BFE78B186
:103350000561457AC0F81490032363F3071545729D
:10336000C0F81880C7613146BDE8F843FFF77CBF5D
:10337000BDE8F88310B51C4600F06FF920B1214676
:10338000BDE81040FFF770BF10BD0000F8B50D4F4D
:103390003D7865B90C4C0D4E361B3609B54207DB3E
:1033A00001233B700020FFF7F3FE0028FAD1F8BD9F
:1033B00063685B791BB1236820469B689847013599
:1033C0001034EBE71C770020A8B40100A8B401007A
:1033D000064B4268C31A1B11013313714268012363
:1033E00011605371024A1370704700BFA8B4010006
:1033F0007C76002070B5114BBFF35B8F53E8005F04
:103400006A1C43E800210029F8D1BFF35B8F2DB976
:103410000B4C0C4E361B3609B54200DB70BD237BCE
:1034200043B12368DB6803B198470422002120469A
:10343000FFF7CEFF01351034EEE700BF887600209D
:10344000A8B40100A8B4010008B5FFF7D3FF17F036
:103450001DF9094A106028B1084B1B68092B01DDD2
:1034600017F0EEF80020FFF793FE0028FAD14FF492
:103470007A7017F0A5F8F5E7207700208076002015
:1034800037B50546002201A9104816F087FC04460E
:10349000D0B90122019BBFF35B8F53E8001F43E8C3
:1034A00000200028F9D1BFF35B8F01981F22294625
:1034B000043000F0DBFE01987E2380F8233080F892
:1034C0002440043003B030BD0148FBE7947600206F
:1034D00044DA0100054B984205D3783398428CBFFB
:1034E0000020012070470020704700BF9C92002000
:1034F00007B504380190BFF35B8F50E8003F5A1EB8
:1035000040E800210029F8D1BFF35B8F012B03D1E4
:1035100001A9034816F06AFC03B05DF804FB00BF84
:103520009476002020231A460149024816F024BC54
:10353000389600202477002073B502AC002344F8AD
:10354000043D084E0120FFF723FE002205462146D8
:10355000304616F023FC08B1002DF3D1019802B0DB
:1035600070BD00BF2477002007B502A9002241F8F2
:10357000042D054816F012FC10B1FFF7DDFF019095
:10358000019803B05DF804FB24770020437A1B09FF
:103590008B4216D9032B03DC00EB8101486970478D
:1035A000012903D800EB810188697047436902391A
:1035B000062903D803EB81014868704707391B6867
:1035C000F6E70020704700007FB5047A019014F000
:1035D000010410D0019B1A7A920706D504AC5B69EE
:1035E00044F8043D104D039BBBB901A90E4816F0E9
:1035F000FDFB04B070BD437A1D09EBD0A542E9D9AB
:1036000021460198FFF7C2FF0646FFF763FF10B19E
:103610003046FFF76DFF0134F0E71E68214628466B
:1036200016F0E4FB0396DEE72477002000B503469E
:10363000021DBFF35B8F52E8001F013942E8001EF4
:10364000BEF1000FF7D1BFF35B8F5B681BB95DF86C
:1036500004EBFFF7B9BF5DF804FB2DE9F74F0D460A
:1036600000909046FFF780FF044668B300264FF0B5
:10367000000266F3071201234272A8F1020A022235
:1036800000F1140B4360027246615946D146BAF10B
:10369000000F0FDC009B2361637AB8F1030F68F31E
:1036A000071363721AD84FEA88022946584600F079
:1036B00018FE09E00191FFF757FF0199074638B955
:1036C0002046FFF781FF3C46204603B0BDE8F08F5F
:1036D0000860AAF1070A06600146D8E729460822D1
:1036E00004F11800D4F8148000F0FBFD4E460835B4
:1036F000072E374628BF07274FEA8709294608F1D2
:1037000004004A4600F0EDFDF61B4D44D8F8008059
:10371000EED1D9E7084A10B50123084C1360002107
:10372000A04204D801B11360054B186010BD4008D9
:103730005B000121F4E700BF4477002040420F0006
:1037400040770020014806F087BD00BF2CC700204D
:103750001FB507240294044C0194BDF8184000944E
:1037600006F0ADFD04B010BD24C700202DE9FF41D7
:10377000CD680646284698460C46174600F087FD59
:10378000BDF82830009380B20290019543463A4636
:103790002146304606F093FD04B0BDE8F0810000FC
:1037A00013B5114CBFF35B8F2068BFF35B8F60B91B
:1037B0000E4816F0D5F9BFF35B8F54E8003F44E89C
:1037C0000002002AF9D1BFF35B8F436804221B6813
:1037D0000DEB02019847002802DA00F0AFFA0190E1
:1037E000019802B010BD00BF4877002079DA0100CF
:1037F00008B5034816F0B4F9024B1860002008BD64
:1038000083DA01004C77002000F047B838B5084B48
:10381000084D1C6824B92046BDE8384000F050B877
:10382000636820461B680022294698472468F1E710
:10383000507700200938000038B5074B1C68054652
:1038400014B90024204638BD6168284600F027FDE1
:103850000028F7D02468F3E758770020002370B5DC
:103860001D4608B90B6070BD42F823000446264689
:1038700014F8010B20B12F28F9D1304600F8015B74
:103880000133EEE710B5FFF7E9FF20B91068BDE896
:103890001040FFF7D1BF002010BD10B58AB00C4614
:1038A00002AA01A9FFF7EEFF38B1C36801982246CA
:1038B00003A9013898470AB010BD6FF01500FAE768
:1038C00030B504468BB068B102AA01A9FFF7DAFF50
:1038D000B0B103691BB9002420460BB030BD984736
:1038E0000446F9E7084B1D68002DF4D02B691BB185
:1038F0009847002C08BF04462D68002DF6D1EBE751
:103900006FF01504E8E700BF5877002010B54FF0BE
:103910002003EFF3118283F31188114C237823B92C
:1039200082F311886FF0440010BD013BDBB22370BD
:1039300023B182F311886FF00F0010BD094B187886
:10394000012128B1217082F311886FF00A0010BDA7
:10395000197082F31188044A1160187010BD00BFFD
:1039600062770020617700200400004008B5002243
:103970001046012100F020FB002000F0EBFA0020AF
:1039800008BD0000F8B54FF02002EFF3118382F379
:103990001188264A1078441C147070B183F3118882
:1039A0004FF08043D3F80C3403F00113B3F1011F3F
:1039B0000CBF00206FF04300F8BD1D4D2F782FB1D4
:1039C000107083F311886FF00A00F8BD01262E7085
:1039D00083F311884FF0804419B3384600F0CAFAD7
:1039E000C4F80071D4F80433C4F804632660D4F832
:1039F000002192B10022C4F800210E4A13F0010FF9
:103A00004FF0010308BFC4F808330020C2F880312A
:103A100000F0A0FA00232B70C2E720BF40BF20BFF8
:103A2000E5E7C4F800112660F4E700BF62770020E4
:103A30006177002000E100E0F8B54FF080430546D3
:103A4000D3F808E1D3F80423D3F80071D3F80403C2
:103A5000D3F80461D3F80C11D3F81041003402F00C
:103A6000010218BF0124BEF1000F03D04FF0000E79
:103A7000C3F808E1002F41D04FF080430027C3F87E
:103A8000007152B14FF08043234F01224FF0020EDC
:103A9000C3F80823C7F800E01A61EEB959B11E4B0C
:103AA0004FF08046002119602846C6F80C11FFF738
:103AB0002DFF012373616CB34FF08043002101247B
:103AC000C3F810112846C3F80443FFF75BFF08BB97
:103AD000124BC3F80041F8BD4FF080430022C3F8F9
:103AE00004218207DAD50222C3F80823D3F81C3454
:103AF0009B07D3D10029DFD00124D0E7002ACCD006
:103B00004FF08043D3F80C3403F00113B3F1011FDD
:103B1000C3D1B7E7F8BD00BF340C004000E100E0BE
:103B200070B54FF02002EFF3118382F31188224D1C
:103B30002A788AB183F311884FF08042D2F81C347E
:103B4000D2F8182403F0030343F48033934314BFE3
:103B50006FF04300002070BD01242C7083F31188A6
:103B60004FF08043154EC3F804210225C3F8181501
:103B7000C3F8045311F0030134604FF01806C3F882
:103B80000863C3F80C21C3F81021D5D11022C3F863
:103B90003825C3F80463D3F81824D20302D4C3F839
:103BA0000453C9E7C3F80443FFF7ECFE0028C3D170
:103BB000034BC3F80041BFE76077002008000040D6
:103BC00000E100E070474FF02003EFF3118083F332
:103BD000118870470D4A002310B5C2F84031FFF735
:103BE000F2FF0B49D2F804350C6840F247121B1B58
:103BF00023F07F43B3FBF2F302FB03420A6080F33E
:103C000011881846BDE8104017F02AB8001001408E
:103C10006477002037B51F4815F0A2FF002835D083
:103C200043681D4D1B6801219847002440F247134B
:103C3000C5F80845C5F840354FF48033C5F844331E
:103C4000C5F8043303F1804303F58A534FF400327F
:103C50001C601B680193019B104B0121C3F880215C
:103C60001120224600F0A8F9112000F073F90C4A47
:103C7000012313602B60D5F8043503F2471323F0BA
:103C80007F43C5F84035204603B030BD4FF0FF30CC
:103C9000FAE700BFB0DA01000010014000E100E0E7
:103CA0000810014070B54CF66905B0F1FF3F14BF34
:103CB00002462A46134CFFF786FF134BD4F804152F
:103CC0001E68531EAB42A1EB0602A8BF2B4622F092
:103CD0007F4240F2471502F5A37223EAE37305FB26
:103CE0000323B3FBF5F305FB0363591A21F07F416E
:103CF0001F2998BF5B1923F07F43C4F8403580F338
:103D0000118870BD001001406477002008B5FFF7EE
:103D10005AFF084B084AD3F8043512689B1A23F05F
:103D20007F4340F24712B3FBF2F380F31188184649
:103D300008BD00BF001001406477002008B5FFF700
:103D400042FF064B064AD3F80435126880F3118807
:103D5000981A20F07F40104408BD00BF00100140B9
:103D60006477002004488168406A884203D0034990
:103D70004FF080520A607047D491002004ED00E0BB
:103D8000044800232021C2180133302B82F800138D
:103D9000F9D1704700E100E0084A094993680968D1
:103DA0009966084958664B6843F080534B6000237E
:103DB00083F311889368986E704700BFD4910020F8
:103DC000F80F020000ED00E0202080F311880D497B
:103DD0008A6828201044EFF3098C80E8F01F0A4F0E
:103DE0004FF000664A6A8A603E60506E0023536658
:103DF00080F3118802F1280090E8F01F8CF3098805
:103E000070470000D491002004ED00E01EF0040F84
:103E10000CBFEFF30880EFF30980816931F8021CD1
:103E200011F0FF010229FFD000B500F044F900BDF8
:103E3000094B9A6A9A6A9A6A910708D55A6B9A6AE4
:103E4000120604D518B19A6A22F080029A629A6A20
:103E50009B6A0020704700BF00ED00E00E4B9A6A9D
:103E6000D20416D49A6A110513D49A6A12F4007F08
:103E70009A6A09D0120404D518B19A6A22F4004251
:103E80009A62054B9B6A04E0510502D49A6AD205F6
:103E9000F8D50020704700BF00ED00E0074B9A6A9C
:103EA0009A6A9A6A9A6A9A6A9A6A9A6A6FEA02425D
:103EB0006FEA12429A620020704700BF00ED00E0F6
:103EC00070B51C4E74680546FFF760FAC4F308032A
:103ED000033B032B2AD8DFE803F002252722F36AED
:103EE0009B0723D4F06A10F0804007D0124B1B7858
:103EF0004BB10120FFF79CFF062819D02946BDE8E9
:103F0000704000F0CBB80D4B1B781BB10120FFF7C0
:103F1000A5FFF1E70A4B188880B20028EED0FFF722
:103F2000BDFFE9E70020E5E70020F0E70020E5E736
:103F300070BD00BF00ED00E028ED00E029ED00E0DD
:103F40002AED00E0024A536943F0100353617047C1
:103F500000ED00E043B2002B08DB012200F01F005F
:103F600002FA00F05B09024A42F82300704700BFE2
:103F700000E100E043B2002B0DDB01225B0900F001
:103F80001F0002FA00F02033034A42F82300BFF377
:103F90004F8FBFF36F8F704700E100E04209054B80
:103FA00000F01F0053F82220012303FA00F0104014
:103FB000704700BF00E100E043B2002BA8BF03F14F
:103FC000604301F101014FEA4111ADBF03F56143C7
:103FD00000F00F00034BC9B2B6BFC9B283F800139B
:103FE0001954704714ED00E000F044B808B572B6FB
:103FF000044B186A18B100221A6215F0D7FD62B698
:1040000008BD00BFD491002070470000F8B50C46F1
:1040100016461F4604220A9B0999054616F0A4FC81
:10402000A6F1200121440C4AAC6521F007010023D0
:1040300022F00102EB642B65EE658A61069A4A6004
:10404000079A8A60089ACA600F604FF08072CA614E
:10405000A9646B66F8BD00BFB911000001491022C8
:104060000A60704710ED00E0404080F3118830BFD7
:10407000704700BF404080F31188DFF81CC0DCF8B7
:1040800000C01CF4006C0CBFEFF30880EFF3098054
:1040900000B5FFF715FF00BD04ED00E038B504469C
:1040A0000D46FFF773F916F0F1FA29462046BDE8F0
:1040B000384000F005B801460068FFF7EFBF000088
:1040C000052808B504D016F077FB20B116F074FB74
:1040D000FFF7CAFFFCE716F07FFB0028F6D1034B81
:1040E0009868BDE8084000F003B800BFD4910020F4
:1040F00038B505464FF02003EFF3118483F31188A0
:1041000016F0C6FB0A4B9B689D420BD1094B5A68BF
:10411000C2F3080212B92046FFF73EFE5A6842F089
:1041200080525A602046BDE8384016F0FBB800BF08
:10413000D491002000ED00E000B572B60B4A106A81
:1041400000281EBF0021116215F030FD62B6EFF3AA
:104150000580A0F110004FEAC0000549014409C9DB
:1041600098475DF804EB034800470000D491002015
:1041700094B10100653D0000202080F311880648BD
:104180004FF40061401880F30988022080F31488FE
:10419000BFF36F8F00F006F830B5002030BFFFF797
:1041A000FDBF00BF08B5084B084A23F07F039360AA
:1041B000BFF34F8FBFF36F8F15F012FD15F01AFD8F
:1041C000FFF7DEFD15F036FD0000000000ED00E019
:1041D00008B5FFF7E3FFBDE80840FFF7C3BD0000E7
:1041E000034B05225A60BFF34F8FBFF36F8F7047A9
:1041F00090ED00E0BFF35F8F014B00225A607047E3
:1042000090ED00E0124910B50C68082C1CD8FFF79F
:10421000F1FF104849680022A24201F10C0103D1CC
:10422000FFF7DEFF002010BD826051F80C3C23F048
:104230001F0343F010031343C36051F8043C43F0E1
:10424000010303610132E7E74FF0FF3010BD00BF0B
:104250005CD8010090ED00E00139034611F8012F10
:104260000AB91A70704703F8012BF7E710B5013946
:1042700003463AB111F8014F2CB91A4403F8014B27
:104280009342FBD110BD03F8014B013AF1E702461E
:104290000346981A13F8011B0029FAD17047013818
:1042A000013910F8013F11F8012F934202D1002B80
:1042B000F7D11A46981A704770B582B1013A0C4688
:1042C000034603D11A782078101A70BD1E7825781D
:1042D000AE4200F1010001F10101EFD0F2E710461A
:1042E00070BD81EA000313F0030F70B503460BD0D5
:1042F000013B0A4491421BD170BD002AFCD011F849
:10430000014B03F8014B013A9C07F6D11E1F0D46E5
:10431000541B0C44032C06D822F0030421442344EC
:1043200002F00302E4E755F8044B46F8044FEFE7C8
:1043300011F8014B03F8014FDCE770B5C9B2034631
:104340009C0711D141EA012444EA04441E46951B0E
:104350001D44032D0ED822F00304234402F003026F
:104360001A44934209D170BD002AFCD003F8011B06
:10437000013AE5E746F8044BE9E703F8011BF0E7EB
:1043800070B508290E4A0F4D00F1FF3028BF0821F3
:1043900000238B4204D1002102F81310084870BD9D
:1043A0004478240902EB43062C5D02F8134010F810
:1043B000014F04F00F0401332C5D7470E9E700BF76
:1043C00068770020F6DA01001FB50378032B07D8C1
:1043D000DFE803F0020A0C0E064901A8FFF73CFFD4
:1043E000054805B05DF804FB0449F6E70449F4E725
:1043F0000449F2E7D4DA0100E9770020DBDA0100B2
:10440000E2DA0100ECDA010030B585B00446154669
:1044100068460322FFF765FF0D2200210DF103001E
:10442000FFF78BFF20466A46694612F05BF80446A8
:1044300020B9032269462846FFF753FF204605B0FE
:1044400030BD13B50C4601AA0331FFF7DDFF48B9B3
:10445000032201A92046FFF72FFFB0FA80F04009A0
:1044600002B010BD0020FBE770B5CD1C06460C461F
:104470002846032112F01AF860B9637903F03F036C
:1044800043F040036371224629463046BDE8704040
:10449000FFF7BABF70BD2DE9F04180464FF0FF3005
:1044A0000F4602F01FFF012500F1080604460575BE
:1044B0000221304614F066F90F2304210370417085
:1044C000304614F05FF945700770A0F8028020466E
:1044D000BDE8F04101F08ABF01F12003013813F873
:1044E000012D00F8012F8B42F9D170472DE9884842
:1044F000694C6A4BDFF8C881E41AC4F3C904454625
:104500004FF0FF31664816F0F7F8BFF35B8FD8F82D
:104510000030BFF35B8F13F0010961D0DFF894B175
:10452000DFF8A091DFF8A0A15E485A464946FDF7A2
:10453000B5F8002841D1012363F3020760F3C507F2
:1045400064F38F173A4658495848FEF7C9FE4FF0B2
:104550001F0A4FF0FF31012002F0B4FE00F1080BFA
:1045600002218146584614F00DF93E230370422380
:1045700043700121584614F005F9082303704121C6
:10458000584614F0FFF8834600F801ABBAF1000F6B
:104590001DD040220021FFF7D0FEBFF35B8F55E80E
:1045A000003F23F0010345E80032002AF7D1BFF3B2
:1045B0005B8F484601F090FAA2E720225146484618
:1045C000FFF77AFE0028AFD04FF0000AC1E7354967
:1045D000FFF782FF36490BF12100FFF77DFFDCE793
:1045E000BFF35B8FD8F80030BFF35B8F9B0787D595
:1045F00030492C48FEF717F8021E3EDA012363F318
:10460000020669F3C50664F38F1633462A492B4820
:10461000FEF77AFE4FF0FF31012002F053FE00F169
:10462000080B02218246584614F0ACF83E23037072
:10463000222343700121584614F0A4F80923037083
:104640002121584614F09EF803460130B9F1000FBD
:104650001CD11F221A7049462022FFF76EFEBFF3BD
:104660005B8F55E8003F23F0020345E80032002A43
:10467000F7D1BFF35B8F50469CE70A4A0D4BA2F17E
:1046800020011046FDF756F88146C3E700221A7054
:104690000449FFF721FFE2E758B40100E0B301004D
:1046A00044CD0020247800200EDB010008DC01004E
:1046B0004478002038DB01001CDB010035DC010000
:1046C000D078002004780020E8DB010070B5037D7D
:1046D0000446ABB983681A8842F225018A4217D092
:1046E00042F226018A423DD042F201018A4207D1BC
:1046F000DA7802F07F02DA701A7922F001021A7178
:10470000334BD3F8D43020461B69BDE870401847BE
:104710000321083014F055F8204614F001F8BFF3D7
:104720005B8F2C4B1A68BFF35B8F910706D50C216A
:1047300042F22500FFF7AFFE002070BDBFF35B8F94
:1047400053E8001F41F0010243E800200028F7D1A0
:10475000BFF35B8F11F00104E9D11F4815F0A5FFED
:104760002146E5E70321083014F02BF8BFF35B8FF7
:10477000184B1A68BFF35B8FD20707D50C2520466C
:1047800013F0CEFF294642F22600D3E7A2893F2A42
:104790001CD9BFF35B8F53E8005F45F0020243E88A
:1047A00000210029F7D1BFF35B8F15F00205E5D199
:1047B000A6680A483146FFF78FFE06F12001084837
:1047C000FFF78AFE044815F070FFD8E71225D6E7F8
:1047D00038C70020D078002044CD00202478002065
:1047E0004478002008B511F061FEB0FA80F040096D
:1047F00008BD00007FB500230A22059304930392AD
:1048000002930193009340F24C42044B0449054843
:1048100016F01EF807B05DF804FB00BFED44000081
:10482000389A002064780020F0B40278012A044607
:104830000B4617D003D3022A2CD0F0BC7047184A7D
:104840000D4602F11007106851682E4603C6083263
:10485000BA423546F7D11278327062885A73120A1A
:104860009A73EAE70E4A0D4602F110071068516884
:104870002E4603C60832BA423546F7D11278327056
:1048800062685A73C2F30721120CDA73120A997321
:104890001A74D2E7014611221846F0BCFFF721BD79
:1048A00065DC010010B50C46017822788A428AB096
:1048B0000ED06946FFF7B8FF05A92046FFF7B4FF01
:1048C00010220DF115010DF10100FFF7F5FC0AE0D2
:1048D000012A0AD004D3022A0AD06FF0150002E0A0
:1048E00040886388C01A0AB010BD40686368F9E761
:1048F0001022611C0130E8E77047000070B50B4DD5
:1049000006460FCD8AB06C460FC40FCD0FC495E894
:104910000300092E84E803009BBF0AAB03EB860665
:10492000034856F8280C0AB070BD00BFDCB4010083
:10493000CCE8010000B5BFF35B8F50E8003F03EA0D
:10494000010240E8002EBEF1000FF6D1BFF35B8FED
:1049500018465DF804FB0622FFF7C3BC0722FFF7E9
:10496000C0BC00B5BFF35B8F50E8003F43EA0102D3
:1049700040E8002EBEF1000FF6D1BFF35B8F184662
:104980005DF804FB10B5C37A044613B901234372E2
:1049900010BD436F33B35A7AD10723D5D2061FD542
:1049A0001B7A102B1CD104236372A27A637A9A4279
:1049B0001AD901234FF0000263F302020B490C4B9A
:1049C0000C485B1ADB086FF3C5020B4963F38F12C7
:1049D000FEF786FC20460521BDE8104003F095B99E
:1049E0000323E1E70223DFE710BD00BFE0B30100CE
:1049F00050B4010091E801007ADD01002DE9F04199
:104A0000064688B090792F4F8846154613F0C4FDAE
:104A100087421ED002234FF0000463F302042A4AA7
:104A20002A4BA8790496D21AD208294B03936FF324
:104A3000C50462F38F14059013F0AEFD2346069073
:104A4000052203A923480797FEF794FC08B0BDE8A8
:104A5000F081284613F0A6FD1F4C04EBC0004388EC
:104A6000B34219D002234FF00007184A63F302073C
:104A7000154B9B1ADB086FF3C507284663F38F17A6
:104A800013F090FD04EBC000324643881049ADF8A6
:104A900000701248FEF751FC284613F083FD04EB2A
:104AA000C0004368002BD1D0284613F07BFD04F8EA
:104AB0003080284613F076FD04EBC000406815F006
:104AC000F4FDC3E7D8CD002050B40100E0B30100ED
:104AD000DFDD01007AE50100D4780020B3E50100B4
:104AE0002DE9F74F5C4B5D4CE41AC4F3C9045C4BF1
:104AF0005B4ADB686FF31033D36002F1140002F0FD
:104B000049FF431C4FF0FF3219465548019316F0F8
:104B100089FA30B9524E534D019BABB915F026FDC1
:104B2000E5E74FF00002012363F302026FF3C502D1
:104B30004D494E4864F38F12FEF7D2FB404080F39C
:104B400011884FF0040002DFF268C2F30432012A38
:104B500060D9042A73D196F80C80B8F1000F5ED1A9
:104B60004146434813F0B2FD074658B94FF00002E2
:104B7000012363F3020260F3C50264F38F123D491F
:104B80003D48D9E74FF0FF313C4815F0B5FDD5F869
:104B9000C0208AB1012262F3020968F3C50964F3F7
:104BA0008F194A4633493648FEF79AFBD5F8C000BC
:104BB00013F0B6FDC5F8C080384613F0DFFDC5F828
:104BC000C0003846FFF782FD024618B3012363F3A5
:104BD000020A6FF3C50A64F38F1A53462549294820
:104BE000FEF792FB254815F060FD384613F0DAFC1D
:104BF000254B03EBC00000221F214088FFF7FEFE7B
:104C0000D5F8C00013F08CFD00233846C5F8C0303D
:104C100013F086FD019B013B143601937CE7B8F14C
:104C2000010F04D130691C3802F0DCFDF2E7B8F165
:104C3000020FEFD130692C3803F07CF9EAE7022348
:104C400063F3020B6FF3C50B64F38F1B5B460F49D5
:104C50000F48FEF759FBDDE7E0B3010050B4010057
:104C600088C8002038C7002020DE01006CE6010063
:104C7000FCC7002008DE01008AE60100E0C7002032
:104C8000A3E60100C2E60100D478002011DE010095
:104C9000E8E60100F8B50B4E07460025F379ECB2C3
:104CA000A34202D86FF0010409E0C4EBC40107225B
:104CB00031443846FFF700FB01350028EED120468D
:104CC000F8BD00BF38C700204B09BFF35B8F50F819
:104CD0002300BFF35B8F01F01F01084100F00100CA
:104CE0007047000010B5082104460430FFF7ECFFC0
:104CF00040B904F1780141F288320348BDE8104020
:104D000015F0D4BE10BD00BF0C920020C0F30723E5
:104D100010705370000CC1F307231171090C9070CF
:104D20009171000A090AD0705371D1717047000067
:104D30002DE9F047804689461348144D4FF0FF3166
:104D400013F0BEFC044600F108060021304600279F
:104D500013F0D5FC2775204613F024FC05EBC000AA
:104D6000A0F80280204613F01DFC05EBC0000321D3
:104D70004760304613F006FD80F80290A0F80080EE
:104D80002046BDE8F08700BFD8CD0020D4780020B1
:104D900038B504460D4619B9FFF7CAFF054628B3D2
:104DA00040F635439C421BD12846FFF78FFC044652
:104DB000A0B101224FF0000362F302030D490E4A35
:104DC000521AD2086FF3C50362F38F130B490246E0
:104DD0000B48FEF799FA284613F0A2FC204638BD8E
:104DE0002946084813F08FFC0024F7E76FF03604DB
:104DF000F4E700BFE0B3010050B4010076DC01002D
:104E0000C2E60100FCC7002038B50721044642F283
:104E10003200FFF78DFF054698B10721083013F0E7
:104E2000B1FC23880380002402238470C3700371C3
:104E300044718471294642F23200FFF7A9FF2046EF
:104E400038BD6FF0360038BD70B506460D4642F2EB
:104E500021000321FFF76CFF044660B103210830F5
:104E600013F090FC85700680214642F22100BDE8D7
:104E70007040FFF78DBF6FF0360070BD70B51546FE
:104E800086B00C4619B9FFF753FF044668B30122F8
:104E90000021684615F000FC204613F083FB144EF9
:104EA00006EBC000C0F804D0204613F067FC214692
:104EB000104813F028FC42F21071684615F01CFCF3
:104EC000204613F06FFB16F8300030B1204613F087
:104ED00027FC6FF0040006B070BD0DB12C60FAE73E
:104EE000204613F01DFC2846F5E76FF03600F2E788
:104EF000D4780020FCC7002038B50121054642F2D5
:104F00000A00FFF715FF0446D8B108308DB1012122
:104F100013F047FC2146002242F20A00FFF7AEFFE1
:104F2000044620B93DB140210748FFF71AFD20464D
:104F300038BD2946ECE76FF040010348FFF7FAFC63
:104F4000F5E76FF03604F2E7A8C7002070B5144DFE
:104F5000062205F10A010646FFF7AEF90446D0B174
:104F6000062142F20500FFF7E3FE0446A8B106223F
:104F70003146083013F00CFC2146002242F20500B5
:104F8000FFF77CFF044630B9314605F10A00FFF710
:104F9000E2FC01236B72204670BD6FF03604FAE725
:104FA00038C7002037B5124D02460E2105F17000BA
:104FB000FFF78AFED0B905EB02106946D830FFF73B
:104FC00053FA044650B96846FFF7C0FF044628B9B3
:104FD0004FF4804105F17000FFF7C3FC054A064914
:104FE000064815F063FD204603B030BD0024FAE703
:104FF00038C70020A0BB0D0020C800200C92002064
:1050000010B5104C6FF4804104F17000FFF792FC72
:10501000062104F17000FFF757FE40B10020FFF7B2
:105020006BFF207AFFF7BEFF0120FFF765FF0C2121
:105030000548FFF749FE20B10020BDE81040FFF70A
:10504000B1BF10BD38C70020A8C70020F8B507467B
:105050000E4642F227002721FFF76AFE0446D0B130
:105060002721083013F08EFB39460546FFF776FC02
:1050700031461022E81DFFF734F91022074905F1E7
:105080001700FFF72EF92146002242F22700BDE863
:10509000F840FFF7F3BE6FF03600F8BD10C80020EF
:1050A00000F126010130FFF7D1BF38B501210546D7
:1050B00042F22D00FFF73CFE044658B12946083065
:1050C00013F06FFB2146002242F22D00BDE838406C
:1050D000FFF7D4BE6FF0360038BD00002DE9F74F62
:1050E0008A46202183460092FFF722FE07460028C9
:1050F00066D02021083013F045FB20220021044611
:10510000FFF71BF90025009B9D4207D1002239467D
:10511000584603B0BDE8F04FFFF7B0BE5AF835600F
:105120000AEBC5034FF000095A684A4501D801351A
:10513000E9E77278217896F800E0501802301F28CD
:1051400020DDBEF1090FC1F11D0200D1C2B9384600
:1051500013F0E6FA01234FF0000263F302021A494A
:105160001A4B1B485B1ADB086FF3C50263F38F12FF
:105170001849FEF7B5F86FF0150003B0BDE8F08FE1
:105180004FF0080E5FFA82F8601808F1010C80F801
:1051900001C0881C013154FA81F1C0B2207081F83D
:1051A00001E00130716801932044FFF79AF82278FA
:1051B000019B904484F8008009F101090836B3E7A7
:1051C0006FF03600D9E700BFE0B3010050B4010032
:1051D00098E7010084DE01002DE9F04387B00C461A
:1051E00081460021154602A810221E469DF83870FF
:1051F0009DF83C80FFF7A1F8012202A942F20800C5
:105200000394CDF80890FFF769FF044610BB0295A0
:105210000396B8F1000F11D015B10246B2421DD16C
:10522000134D092328468DF80030FFF730F801238D
:105230008DF801000195CDF810D00593029B13B9AC
:10524000049B03B937B1022202A942F20900FFF719
:1052500045FF0446204607B0BDE8F08315F832103C
:105260000839012901D90132D8E76FF01504F1E7B7
:1052700040C800202DE9F341804601AA002142F2F6
:105280002F00FFF7FBFD054698B101234FF0000208
:1052900063F302022649274B27485B1A6FF3C502C6
:1052A000DB08264963F38F12FEF71AF802B0BDE857
:1052B000F08101988368B3F80170B3F8036013F0CC
:1052C0002FFA062142F22200FFF732FD044678B998
:1052D00001234FF0000263F302021549154B5B1ADC
:1052E00060F3C502DB0863F38F1214491448DBE74F
:1052F0000621083013F046FAB8F8003003804780E2
:105300008680214642F22200FFF742FD0028CDD0E0
:1053100001234FF0000263F302020549054B0948DF
:105320005B1A65F3C502DB0863F38F120349BBE721
:10533000E0B3010050B40100EAE50100BDDC01006A
:105340000EE601003EE60100F0B56FF40041B0F852
:10535000017085B005467648FFF7ECFA0004BEB24E
:1053600004D500227349022006F0A6FF2B78B3B1C2
:1053700001234FF0000263F302026F496F4B704844
:105380005B1ADB086FF3C50263F38F126D49FDF7FB
:10539000A7FF404080F311884FF0040002DF2C1D6E
:1053A000214602A8FFF7DAFA9DF80830023BDBB28B
:1053B000012B37D805F111010DF101008DF80830EE
:1053C000FFF7C9FA01238DF80030032102A802F08B
:1053D00077FC044620B9022102A802F071FC0446C1
:1053E000EB78012B09D16FF040015148FFF7A2FA89
:1053F000ECB902A802F016FB0446C4B901224FF032
:10540000000362F302034C494C4A4F48521AD20837
:1054100064F3C50362F38F134A493246FDF774FF04
:1054200005B0F0BD21466846FFF798FACDE7204663
:1054300002A920F8487BFFF791FA2A7EEB7D43EA28
:105440000223A4F85E30AA7E6B7E43EA0223A4F80E
:105450006430EB7E2A7F43EA0223A4F86630EE78BC
:10546000E6700023012E237322D1384F3B7A23723A
:10547000694604F14F00FFF771FA05F10B0104F1E1
:105480005700FFF768FA84F85660092107F17000A9
:10549000FFF71AFC60B1D7E92023002203F0400394
:1054A000134305D0387AFFF77DFD3046FFF724FD22
:1054B0000421204602F0F0FA637B042B18D1EB782C
:1054C00023B1224B93F87830190715D5022142F207
:1054D0001600FFF72DFC054670B10221083013F0CD
:1054E00051F923880380294642F21600FFF750FC49
:1054F000204602F007FC93E7144D95F87920D20777
:1055000008D52046FFF780FC20B98021201DFFF739
:1055100028FAEDE795F878309B0602D52046FFF78C
:10552000A9FEE378012BE3D12046FFF7DBFBDFE7A1
:10553000A8C70020CD580000E0B3010050B401001E
:105540000DE70100D1DC010033E7010038C700207E
:10555000028843889A4210B518D8052A16D9B3F59F
:10556000486F13D88488B4F5FA7F0FD2C188A1F1AF
:105570000A0292B240F67640824207D804FB033317
:10558000B3EB810FB4BF0120002010BD002010BD7F
:10559000F7B56F4E96F8A430054634461BB196F821
:1055A000A5209A4206D994F8A530013384F8A53095
:1055B00003B0F0BD0321002002F082FB074668B172
:1055C0004FF4004106F17000FFF7CBF96B7A43F01E
:1055D00004036B72384602F095FBE9E706F17000B0
:1055E0000621FFF771FB064610B13846FFF784FC31
:1055F00094F8A530ABB10020FFF757FD88B1022326
:105600004FF0000263F302025249534B53485B1AB6
:105610006FF3C502DB08524963F38F12FDF760FE9A
:105620002FE094F8A52094F8A4309A4232D10223B6
:105630004FF0000263F30202474D464B4849494888
:10564000ED1A6FF3C502C5F3C90565F38F12FDF7B7
:1056500047FE0022114642F22900FFF70FFC58B125
:105660004FF00002012363F302026FF3C50265F3FA
:105670008F123B493C48D1E794F8A530013384F8B8
:10568000A5300120FFF711FD002E91D00120FFF77A
:1056900033FC8DE76F1C05F126013846FFF7D6FC79
:1056A000054678B101234FF0000263F30202294955
:1056B000294B2E485B1A6FF3C502DB0863F38F1288
:1056C0002749ABE794F8A530013384F8A53094F866
:1056D000473013F004030FD102214FF0000261F3B1
:1056E000020263F3C5021B491B4B21485B1ADB080E
:1056F00063F38F121F4991E739466846FFF72EF989
:105700000123082142F24E008DF80730FFF710FB0D
:10571000044660B108226946104413F039F82A465D
:10572000214642F24E00FFF7A9FB0028A9D0012331
:105730004FF0000263F302020649074B0E485B1A62
:105740006FF3C502DB0863F38F12054966E700BFFC
:1057500038C70020E0B3010050B4010097DF01001A
:1057600066DD0100C0DF0100F5DF010019E0010086
:105770003DE0010052DD01006BE001002DE9F04148
:105780004B4D95F8A43006462C4623B195F8A5203C
:1057900001339A4206DD94F8A530013B84F8A53028
:1057A000BDE8F0810321002002F08AFA804670B142
:1057B00005F170004FF40041FFF7D3F8737A43F01E
:1057C000080373724046BDE8F04102F09BBA06211F
:1057D00005F17000FFF778FA074610B14046FFF771
:1057E0008BFB0020FFF761FC0546F0B101224FF072
:1057F000000362F302032F492F4A521AD2086FF3B3
:10580000C50362F38F132D4902462D48FDF77CFD39
:1058100094F8A53013B10120FFF747FC002F45D0C5
:105820000120BDE8F041FFF767BB94F8A53094F87C
:10583000A4209A420CD2013B84F8A53073892149F7
:1058400023F0020302467381022006F035FDDFE7F4
:10585000072142F22800FFF76BFA80460028D7D0D4
:105860000721083012F08EFF711CFFF777F82A46E7
:10587000414642F22800FFF701FB88B101234FF0B7
:10588000000263F302020B490B4B0F485B1A65F3EE
:10589000C502DB0863F38F120849FDF721FDB7E766
:1058A00094F8A530013B84F8A530B1E7BDE8F0815C
:1058B00038C70020E0B3010050B4010070DD0100E2
:1058C000BCE00100A1500000EDE00100437A59075F
:1058D00004D523F004034372FFF75ABE190704D519
:1058E00023F008034372FFF749BF7047012310B547
:1058F0000621044600F8013B10F0D8FD18B9A37941
:1059000063F03F03A37110BDF0B5044687B01546A0
:105910000E4641B300230722694630460093CDF876
:105920000330FEF7C9FCF0B1204BC4EBC400314694
:105930001844FFF713F810273A46002102A8FEF793
:10594000FCFC1A4E25B33A4602A92846FEF7B4FCE1
:10595000F0B107FB04643A46294604F1D800FEF78B
:10596000C0FC07B0F0BD02A8FFF7C0FF02A8FFF718
:1059700091F90028F7DA0D4FC4EBC4031F4402A9C4
:105980003846FEF7EBFF002ED5D039463046D0E73B
:10599000102707FB0464D8343946204610F086FDF2
:1059A000002DDED03A4621462846D8E738C70020E9
:1059B0002DE9F0473D4B3E4C3E4D3F4A94F807A041
:1059C000DFF80881ED1A3D4B88B02046BAF1010F8F
:1059D00094BF92469A460327FEF7F6FC4FF0000666
:1059E000FDF74EFD67F302066FF3C506C5F3C90563
:1059F00065F38F16ADF800600346524641463048C5
:105A0000DFF8CCA0FDF799FC0126E3799E4236DB56
:105A100094F81090CDF80C804FF0000667F3020662
:105A20004846FEF76BFF6FF3C506638A069365F37E
:105A30008F16E38A079333464FF0000667F302069A
:105A400003A9049005221F48CDF814906FF3C506F2
:105A5000FDF790FC65F38F16657CCDF80C80284629
:105A6000FEF74CFFA38A049006930422334603A951
:105A700015480595FDF77EFC08B0BDE8F087C6EB3C
:105A8000C6002044FEF7A0FCFDF7FAFC67F302090C
:105A90006FF3C50965F38F1903463246ADF80090E0
:105AA00041465046FDF749FC0136AEE7E0B3010040
:105AB00038C7002050B40100FAE90100BBDE010044
:105AC000BFDE0100E7DE010029DF010036DE010054
:105AD000D2DE0100FEF7FABD2DE9F041027D012A78
:105AE0008CB0044650D0032A40F0EE8383681E88B1
:105AF0005D88C6F30B03C382FF234375042108307E
:105B000012F05FFEA289954217D001234FF00000EA
:105B100063F30200B949BA4BC91AC9086FF3C5004B
:105B200061F38F10ADF800002B46B649B648FDF77B
:105B300004FC204612F0F4FD22E0E08A02F070F846
:105B4000054690B901224FF0000362F30203AC490D
:105B5000AA4A521A60F3C503D20862F38F13A94907
:105B6000E28AAA48FDF7D0FBE3E702F057FA320BCE
:105B700060752146284601F045FD284602F0C2F82E
:105B800000200CB0BDE8F08186683378132B00F25A
:105B9000B28302FA03F313F40C2F00F0AC834FF03E
:105BA000000162F30201954B954A99489B1ADB0864
:105BB0006FF3C50163F38F110A469649FDF790FB19
:105BC000404080F311884FF0040002DFA7683E7860
:105BD000002EAED1B7F80180404602F021F805460C
:105BE00058BB01224FF0000362F302038349844A49
:105BF000891A60F3C503C90861F38F1342468649C9
:105C00008648FDF781FB864A092102F17000FFF703
:105C10005BF800288DD0062102F17000FFF754F8E0
:105C2000002886D192F87830590602D4107AFFF70E
:105C3000B9F90120FFF760F97BE7FB780373794935
:105C4000794814F0B8FD2846314601F025FFAB78BD
:105C50002E80284613B102F055F86AE702F052F898
:105C6000D1E7A668B6F80170384601F0D9FF0546BD
:105C700080B901224FF0000362F302035F49604ADA
:105C8000891AC90860F3C50361F38F1367493A465F
:105C9000624867E73378827823B10AB9437A83721E
:105CA0002846D8E7F378C37232BB0BB106F006FA88
:105CB0002846FEF767FE1FE0A668B6F80170384672
:105CC00001F0AEFF054678B901224FF0000362F300
:105CD00002034A494A4A891AC90860F3C50361F3B5
:105CE0008F133A465249D3E7317811B102F0B1FA35
:105CF0001FE78378002BD9D02846317802F0A9FA23
:105D0000284601F067FCCBE7A568454F2B788DF856
:105D10001030B5F80130ADF81130EB788DF8133054
:105D2000B5F80B30ADF82730B5F80D30ADF82930A7
:105D3000B5F80F30ADF82B3005AE6B7C8DF82D30FB
:105D4000291D3046FEF70AFE0DF11B0007F10A017E
:105D5000FEF701FEEB78012B0CBF387A00203146AC
:105D600006F0E0FA002800F01B83451CB54200F065
:105D700017830DF115010DF12100FEF7ECFD294609
:105D80003046FEF7EBFD9DF8143002338DF81430E9
:105D900004A8FFF7D9FACCE6A068FAE7A668B6F837
:105DA0000170384601F03CFF054680B901224FF0F2
:105DB000000362F302031149114A891AC90860F30A
:105DC000C50361F38F131B493A461B48CAE6337873
:105DD000A3BB3279F37843EA0223A0F85E30B279AC
:105DE000737943EA0223A0F86430F379327A43EA04
:105DF0000223A0F8663001F07FFB51E750B40100A8
:105E0000E0B3010086DC0100B6E20100DEE2010041
:105E1000DCE30100FEDD0100A8DC010004E3010079
:105E200038C700202EE30100F94800008BDD010097
:105E30009EDD01003ADD010032E301001A2B7FF400
:105E40002FAFC378012B7FF42BAF4FF48061043068
:105E5000FEF787FD42053FF523AFB5F86030ADF89A
:105E60001030B5F86230ADF81230B5F86830ADF8E2
:105E70001430B5F86A30ADF8163004A9284602F09F
:105E800021FB0DE7A668B6F80170384601F0C8FEA0
:105E9000054678B901224FF0000362F30203B649C8
:105EA000B64A891AC90860F3C50361F38F133A46ED
:105EB000B3498AE7337823B90822F11C6C30FEF726
:105EC00010FAB04E96F87920D3070CD595F86D30BE
:105ED000DF0708D52846FEF797FF20B98021281D47
:105EE000FEF73FFDDCE696F87830980606D595F883
:105EF0006C30990602D52846FFF7BCF9EB78012BE8
:105F00007FF4CEAE2846FEF7EDFEC9E6A368D97849
:105F10009A781F8842EA0122ADF8102059791A793F
:105F200042EA0122ADF812209A79D97942EA012297
:105F3000ADF814201A7A5B7ABDB242EA03232846F0
:105F4000ADF8163001F06CFE8046B0B901224FF07A
:105F5000000362F302038949874A521A60F3C503BA
:105F6000D20862F38F13884988482A46FDF7CCF996
:105F700002212846FEF768FFDBE504A901F0F0FAEC
:105F800028B91E212846FEF75FFF404663E60E2132
:105F900042F22000FEF7CCFE06460028F5D00E2186
:105FA000083012F0EFFB0E2205460021FEF7C5F97E
:105FB000BDF810306B80BDF81230AB80BDF81430E6
:105FC000EB80BDF816302F802B81314642F2200045
:105FD000FEF7DEFED9E7A3681D88284601F020FE03
:105FE00000287FF438AE01214FF0000361F3020373
:105FF000624A6149891AC90860F3C50361F38F13C6
:106000002A466349E1E6A368B3F80160304601F02F
:1060100007FE054678B901224FF0000362F3020340
:106020005549564A891AC90860F3C50361F38F13AD
:1060300032465849C9E66FF080010430FEF77AFC19
:1060400006067FF52DAE4F4B93F878304DE7A668E6
:106050003788384601F0E4FD054678B901224FF053
:10606000000362F302034449444A891AC90860F3F1
:10607000C50361F38F133A464749A6E6D6F80220D6
:10608000D6F80630134330D1738973BB04A906F0E8
:10609000A1F850B3122142F21A00FEF749FE07465A
:1060A00088B901234FF0000263F302023349324BF7
:1060B0005B1A67F3C502DB08374963F38F12374871
:1060C000FDF70EF9ECE51221083012F05BFB338886
:1060D00020F8023B10220DEB0201FEF702F93946CF
:1060E00042F21A00FEF754FEDAE56B6F002B40F027
:1060F000618105F148073A46297A202006F0ECF83C
:106100006867002840F056813A46297A012006F057
:10611000E3F86867002869D041898A0640D5D6F837
:106120000220D6F8063013433AD1B6F80A80B8F107
:10613000000F35D1122142F21A00FEF7F9FD074691
:106140000028AED01221083012F01CFB338806461E
:1061500026F8023B696F0A7A16313046FEF7C1F81D
:106160006B6F187A0F28BAD8C0F11002414630443C
:10617000FEF7E3F8B3E700BF50B40100E0B301005D
:10618000E6DC010038C7002028DD010032E3010011
:10619000FEDC010011DD0100D0DD01005AE3010049
:1061A000CB0723D50822B11C6430FEF785F8E8B987
:1061B000686F022206F10A016C30FEF77DF8804616
:1061C000A0B9122142F21A00FEF7B2FD07460028DC
:1061D0003FF467AF1221083012F0D4FA3388064634
:1061E00026F8023B696F0A7A6E31B6E7022142F265
:1061F0001B003788FEF79CFD064670B901234FF05F
:10620000000263F302026C496C4B5B1A60F3C50237
:10621000DB0863F38F126A4951E70221083012F05C
:10622000B1FA3146078042F21B005BE7A668654879
:106230006FF02001FEF77EFB337843B9711C4022DA
:106240006148FEF74EF810215E48FEF78AFB5F4B6F
:106250001D68771C002D3FF46CAC32782B68002A47
:106260000CBF3846002098476D68F3E7584DA0688A
:106270002A68002A3FF45DAC037823B901309047C7
:1062800000232B6055E40020F9E702224FF00005BF
:1062900062F302054849494AA0680593521AD20898
:1062A0006FF3C505A189069162F38F15494A0492DF
:1062B000FEF766F8FDF7E4F8079047482B460422FE
:1062C00004A9FDF757F834E401214FF0000361F30E
:1062D000020339483949091AC9086FF3C50361F344
:1062E0008F133E483E49FDF70FF8204612F018FA8A
:1062F0006FF0150045E404F108050221284612F06C
:1063000060FA3278082A3FF4ACAC1FD8052A3FF473
:106310005DAC02234FF0000563F302052749264BCD
:10632000A0680592C91AC9086FF3C5052D4B0493DF
:1063300061F38F15A1890691FEF722F8FDF7A0F809
:106340002B460790042204A92748BAE7302A3FF4D5
:10635000B3AC3E2ADDD1A6680121284612F031FAFD
:1063600033785A1E0B2A90D801A151F822F000BFB1
:10637000095D00008B6200009D5D0000855E0000ED
:106380004F6000000D5F0000D75F00002D6200002D
:106390006D620000995D00008B62000007600000E4
:1063A000002302A90DF121000293ADF80C30FEF795
:1063B000D2FAEDE4686FAFE6E0B3010050B401003B
:1063C000BFDD0100A8C70020E87800202879002060
:1063D000E4780020ECDD010075E30100C4E3010076
:1063E0005CDE0100FEDD01009EE301002DE9F74FB8
:1063F000057DD0F80890012D044616D001234FF0FA
:10640000000263F302027949794B7A485B1A6FF311
:10641000C502DB08784963F38F12FCF761FF404047
:1064200080F311884FF0040002DF8389012B0ED81E
:106430006E496F4B71484FF000025B1A65F3020220
:106440006FF3C502DB0863F38F126B49E5E799F838
:106450000030132B00F2B98005FA03F313F40C2F6C
:1064600000F0B38000F108060221304612F0A9F9CD
:1064700099F800300F2B1DD0132B2BD00E2B40F092
:106480009280A36803213046B3F801701D7812F0A2
:1064900098F9A368224619783846FEF7AFFA15B185
:1064A000574814F002F9204612F03AF9002003B0E0
:1064B000BDE8F08FA568B5F802806F7804213046FA
:1064C00012F07FF9224629784046FEF797FA002F0E
:1064D000E9D0E5E7A3680093454D444BED1AC5F3B9
:1064E000C9050026009B1B789E42DCDA009B03EB6B
:1064F0008603B3F80120B3F803A04FF02003EFF3B5
:10650000118B83F311881046019201F089FB019AE7
:10651000814678B9012161F3020760F3C50765F38D
:106520008F173B4637493848FCF7EEFE8BF311884E
:106530000136D7E78BF3118800F11C0BBAF1000F7D
:1065400024D04FF02002EFF3118E82F31188D9F896
:10655000141041B1D9F818200868C9F81400914204
:1065600008BFC9F818008EF311880AF1FF321FFA2C
:1065700082FA79B9012262F3020861F3C50865F372
:106580008F1842461F492148FCF7AAFE484601F0F1
:10659000B9FBCDE7584613F07DFD484600F0A8FF53
:1065A00014F083F8CAE7204612F0BAF80F49104BEE
:1065B00017484FF000025B1A65F302026FF3C50241
:1065C000DB0863F38F120C4927E701234FF0000229
:1065D00063F302020549064B0E485B1A6FF3C502CE
:1065E000DB0863F38F12044917E700BFE0B3010033
:1065F00050B401000FE4010064DE010047E4010033
:10660000E0C700208EDC010075E4010095E4010084
:10661000B0E40100C7E40100084AD2F8D4303BB925
:10662000C16841B1016931B1C2F8D4001846704760
:106630006FF0440070476FF01500704738C70020B6
:106640001FB50446FDF723FE402832D821461A48DC
:10665000FDF725FE10B9002004B010BD21464122EF
:106660001548FDF703FE07211448FEF72DFB00280F
:10667000F1D0092320468DF80030FDF708FE019483
:1066800001248DF8010002A9224642F20900CDF84A
:1066900008D00394FEF722FD06210848FEF714FBFC
:1066A0000028D8D00020FEF727FC2046FEF724FC67
:1066B000D1E76FF00B00CFE740C80020A8C700204B
:1066C0000048704740C80020F7B50F46064630B96D
:1066D000254AD479012C32D16FF00B0524E0002338
:1066E000072269460093CDF80330FDF7E5FD002849
:1066F000EED03378012B04D1B37903F0C003C02B63
:1067000015D001234FF0000263F302021749184B22
:1067100018485B1ADB086FF3C50263F38F12164942
:10672000FCF7DEFD6FF01505284603B0F0BD3046DE
:10673000FEF7B0FA0028CBDB6FF04405F4E7631CEA
:10674000D371254654B9012102F17000FEF7BCFA5D
:1067500020B9082102F17000FEF703F93A463146EC
:106760002046FFF7D1F8DFE738C70020E0B301008B
:1067700050B401008AE001008BDE01002DE9F043F6
:106780003E4DEE7985B0002E72D195F8623013F04F
:10679000010411D102234FF0000263F302023849D1
:1067A000384B39485B1A64F3C502DB08374963F399
:1067B0008F12FCF795FD18E001AA31464FF609400B
:1067C000FEF75CFBF0B102234FF0000263F302021C
:1067D0002B492C4B2E485B1ADB0866F3C50263F38A
:1067E0008F122A49FCF77CFD3446EC71002C3FD017
:1067F0000024EB799C4231DB2648FEF7A7FB05B06D
:10680000BDE8F083019B9E68777817F1000818BFF8
:106810004FF0010844464FF001090236804514DC70
:10682000019811F07DFF002FDFD102234FF000020D
:1068300063F302021249134B17485B1A67F3C50250
:10684000DB0863F38F121149B3E70DF109003146FC
:106850008DF80890FEF77FF80120DFE7C4EBC40154
:1068600002ABE0B200221944FFF74EF80134C0E752
:1068700000210846FFF728FFC1E700BF38C7002006
:10688000E0B3010050B40100F9E4010098DE01001A
:1068900029E5010039C700204DE501000000000096
:1068A0002DE9F041634DD5F8D430996811F001011C
:1068B0008EB022D108AA40F60340FEF7DFFA044664
:1068C000002840F0B380089B9B681B7893B9BFF306
:1068D0005B8F2B4653F8702FBFF35B8F02F00D02D6
:1068E000BFF35B8F53E8001F43E800200028F9D175
:1068F000BFF35B8F089811F013FF08AA002141F243
:106900000300FEF7BBFA0446002840F08F80089B86
:106910004948996808220131FDF7E3FC089811F015
:10692000FFFE214608AA41F20100FEF7A7FA04463D
:1069300000287BD1089883685A782A74D9789A7885
:1069400042EA01226A821A796A74197ADA7942EA89
:106950000122AA825A799B7942EA0323EB8211F041
:10696000DFFE03213548FEF7AFF9014680BB08AAD8
:1069700041F20900FEF782FA0446002856D1089B2E
:1069800004909E68ADF814000136062204A9304632
:10699000FDF792FCC8B1FF23062206A930468DF808
:1069A00018308DF819308DF81A308DF81B308DF8AD
:1069B0001C308DF81D30FDF77FFC30B1314620488A
:1069C000FDF7C9FF01232C70EB71089811F0A8FEA8
:1069D00008AA002141F20200FEF750FA044628BB43
:1069E000089B1848996840220131FDF77AFC95F818
:1069F0004230089843F0060385F8423011F090FECB
:106A00002B7F580628D401234FF0000263F30202C3
:106A10000D490E4B0E485B1A64F3C502DB0863F3A5
:106A20008F120C49FCF75CFC6FF0120420460EB08C
:106A3000BDE8F08138C7002050C70020A8C700205B
:106A400039C7002058C70020E0B3010050B401004E
:106A500016E101002EDE0100214608AA42F20300E1
:106A6000FEF70CFA04460028E0D1089BB448996868
:106A700008220131FDF735FC089811F051FE21463E
:106A800008AA42F20200FEF7F9F904460028CDD127
:106A9000089B9B68B3F80120A5F888203AB1DA7802
:106AA000A848032A28BF0322114613F0F5FD0898D1
:106AB00011F036FE2C7F14F0200400F0DE8095F8F3
:106AC0003C30190713D508AA002142F21C00FEF73A
:106AD000D5F904460028A9D10898836853F8012FF6
:106AE0005B68C5F88430C5F8802011F019FE95F870
:106AF00078309A0600F1DD8095F878305B0600F179
:106B00000481082142F20100FEF712F90446002830
:106B100000F0BA800821084411F034FE95F878306E
:106B20005F0602464CBF40F2022003209E0795F804
:106B300079604CBF40F02C0040F00C009F0648BF2D
:106B400040F0400016F0090F18BF40F40060DE0767
:106B500095F8423003F0060348BF40F01000062BC2
:106B600008BF40F4C0700021FEF7D0F82146002293
:106B700042F20100FEF782F9044600287FF456AF86
:106B80002B7F9A0621D4B5F88810F1B908AA41F2F2
:106B90000500FEF773F9044600287FF447AFB5F807
:106BA00088307BB9089B67489B6899785A7842EA95
:106BB0000122A5F888209A88032A28BF03221146BB
:106BC00013F06AFD089811F0ABFD082140F6014072
:106BD000FEF7AEF80446002856D00821084411F00C
:106BE000D1FD95F87830DB07024640F1A08052A134
:106BF000D1E90001FEF78AF82146002240F6014063
:106C0000FEF73CF9044600287FF410AF014603AAC2
:106C10004FF60140FEF732F94B4EDFF84481002871
:106C200000F0A08002234FF0000263F30202A6EB03
:106C3000080364F3C502DB084449454863F38F1237
:106C4000FCF74EFBEF79002F40F02781FFF796FD10
:106C50000446002800F01F8101234FF0000263F377
:106C60000202A6EB080667F3C502F60866F38F1268
:106C700038493948FCF734FBD8E6022140F66D402C
:106C8000FEF756F8064610B96FF03604CEE602213C
:106C9000083011F077FD012344700370224631461D
:106CA00040F66D40FEF7EAF8044600283FF407AFCF
:106CB000BCE608AA002142F22F00FEF7DFF80446E6
:106CC00000287FF4B3AE08988368B3F80180B3F866
:106CD000037011F025FD042142F22400FEF728F88C
:106CE00006460028D0D00421083011F04BFD224682
:106CF000A0F800804780314642F22400FEF7BEF83B
:106D0000044600283FF4F8AE90E608AA002142F2BB
:106D10002A00FEF7B3F8044600287FF487AE0898EF
:106D200083685B7885F8A43011F0FAFCE9E60B483B
:106D30004FF000515EE700BF908800020080002005
:106D4000B0C70020C4C7002050B4010047DE0100D6
:106D50003EE1010053DE01002AE20100108800023A
:106D6000E0B30100039B9F684FF00001032363F32E
:106D70000201B7F80130A6EB0804032B96BF5E4A68
:106D80005E4A52F8232060F3C501C4F3C90464F3DA
:106D90008F11ADF800105A485A49FCF7CEFA032378
:106DA0004FF00001B7F8012063F302016FF3C50152
:106DB000022A64F38F11B7F8033042D1022B40D876
:106DC000514A52F82320ADF8001050484D49FCF7C5
:106DD000B4FA03224FF0000362F30203494A089217
:106DE0007A790A92032A96BF4949444951F82210F8
:106DF0000991BA790B92B7F807200C92D7F80920BD
:106E00000D926FF3C50364F38F13062208A941485E
:106E1000FCF7B0FA039811F083FC03AA00214FF6A7
:106E20000240FEF72BF8074668B14FF0000202233C
:106E300063F302026FF3C50264F38F1231493648DF
:106E4000FEE62E4ABFE7039B3448996802220131CF
:106E5000FDF747FA039811F063FC03AA39464FF691
:106E60000340FEF70BF858B14FF00002022363F322
:106E7000020267F3C50264F38F1222492848DFE655
:106E8000039B2848996801221144FDF72AFA0398C8
:106E900011F046FCD6E6FEF78BFD01F0CBF8044678
:106EA00000287FF4C3AD10211F480FF0FFFA0446FD
:106EB00000287FF4BBAD02274FF0000267F3020207
:106EC000A6EB080660F3C502F60866F38F121749B1
:106ED0001748FCF705FA1749174813F08FFD394694
:106EE0001648FDF73EFDEB79002B3FF49FAD0421E2
:106EF0001248FDF736FD99E588E70100CCE801006E
:106F000066E1010047DE01007CE7010083E101004A
:106F1000BCE801009FE10100D0E1010099C7002019
:106F2000FDE1010098C7002010C8002071DE0100BB
:106F30004DE201000150000020C80020A8C7002039
:106F400010B5FFF7ADFC034B1B6813B1BDE8104053
:106F5000184710BD2C790020F0B5344ED6F8D43047
:106F600087B00746ABB901214FF0000261F302027E
:106F700063F3C5022E492F4B2F485B1ADB0863F3DE
:106F80008F122E49FCF7ACF96FF01205284607B0B6
:106F9000F0BD012106F17000FDF7E3FC10F00104E3
:106FA00041D12748FFF74CFB264B27491F606FF064
:106FB00008034FF4207203930594244B0494029425
:106FC00001940094224813F043FCFDF713FCD6F81B
:106FD000D430DB689847054690B101224FF000039A
:106FE00062F302031249134A521A64F3C503D2082A
:106FF00062F38F13114902461648FCF785F9C5E77D
:1070000027B907B0BDE8F040FFF74ABC012106F1FF
:107010006C00FDF7A6FCC307B8D406F164010E4866
:1070200013F038F8B2E76FF04405AFE738C7002037
:10703000E0B3010050B4010054DF01007ADE01002A
:1070400071DF01002C790020889E0020E14A0000B9
:107050003079002077DF01000C92002008B505F0A0
:107060009BF918B14089003018BF012008BD00000D
:107070002DE9F0437F4E054699460078F37989B0B3
:1070800083420C461746DDF8448005D86FF015049E
:10709000204609B0BDE8F083C0EBC0000023072202
:1070A00002A930440293CDF80B30FDF705F9002812
:1070B000ECD06B78DA0705D4327C082A02D86A88CB
:1070C0009F2AE3D9DB0602D4B8F1000F08D16A8801
:1070D000AB889A42DAD81F2AD8D9B3F5804FD5D8D1
:1070E00006216548FDF7F0FD10B16FF04404CFE7CD
:1070F000B8F1000F34D00F22002104A8FDF71DF9CC
:107100006B882F78ADF81030AB883772ADF812303D
:107110006B78072013F001048DF81D0003F00403C1
:107120002FD1002B00F09B804FEAC708A8EB070384
:10713000F35C012B05D110FB07303044FDF706FF4F
:107140000446A8EB0707F35D8DF81530002C9FD19E
:10715000B9F1000F00F0898002238DF8143037E078
:107160006B78C3F3C00203F0010301920093204641
:10717000109B4A463946FEF72FF804460028BAD03D
:1071800086E7002B5BD13846FDF70CFF044600284C
:107190007FF47EAF96F878305C064CBF0323012362
:1071A0008DF81530B8F1000F56D06B78D8064CBF6B
:1071B000042301238DF81430D8F80030CDF81630B0
:1071C000B8F80430ADF81A3098F806308DF81C3055
:1071D0000F2142F20600FDF7ABFD0446002846D021
:1071E0000F2204A9083011F0D3FA2146002242F2FE
:1071F0000600FDF743FE044600287FF449AF012056
:10720000FDF77AFE044600287FF442AF6B789907B9
:1072100004D44FF400711848FDF7A3FB6B781A07EC
:1072200003D580211448FDF79CFB6B78DB077FF5C5
:107230002FAF4FF480711048FDF793FB28E7FC0057
:10724000E31BF35C012B04D110FB07303044FDF746
:107250007DFEE71BF35DA3E78DF81480B8E73846A1
:10726000FDF7A0FE012304466EE7032375E76FF0E8
:1072700036040DE738C70020A8C7002013B54478AE
:1072800014F0100406D10194049C0094FFF7F0FE62
:1072900002B010BD6FF01500FAE7000008B56FF4FA
:1072A00000710748FDF746FB06210548FDF70CFD78
:1072B00020B10020BDE80840FDF71EBE08BD00BF9C
:1072C000A8C7002038B50546054811F0F9F904466D
:1072D00020B10021083011F012FA2575204638BD82
:1072E000F8CD002010B501464FF02003EFF31180D8
:1072F00083F311880B4A0023D2F8C040C2F8C03093
:1073000080F3118824B90120BDE81040FFF7DABFEF
:10731000012204F108002275A381194611F0EFF94A
:10732000204610BD38C700202DE9F0412E4F97F8B8
:10733000423003F00603062B804615D002234FF09F
:10734000000263F302022949294B2A485B1ADB0831
:107350006FF3C50263F38F122749FBF7C1FF6FF08C
:1073600022042046BDE8F081244D2B68436028604C
:10737000202107F17000FDF7F4FA10F0200601D08B
:107380000024EEE76FF0100107F17000FDF7D2FA6C
:107390003246314642F22500FDF770FD0446C0B189
:1073A00001234FF0000263F302021049104B14480E
:1073B0005B1ADB0866F3C50263F38F120E49FBF715
:1073C0008FFF6FF0200107F17000FDF7B3FA2E6018
:1073D000C7E72C68002CD3D0444502D02368002096
:1073E00098476468F6E700BF38C70020E0B30100A3
:1073F00050B4010065E20100ACDE010028790020F4
:1074000088E20100F8B51A4C236807460A4613B112
:107410006FF00F00F8BD05211648FDF755FC064634
:107420000028F5D104211348FDF74EFCE0B14021BE
:1074300042F226002260FDF77BFC054618B9206069
:107440006FF03600F8BD4021083011F09BF9402262
:107450003946FCF746FF3246294642F22600FDF740
:107460000DFD18B12660F8BD6FF03000F8BD00BF0B
:10747000E4780020A8C7002038B5064B1C680546F4
:1074800004B938BD236813B1297B28469847A469FD
:10749000F6E700BFA0790020BFF35B8F0068BFF361
:1074A0005B8F7047C38910B504462BB1006911F09A
:1074B00037F900232361E38110BDBFF35B8F50E8F0
:1074C000003F5A1E40E800210029F8D1BFF35B8F2E
:1074D00018467047BFF35B8F50E8003F5A1C40E8E6
:1074E00000210029F8D1BFF35B8F184670470000D8
:1074F00000487047C4C70020031D70B504461846F5
:10750000FFF7CAFF820519D5B4F85E20B4F8601001
:10751000914213D8B4F8621091420FD3616EA26EFB
:1075200091420BD1BFF35B8F53E8002F22F400721E
:1075300043E800210029F7D1BFF35B8F074B1D689B
:1075400005B970BDEE683EB1B4F86630B4F8642099
:10755000B4F85E102046B047AD69F1E7A07900208D
:10756000F8B5074608460E46FDF7F2FF054610B986
:1075700000252846F8BD094B1C68002CF9D0A368EB
:107580000BB9A469F9E73146384698470028EFD08F
:107590003046FDF7DDFF0028F3D1E9E7A0790020B0
:1075A000F8B5C37804463BB900F15606084B1D6890
:1075B00004F148071DB9F8BD00F14F06F6E72B6945
:1075C0001BB13A46314620469847AD69F2E700BF05
:1075D000A079002038B5064B1C68054604B938BDB3
:1075E000636913B1697A28469847A469F6E700BF32
:1075F000A0790020024B1A6882611860704700BFB2
:10760000A0790020012AF7B504460D46164624D07D
:10761000022A40F091808B681E88C3899BB10123A8
:107620004FF0000263F302025049514B51485B1A7C
:10763000DB086FF3C50263F38F124F49FBF750FE6F
:107640002046FFF72FFFAB89F31A04339BB2E38187
:10765000002B57D0256103B0F0BDC389C3B94FF0EB
:10766000000266F3020263F3C5024049404B4348FF
:107670005B1ADB08404963F38F12FBF731FE2046AB
:10768000FFF710FF284603B0BDE8F04011F048B8FE
:107690008F89BB420ED23549354B39484FF0000235
:1076A0005B1A66F302026FF3C502DB0863F38F1205
:1076B0003149E2E70069083011F097F887420ED9A6
:1076C0002A492B4B2F484FF000025B1A66F3020247
:1076D0006FF3C502DB0863F38F122749CDE72069FA
:1076E000AA89A968083011F053F8E389AA899B1A7E
:1076F000E381284611F014F8E389002BABD125690A
:10770000E3812361AB681A88AB89111D994225D0AA
:1077100001214FF0000061F30200144C1449091BD1
:10772000C9086FF3C50061F38F10ADF8000012496E
:107730001548FBF702FEA5E701214FF0000361F3B6
:1077400002030A480A49091AC9086FF3C50361F31D
:107750008F130E480849FBF7D7FD90E729462046CE
:1077600003B0BDE8F04000F063BE00BFE0B301002D
:10777000E8B3010020E90100D4E8010041E901007B
:1077800063E901007BE90100C8E90100A6E9010005
:10779000437B042B10B50C4616D001234FF000029A
:1077A00063F302020B490C4B0C485B1ADB086FF3C6
:1077B000C50263F38F120A49FBF792FD204610F0D1
:1077C000AFFF6FF0380010BD4A612C3010F09BFF06
:1077D000002010BDE0B30100E8B30100E8E90100BA
:1077E000E1E801002DE9F0410D4D064600F11C07CE
:1077F0004FF000080021384612F070FC044608B92A
:10780000BDE8F08163680BB1304698472B68236070
:107810006B68C4F804802C60002BEBD16C60E7E748
:10782000547A00202DE9F04105460F4646484FF0B6
:10783000FF319846144612F05FFF444B03F14400B9
:10784000FFF72AFE30B15A7B043A012A02D81846C3
:10785000FFF7C8FF697B04295AD107F1080010F02F
:10786000A8FF2A883A4E42EA04320280BB89346873
:1078700071687A69043B438002233B752368336057
:107880008C4208BF736062604FF02003EFF31182F7
:1078900083F3118800232360AB69002B46D1AC61D0
:1078A0006C6182F311883846FEF714F90121024613
:1078B000002847D04FF0000361F302032548264912
:1078C000091AC9086FF3C50361F38F1323482449CC
:1078D000FBF71AFD4FF02003EFF3118183F31188BA
:1078E0006B69002253B19C4229D123680ABBAA6963
:1078F0006B61944200D1AB610023236081F3118856
:1079000000236360336823607368346003B9746074
:107910000D4812F0CAFEB8F1000F04D0384610F03E
:10792000FFFE4FF000084046BDE8F0811C60AC61EE
:10793000B7E71360AB699C4208BFAA61DCE71A464F
:107940001B68CFE78846EEE7C4C70020BC7900205B
:10795000547A0020E0B30100E8B30100C2E6010060
:10796000F1E8010038B5044600F12C050021284655
:1079700010F0ACFE58B92046FFF734FF2046FFF761
:1079800091FD04F14400BDE83840FFF796BD10F0CA
:10799000C7FEEBE738B51F4B002201219A60044671
:1079A00013F02AFB1C4B03F14400FFF775FD194649
:1079B00008B9012038BD5A7B9AB9BFF35B8F1A1DF5
:1079C00052E8000F20F0400542E8005EBEF1000FD3
:1079D000F6D1BFF35B8F420603D51846FFF7C2FF0F
:1079E000E7E74D7B042DE4D1294604F114000B4B4D
:1079F000002213F001FB012384F8203004F1280059
:107A0000074B0022294613F0F7FA022384F834309A
:107A1000032038BDD8C80020BC790020D8790020C8
:107A2000E87900202DE9F041194C04F14407804623
:107A30003846FFF731FD054610B10020BDE8F08162
:107A40000146982220460126FCF777FCBFF35B8FA6
:107A500057E8003F47E80062002AF9D1BFF35B8F87
:107A60000722414604F14800FCF73BFC1823A4F828
:107A70006030282304F178006672A672A570A4F81D
:107A80006230044912F0BAFF2046BDE8F08100BF21
:107A9000BC790020217E0000F8B5457B8D4204466C
:107AA0000E4611D102234FF0000263F30202534944
:107AB000534B54485B1ADB086FF3C50263F38F1214
:107AC0005149FBF70DFCF8BD617315B94430FFF760
:107AD00001FD637B052B7DD8DFE803F01D7B7B7BFD
:107AE000037BA378022B74D004F12C0012F0CAFAA5
:107AF00004F11C0012F0C6FA0021444813F024FBE4
:107B000000232046E363236400F050FB2046BDE8D9
:107B1000F840FFF7B1BCA378022B05D104F1440073
:107B2000BDE8F840FFF7C9BC2B1F012B43D8204606
:107B300000F076FB364B1D68EDB9364E364F4FF0F0
:107B40002003EFF3118183F3118863692BB1A069DE
:107B50001A686261834208BFA26181F311888BB108
:107B600032681A6072685D60336002B973603846CB
:107B700012F09BFDE3E76B6813B1217B2046984729
:107B8000AD69D9E7A3781BB904F1780012F03FFF83
:107B9000BFF35B8F043454E8003F43F0400344E8F4
:107BA0000032002AF7D1BFF35B8F00211748BDE8F0
:107BB000F84013F0C9BA032D03D12046FFF75CFC4F
:107BC000ACE7012D03D1237B002BA7D0F5E7022DD5
:107BD000F9D0F8BD02224FF0000362F30203084817
:107BE000064A0949801AC0086FF3C50360F38F1372
:107BF00032460A48FBF788FBEBE700BFE0B3010021
:107C0000E8B30100FBE901000EE90100D8C800203B
:107C1000A0790020547A0020C4C700200DEA01009A
:107C200010B50B4C024604F14400FFF735FC68B177
:107C3000637B043B012B08D82388934205D104F1D0
:107C40004400FFF747FC204610BD002010BD00BFD8
:107C5000BC79002038B50D46044600F148010722E2
:107C60002846FCF729FB60B1E378072233B904F119
:107C700056012846BDE83840FCF71EBB04F14F0111
:107C8000F7E738BD10B50D4C034604F14400FFF78B
:107C900003FC08B9002010BDA278002AFAD1227A8C
:107CA0009A42F7D12046FFF7D5FF0028F2D104F120
:107CB0004400FFF70FFC204610BD00BFBC79002038
:107CC00038B50E4C034604F144000D46FFF7E4FBC3
:107CD00008B9002038BDA278002AFAD13BB9637BED
:107CE000AB42F6D10648FFF7F5FB044838BD19460C
:107CF0002046FFF7AFFF0028EBD1F0E7BC7900206A
:107D0000007A00204430FFF7D8BB437B013B70B5BD
:107D100004460E46042B04D8DFE803F0070D0B15CC
:107D20000B006FF03805284670BD21730021FFF766
:107D3000B3FE0025F7E721730021FFF7ADFEBDE894
:107D40007040FFF7ABBA032140F20640FCF7F0FFAA
:107D5000054698B10321083010F014FD23880380F4
:107D60008670294640F20640FDF712F805460028C5
:107D7000D9D105212046FFF78FFED4E76FF03605F5
:107D8000D1E7F8B507460D4642F213000E21FCF785
:107D9000CFFF0646C8B10E21083010F0F3FC0021D9
:107DA00004460E22FCF7C9FA3B8823802B886380A7
:107DB0006B88A380AB88E380EB882381314642F255
:107DC0001300BDE8F840FCF7E3BF6FF03600F8BDE4
:107DD00038B5124B93F878300D469907044607D40E
:107DE000E37873B129462046BDE8384000F06ABB0D
:107DF00090F86C309A07F3D50430FFF74DFB43053C
:107E0000EED429462046FFF7BCFF30B9AB88A4F872
:107E10006830EB88A4F86A3038BD38BD38C7002018
:107E20001FB5A0F17802A0F17404BFF35B8F54E892
:107E3000003F23F4007144E8001EBEF1000FF6D1AC
:107E4000BFF35B8F9B0521D530F8183CADF80030AF
:107E500030F8163CADF8023030F8103CADF8043084
:107E600030F80E3CADF8063069461046FFF7B0FF1B
:107E7000BFF35B8F54E8003F43F4807344E8003263
:107E8000002AF7D1BFF35B8F04B010BD0349086827
:107E9000496802AB03C302A9E7E700BF04B50100CC
:107EA00038B5084B0D46002808BF18464FF0FF3183
:107EB00010F006FC291D0446083010F020FC204676
:107EC00038BD00BF98CD00202DE9F04106460C4694
:107ED00016480021FFF7E4FF3378042B05464FF0E6
:107EE000000605D010F01CFC35462846BDE8F081A0
:107EF000466100F108070E4E3846B6F8888010F04B
:107F000074FC80450CD2B6F8886054F8081F3246DD
:107F1000384610F03DFC3146204610F052FCE4E7B4
:107F2000384610F062FC86B2EFE700BFB8CD002003
:107F300038C70020F8B5437B054693B9BFF35B8F84
:107F4000031D53E8002F22F0400143E80014002CE9
:107F5000F7D1BFF35B8F530603D5BDE8F840FFF7B9
:107F600001BD002105F12C0010F0B0FB0446B0B9B2
:107F700001234FF0000263F302022349234B5B1AF3
:107F8000DB0860F3C50263F38F1221492148FBF738
:107F9000A7F9404080F311884FF0040002DF1E4E25
:107FA0008189B6F88820914207D800231A462146D5
:107FB0002846FFF737FC40B1F8BD05F10D07014633
:107FC0003846FFF781FF014620B92046BDE8F8405A
:107FD00010F0A6BB012300222846FFF723FC00284F
:107FE000F3D0A289B6F888309A4202D80023012241
:107FF000DDE721463846FFF767FF01460028E4D059
:1080000001231A46E8E700BFE0B30100E8B301002E
:10801000FBE801008AE6010038C70020034BC01AC4
:10802000034BC0105843C0B2704700BFBC7900205A
:108030001BCA6B280D4A0E4B5068116810B51960A9
:1080400088B100240B49196108319B60116004B1AB
:10805000506001F09DFC04F0EBF8044608B900F014
:1080600067FA204610BD01241846EBE7547A002039
:10807000A4790020AC7900207047000010B50E4CA8
:108080000246206818B90D4A62600C6010BD0121DB
:108090004FF0000361F3020309480A49091AC908AD
:1080A0006FF3C50361F38F1307480849FBF72CF9F9
:1080B0006FF00B0010BD00BF5C7A0020F4C80020F8
:1080C000E0B3010068B40100ECEA010095EA0100A8
:1080D0007047000000238360054B596800F10802D7
:1080E00011B95A601A6070470A605A60704700BF41
:1080F000EC7A0020C36B10B513B1083B002203B922
:1081000010BD8B4203F108040FD199683AB9026C93
:10811000C163944200D1016400229A6010BD1160D5
:10812000016C8C4208BF0264F6E72246002CE7D0BF
:108130009B68002BE4D0083BE1E7036810B50446D8
:108140002BB143685B6803B1984700232360E36861
:108150001BB12046BDE81040184710BD38B50122BC
:108160004FF0000362F302030C490D4A521AA0F1CA
:1081700010040546D2086FF3C50362F38F13094953
:1081800009482246FBF7C0F855F8100C2146FFF7C6
:10819000B1FF2046BDE83840FFF7CFBFE0B3010094
:1081A00068B4010058EA0100C5EB01001A4B2DE943
:1081B000F7431C6806462CB10027DFF86080083CB6
:1081C000B94614B903B0BDE8F083636801A930462D
:1081D0009847002818DB019D23882B86A5F850308E
:1081E000414605F1100012F009FCAF60326C05F158
:1081F000080372B93364F36301982E604368C5F8CD
:108200000C901B6803B19847A468002CDAD0083C96
:10821000D7E713603364EFE7EC7A00205D8100005C
:10822000C36B10B5A3B1B3F108000AD110BD083C6F
:10823000FFF783FF64B1A36803B1083B20461C46E7
:10824000F6E71C68002CF2D1BDE81040FFF775BFBF
:1082500010BD38B5C46B0D460CB1083C04B938BD2F
:1082600063689B6813B1294620469847A468F3E7E2
:108270000431FFF715BEF8B5144605460F4602F166
:10828000080004211E4610F094FAA18947800439A1
:108290000180324621462846BDE8F840FFF778BA0B
:1082A0002DE9F3418B89032B06460F4611D8012394
:1082B0004FF0000263F302024449454B45485B1A04
:1082C0006FF3C502DB08444963F38F12FBF708F82C
:1082D0001DE00846042150F8084F658810F071FA37
:1082E000BA89954217D001234FF0000063F30200D2
:1082F0003749364BC91AC9086FF3C50061F38F10AF
:10830000ADF800002B4634493448FBF716F800203E
:1083100002B0BDE8F08163787BB901214FF0000223
:1083200061F3020263F3C5022849294B2C485B1A0A
:10833000DB0863F38F122849C8E72278012AE6D0C8
:10834000132A11D1012DE2D801234FF0000263F36B
:1083500002021E491E4B23485B1A6FF3C502DB085D
:1083600063F38F122049B1E71848194902254FF0ED
:10837000000365F30203091AC9086FF3C50361F32B
:108380008F131A481449FAF7BFFF04210020D6F8CA
:1083900000806478FFF784FD00F108070646042199
:1083A000384610F0EFF90123447000240370857003
:1083B000C4702946384610F0E5F92346047044702D
:1083C000324605214046FFF756FFA0E7E0B3010023
:1083D00068B4010017EB01007CEA010039EB0100F1
:1083E0005EEB010083EB01006AEA0100A3EB0100F0
:1083F000C06B00B1083800B97047B0F850308B42FC
:10840000FAD083680020002BF6D0A3F10800F2E731
:10841000C06B00B1083800B97047038E8B42FBD0A7
:1084200083680020002BF7D0A3F10800F3E70000D9
:1084300070B58B89032B06460C4615D801234FF0E7
:10844000000263F302021A491A4B1B485B1A6FF3CE
:10845000C502DB0863F38F121849FAF741FF204683
:10846000BDE8704010F05CB90846042150F8083FA0
:108470005D8810F0A6F929463046FFF7C9FF90B98C
:1084800002214FF0000361F302030A4A0849521A1D
:1084900060F3C503D20862F38F13084908482A46DF
:1084A000FAF732FFDBE7436821461B699847D6E7B6
:1084B000E0B3010068B40100A2EA010087EA01000C
:1084C000C3EA01002DE9F041184B1A78013212F08D
:1084D000FF0208BF01220C461A7005460421002045
:1084E0001E78FFF7DDFC00F108080746042140462E
:1084F00010F048F91223467008210026037081709D
:10850000C670404610F03EF923880380638843809C
:10851000A3888380E388C3803A46284633460521F2
:10852000FFF7A9FE3046BDE8F08100BFE87A0020E1
:108530000148FFF7CFBD00BFE8C8002010B50A4AC8
:10854000002312F8334084424FEAC30102D10A44A7
:10855000907810BD01330E2BF3D110F0400F14BFF3
:108560000020062010BD00BF38EE010070B5144D8C
:108570002C6802460E467CB92146E4222846FBF7C9
:10858000DCFE104B6B60022205F1BC00114612F0BC
:1085900083F83560204670BD01214FF0000361F380
:1085A000020309480949091AC9086FF3C50361F3B1
:1085B0008F1307480749FAF7A7FE6FF00B0070BD4D
:1085C000F47A002014C90020E0B30100E0B30100F8
:1085D00042ED010086EC010010B50446006908B1C7
:1085E00010F09EF8A3680BB1204698472046182249
:1085F0000021BDE81040FBF7A0BE8B6870B50546B2
:108600000C460E6863B948680121083010F0BAF8CA
:108610002B68A0601B78002B0CBF01230223037082
:10862000A3681B78012B03D0022B1AD0002070BD49
:108630002B681B78002BF9D160680421083010F0FA
:10864000A1F8E0602B8A03802B685B884380636815
:10865000B6F852009B89C01A042894BF002001205C
:1086600070BD2B681B78022BE0D1606812210830A6
:1086700010F088F8E06029682B8A20F8023B10226D
:108680000131FBF72EFE6368B6F852009B89C01AD1
:108690001228E2E72DE9FF410D6806460C464FF02F
:1086A00000084FF4205302A900682F688DF8088055
:1086B000ADF80A30FCF7F6F898B142F6010303A9C9
:1086C00030688DF80C80ADF80E30FCF7EBF840B157
:1086D000236923B1328A5988914200D25A800120FD
:1086E00012E061683068FCF7DDF810B10023236107
:1086F000F5E7E368A0681A784AB1B5F85230818985
:108700005B1A934203DA002004B0BDE8F081042133
:10871000083010F037F8338AA16820610380438065
:108720008A89B5F852308968D6F804809B1A0025EA
:108730000A44009531469BB23846C047011EE2DB31
:10874000E06802780B1D2AB90370A068083010F0A9
:1087500019F8C4E79A42F8D0A2689389043B938140
:10876000D1E72DE9F0410E6888B005460C46002798
:1087700042F6010302A90068D6F800808DF808705F
:10878000ADF80A30FCF78EF828B90023A360012069
:1087900008B0BDE8F0814FF4205303A928688DF894
:1087A0000C70ADF80E30FCF77DF840B1A368002BDB
:1087B000EDD02A8A59889142E9D25A80E7E7626867
:1087C000B6F8523092899B1A032BE1D910230090FE
:1087D0000DEB03026E6829464046B047021ED4DB0B
:1087E000237C9A42D1D104A9E068FBF765FD0028FB
:1087F000CBD160746068042108300FF0C3FF2B8A6E
:10880000A06003804380C2E710B50446D43011F065
:1088100039FC1723A4F85230638604F19C00064902
:1088200012F0ECF80023C4F89430C4F898302068B3
:10883000BDE8104001F048BE858C000010B512F074
:10884000010F8B7C04D013F0150F18D04C68B4B115
:10885000940704D513F02A0F13D0896889B11A4000
:1088600012F0300F02D0437A022B0CD912F00C0216
:108870000BD0C37A002B14BF00200F2010BD0220A4
:1088800010BD032010BD052010BD104610BD2DE900
:10889000F7430F6806460C4600684968D7F8009011
:1088A000FCF700F8804600284ED115223146484694
:1088B000FFF7C4FF0546207548B1E3681D7815B180
:1088C00084F814804546284603B0BDE8F083A068CC
:1088D000022108300FF056FF338AA168206103801F
:1088E0008A89B7F852308968D6F8048000959B1AB7
:1088F0009BB20A4448463146C047011E08DA01F1DE
:10890000FF03FE2B9ABF4942C9B20E212175DAE757
:10891000E06802788B1C82B90370A06808300FF001
:1089200031FFA368B7F852509B89ED1AE3681B78B2
:108930009D42D4BF00250125C5E79A42EDD0A2682B
:108940009389023B9381BEE70125BCE708B5007817
:10895000FFF7F4FD0138C0B204289ABF024B53F868
:108960002000024808BD00BFF4EB0100D58C0000D8
:1089700010B58A89022A044603D0102A0AD00020A2
:1089800010BD0023037001F108000FF022FF60808A
:10899000012010BD022300F8013B8968FBF7A1FC10
:1089A000F6E7000010B50421FFF722FD0446BC30B5
:1089B00011F07BFED4F8903043B104F19C0147F2F2
:1089C00030520348BDE8104012F070B810BD00BF2F
:1089D0000C92002003685B7B042B0AD1BFF35B8FF2
:1089E000D0F88C00BFF35B8F6FEAA00000F00100AD
:1089F000704701207047000070B5054600F1BC06C5
:108A0000C5F890100C4630464FF0FF3111F074FE5F
:108A10002846FFF7DFFFB0B902234FF0000263F3EF
:108A200002021549154B5B1ADB0860F3C50263F3BC
:108A30008F1213491348FAF753FC304611F035FEF4
:108A40006FF0380070BD266906F108000FF0C9FE0E
:108A5000B389A081E38120692D680FF08FFE23691F
:108A600006469868FFF772FF3246034604212846FF
:108A7000FFF701FC002070BDE0B30100E0B301008E
:108A800008EC010008ED01002DE9F74304469C3095
:108A90001E460F46904611F0BAFFD4F890301BBB2B
:108AA00002214FF0000261F3020263F3C5021D4987
:108AB0001D4B1E485B1ADB0863F38F121C49FAF743
:108AC0000FFCD4F8941059B1D4F898200B68C4F86E
:108AD0009430914208BFC4F898302046FFF78CFFCD
:108AE000002003B0BDE8F083186928B10FF018FE2C
:108AF000D4F8903000221A61D4F890302068D3F86E
:108B0000049000255D603A46009331464346C847CD
:108B1000D4F8900043680BB9FFF75EFDC4F890509D
:108B2000CFE700BFE0B30100E0B30100EDEC0100CE
:108B300015EC01008A8989680023FFF7A5BF0000B2
:108B40002DE9F04104460D4631B1002205231146BE
:108B5000BDE8F041FFF798BF0668737A012B34D067
:108B6000D0F890308BB31B7D7BB300F1BC074FF086
:108B7000FF31384611F0C0FD2046FFF72BFFA8B9A2
:108B800002234FF0000263F302021149114B5B1AFA
:108B900060F3C502DB081048104963F38F12FAF73F
:108BA0009FFB3846BDE8F04111F07FBDD4F890300E
:108BB0001F69B868FFF7CAFE3A46034604213046EB
:108BC000FFF759FBD4F890301D61BDE8F08100BF7C
:108BD000E0B30100E0B3010008ED010070EC01001A
:108BE000F7B5054600F1D4040021204611F076FACD
:108BF00010BB05F18C03BFF35B8F53E8002F42F0ED
:108C0000040243E800210029F7D1BFF35B8F05F18F
:108C1000BC04204611F049FD204611F046FDD5F870
:108C20009440A4B9D5F890300022C5F89420C5F836
:108C3000982023B903B0F0BD0FF072FDD4E70E23E6
:108C40001146284603B0BDE8F040FFF71DBF266877
:108C500067682FB1002300941A460E211846B847C2
:108C60002046FFF7B9FC002EDCD034463668EFE72B
:108C700010B50446FFF7B4FF2068BDE8104001F0CE
:108C80002DBC000001234FF0000263F302020D49E6
:108C90000D4B5B1ADB0810B56FF3C502044663F396
:108CA0008F120A490A48FAF71BFBA4F19C00FFF750
:108CB00097FF54F89C0C01F011FC002344F89C3CF5
:108CC00010BD00BFE0B30100E0B3010064EC01009F
:108CD00032ED010008B50421FFF78AFBBDE808402A
:108CE000BC3011F0E2BC08B50421FFF781FBBFF3F3
:108CF0005B8F00F18C0353E8002F22F0010243E860
:108D000000210029F7D1BFF35B8FBC30BDE80840DC
:108D100011F0CBBC08B50421FFF76AFBBFF35B8FF2
:108D200000F18C0353E8002F22F0020243E80021F7
:108D30000029F7D1BFF35B8FBC30BDE8084011F0CC
:108D4000B4BC0000417B042910B512D002234FF0BF
:108D5000000263F302021E491E4B1F485B1A6FF3A9
:108D6000C502DB081D4963F38F12FAF7B9FA002038
:108D700010BDFFF74DFB044690B901234FF00002F0
:108D800063F302021249134B5B1A60F3C502DB085E
:108D900063F38F1211491248FAF7A2FA204610BD68
:108DA000BFF35B8FD0F88C30BFF35B8F5B07F5D5DB
:108DB00002234FF0000263F302020549054B094804
:108DC0005B1A6FF3C502DB0863F38F120349CCE72C
:108DD000E0B30100E0B3010094EC010045EC0100B8
:108DE000A6EC0100C5EC01002DE9F3410F680C462B
:108DF000064601462A223846FFF720FD0546207523
:108E000010BB237AD6F80880002B14BF0022022260
:108E10000192628A0092237CE26831463846C0475C
:108E2000002802DB237C98420BD000F1FF03FE2BCD
:108E30009ABF4042C0B20E202075284602B0BDE85D
:108E4000F08125750125F8E70025F6E72DE9F743C0
:108E500006468868D1F800900C4608300021D9F801
:108E600000800FF08FFC0027E06027741522314648
:108E70004046FFF7E3FC0546207408BBA168B9F83B
:108E800052308A898968A08800909B1A77680A44C2
:108E90009BB231464046B847011E0BDA01F1FF0391
:108EA000FE2B9ABF4942C9B20E212174284603B055
:108EB000BDE8F083A06808300FF064FC0125F5E7F9
:108EC0003D46F3E7F7B50F680C46064601462A22F1
:108ED0003846FFF7B3FC0546207400282ED1B37C3A
:108EE0005B0615D501220192E28900923846237B68
:108EF000A268B7683146B84750B100F1FF03FE2BB6
:108F00009ABF4042C0B20E202074284603B0F0BD84
:108F100000210B480FF0D4FB606010B909232374C3
:108F2000F3E7338A8382E389C382227BA168083016
:108F30000FF02EFC002323740125E6E70025E4E76B
:108F400018CE002037B50D461446FFF7FBFE30B3B0
:108F5000B0F85220631C934216D902214FF0000052
:108F600061F302000F4C1049091BC9086FF3C500DB
:108F700061F38F10ADF800000C490D48FAF7DDF9E8
:108F80000024204603B030BD00210846FFF770F9E9
:108F90000121044608300FF0F5FB0570F1E70446A7
:108FA000EFE700BFE0B30100E0B3010052EC0100C5
:108FB0006BED01002DE9F0418B681D88162D0646EA
:108FC0001FD9D0F80080022203214046FFF7BAFFE4
:108FD0000746C8B1022108300FF0D4FB002441231A
:108FE000037044700A4B40463A460421FFF743F9A8
:108FF000412D28BF41257586A6F852502046BDE870
:10900000F0810420BDE8F0810E20BDE8F08100BFB2
:10901000E78C00002DE9F041884617460121042223
:1090200005461E46FFF78EFF044680B10421083036
:109030000FF0A8FB80F80080C670A0F801702246EF
:109040002846044B0421BDE8F041FFF714B9BDE800
:10905000F08100BFE78C0000F7B58B8904460F460E
:109060009BB901214FF0000261F3020263F3C502D4
:109070005B495C4B5C485B1ADB085C4963F38F120D
:10908000FAF72EF9002003B0F0BD0846012150F890
:10909000085F0FF096FB56492A780023084611F81E
:1090A000336096424FEAC30E24D171448E78012E6C
:1090B00043D1BFF35B8F04F18C0252E8003F43F0D1
:1090C000010142E8001CBCF1000FF6D1BFF35B8F39
:1090D000DA0755D502234FF0000263F3020240493C
:1090E000404B44485B1A6FF3C502DB0863F38F12F1
:1090F0003E49C5E701330E2BD1D102214FF00003C9
:1091000061F3020336483749091AC9086FF3C503EA
:1091100061F38F1338483549FAF7F6F82D78284669
:10912000FFF70CFA0028ADD0002DABD006230022AB
:1091300029462068FFF76EFFA4E7052E20D1BFF374
:109140005B8F04F18C0252E8003F43F0020142E8D9
:10915000001CBCF1000FF6D1BFF35B8F9B070FD54E
:1091600002234FF0000263F302021D491D4B234806
:109170005B1A6FF3C502DB0863F38F121B497FE7AD
:1091800000EB0E03BA895978914218D901234FF0A8
:10919000000163F302011248124B1B1ADB086FF344
:1091A000C50163F38F1116482B78ADF800100F49F5
:1091B000FAF7C3F8012E7FF465AF04230AE05B6879
:1091C000394620469847012E03467FF45BAF0028BE
:1091D0003FF458AF297800293FF454AF0022A8E7A4
:1091E000E0B30100E0B3010094ED010039EC0100AF
:1091F00038EE0100B3ED010019EE0100D3ED0100DE
:10920000F6ED01002DE9F04186B0904605460E4688
:109210001822002168461F46FBF78FF8B8F1000FAF
:1092200020D1BDF83030ADF812300D9B03939DF87E
:1092300038308DF8103001238DF814301A4A00951B
:109240006B46394638468DF8086001F04FF89DF8B6
:1092500014408CB9019AB2B1144B04212846FFF78F
:109260000AF811E0002241462846FFF76BFE019004
:109270000028D6D10E2407E0B8F1000F0FD00198D6
:109280000FF04EFA26B90024204606B0BDE8F08162
:109290009DF814303A4631462846FFF7BBFE182E9B
:1092A000F1D19DF81440EFE7E98D0000E78C000054
:1092B00030B5056885B001F108000C460FF089FA59
:1092C000034660B1227B0292A268019200220092C2
:1092D000122113222846FFF795FF05B030BD01206B
:1092E000FBE730B5056885B001F108000C460FF0CA
:1092F00070FA034658B1227B0292A26801920022C2
:10930000009211462846FFF77DFF05B030BD0120D1
:10931000FBE700002DE9FF410C46076854F8083FC1
:109320000D4620460121B3F800800FF042FA29468D
:10933000384602F02DFE0646A0B101234FF0000290
:1093400063F302021549164B16485B1ADB086FF3EC
:10935000C50263F38F121449F9F7C2FF002004B06D
:10936000BDE8F081012120460FF02BFA02212046B2
:109370000FF027FAB8F1000F0DD02B7B00960C3BB5
:10938000DBB20293AB68019332464346314638461E
:10939000FFF738FFE3E70120E1E700BFE0B301009A
:1093A000E0B3010019ED010024EC01002DE9F043C8
:1093B00080468B6858F8D46B93F8009085B00024F1
:1093C000002140460FF082F9054680B97CBB224659
:1093D00019213046FFF7B6FD024650B3164B042163
:1093E0003046FEF748FF204605B0BDE8F083C4B91B
:1093F000B9F1010F15D1AB8ABBB12A7B0292AA68E1
:109400000192EA8A0092182122463046FFF7FAFEBE
:10941000074630B13B46AA8A18213046FFF7FAFDCD
:109420003C4628460FF07CF9CAE74F46F2E704466F
:10943000D9E70E24D7E700BFE78C00002DE9F04FF5
:109440008346084687B050F8083FB3F800905C8820
:109450000D461FFA89F60421A2460FF0B2F9002E3C
:109460004DD01422002101A8D5F808802F7BDBF80D
:109470000050FAF762FF01238DF81430224AADF84C
:10948000124001AB314630460195CDF80C808DF885
:10949000107000F02BFF9DF8144054B12346324663
:1094A00016212846FFF7B6FD0024204607B0BDE888
:1094B000F08F02990BF1D4000FF025F92246172105
:1094C0002846FFF73FFD0290D8B1042108300FF085
:1094D00059F90646A0F80090A0F802A00298394673
:1094E00008300FF04FF93A464146301DFAF7F9FEC1
:1094F000064B029A04212846FEF7BDFED5E701245B
:10950000D3E70E24D1E700BFC58E0000E78C000032
:109510002DE9F0438B89062B8DB080460C4601D097
:10952000142B68D12046042150F8083FD8F8009049
:109530001D885E8802AF0FF044F921463846FFF7D8
:1095400017FA002859D0002D5AD00024002E56D0EA
:10955000B54255D84FF42053694638468DF800403F
:10956000ADF80230FBF79EF938BBD8F80090142212
:10957000002107A8FAF7E1FE012211214846FFF772
:10958000E1FC0990002838D0012108300897CDF877
:109590001C800FF0F7F800270A9007AB07701C4AF1
:1095A0000B973146284600F0A1FE0A9B1C78D4B9DF
:1095B00009980FF0B5F80A230CE042F6010301A95F
:1095C00038468DF80440ADF80630FBF76BF90028FB
:1095D000CBD010232A4610214846FFF71BFD20461A
:1095E0000DB0BDE8F0830B4B099A04214846FEF705
:1095F00042FE0024F3E70424F1E70E24EFE73546AA
:1096000001232A4610214846FFF704FDF1E700BF79
:1096100095860000E78C00002DE9F043046887B0D0
:10962000142206460D4601A80021FAF786FE002204
:109630000F212046FFF786FC039068B3DFF86090A7
:10964000019605F108074FF00108AB89012B06D8F8
:10965000124B039A04212046FEF70DFE18E038460F
:109660000FF0B7F801AB4A46014606468DF8148064
:1096700000F03CFE9DF81430002BE6D003980FF06C
:109680004FF89DF8143032460E212046FFF7C2FCF9
:10969000002007B0BDE8F0830E20FAE7E78C000059
:1096A0004D8E00002DE9F041074686B00C469046ED
:1096B0001D46A3B306681422002101A8FAF73DFE57
:1096C000002241463046FFF73DFC039048B3BDF809
:1096D0003030ADF8083001238DF81430124A01976C
:1096E00001AB2946284600F001FE9DF814707FB1B9
:1096F00003980FF015F83CB19DF814302A46214626
:109700003046FFF787FC0024204606B0BDE8F08114
:10971000064B039A04213046FEF7ADFDF3E7012422
:10972000F2E70E24F0E700BF4D8E0000E78C00004A
:1097300007B58A681388528800920C210D22FFF722
:10974000B1FF03B05DF804FB07B58B6800221B88EE
:1097500000920A210B22FFF7A5FF03B05DF804FB7E
:109760002DE9F0438B89062B8DB007460E4601D0BC
:10977000142B52D13046042150F8083FD7F80090FE
:109780001D885C880DF104080FF01BF83146404637
:10979000FFF7EEF898B1002D42D0002C3FD0A54243
:1097A0003ED818223E6800210DEB0200FAF7C5FDF5
:1097B000012209213046FFF7C5FB089008B90E24A5
:1097C00027E0012108300697CDF81C800EF0DAFF63
:1097D00000270A23099021460770144A8DF82C307F
:1097E000284606AB00F082FD9DF82C405CB108983D
:1097F0000EF096FF9DF82C302A4608213046FFF7E0
:1098000009FC002405E00A4B089A04213046FEF7C3
:1098100032FD20460DB0BDE8F0830424F9E725466B
:1098200001232A4608214846E9E700BF8F88000047
:10983000E78C00002DE9F04FD0F8009080460846F4
:1098400089B050F8083F8B4606211D885F889E88A6
:109850000EF0B7FF8246002D57D00024002F53D0C2
:10986000BD4252D84FF4205302A901A8ADF80660BA
:109870008DF804408DF80840ADF80A30FBF712F877
:10988000064648B10A232A4606214846FFF7C2FB8E
:10989000204609B0BDE8F08FD8F80090BBF80C4026
:1098A0001422314603A8FAF748FD324607214846FC
:1098B000FFF748FB049028B30A238DF81D30144AA3
:1098C0008DF81C4003AB39462846CDF80C80059630
:1098D000CDF818A000F00AFD9DF81D405CB1049879
:1098E0000EF01EFF9DF81D302A4606214846FFF760
:1098F00091FB0024CCE7074B049A04214846FEF76D
:10990000BAFCC5E70E24C3E73D460123ECE700BFE0
:1099100063870000E78C0000F0B58B6806681D883F
:1099200085B0074675B35C885CB3A5422AD810227F
:1099300000216846FAF701FD002205213046FFF7B5
:1099400001FB019010B90E2005B0F0BD21466B4619
:109950000D4A0097284600F0C9FC029C4CB90198BA
:109960000EF0DEFE0A232A4604213046FFF752FBA2
:1099700005E0064B019A04213046FEF77CFC0020EE
:10998000E2E725460123EEE7FB850000E78C0000B7
:1099900008B50348FEF79EFBBDE8084000F032BC66
:1099A00008C9002010B50C46D8B1D1B1FFF7CAF9EB
:1099B0000346C8B1D0F8902072B100202060D3F8DF
:1099C00098202AB9C3F89840C3F89440104610BDB7
:1099D0001460C3F8984010BD2146BDE81040FFF761
:1099E0000BB86FF0150010BD6FF0380010BD704758
:1099F00008600020704730B400234D681A46AA4220
:109A000008D10A899A420ED0CA680B815AB1194608
:109A100030BC10470C6804EB021401322489A342C5
:109A200038BF2346EBE730BC704710B4019BDC69BC
:109A30000A469969234610BC184770B592B015467E
:109A4000BDF858604122002101A81C46FAF775FCB8
:109A500066B9402C0DD82246294601A8FAF741FCE8
:109A600001A8FCF7EDFD204612B070BD6FF00600B6
:109A7000FAE76FF00C00F7E72DE9F0478A469146C8
:109A80001B219A1C80461E46FFF75CFA0446A0B9CB
:109A900002234FF0000263F302021549154B5B1AD3
:109AA000DB0860F3C50263F38F1213491348F9F71B
:109AB00017FC6FF00B00BDE8F08700F108070221EA
:109AC00038460EF05FFE0546314625F802AB3846B3
:109AD0000EF058FE324649462846FAF702FC404648
:109AE000089B22460421FEF7C6FB0020BDE8F08754
:109AF000E0B3010048B40100FBEE0100B0EF01004B
:109B00002DE9F7438B6981461E8A186800230C46AD
:109B10008DF8043001A942F60303ADF80630FAF7D8
:109B2000C1FE30B9A369DB681B799B0654D50136A9
:109B3000B6B2A28C1D2102324846FFF703FA054651
:109B4000B0B902234FF0000263F302022449254B0F
:109B50005B1A60F3C502DB0863F38F1222492348C6
:109B6000F9F7BEFB6FF00B04204603B0BDE8F083AD
:109B700000F10807022138460EF004FE8046A18C51
:109B800028F8026B38460EF0FDFDA28C216A404693
:109B9000FAF7A7FB0026164B25616360A6602146F5
:109BA0004846FFF7FFFE04460028DDD001224FF0B3
:109BB000000362F302030A490A4A521A66F3C50314
:109BC000D20862F38F130B4902460B48F9F79CFB4E
:109BD00028460EF0A5FDC7E76FF01504C4E700BFE7
:109BE000E0B3010048B4010011EF010067EF01008C
:109BF0002B9A000007EF010092EF010022490B6849
:109C000070B590E830005BB14B68002B3AD053F848
:109C1000042C53F8083C142606FB023333F8043CAA
:109C2000ADB2142202FB05450CB1AC4208D10023B1
:109C300000F108028360486800BB4A600A6070BD9A
:109C4000228A2AB901339AB2228214341346EBE7EE
:109C50009342FAD301214FF0000361F302030B4852
:109C60000B49091AC9086FF3C50361F38F1309483B
:109C70000949F9F749FB6FF0150070BD02604A60B1
:109C8000184670BD1B68FFDED87B0020E0B30100E2
:109C900048B40100DDEF0100BFEE010010B5174B25
:109CA000BFF35B8F03F14C0252E8004F44F0010E0A
:109CB00042E800ECBCF1000FF6D1BFF35B8FE20786
:109CC00002D4188559850AE01A8D824203D85A8D2C
:109CD0008A4201D310BD18855A8D8A42F2D3BFF350
:109CE0005B8FDB6CBFF35B8F9B0706D40A220449B2
:109CF0000448BDE8104010F0D9BE10BDE07B002044
:109D00000C7C00200C9200208268194B9A422DE9AD
:109D1000F04107460C4626D1C56800266B689E4276
:109D200021D229684FEA0618414401312046FDF747
:109D300091FFD8B92B6843441B89BBB129463846EB
:109D4000FFF759FE2C680B4B9C420CD14444A08970
:109D5000E18900B939B1FFF7A1FF0422002104F124
:109D60000C00FAF7EAFA0120BDE8F0810136D5E7E8
:109D7000319F0000347C00200D49BFF35B8F01F15F
:109D80004C0353E8002F22F0020243E80020002891
:109D9000F7D1BFF35B8FBFF35B8FCB6CBFF35B8FF0
:109DA000DB0704D500222C31024810F07FBE70473B
:109DB000E07B00200C92002013B5BDF81010104677
:109DC000022940F24132ADF806200DD8C1F102045B
:109DD0009C42A8BF1C460DF1060322461944FAF71F
:109DE00080FA204602B010BD6FF00604F9E713B503
:109DF00010461822BDF81010ADF800202822ADF84A
:109E000002200022ADF8042008294FF02A02ADF804
:109E100006200BD8C1F108049C42A8BF1C4622466C
:109E20006944FAF75EFA204602B010BD6FF00604EE
:109E3000F9E72DE9F04198461646BDF81850FCF7B1
:109E40003FFC0746FAF723FA83B2AB420DD35C1B03
:109E500044452346A8BF43469CB222467919304662
:109E6000FAF73FFA2046BDE8F0816FF00604F9E703
:109E70002DE9F347CE68BDF8287004469046994610
:109E8000002573689D420FD231684FEA051A51448C
:109E900001312046FDF7DEFE08B10135F1E73268F9
:109EA00052441389ADF8063073689D4204BF002305
:109EB000ADF80630022F0FD8C7F102044C45A8BFF9
:109EC0004C460DF106032246D9194046FAF709FA25
:109ED000204602B0BDE8F0876FF00604F8E737B51A
:109EE000C968BDF8185010460A7892B94A88ADF88A
:109EF0000620022D19D8C5F102049C42A8BF1C46B9
:109F00000DF1060322465919FAF7EBF9204603B082
:109F100030BD102D01F1010107D8C5F110049C429C
:109F2000A8BF1C4622462944EEE76FF00604EDE781
:109F30002DE9F04F85B08846BDF83810D8F80C50A0
:109F4000022981466BD8194402291F466ADC5378DE
:109F50001678002446EA03266B689C4207D22968DB
:109F600001EB041101314846FDF774FEC0B96B687E
:109F70009C4239D1A6B30024A3466B689C4219D2F7
:109F80002868CDF800B04FEA041A50440722694609
:109F90000130CDF803B0FAF78FF918B10134ECE7CE
:109FA0000134D9E728685044072209F148010130FB
:109FB000FAF797F96B689C4216D102234FF0000222
:109FC00063F3020219491A4B1A485B1ADB086FF354
:109FD000C50263F38F121849F9F782F96FF0100781
:109FE000384605B0BDE8F08F2B68240123441E815C
:109FF0002B89B34203D029464046FFF7FCFC002ED4
:10A00000EED1286802962044072202A90130CDF83B
:10A010000B60FAF766F92B681C442681E0E76FF0C5
:10A020000607DDE76FF00C07DAE700BFE0B30100D9
:10A0300048B4010049EF0100E4EE01002DE9F04FC2
:10A0400082682F4B9A4285B081460E464BD1C46838
:10A050002389002B47D0002501F1480B63689D42FE
:10A060000CD30222002104F10800FAF766F9E36834
:10A07000002B38D021894846984734E023684FEABE
:10A08000051803EB080ABAF8082062B1317A13F810
:10A09000082091420AF1010707D0394613F8080059
:10A0A000FDF7F0FDD0B90135D8E7394630460193C8
:10A0B000FDF7D0FD019B0028EFD15946307AFCF71F
:10A0C000CDFF8046B0B902900722CDF80B0002A95F
:10A0D0003846FAF706F9AAF80880E4E7437B042B30
:10A0E00005D1FDF70FFE012005B0BDE8F08FFDF7AB
:10A0F00009FED8E7072259463846FAF7F2F8D2E7C0
:10A10000319F00002DE9FF4705460C46002642F628
:10A11000021302A900688DF80860ADF80A30FAF75A
:10A12000C1FB78B142F6030328688DF80C6003A9DF
:10A13000ADF80E30FAF7B6FB801B18BF012004B053
:10A14000BDE8F087AA682D4B9A4201D00120F6E7BE
:10A15000EF68DFF8AC90064680467B689E42F5D2F9
:10A160003A68A1883301D5182889884216D1691C1C
:10A17000D05CFDF787FD824600BB3B684B450DD1A7
:10A18000A36903A8196A9A8CFAF7ABF8A989BDF8F4
:10A190000E3029B9EA893AB90398E8600136DCE75C
:10A1A000BDF80C208A4207D3EA899A42F6D2EA899E
:10A1B0009A42F3D2EB81F1E7AA81F8E7437B042BC3
:10A1C00002D0FDF79FFDE9E7A388022B0BD1A1691F
:10A1D000FFF796FC05465046FDF794FD002D0BDB7E
:10A1E000C4F80080DAE7A268A38A118AE2680092C4
:10A1F0002269FFF741FCEDE70020A0E7319F000056
:10A20000347C002007B5002301930E4BBFF35B8F16
:10A21000012253E8001F002903D143E80020002851
:10A22000F7D1BFF35B8F09D10748FFF7E7FC074879
:10A23000FFF7E4FC0649074810F0E0FB03B05DF8C7
:10A2400004FB00BF307C002084CA002028CA002004
:10A2500071A300000C7C002037B50446FFF7D2FF45
:10A260002368002518688DF800504FF4C0536946E4
:10A27000ADF80230FAF716FB18B96FF0440003B0DE
:10A2800030BD236801A918688DF8045041F6010318
:10A29000ADF80630FAF706FB0028EED02046FFF7AF
:10A2A000ADFC0028EBDB94E80C00142101FB032338
:10A2B000108A33F8041CFFF7F1FC2846DFE710B5DD
:10A2C0001046BDF80810BDF8102091420BD8541A62
:10A2D000A342A8BF23469CB2039B22461944FAF727
:10A2E00000F8204610BD6FF00604FAE72DE9F047AC
:10A2F0009946124B1C6806460F469046DCB1083C56
:10A300004FF0140ABCB1002506E020680AFB0500E6
:10A31000038AB34207D201356368AB42F5D8A4681B
:10A320004CB1083CEEE7BB42F5D84946C04700288F
:10A33000F1D1BDE8F087BDE8F08700BFD87B0020F1
:10A3400000B589B06FF0380307908069019302234C
:10A35000ADF80830054A008A01AB4FF6FF71FFF7F0
:10A36000C5FF019809B05DF804FB00BF05A100001E
:10A3700013B530F8042CADF80420034630F8022C55
:10A38000ADF806202C3803F12004BFF35B8F54E8AE
:10A39000002F22F0010244E800210029F7D1BFF389
:10A3A0005B8F002223F8042C23F8022C0E4A43F87A
:10A3B000142C0E4A43F8102C01AA43F80C2C04224A
:10A3C00023F8082CFFF7BCFF58B9BFF35B8F54E8A4
:10A3D000003F43F0020344E80032002AF7D1BFF304
:10A3E0005B8F02B010BD00BF5CCA0020799D0000E9
:10A3F00007B5018A02AB013189B2002243F8042D6E
:10A400000846034AFFF772FF019803B05DF804FBAA
:10A41000F19900002DE9F043D1F80C8087B01C467B
:10A42000084698F80430BDF838608DF80430894645
:10A430001746FFF7DDFF054678BB02224FF0000309
:10A4400062F302031C491D4A521A60F3C503D20885
:10A4500062F38F131A49B9F810201A48F8F754FF1D
:10A460008DF805508DF80650D8F800100B78C3B958
:10A470004B88ADF807300523B3421AD39B1BA34288
:10A48000A8BF23469CB201AB224699193846F9F77A
:10A4900028FF204607B0BDE8F083038AADF80530F9
:10A4A000E2E7102201310DF10700F9F71AFF13233B
:10A4B000E2E76FF00604ECE7E0B3010048B4010006
:10A4C000CDEE01001FEF01000346034A4FF6FF7176
:10A4D0000120FFF70BBF00BF099D00000346034AA0
:10A4E0004FF6FF710120FFF701BF00BF3DA0000044
:10A4F000531E19440138521AD14200D1704711F845
:10A50000013900F8013FF7E710B5431800EB51019E
:10A51000884200D110BD027813F8014C00F8014BBD
:10A5200003F8012DF4E70000104B1B68ABB11A686B
:10A5300032B1596821B1996889B90D49097871B169
:10A540000B49097811B10AB1996851B95B6853B9DF
:10A55000002A0CBF0320002070470320704704200E
:10A560007047012070470220704700BF9C7900208F
:10A57000217E00200C4B1B7810B57BB100F00F043E
:10A58000FFF7D2FF094B1B7803280CBF04F00B0424
:10A5900044F004042BB144F0010010BD00F00704A6
:10A5A000EEE704F0FE0010BD217E002090CA0020DE
:10A5B000072070474B09BFF35B8F50F82300BFF3B0
:10A5C0005B8F01F01F01084100F0010070474B094B
:10A5D000012201F01F0102FA01F100EB8300BFF339
:10A5E0005B8F50E8003F0B4340E80032002AF8D16F
:10A5F000BFF35B8F704738B500F18C050446E0224D
:10A6000000212846F9F799FE04F1B30010210BF060
:10A610004DFF044628B905212846FFF7D8FF2046FC
:10A6200038BD0824FBE7000010B50E4C0246206838
:10A6300018B90D4A62600C6010BD01214FF0000393
:10A6400061F3020309480A49091AC9086FF3C503EF
:10A6500061F38F1307480849F8F756FE6FF00B00B7
:10A6600010BD00BF547C0020A0CA0020E0B3010050
:10A6700078B401003AF101002CF1010070B5C2B0CC
:10A680000D461646014616AA68461C46F8F7A2F97A
:10A6900018B96FF0040042B070BD324629466846D2
:10A6A000F8F7C4F90028F4D069462046F8F722FAF2
:10A6B0000028EED00020EEE7F0B58F188BB0141D07
:10A6C0000D463B680193064621462846FFF71CFFCE
:10A6D0003146102202A8FFF70BFF06AB224629469F
:10A6E00002A8FFF7CBFF064698B101234FF0000206
:10A6F00063F302021149124B12485B1A6FF3C50251
:10A70000DB0863F38F121049F8F7EAFD30460BB00F
:10A71000F0BD06A81021FFF7F7FE04220DEB0201A1
:10A7200007A8F9F7DEFD21462846FFF7EDFE0C22CB
:10A7300007A93846F9F7D5FDE8E700BFE0B3010007
:10A7400078B401004AF50100F9F0010070B596B047
:10A7500014460E462022014605A81D46FFF7C8FEF6
:10A76000202231460DA8FFF7C3FE2146102201A882
:10A770008DF85450FFF7BCFE1A9B412205A901A891
:10A78000FFF77CFF044618B910211A98FFF7BCFEAA
:10A79000204616B070BD70B596B00546164605A8A1
:10A7A00010221C46FFF7A4FE1022314609A8FFF72D
:10A7B0009FFE214610220DA8FFF79AFE03221A9948
:10A7C00011A8FFF795FE1B9C14F8013B8DF847304C
:10A7D0002146062212A8F9F784FD2146062212A876
:10A7E000FFF786FE1C9C14F8013B8DF84E30214685
:10A7F00006220DF14F00F9F774FD214606220DF1F6
:10A800004F00FFF775FE1022294601A8FFF770FEE2
:10A810001D9B412205A901A8FFF730FF044618B986
:10A8200010211D98FFF770FE204616B070BD4B0931
:10A8300001F01F0201219140C94300EB8300BFF3E7
:10A840005B8F50E8003F0B4040E80032002AF8D10F
:10A85000BFF35B8F704738B503685C6F054600F542
:10A86000B67010F0D4F83CB1638913B1637A9B07DA
:10A8700002D5204601F0A4FD28464FF4C6720021FF
:10A88000BDE83840F9F759BD70B50A4604460B21BA
:10A890009030FFF78FFE40B323689668197A03F172
:10A8A00048052A46022001F02DFDC8B901234FF0CA
:10A8B000000463F30204104A104BD21AD20860F36A
:10A8C000C504284662F38F14F9F77EFDF8F7D8FD2A
:10A8D000234602460A490B48F8F716FD082070BDCA
:10A8E000102231462630F9F7FCFC04F18C000921D6
:10A8F000FFF76DFE002070BD78B40100E0B30100E9
:10A9000098F00100A6F4010070B50A4604460B2138
:10A910009030FFF74FFE40B323689668197A03F131
:10A9200048052A46042001F0EDFCC8B901234FF088
:10A93000000463F30204104A104BD21AD20860F3E9
:10A94000C504284662F38F14F9F73EFDF8F798FD29
:10A95000234602460A490B48F8F7D6FC082070BD8A
:10A96000102231461630F9F7BCFC04F18C000721A7
:10A97000FFF72DFE002070BD78B40100E0B30100A8
:10A9800056F00100A6F4010010B50621FDF740FDC8
:10A99000044680B901234FF0000263F30202074925
:10A9A000074B5B1A60F3C502DB0863F38F1205499E
:10A9B0000548F8F795FC204610BD00BFE0B3010044
:10A9C00078B4010078F0010068F40100002138B586
:10A9D00005460846FDF74CFC0121044608300DF001
:10A9E000D1FE0570204638BD10B5134604460A4610
:10A9F00000680621FDF73FFC04F5B67147F23052BE
:10AA00000248BDE8104010F051B800BF0C92002081
:10AA100073B590F894300546032B24D8DFE803F093
:10AA20002502022590F86831D0F86441DC4004F03A
:10AA3000010464F07F04E4B20320FFF7C7FF064679
:10AA400088B1102108300DF09DFE2346009005F1DD
:10AA5000B30205F1E3010C48FFF778FE044630B17C
:10AA600030460DF05DFE08200CE00024E4E70246CD
:10AA700031462846FFF7B8FF05F190002146FFF761
:10AA8000D6FE204602B070BDE17D002038B590F8BA
:10AA900094300446032B13D8DFE803F002350C0290
:10AAA0008C300421FFF793FD2046FFF7B1FF00280B
:10AAB00037D038BD042100F5B2700BF0F7FC08B1B7
:10AAC000082038BDD4F864111D4A1E4DB1FBF2F3C5
:10AAD00002FB1313C4F864312B6884F8680163B176
:10AAE0001B6853B10A2104F19000FFF770FD2B6839
:10AAF000D4F864111B6820689847032104F18C0086
:10AB0000FFF765FD0DE003218C30FFF760FD04F1D8
:10AB100090000921FFF75BFD0A4B20681B685B680A
:10AB20009847094904F1E300FCF76CFC054600284E
:10AB3000C6D104F190000721FFF749FD284638BD32
:10AB400040420F009C790020E1B100002DE9F04F58
:10AB50001022A3B0044600210DEB0200F9F7EDFB33
:10AB600094F89430032B00F28480DFE803F00802AD
:10AB70000208042204F5B27104A8F9F7B2FB14AD7F
:10AB8000352200212846D4F800A0F9F7D6FB62232D
:10AB90008DF8513074238DF852300CAE6C238DF843
:10ABA00053302022652304F2231130464FF0010B6D
:10ABB0008DF854308DF883B0FFF79AFC08AB202253
:10ABC00031464848FFF75AFD002852D104F1C30826
:10ABD000102241460DF1550004F1B309FFF788FC3E
:10ABE000102249460DF16500FFF782FC9AF84F30BC
:10ABF0008DF8753006220AF150010DF17600FFF74D
:10AC000077FC04F253179AF856308DF87C30062200
:10AC10000AF157010DF17D00FFF76AFC3B46352232
:10AC2000294608A8FFF72AFD18BB1021384604F171
:10AC3000D30AFFF769FC53463522294608A88DF848
:10AC400050B0FFF71BFDA0B910215046FFF75CFC88
:10AC50002246384652F89D3B039503F14F01563387
:10AC60008DE80C00029104AB42464946FFF793FD84
:10AC700008B1082031E02246384652F8963B039648
:10AC800003F156014F338DE80C00029104AB4A46A4
:10AC90004146FFF780FD0028EBD11022314604F237
:10ACA0004310F9F709FB0746D0B90D20FFF78EFED8
:10ACB000064660B1102108300DF064FD10222946CF
:10ACC000F9F70FFB3A4631462046FFF78DFE04F1B7
:10ACD00090000121FFF77BFC002023B0BDE8F08F3E
:10ACE0000B20FAE718F4010070B50368DB78012B3C
:10ACF000054615D18E6800F190040E212046FFF71D
:10AD000096FD3146102205F24310F9F7EAFA0721C1
:10AD10002046FFF74FFC28B108212046FFF757FCDB
:10AD2000002070BD09212046FFF744FC0028F3D124
:10AD30002846BDE87040FFF709BF38B50546022038
:10AD4000FFF744FE044678B1062108300DF01AFDE5
:10AD500005F19D010622F9F7C4FA28460022214692
:10AD6000FFF742FE002038BD082038BD2DE9F34131
:10AD70008D68EB78073B092B064604D9062420464C
:10AD800002B0BDE8F08107460D2157F8908B384698
:10AD9000FFF710FC28B93046FFF72DFC08B1C4B20C
:10ADA000EDE701230622294686F8953006F1960044
:10ADB000F9F797FA022386F89C30A878FFF7DAFBB8
:10ADC00086F89F000446FFF7AFFB002386F89E300D
:10ADD000102386F89D0086F8A0302B7903F0070336
:10ADE00086F8A1306B79220703F0070386F8A230BA
:10ADF00012D5AB781B070FD505213846FFF7E7FBC7
:10AE000096F8A13003F0060386F8A13096F8A23038
:10AE100003F0060386F8A23096F89F309C0606D50C
:10AE2000AB78980603D512213846FFF7D0FB96F889
:10AE3000A23086F8693196F8A13086F86A3196F822
:10AE40009F30D90706D5AB78DA0703D50B213846F2
:10AE5000FFF7BDFB03213846FFF7B9FB0521384654
:10AE6000FFF7A8FB2D78002840F0A980042D2BD8EF
:10AE700096F8984096F89F00044314F004040ED00E
:10AE8000FFF752FB6E4B05EB85051D442C5C042C33
:10AE900005D13368DB78002B0CBF0224012486F82F
:10AEA00094409CB90D213846FFF784FB70B9654D7D
:10AEB0002B685BB11B694BB138460921FFF787FB53
:10AEC0002B6830681B6966E00446E8E73046FFF708
:10AED00034FF044600287FF452AF032106F18C00B2
:10AEE000FFF775FB356805F14801287A01F054FA3F
:10AEF00096F89420A0B1437ADB0711D582B90123DB
:10AF000063F302025049514B51485B1A64F3C50286
:10AF1000DB0863F38F124F49F8F7E2F908242EE7B4
:10AF2000012A30D0FFF42BAF022A36D104210DEBD9
:10AF300001000BF0BBFA0028F0D10199464ADFF876
:10AF40000481B1FBF2F302FB13130193D8F8003034
:10AF50005BB11B684BB10A213846FFF738FBD8F8C4
:10AF6000003001991B6828469847019B86F8D3302A
:10AF7000C3F307221B0C86F8D5301B0A86F8D420B1
:10AF800086F8D630FBE638460921FFF720FB2D4B2B
:10AF90001B685B6828469847F1E601214FF00003E3
:10AFA00061F3020328482949091AC9086FF3C50348
:10AFB00061F38F1329482749F8F7A6F9AEE7042D66
:10AFC00029D896F8984096F89F00044314F004049A
:10AFD00006D0FFF7A9FA224B05EB85051D442C5C32
:10AFE00086F8944098F80A30042B16D134B396F8BA
:10AFF000993096F8A020934228BF1346102B7FF477
:10B00000BDAE0C2106F18C00FFF7E1FA3046FFF7E8
:10B0100094FE0446B3E60024E2E7002CF1D10D21B2
:10B020003846FFF7C7FA0028EBD1064D2B68002BF6
:10B03000E7D01B69002B7FF43FAFE2E703249EE6D5
:10B0400074F301009C790020E0B3010078B40100A2
:10B05000D4F4010044F0010040420F0005F5010066
:10B060008DF3010070B505460C20FFF7AFFC0446D8
:10B07000A0B1402108300DF085FB2022084906468A
:10B08000F9F72FF92022B0180649F9F72AF92846CE
:10B0900000222146FFF7A8FC002070BD082070BDEB
:10B0A000E17D0020017E002038B505460420FFF731
:10B0B0008DFC044678B1102108300DF063FB05F1DA
:10B0C000B3011022F9F70DF9284600222146FFF7B7
:10B0D0008BFC002038BD082038BD0720704710B514
:10B0E00001F01F02012393404909DC4300EB81007A
:10B0F000BFF35B8F50E8002F02EA040140E8001E16
:10B10000BEF1000FF6D1BFF35B8F1A4214BF0120CE
:10B11000002010BD38B50446056800F5B6700FF084
:10B1200076FC002384F8943004F18C00BFF35B8F2D
:10B1300050E8002F40E800310029F9D1BFF35B8FC0
:10B14000BFF35B8F903454E8002F44E800310029AE
:10B15000F9D1BFF35B8F6B7AAA7A9A4218BFAB72B0
:10B160000121BDE83840FFF732BA000010B50E4AA1
:10B17000044679B90B219030FFF71CFA1368014699
:10B180001BB15B690BB1206898472046BDE81040B1
:10B19000FFF7C0BF1368002BF7D09B69002BF4D0DA
:10B1A00000689847F1E700BF9C79002070B505461C
:10B1B0000E46FFF7DBFF0520FFF708FC044660B1F1
:10B1C000012108300DF0DEFA0670286800232246BF
:10B1D0000621FDF750F8002070BD6FF0360070BDFD
:10B1E00010B5072104461648FFF779FF38B32CB98C
:10B1F0000B211448BDE81040FFF7D8BF214620229C
:10B200001148F9F76EF809210D48FFF7D3F928B175
:10B2100008210B48BDE81040FFF7D9B90E210848B6
:10B22000FFF7C8F90028F3D108210548FFF7C2F954
:10B2300028B10448FFF78AFC01460028D9D110BD87
:10B24000E47C0020547C0020777D00202DE9F34130
:10B250008B8904460D46A3B901214FF0000261F32A
:10B26000020263F3C5024749474B48485B1ADB08B3
:10B2700063F38F124649F8F733F8002002B0BDE8B7
:10B28000F0810846012150F8086F0DF09AFA042168
:10B2900004F19000FFF78EF93278804688B10221E0
:10B2A0004FF0000361F3020336483749091AC90811
:10B2B0006FF3C50361F38F1336483549F8F724F867
:10B2C000DBE70D2A03D8344F57F83230ABB90221EF
:10B2D0004FF0000361F302032A482B49091AC908F9
:10B2E0006FF3C50361F38F132C482949F8F70CF865
:10B2F00007212046FFF75AFFBFE7114604F18C00F3
:10B30000FFF7EDFE3278A8B902214FF0000361F398
:10B31000020360F3C5031C491A48091AC90861F3FE
:10B320008F131F481A49F7F7EFFF3378052BA4D086
:10B330000821DEE707EBC203A8891B79834216D0F8
:10B3400001234FF0000163F302010E4D0E4B5B1B16
:10B35000DB0868F3C50163F38F11ADF800101346E5
:10B360000B4902460F48F7F7E8FF0A21C1E72946D3
:10B3700057F8323020469847014600283FF47DAF09
:10B38000B7E700BFE0B3010078B4010071F201003B
:10B39000DBF0010090F20100A8F30100C5F201000A
:10B3A000E3F20100F6ED010038B50446174D90B9FF
:10B3B00002234FF0000263F302021549154B5B1A9A
:10B3C00060F3C502DB0863F38F1213491348F7F7E4
:10B3D00087FF2C7038BD014640221148F8F781FFE5
:10B3E000012306210F482B70FFF7E4F868B10E48DF
:10B3F000FFF738FE18B90C48FFF748FB28B10146A3
:10B40000BDE838400848FFF7D1BE38BDE07D0020D8
:10B41000E0B3010078B40100E7F0010054F201004C
:10B42000E17D0020E47C0020547C0020F8B501225E
:10B430004FF000038E681C4962F302031B4A044666
:10B44000521A54F8907B1A49D2086FF3C50362F37D
:10B450008F13054632781748F7F756FF0921204623
:10B46000FFF73DFE90B1144B1B68B3B90221204693
:10B47000FFF7A0F820B12B68586F08B100F0A0FFCB
:10B4800028463178FFF772FE0020F8BD0A212046D9
:10B49000FFF725FE0028E6D1E8E7DB68002BE5D0C2
:10B4A00038469847E2E700BFE0B3010078B40100F6
:10B4B00085F00100C4F401009C79002038B54FF0FC
:10B4C0000002012363F302021149124B5B1A044686
:10B4D000DB086FF3C5021049A0F5B67563F38F1250
:10B4E0000E48DC3CF7F7FCFE02212046FFF762F82D
:10B4F00020B12B68586F08B100F062FF2846082180
:10B50000FFF734FE20460421BDE83840FFF75FB85E
:10B51000E0B3010078B401000AF0010062F5010017
:10B52000F8B50A4605460B2150F8904BFFF742F854
:10B5300038B304F148069768217A3246102000F0AB
:10B54000E1FEC8B901234FF0000463F30204164A78
:10B55000164BD21AD20860F3C504304662F38F143A
:10B56000F8F732FFF7F78CFF2346024610491148DF
:10B57000F7F7CAFE0820F8BD102239465030F8F718
:10B58000B0FE95F86A3123F0040385F86A31D5F8E6
:10B59000684124F07F4424F0FF041CB9214628466A
:10B5A000FFF7E4FD0020F8BD78B40100E0B301002E
:10B5B000BBF00100A6F40100F8B50A4605460B21D0
:10B5C00050F8904BFEF7F6FFA0B304F148079668D9
:10B5D000217A3A46042000F095FE0446C8B90123BA
:10B5E0004FF0000563F302051F4A204BD21AD20820
:10B5F00060F3C505384662F38F15F8F7E5FEF7F7F7
:10B600003FFF2B4602461A491A48F7F77DFE0820ED
:10B61000F8BD022231461430F8F763FE0822B11C4F
:10B6200004F10C00F8F75DFE95F86A3123F0010390
:10B6300085F86A3195F86A319A0711D5082105F124
:10B640008C00FEF7C4FFD5F8684124F07F4424F055
:10B65000FF041CB921462846FFF788FD0020F8BDED
:10B660005B07F0D50A21EAE778B40100E0B30100F6
:10B6700067F00100A6F4010010B50C460621FCF7A6
:10B68000B7FE90F8691121EA040180F86911D0F839
:10B69000681121F07F4121F0FF0119B9BDE8104088
:10B6A000FFF764BD10BD837813B90421FFF7E4BF31
:10B6B0007047000010B50549044600F5B6700FF05C
:10B6C0009DF92046BDE81040FFF724BDBDB4000041
:10B6D000837813B90121FFF7CFBF7047837813B97F
:10B6E0000221FFF7C9BF704770B58E6800F1E3040F
:10B6F0000546202231462046F8F7F3FD2022B118F6
:10B7000005F20310F8F7EDFD402217492046F8F73F
:10B71000D3FDA8B903234FF0000263F302021349DB
:10B72000134B5B1A60F3C502DB081249124863F33E
:10B730008F12F7F7D5FD0C2105F19000FEF747FFBA
:10B740000E4B1C7834B905F190000621FEF73FFF3F
:10B75000204670BD2846FFF785FC20B92846BDE885
:10B760007040FFF793B970BD28F40100E0B3010009
:10B7700078B40100CCF0010025F50100E07D002047
:10B780002DE9F04F044689B061B90368DB7A4BB10B
:10B7900000F1900503212846FEF70CFF28B920464A
:10B7A000FFF7B8FC09B0BDE8F08F01212846FFF78C
:10B7B0003EF805212846FEF7FDFEB8B194F8693140
:10B7C0001A0707D594F86A311B0703D50F212846BD
:10B7D000FEF7FDFE94F8693123F0080384F869311F
:10B7E00094F86A3123F0080384F86A3194F86A31D6
:10B7F000DF0732D5062104F18C00FEF7E8FE0221B6
:10B800002846FEF7E4FED4F80080D8F8747067BBD1
:10B8100001234FF0000563F30205A14AA14BD21AA0
:10B82000D20867F3C50508F1480062F38F15F8F7F1
:10B83000CBFDF7F725FE2B4602469B499B48F7F7C1
:10B8400063FDD4F8681121F07F4121F0FF01002948
:10B85000A8D12046FFF78AFCA4E79E0701D508215E
:10B86000C9E75807CBD50A21C5E705212846FEF7C9
:10B87000A1FE824648BB94F86931D90725D52368D3
:10B8800010210DEB01005E6F0AF010FE08210DEB98
:10B8900001000AF00BFE022101A80AF007FE0620B3
:10B8A000FFF794F8814668BB01234FF0000263F371
:10B8B00002027C497A4B5B1A60F3C502DB087C49C3
:10B8C0007C4863F38F12F7F70BFD94F869319A0700
:10B8D00040F1AC800820FFF779F80646002871D1C6
:10B8E00001234FF0000263F302026E496C4B5B1AB6
:10B8F00060F3C502DB086C496F4863F38F12F7F7FA
:10B90000EFFC9EE7102108300CF03CFF327A04A9CE
:10B910008346F8F7E6FC307A0F2805D8C0F110020C
:10B9200051465844F8F709FD494600222046FFF7E2
:10B930005BF80720FFF74AF8814678B901234FF0FA
:10B94000000263F302025749554B5B1A60F3C502CC
:10B95000DB0863F38F1256495848B4E70A210830D0
:10B960000CF010FF08220DEB020182460230F8F7BE
:10B97000B8FC022201A95046F8F7B3FC494620461C
:10B980004F4AFFF731F80B212846FEF713FE002837
:10B990009BD03046012100F00FFD10220DEB02017B
:10B9A00006F16E00F8F79DFC08220DEB020106F18E
:10B9B0006400F8F796FC022201A906F16C00F8F782
:10B9C00090FC82E7102108300CF0DCFE10223D498B
:10B9D000F8F787FC314600222046FFF705F80920DA
:10B9E000FEF7F4FF064678B901234FF0000263F337
:10B9F00002022C492A4B5B1A60F3C502DB0863F391
:10BA00008F12294930487AE7072108300CF0BAFE36
:10BA100098F808102D4BC1EBC10107221944F8F723
:10BA200060FC2B4A31462046FEF7DEFF94F8693170
:10BA30005B077FF506AF0A20FEF7C8FF064678B918
:10BA400001234FF0000263F302021649144B5B1A04
:10BA500060F3C502DB0863F38F1213491D484EE7FC
:10BA6000102108300CF08EFE102180460AF01EFDD9
:10BA70000B212846FEF79EFD58B10821384600F0FC
:10BA80009BFC1022414607F13C00F8F72AFC0023FA
:10BA9000FB64114A31462046FEF7A6FFD1E600BFFF
:10BAA00078B40100E0B301002DF0010063F1010062
:10BAB00016F001007CF10100D2F10100A7F10100B4
:10BAC000D1B6000010C80020FBF1010038C70020EB
:10BAD000DDB6000029F20100A7B600002DE9F04311
:10BAE00089B01F46DDF84080DDF8449098F80030BA
:10BAF0008DF80030064699F800308DF801300C467C
:10BB00000DF1020011460722129DF8F7EAFB072209
:10BB100039460DF10900F8F7E4FB002314F8012B76
:10BB20001DF803104A40EA540133102BF6D12A467F
:10BB3000294630460AF0D6FC044608BB04AF06226C
:10BB400009F101013846F8F7CCFB062208F10101A2
:10BB50000DF11600F8F7C5FB0422214607A8F8F7F7
:10BB6000ECFB6B1E5A78395D01344A40102C03F807
:10BB7000012FF7D12A46294630460AF0B3FC044685
:10BB8000204609B0BDE8F083F0B500F1900785B01C
:10BB9000054609213846FEF70DFD88BB042105F155
:10BBA0008C00FEF714FD03202C68FEF70FFF0646FD
:10BBB000C0B1102108300CF0E5FD04F156034F34FC
:10BBC00002900193009405F19C0305F1950205F1A3
:10BBD000B30105F1D300FFF781FF044620B13046E1
:10BBE0000CF09EFD082009E0024631462846FEF78B
:10BBF000FBFE21463846FEF71AFE002005B0F0BDD8
:10BC000000213846FEF7E3FCF7E770B500F1900538
:10BC10008E6804460A212846FEF709FE31461022A6
:10BC200004F1A300F8F75DFB05212846FEF7C2FCEE
:10BC300020B92046BDE87040FFF7A6BF94F89430C5
:10BC4000012B0BD0022B15D104F18C000421FEF73F
:10BC5000BEFC2046BDE87040FEF7DABE092128464A
:10BC6000FEF7A8FC0028EFD028460021FEF7AFFC25
:10BC7000002070BD082070BD2DE9F041044600F1A0
:10BC8000C3059EB089681022284604F19007F8F792
:10BC900028FB05213846FEF78DFC00283CD1A04644
:10BCA0000AAE58F8D33B029603F156024F33019285
:10BCB000009304F1950204F19C0329464046FFF7E6
:10BCC0000DFF08B10820AAE01022314604F1A300BC
:10BCD000F8F7F2FA002840F0A580082229463046FD
:10BCE000F8F7FFFA082204F1B3010CA8F8F7F9FA03
:10BCF0003246314640460AF0F5FB0028E2D1314693
:10BD000010224046F8F7EDFA01213846FEF75FFCB5
:10BD10002046FFF7C9F977E094F89430032BD1D887
:10BD2000DFE803F0373E3E02202204F1E3010AA8D7
:10BD3000FEF7DEFB20223C4912A8FEF7D9FB1022B9
:10BD400004F1B3011AA8FEF7D3FB1022294606A876
:10BD5000FEF7CEFB06AB50220AA91846FEF78EFC72
:10BD60000028AFD1042209A905A8F8F7BAFA059B63
:10BD70002E491BBA3846B3FBF1F201FB12330921FD
:10BD80000593FEF724FC2A4B05991B6820689B68E5
:10BD900098470D2104F18C00FEF719FC0E21B4E741
:10BDA00094F86821D4F864311F49D34003F00103AB
:10BDB0000AAE009643F080032A4604F1E300FEF742
:10BDC000C5FC00287FF47EAF1022314604F1A300A9
:10BDD000F8F772FA30BB04F18C0603213046FEF707
:10BDE000F6FB2046FFF760F994F868310133DBB2C7
:10BDF000142B84F8683109D10D213046FEF7E7FB9A
:10BE00000E213846FEF7E3FB002008E0102104F184
:10BE1000B3000AF04BFB00280CBF002008201EB026
:10BE2000BDE8F0810420FAE7E17D002040420F00E8
:10BE30009C7900202DE9F3418F6804683B78054622
:10BE40004BB3BB7903F0C003C02B24D001234FF0C8
:10BE500000054A4A63F30205494B9B1ADB086FF35E
:10BE6000C505384663F38F15F8F7AEFAF7F708FB08
:10BE7000064604F14800F8F7A7FAF7F701FBADF81A
:10BE80000050034632463F483F49F7F756FA0A202A
:10BE900002B0BDE8F0810B2105F19000FEF78AFBAE
:10BEA00000284ED004F148084246217A022000F0D2
:10BEB00029FA0646C8B901234FF0000463F30204CF
:10BEC0002F4A2E4BD21AD20860F3C504404662F3C3
:10BED0008F14F8F779FAF7F7D3FA234602462A497E
:10BEE0002A48F7F711FA0820D2E7E378002B42D16D
:10BEF00004F156010B78012B20D18B7903F0C0039C
:10BF0000402B1BD10622013106F13600F8F7E9F982
:10BF100094F8483093B194F84E3003F0C003C02B2E
:10BF20000CD007223946701CF8F7DBF90722394696
:10BF30004046F8F7D6F92046FBF732FB3046F9F7D2
:10BF400027FB95F86A3123F002025B0785F86A2126
:10BF500004D50A2105F18C00FEF739FBD5F86841BC
:10BF600024F07F4424F0FF041CB921462846FFF743
:10BF7000FDF800208CE704F14F01BBE7E0B30100BE
:10BF800078B4010087F40100A7F00100A6F40100D5
:10BF9000F0B58B890C468968054685B00C3B194481
:10BFA0000C2205F1480601A8F8F79BF9297A3246D8
:10BFB000102000F091F90546D8B901234FF0000494
:10BFC00063F30204374A384BD21AD20860F3C5042F
:10BFD000304662F38F14F8F7F7F9F7F751FA234672
:10BFE000024632493248F7F78FF96FF0010005B089
:10BFF000F0BD04A9036E41F8103DA389A0680C3B75
:10C0000004221844F8F76DF9A289A1680C3A92B29B
:10C0100005F15000FEF750FB0746D0B101234FF069
:10C02000000463F302041F4A1F4BD21AD2086FF3B5
:10C03000C504304662F38F14F8F7C6F9F7F720FA13
:10C040002346024619491B48F7F75EF96FF00400D2
:10C05000CDE7A389A1680C3B0C22194401A8F8F78D
:10C060002BF9D0B101234FF0000463F302040D4A11
:10C070000D4BD21AD20867F3C504304662F38F1411
:10C08000F8F7A2F9F7F7FCF92346024607490A48F0
:10C09000F7F73AF96FF04C00A9E72B6E01332B66E6
:10C0A000A5E700BF78B40100E0B3010006F101008C
:10C0B00002F3010028F301004EF30100F8B5044635
:10C0C000FEF762FC054600287BD000F190060321B4
:10C0D0003046FEF76FFA002873D0606F08B100F0A9
:10C0E0006FF904F148073946207A00F0BDF860671F
:10C0F000E8B901234FF0000463F30204314A324BE4
:10C10000D21AD20860F3C504384662F38F14F8F7E8
:10C110005BF9F7F7B5F9234602462C492C48F7F7A7
:10C12000F3F828460821BDE8F840FFF73FB80C2196
:10C130003046FEF73FFA20B1626F537A43F00203B4
:10C14000537295F89430013B022B636F5A7A94BF77
:10C1500042F0010222F001025A7295F8A03095F8DF
:10C160009910626F8B4228BF0B461372052130462F
:10C17000FEF720FA636F5A7A00B342F010025A7247
:10C180000B213046FEF716FAD8B1606F202100F07F
:10C1900013F9606F05F1D30110221630F8F7A1F8FA
:10C1A000606F082200210C30F8F7C7F8606F022298
:10C1B00000211430BDE8F840F8F7BFB822F01002B3
:10C1C0005A72F8BD78B40100E0B3010019F1010022
:10C1D000A6F40100F8B50F46FEF7D6FB054610B9E8
:10C1E00000263046F8BD00F1900203211046FEF70C
:10C1F000E1F90028F4D001211046FEF7DBF90646EC
:10C200000028EDD095F8A04095F899309C4228BFC1
:10C210001C46224605F1D3013846F8F762F80F2C88
:10C22000DFD8C4F1100200213819F8F786F8D8E7F2
:10C2300008B5094B094893F8423003F006039A1FEA
:10C2400053425341064A1370FBF744FF0548FBF77E
:10C250006BF8002008BD00BF38C7002094CA00203A
:10C26000217E0020B4CA0020F7B5114C2378834208
:10C2700005460E4627460BD00024072269460D4886
:10C280000094CDF80340F8F717F840B120460DE0D0
:10C290000722601CF8F710F80028EDD1F6E73D7092
:10C2A000072231460348F8F71CF8014803B0F0BDF7
:10C2B000247E0020257E0020064B10B40C465989B0
:10C2C000014204D018461146234610BC184710BC42
:10C2D000704700BF247E002010B5094C13466289C8
:10C2E000024208D022788A4205D107221946601CF2
:10C2F000F7F7E2FF08B1002010BD204610BD00BFD7
:10C30000247E002070B504460D461646FFF7E4FF74
:10C3100038B931462846FFF7A7FF10B143891C43BF
:10C32000448170BDF8B50B78012B06460D4601D04F
:10C330000020F8BD8B7903F0C003402BF8D1134CDB
:10C34000638913F0020F274613D17B899B07EFD532
:10C350003B78B342ECD1013529460D48F8F771F826
:10C360000028E5D0062229460A48F7F7BAFF074811
:10C37000F8BD23788342E8D1062204F13601681C17
:10C38000F7F79AFF0028E0D12046F8BD247E002070
:10C390004A7E00205A7E002010B5064C2378834246
:10C3A00004D10722601CF7F787FF08B1002010BDF9
:10C3B000204610BD247E00204389194341817047E7
:10C3C00043899B0710B5044601D5F9F7D7F92046F4
:10C3D00080220021BDE81040F7F7AFBFF7B5186025
:10C3E000C31D054623F00303501E0E4680B21446BB
:10C3F0001A800021042206FB0050F7F79EFF023C42
:10C40000A4B24FF6FF77BC4201D103B0F0BD04FBEC
:10C4100006602B180422801B0DEB02012844013C0E
:10C420000193A4B2F7F75DFFEDE773B50568064623
:10C4300095B1EB1D23F0030304221C8829460DEB64
:10C440000200F7F74EFF019B013CA4B21BB1DA1DBD
:10C4500022F0030214803360284602B070BD70B52C
:10C460000C6806460D461CB1E31D23F003031C882F
:10C47000042229463046F7F734FFF21D22F003026A
:10C48000631C13802E6070BD18B1073020F00300CC
:10C490000088704702FB01007047401A80B2B0FB71
:10C4A000F2F0704710B5114401384FF6FF73013AAE
:10C4B00092B29A4200D110BD11F8014D00F8014F1F
:10C4C000F5E70144884201D10020704710F8013B94
:10C4D000002BF7D00120704710600860704710B53E
:10C4E0001468206014686160106010BD884203D039
:10C4F0001AB1436813607047002070470B6883428D
:10C5000009D022B1586810601A680A6001E0002B57
:10C51000FAD1184670470023FBE700002DE9F047E9
:10C52000114FDFF848900426013EF6B2FF2E19D0D5
:10C5300033B24FEA830803EB43031D0104244FF099
:10C540000C0A0AE01AFB04510A1D04EB08003A44E5
:10C55000394409EBC000FFF7BFFF013CE4B2FF2CF8
:10C56000F0D1E1E7BDE8F087247F0020A47E002021
:10C57000F0B4124B05460F460C26302472B16143CD
:10C5800006FB00142344597A187A814204BF013112
:10C59000197228463946F0BC0BF0D2BE4C4306FB5C
:10C5A000004423449C7ADA7AA24204D101329A727E
:10C5B000F0BC0BF02DBFF0BC704700BF247F002003
:10C5C000F8B505460E461C468AB1012362782078EC
:10C5D000801A10F0030729D003B3012F39D001329C
:10C5E000D2B22270314628460BF012FF1CE00BF04D
:10C5F000FDFE0028E9D0314628460BF0CDFE00288C
:10C60000E3D030230C22734302FB0533124A1A4451
:10C61000937AD27A9B1A18BF0123D7E70232D2B29B
:10C620002270E368A06898470020F8BD002BF8D07E
:10C630000132D2B222700423302212FB06320C23C4
:10C6400013FB0523044A60681A442146FFF747FF9D
:10C65000C8E73846F8BD00BF247F00202DE9F04F21
:10C6600000EB400389B01B014FF00008434E0493D8
:10C6700005460424CDF80480013CE4B2FF2C0BD124
:10C68000019B002B76D0B8F1000F73D142462946AA
:10C6900028460BF055FE6DE00DF1200B00230C2712
:10C6A0004BF8043D4FF0300907FB04F309FB05305C
:10C6B00031185A46496830580293FFF717FF049B18
:10C6C00017FB0437F31982460393BAF1000F19D10F
:10C6D00030220C236A4303FB04223244917AD07A3D
:10C6E00088421EBFD1720122019230226A4303FBAD
:10C6F000042333441A7A597A91421CBF5A724FF07C
:10C700000108B9E7079B1F785A78BF1A07F003079B
:10C71000012F04D1013A5A709868DA689047079A55
:10C7200013785278DBB29A1A02F00302012A0593B9
:10C730000DD0029B039909FB05303044002240686C
:10C74000FFF7DCFE079A059BC2F804A05370029B1A
:10C7500009FB0533F1185A464968F058FFF7C6FE41
:10C76000012F8246B1D10CB90028B1D02946284604
:10C770000BF04EFE09B0BDE8F08F00BF247F002013
:10C7800010B5421E00200139C9B2FF2900D110BDE9
:10C7900012F8013F002BF6D05C1E01302340C0B2DE
:10C7A000F8E7F0B5437F05681A460024FF2A01D157
:10C7B0000020F0BD02EB82078A4205EBC70615F8A0
:10C7C000377004D0B3681C4413463A46EEE79342F0
:10C7D00000D147771BB203EB83033278B06805F8CA
:10C7E00033203378FF2B06D003EB830305EBC30321
:10C7F0009A6802449A602044F0BD30B5551A15F489
:10C80000000F8368446909D125F07F421A44A2428F
:10C810000ED9121B00248260446130BD8A1A22F0B6
:10C820007F42934201D99A1AF1E72244D41A002296
:10C83000A41A0022EFE7034600221A709A6A59628E
:10C8400008460AB1D96A104770472DE9F047857F3D
:10C8500001230446C377002D4CD1437FFF2B02D127
:10C86000C577BDE8F0870BF02DF86769667FD4F8CF
:10C870000080C71B27F07F47FF2E06D006EB8606F9
:10C8800008EBC6018B689F4218D2A27AE37A9342E2
:10C8900005D10133DBB2022B08BF0023E372E37A38
:10C8A00004EB83030122DD600023656AE377AC4675
:10C8B000234604210320BDE8F0476047FF1A1D44CA
:10C8C0008A784B7818F836609B1ADBB2012BD3D1EB
:10C8D000D1F80C90013A8A70B9F1000FCCD04869B8
:10C8E0006369CA8B281A184420F07F400B69496A93
:10C8F000C847C1E7BDE8F0872DE9F04FC27F93B08C
:10C900008346002A40F0C683436905930121837A58
:10C910008177C07A984200F08F800B44DBB2022B03
:10C9200008BF00238BF80A300BEB83030191D3F887
:10C930000C80059B434423F07F43CBF814309BF8D5
:10C940001D300393DBF800300493DBF804300B93C5
:10C950009BF80930013BDBB20293002307934FF0B1
:10C96000FF0A029BFF2B6AD19BF81D30039A9B1A8A
:10C9700018BF01230293019BE3B1DBF8003004935D
:10C980004FF000099BF81D60FF2E0CD037B2049BBE
:10C9900007EB870703EBC704A568454540F23681DE
:10C9A000A5EB0805A560029B019A0399B14218BF47
:10C9B00013460293DBF800300893DBF80430109341
:10C9C0009BF80930013BDBB20193019BFF2B40F048
:10C9D00070819BF81D30039A9342079B40F051836E
:10C9E0005BB99BF80940DBF804300193013CE4B2E9
:10C9F0004FF00008FF2C40F0A08200238BF81E307F
:10CA0000029B4BB19BF81D30FF2B40F0E9820AF0EE
:10CA100027FF08B9CBF818009BF81F30002B00F057
:10CA20003983DBF824405B46012203210420A4461D
:10CA300013B0BDE8F04F6047019290467FE70B9B33
:10CA4000029A03EBC2077B680693F978BE788E42A0
:10CA500000F0D780069B387806EB460212019D183D
:10CA6000731CDBB2984208BF0023BB70069B9A5C24
:10CA7000032AEBD9052A17D8697801EB81030A93B9
:10CA80000A98049B03EBC0046378A0781B1A13F088
:10CA9000FF0309D0042A0CD16A6852B9AA6842B9C6
:10CAA000EA6832F07F4204D101212846FFF7C3FE35
:10CAB000CBE7012B40F09B805846FFF772FE2B78A6
:10CAC000A060042B064640F08480DBF81430089305
:10CAD0000AF0F8FE089B0990C31A23F07F434344F1
:10CAE0009E4202469EBF6269921B9B18626896BF77
:10CAF0006361F31A00238AB1A98979B101F1FF3E7C
:10CB00001FFA8EFEA5F80CE09A422BD3DFF824938F
:10CB1000B4F81EC0E64547D8A4F81CE0AA880899D6
:10CB20001344A360EA88636913446361099A204649
:10CB3000FFF763FEA2692B891344A3616A899342BC
:10CB40008CBF9B1A0023A361AB7B03B1E370049BF2
:10CB50000A9A03F832A0637895F801A00133637054
:10CB60000021A2E7B4F81EC0E645CFD2616AAF4EFD
:10CB7000AF488E19864281BF01F1E87101F5D431C9
:10CB800001F5A5716162666A216A8CBF4FF00109E7
:10CB90004FF00009761A91440CF1FF3C6662A3EB5A
:10CBA0000903A4F81EC0AFE7666A216AA0480E44D4
:10CBB0009E49711881428EBF002101214E441144CB
:10CBC0000CF1010C8CBF666266620B44A4F81EC0B7
:10CBD0009EE7A37863706B789BF81C209A4201BF94
:10CBE000FF238BF81C300023CBF81830B8E7042162
:10CBF0005B46DBF8244001220846A0470123BE70B3
:10CC00000793029B013BDBB20293AAE6DBF81830E4
:10CC10009D4229BFFF235B1B8BF81C300023CBF800
:10CC20001830A369A9441BB18BF81C60CBF81830ED
:10CC30000022049BA26013F837308BF81D30D4F823
:10CC400004E0BEF1000F30D0A08BDFF8E4C1636ACE
:10CC5000216A0B447549591861459FBFA3F1E873D8
:10CC6000A3F5D433A3F5A573636292BF019B6362FE
:10CC70000023734410F1FF301A44E8D2059BA260F0
:10CC8000DBF8141003EB09022046FFF7B6FDA38B77
:10CC9000E3830023E370049B03F837A06378013338
:10CCA0006370A8EB0508B2466CE6A378637056463D
:10CCB000F7E7109B019A03EBC20304935B680A93A6
:10CCC000049B93F80190BAF1FF0F00F08E800FFAE9
:10CCD0008AF303EB8303089AD04612F833A002EBE1
:10CCE000C3040025DBF800300B93FF23A28B2370D5
:10CCF000E38B934286BF9B1A9BB200230C930FFADF
:10CD000088F303EB8303DB001193119BDBF8002016
:10CD1000DBF81800059002EB030EFF209BF81D3096
:10CD2000DEF8081009930690FF2B07D003EB830C65
:10CD300002EBCC06B068814200F2A980DEF8180050
:10CD40000D9001EB000C1E46FF2E40F0AE800D98BA
:10CD500030B105988142C0F0BF80FF2E40F096812F
:10CD60000998CEF80810834218BFBDF924008EF848
:10CD7000003016BF00EB80008BF81D8002F8308079
:10CD8000FF2B06D003EB830302EBC3039A68511A0F
:10CD90009960A378013363700021002D93D0284659
:10CDA000FFF749FD8FE709EB49030A9A1B01D518E4
:10CDB00009F101025FFA82F9049A12784A4508BF24
:10CDC0004FF000090A9AD35C032B0ED195F801802D
:10CDD000089B08EB880403EBC4046278A3789A42AA
:10CDE00009D001212846FFF726FD049B9B784B457F
:10CDF000D9D1019BE6E5EB68DBF8141063602B6981
:10CE00002362AB8AA383AB69A361EB69E3602B6AFE
:10CE100023610026AB68A36066616A682046FFF75D
:10CE2000ECFC01236662E683E3705BE75A2B17FF95
:10CE3000592B177FB6562EFE606800287BD0626A99
:10CE4000216A964B0A449649D3188B429CBFA2F1A3
:10CE5000E872A2F5D432A3688BBF6262A2F5A57214
:10CE600000226262034498BF01221344E28BA36054
:10CE70000132E283626993424FF0000189BF9B1A3D
:10CE8000D31AA36061619CBF6361A1603DE7B6698D
:10CE9000091A46B9059FB84200D23E1A0993059671
:10CEA00012F83C3040E70693F8E730B200EB800020
:10CEB00002EBC0070E97BF680F9767450AD20E9F17
:10CEC000BF69002F7FF443AF0F9EACEB060C12F846
:10CED000306039E7FF263AE7069B98453FF459AFA3
:10CEE000069BFF2BA8D01E4633B203EB83030593AA
:10CEF000059A0B9B03EBC207FB8BBA8B934288BF4F
:10CF00009B1A7A688CBF9BB20023002A94D00C9A9B
:10CF1000934291D8FA78E3789A428DD231465846B6
:10CF2000FFF73FFCBB787B70059A0B9BB86003F85A
:10CF300032A0B246E9E601212FE7019B03EBC405CD
:10CF40006E686B78EA789A4202D1013CE4B251E50E
:10CF500003EB43031B01F218F35C012B25D0022BDA
:10CF60002AD1D2F804C093689CF80000D2F80C9043
:10CF7000DBF800E0FF2804D01968DBF81470B94230
:10CF800023D0DBF814009BF81D1018600023FF2944
:10CF900007D001EB810A0EEBCA0087698068DFB118
:10CFA00003448CF80010C9F80030936AC2F824805A
:10CFB00013B1D16A002098476B782A780133DBB22D
:10CFC0009A4208BF00236B70BBE700EB8000D9F8E2
:10CFD00000301EF83010DAE703441EF83A10D6E7A6
:10CFE000039BFF2B07D10AF06DFC04460AF02AFCD4
:10CFF00008B9CBF814409BF81D30DBF8002003EB98
:10D00000830302EBC3030A269D680AF05BFCDBF88E
:10D010001440031B23F07F430333AB422CBFE418BF
:10D02000641924F07F440746DBF8283020469847EF
:10D030000AF048FCC01B20F07F40E41B033024F0C2
:10D040007F44A0427FF6E8AC013EDED101234FF0E1
:10D05000000263F302021349134B14485B1ADB0806
:10D0600066F3C50263F38F121149F6F739F94040B0
:10D0700080F311884FF0040002DF00238BF81E308C
:10D08000C0E4002BF9D101230293AAE4B0457FF458
:10D090002BAF7EE613B0BDE8F08F00BF5A2B17FF11
:10D0A000592B177FE0B3010040B40100AAF501003D
:10D0B00081F50100F0B51A4D059F9DF818402C260A
:10D0C000464305EB060EAA518EF8081007998EF814
:10D0D0000930CEF80470013BDBB2FF2B11D1ECB963
:10D0E0002C2202FB005208991162099951620A9997
:10D0F000916253771377946154619472D47220468D
:10D10000F0BD1AB207EBC206716017F8322002EBCD
:10D110004206A41A01EB0611E4B2DCE70120F0BDDF
:10D12000E47F0020044A2C2303FB0020007A003017
:10D1300018BF0120704700BFE47F0020074A2C2160
:10D1400000FB012310B45C6A2CB1A4460122032128
:10D15000022010BC604710BC704700BFE47F002075
:10D160002DE9F047254F4FF02C08814608FB007051
:10D170000FFA81FCD0F804E00EEBCC061EF83CE080
:10D18000F478651CEDB2AE4598BF002596F801E035
:10D19000AE452FD0D6F804C004EB44044FEA041E79
:10D1A0000CEB0E044FF0030A0CF80EA06360089B12
:10D1B000A360099BE3600A9B23610C9BA361BDF8FC
:10D1C0002C30A3820D9BE3610E9B236202236362DA
:10D1D0000F9BA362109B6270E362F570456A036A5D
:10D1E0000846984709FB087300220421A847606A93
:10D1F000BDE8F0870120BDE8F08700BFE47F002094
:10D200002DE9F047DFF890804FF02C0A0AFB008EE2
:10D210000FB2DEF80450814605EBC70015F8375011
:10D22000C478661CF6B2B54298BF00264578B54270
:10D230002FD0D0F804C004EB440425010CEB050406
:10D2400004270CF80570A380BDF82030E380BDF8FA
:10D2500024302381BDF828306381BDF82C30A381B0
:10D260009DF83030A373022363620D9BA3620E9B73
:10D270006270E362C670DEF82030DEF824500846A3
:10D28000984709FB0A8300223946A847606ABDE82F
:10D29000F0870120BDE8F087E47F00202DE9F0470A
:10D2A000DFF86C904FF02C0A0AFB009E8046DEF8F7
:10D2B00004000EB200EBC60710F83600FC78651CBF
:10D2C000EDB2A84298BF00257878A8421DD07868B2
:10D2D00004EB4404240106194FF0050C00F804C0C7
:10D2E0007270B3620222089B7262F362FD70DEF814
:10D2F0002030DEF824400846984708FB0A930022B5
:10D300000421A047706ABDE8F0870120BDE8F087DE
:10D31000E47F00202DE9F047DFF878804FF02C0AF9
:10D3200081460AFB00800FFA81FE456805EBCE07B7
:10D3300015F83E50FC78661CF6B2B54298BF002640
:10D340007D78B54223D0D7F804C004EB440425010E
:10D350000CEB05044FF0020E0CF805E0A360089BEF
:10D36000E360099BA362FF250A9B62606570C4F8B5
:10D3700024E0E362FE70456A036A0846984709FBA9
:10D380000A8300220421A847606ABDE8F0870120D3
:10D39000BDE8F087E47F00202DE9F047DFF86C90CE
:10D3A0004FF02C0A0AFB009E8046DEF804000EB205
:10D3B00000EBC60710F83600FC78651CEDB2A842F9
:10D3C00098BF00257878A8421DD0786804EB440403
:10D3D000240106194FF0010C00F804C0FF20707002
:10D3E00002207062B262F362FD70DEF82030DEF877
:10D3F00024400846984708FB0A9300220421A047CE
:10D40000706ABDE8F0870120BDE8F087E47F002066
:10D410002DE9F041084C2C2505FB004306465F6AC8
:10D420001B6A0846984706FB0543BC4600220421B8
:10D43000BDE8F041604700BFE47F00200AF042BA37
:10D44000401A20F07F40704708B50346012B08467C
:10D450000ED833B119B106220649F6F742FF054846
:10D4600008BD19B106220449F6F73BFF024808BD82
:10D47000002008BD428000203C80002070B5064698
:10D480000D4606F017FC044610B10C24204670BD72
:10D4900006F024FC10F0060FF7D1062229461EB133
:10D4A0000248F6F71EFFF1E70148FAE74280002044
:10D4B0003C800020002303700B70704720BF40BFEA
:10D4C00020BF7047F0B50D4B89B005460E4601AA46
:10D4D00003F1180718685968144603C40833BB429F
:10D4E0002246F7D11B88238008AB1D4415F81C0C7D
:10D4F000831B5842584109B0F0BD00BF0CB5010074
:10D5000008607047024B1868436800211B68184781
:10D510004880002018B90B6843F000430B60704747
:10D5200018B90B6823F000430B60704770B5031DFA
:10D53000451E00249D4201D1204670BD15F8016FA3
:10D540000022A018082AC0B201D10446F2E716F062
:10D55000010F03D00029F0D00139C9B27608013299
:10D56000EFE70000094B93F8420193F84121904204
:10D570003BBF93F8412193F8403193F84131C018F3
:10D580002CBFC01A801AC0B2704700BF488000206C
:10D5900008B50146FFF7E6FF884221BF044B93F828
:10D5A0004121D3F83C3153F8220038BF002008BD98
:10D5B000488000202DE9F843224D95F8424195F826
:10D5C000549195F8403101348145E4B228BF814639
:10D5D00005F5A477A34208BF002405F59878B9F1B2
:10D5E000000F03D095F841319C4201D1BDE8F8838A
:10D5F0003846FEF71AFF06460028F7D04046FEF7E9
:10D6000014FF28B930461049BDE8F843FEF727BF9C
:10D61000066095F84221D5F83C3143F8220085F8A0
:10D62000424195F840310134E4B2A34208BF0024DE
:10D6300095F8543109F1FF39013B85F854315FFA0F
:10D6400089F9CCE7488000209081002010B53D4C3E
:10D6500094F81021002A48D004F586734FF4AA717B
:10D66000D4F80801FEF7BAFE374B94F83A21B4F823
:10D670003811D4F82C01FEF7B1FE94F8401194F85B
:10D680001021324BD4F844010A440821FEF7A6FECB
:10D690002F4BD4F8580102222421FEF79FFE94F864
:10D6A0007421D4F860012B4BB4F86811013A92B29E
:10D6B000FEF794FE2548FEF7B8FEC8B901214FF0E9
:10D6C000000261F30202244B24495B1ADB0860F379
:10D6D000C50263F38F1222492248F5F701FE40404C
:10D6E00080F311884FF0040002DFC4F80C21BBE77F
:10D6F0001D4A111FFEF7F0FE94F8293043F038035D
:10D7000084F829301F2384F81E31252384F81F3123
:10D710001B23A4F822314FF4A473FF20A4F8243172
:10D72000072384F81A0184F81B0184F81C0184F88B
:10D730001D01A4F82631A4F82831BDE81040FFF7F8
:10D7400039BF00BF488000207881002090810020F0
:10D75000A4810020AC81002010B40100E0B30100DE
:10D76000C1F5010034FA0100988100202DE9F84F3D
:10D770000C78944281460F4690463DD01F4ED6F815
:10D78000703133F83430038000254FF0020B06F57A
:10D79000B27A22B2D6F87001B9F800E000EBC2010B
:10D7A00030F83220964520D14868012820F0030344
:10D7B0000AD9F3B1021D1CD04279D2B1027902F02C
:10D7C0000302013A012A14D8012215444A60EDB23D
:10D7D00013B15146FEF743FE013496F87421E4B2CA
:10D7E000A24208BF00244445D3D13C702846BDE87E
:10D7F000F88FC1F804B0EBE70025F7E74880002078
:10D8000010B5094B93F81021824204460AD902460A
:10D810004FF4AA71D3F80801FEF73CFE10B1038C57
:10D82000A34200D0002010BD488000202DE9F04127
:10D8300086B00223052805460F4602930CD0062821
:10D8400050D055D9073880B2FFF7DAFF002800F032
:10D85000B68190E840010FE0B04B9E69D3F81C8080
:10D8600002AB00930A46AE4B03210020FFF716FDE2
:10D87000022819D0029BDBB9A84CA37C03F0FF005F
:10D88000002B45D001234FF0000263F30202A549AB
:10D89000A54BA6485B1A6FF3C502DB0863F38F1232
:10D8A000A34917E0FFF70AFE029B022BFAD0E1E73B
:10D8B000029B012BE0D001234FF0000263F3020230
:10D8C0009849994B9B485B1A6FF3C502DB0898494E
:10D8D00063F38F12F5F704FD404080F311884FF099
:10D8E000040002DF8D4BD3F8D060D3F8D480C3E7B7
:10D8F00001234FF0000263F302028A498A4B5B1A4C
:10D900006FF3C502DB088A4963F38F128A48E1E7A7
:10D9100006AB0222A57443F8102D032100932A467A
:10D920007F4BFFF7BBFC02282FD0029B002B40F05F
:10D930003181237C9D4203D0637C9D4240F026814F
:10D9400006AB022243F80C2D002200930321744BF6
:10D950001046FFF7A3FC022825D10122114603201F
:10D96000FEF706FE039B022B1DD101234FF00002A0
:10D9700063F302026B496C4B70485B1A6FF3C5028C
:10D98000DB0863F38F126E49A4E7637C9D4204D1E8
:10D99000012211460320FEF7EBFD029B022BC4D1AE
:10D9A000FFF78CFDF9E7039D002D78D10223049346
:10D9B000237C03F0FF017BB901234FF0000263F3E6
:10D9C000020261F3C502584B56495E485B1ADB08F8
:10D9D00063F38F125A497DE704AB00930122504B49
:10D9E000257403212846FFF759FC022817D101228C
:10D9F00011460320FEF7BCFD049B022B0FD101232F
:10DA00004FF0000263F302024649474B4E485B1A4F
:10DA100065F3C502DB0863F38F1249495AE7049D99
:10DA2000EDB926F00046B0458CBF484B484B2A461E
:10DA300029460320FEF7C4FD002800F0A7804FF020
:10DA40000002012363F3020265F3C5023549364B38
:10DA500040485B1ADB0863F38F1239493AE7049EAA
:10DA6000012E40F09D800022384B11460320FEF726
:10DA7000A7FD054630B14FF0000266F302026FF3D6
:10DA8000C502E3E702460146314B0320FEF798FD4D
:10DA900000287BD04FF0000266F30202D4E7039D1A
:10DAA000012D7DD1FF2F5BD006AB022243F8042D60
:10DAB000032100933A461A4B0020FFF7EFFB0228A0
:10DAC00016D12A4629460320FEF752FD059B022B5C
:10DAD0000ED11449144B20484FF000025B1A65F335
:10DAE00002026FF3C502DB0863F38F121449F1E6FB
:10DAF000059BABB3059B012B32D001234FF00002F5
:10DB000063F302020749084B14485B1A6FF3C5021E
:10DB1000DB0863F38F120A49DCE600BF488000206F
:10DB200001D50000E0B3010010B4010016020200AC
:10DB3000D9F90100E2010200B0E401004202020052
:10DB4000C5F901006702020095020200FCCA00202C
:10DB50008CCB0020B9020200D3020200F9020200BD
:10DB6000237D9BB1174B04229A60002211460320AB
:10DB7000FEF726FD38B14FF00002012363F30202E5
:10DB80007DE7FFF79BFC237D002BFAD1A37C0BB92B
:10DB9000012302930023A374029806B0BDE8F0812C
:10DBA00001234FF0000263F302020749074B5B1A9F
:10DBB0006FF3C502DB0863F38F120549A6E6012067
:10DBC000EBE700BF2CCB0020E0B3010010B4010054
:10DBD000C5F9010038B504462E4B002932D01D7816
:10DBE000002D56D1012816D001234FF0000263F317
:10DBF00002022949294B2A485B1A65F3C502DB0852
:10DC0000284963F38F12F5F76BFB404080F31188CE
:10DC10004FF0040002DF18702A46234B2946FEF716
:10DC2000CFFC002835D04FF0000264F3020265F308
:10DC3000C5021949194B1D485B1ADB0863F38F12A3
:10DC40001849E0E71A7822B3197000B301280ED101
:10DC5000174B002211462046FEF7B2FCC8B14FF028
:10DC60000002012363F302026FF3C502E1E701231F
:10DC70004FF0000263F3020261F3C502074B06494D
:10DC80000C485B1ADB0863F38F120649BBE70A4BAB
:10DC9000DFE738BD54820020E0B3010010B401007A
:10DCA00095000200C7F701004CCB0020B90002002C
:10DCB0006CCB0020B0E401005CCB0020F8B590F8FC
:10DCC0003A40058E064604F007040F462046002120
:10DCD00009F0BEFF96F8F83013F0100F4FEA440237
:10DCE00010D0291D42F00102C9B208200AF014F830
:10DCF0003A46214606F1F9000AF034FABDE8F84048
:10DD00000AF03CB8082042F00102E9B20AF004F837
:10DD10003846F3E7F8B50F4690F83810C58DC1F3D3
:10DD2000C2040646C909204609F092FF96F8F83069
:10DD300013F0200F4FEA44020FD0291DC9B208206A
:10DD400042F0010209F0E8FF394606F58D700AF04D
:10DD500057FABDE8F8400AF017B8082042F001026F
:10DD6000E9B209F0D9FF3846F3E770B504780A78CC
:10DD7000C4F38013B3EBD21F19D104F00F04012CAC
:10DD800001F1080600F1020508D0062231462846B6
:10DD9000F6F792FAB0FA80F0400970BD06223146DB
:10DDA0002846F6F789FA0028EFD1204670BD0020FA
:10DDB00070BD000010B5264A92F8413192F8421128
:10DDC000994216D101234FF0000263F30202214968
:10DDD000214B22485B1A6FF3C502DB08204963F32D
:10DDE0008F12F5F77DFA404080F311884FF0040060
:10DDF00002DF92F84111D2F83C3153F8211092F829
:10DE0000783108680B7092F8413192F84041013343
:10DE1000DBB29C4208BF002382F8413102F5A872B0
:10DE2000FEF75DFB78B901234FF0000263F30202B5
:10DE30000849094B5B1A60F3C502DB0863F38F12D4
:10DE400007490848CDE7BDE8104006F0AFBD00BF68
:10DE500048800020E0B3010010B40100330102004B
:10DE600063F9010034FA01002DE9F0478246087891
:10DE700001F108080D46C009414691461E4609F0C9
:10DE800001F90446D8B91C4FBAF1000F0ED12B7816
:10DE900097F8E120DB09B3EBD21F13D106224146EC
:10DEA0001648F6F709FA68B9012012E097F8E2304F
:10DEB000DB07ECD5484608F0F9FD0028E7D02046FE
:10DEC000BDE8F08797F8E100C0F3011010F0020000
:10DED00001D10446F3E795F90030002B09DA6B7B9A
:10DEE00003F0C003402B04D1002EDDD001203070A0
:10DEF000EFE70020EDE700BF488000202C810020E4
:10DF00000B4A92F8803192F8811199420ED192F821
:10DF1000803102EB4303A3F87A0192F88031013398
:10DF2000DBB2032B08BF002382F88031704700BFAB
:10DF30004880002008B5B0B101234FF0000263F320
:10DF400002020949094B0A485B1ADB086FF3C50254
:10DF500063F38F120749F5F7C3F9404080F3118846
:10DF60004FF0040002DF08BDE0B3010010B401006F
:10DF700034040200D4F6010008B5B0B101234FF01B
:10DF8000000263F302020A490A4B0B485B1ADB08E2
:10DF90006FF3C50263F38F120849F5F7A1F940400A
:10DFA00080F311884FF0040002DF054BD87408BDE0
:10DFB000E0B3010010B401003404020066F7010070
:10DFC0004880002008B5B0B101234FF0000263F390
:10DFD00002020B490B4B0C485B1ADB086FF3C502BE
:10DFE00063F38F120949F5F77BF9404080F31188FC
:10DFF0004FF0040002DF064BC9B2D97408BD00BF60
:10E00000E0B3010010B40100340402004DF7010038
:10E0100048800020012808B5184B1BD19A7C052A9E
:10E0200002D100229A7408BD1549164B4FF0000228
:10E0300060F302025B1A6FF3C502DB081249134852
:10E0400063F38F12F5F74CF9404080F311884FF0DD
:10E05000040002DF1B7C052B0FD101234FF00002CF
:10E0600063F302020649074B09485B1A6FF3C502C6
:10E07000DB0863F38F120449E4E708BD4880002001
:10E08000E0B3010010B4010003F70100B0E40100A7
:10E090009E030200012808B5184B1BD19A7C062A62
:10E0A00002D100229A7408BD1549164B4FF00002A8
:10E0B00060F302025B1A6FF3C502DB0812491348D2
:10E0C00063F38F12F5F70CF9404080F311884FF09D
:10E0D000040002DF1B7C062B0FD101234FF000024E
:10E0E00063F302020649074B09485B1A6FF3C50246
:10E0F000DB0863F38F120449E4E708BD4880002081
:10E10000E0B3010010B401001AF70100B0E401000F
:10E110000104020008B5D0B10D4B9B7C052B16D035
:10E1200001234FF0000263F302020A490A4B0B4835
:10E130005B1ADB086FF3C50263F38F120849F5F72A
:10E14000CFF8404080F311884FF0040002DF08BD93
:10E1500048800020E0B3010010B401005504020023
:10E16000EAF6010008B5F0B10F4B9A7CC9B29142B2
:10E1700019D0DB7C994216D001234FF0000263F3E3
:10E1800002020A490A4B0B485B1ADB086FF3C5020F
:10E1900063F38F120849F5F7A3F8404080F3118824
:10E1A0004FF0040002DF08BD48800020E0B301000A
:10E1B00010B401009804020032F7010008B5B0B1B4
:10E1C00001234FF0000263F302020C490C4B0D488F
:10E1D0005B1ADB086FF3C50263F38F120A49F5F788
:10E1E0007FF8404080F311884FF0040002DF91F87F
:10E1F000503060F3410381F8503008BDE0B30100B6
:10E2000010B401007603020006FA0100044B5B7DA6
:10E2100023B1012100220846FEF7AAB9704700BFCA
:10E2200048800020062810B50C460AD9094BC21FA9
:10E2300092B24FF4AA71D3F80801FEF72BF92060CF
:10E2400010BD052804D00628034818BF002010BDC3
:10E25000024810BD48800020188100206080002006
:10E2600008B54FF00002012363F302020849094B8D
:10E2700009485B1ADB086FF3C50263F38F12074985
:10E28000F5F72EF8404080F311884FF0040002DFCC
:10E29000E0B3010010B40100B900020015F801005C
:10E2A000002208B511460E4B1046FEF789F9B0B1B1
:10E2B00001234FF0000263F302020A490A4B0B48A4
:10E2C0005B1ADB086FF3C50263F38F120849F5F799
:10E2D00007F8404080F311884FF0040002DF08BDCA
:10E2E000CCCA0020E0B3010010B40100B900020064
:10E2F00094F70100002208B511460E4B1046FEF7B8
:10E300005FF9B0B101234FF0000263F302020A4942
:10E310000A4B0B485B1ADB086FF3C50263F38F12DD
:10E320000849F4F7DDFF404080F311884FF0040006
:10E3300002DF08BD3CCB0020E0B3010010B40100B7
:10E34000B9000200B0F7010008B5144A137838B1DB
:10E35000591C11700BBB0120BDE8084006F024BB1E
:10E36000B3B901214FF0000261F3020263F3C50269
:10E370000B490C4B0C485B1ADB0863F38F120B49FB
:10E38000F4F7AEFF404080F311884FF0040002DF45
:10E39000013BDBB21370002BDED008BD08820020E9
:10E3A000E0B3010010B401003200020080F7010068
:10E3B0000020FFF7C9BF0000C0B208B5031F012B42
:10E3C00016D901234FF0000263F302021049114BEA
:10E3D00011485B1ADB086FF3C50263F38F120F4914
:10E3E000F4F77EFF404080F311884FF0040002DF15
:10E3F0000B4A537D3BB1043B012B04D95075BDE85A
:10E40000084009F0EFBC09F01FFD0028F7D008BD57
:10E41000E0B3010010B401005000020003F8010055
:10E420004880002038B51B4A92F8783192F8744140
:10E430000133DBB29C4208BF002392F877419C4233
:10E4400016D101234FF0000263F302021249134B6D
:10E4500013485B1ADB086FF3C50263F38F1211498F
:10E46000F4F73EFF404080F311884FF0040002DFD4
:10E4700092F87851D2F8704124F8350092F878017A
:10E4800004EBC004616082F87831BDE8384006F0E2
:10E490008DBA00BF48800020E0B3010010B4010035
:10E4A0007A01020075F901002DE9F843244C064673
:10E4B00000272EB194F8753194F876219A4201D153
:10E4C000BDE8F88394F87581D4F86C91D4F808010C
:10E4D00039F8382009EBC8034FF4AA715D682F6042
:10E4E000FDF7D8FF034639F838001A8C82421FD155
:10E4F000D3F8482142B9D3F83C21C3F848511AB99E
:10E50000C3F83C51C3F84C21D3F84C2102B115603B
:10E51000C3F84C5194F8753194F874210133DBB28F
:10E520009A4208BF0023013E84F87531F6B2C0E775
:10E530002B7967F301032B712946FFF773FFE9E796
:10E5400048800020F7B50122044611460020FEF75E
:10E550000FF894F8202042F29B33002107320093F9
:10E56000D2B24B4B0846FEF799FE30F0020616D0A9
:10E570004FF00002012363F302026FF3C502454925
:10E58000454B46485B1ADB0863F38F124449F4F7A6
:10E59000A7FE404080F311884FF0040002DF414B9A
:10E5A0005A7D052A1F4637D1228C197C07329142A9
:10E5B00032D11E7442F2AC3300930122344B314607
:10E5C0003046FEF76BFE30F0020507D04FF0000238
:10E5D000012363F3020266F3C502D0E742F2B333CC
:10E5E00000932A462A4B29462846FEF757FE30F06C
:10E5F000020311D04FF00002012363F3020265F31E
:10E60000C502BCE70B796FF301030B710B68C4F80B
:10E610003C31208CFFF706FFD4F83C11D4F8403190
:10E62000994203D0D4F848319942EBD11E4D07E00E
:10E630000368C4F83C31C4F840312946FDF70FFFA8
:10E64000D4F83C0118B1D4F848319842F0D10023F5
:10E65000C4F84031C4F84431D4F83C1151B94FF6F4
:10E66000FF732384D7F888319C4208BFC7F888110C
:10E6700003B0F0BD0B796FF301030B710B68C4F8A5
:10E680003C31C4F84831208CFFF7CCFEE4E700BFF2
:10E6900035DF0000E0B3010010B401004EFA0100C4
:10E6A00089F9010048800020A4810020262810B5A7
:10E6B00004460BD027280BD025280BD1022009F0C7
:10E6C000FBFA2046BDE8104009F0FCBA1A20F6E734
:10E6D0005020F4E70A2802D802304000EFE727284C
:10E6E00001D80330F9E701234FF0000263F302027F
:10E6F0000849094B09485B1ADB086FF3C50263F34D
:10E700008F120749F4F7ECFD404080F311884FF079
:10E71000040002DFE0B3010010B40100B0E4010026
:10E7200035F8010070B5314C94F8793094F87A20BE
:10E730009A4251D00133DBB2022B08BF002384F888
:10E740007930012294F8C93094F8CA10994207D060
:10E750000133DBB2022B08BF002384F8C930012249
:10E7600094F8795027232B2113FB0515661942B124
:10E7700094F8C90003FB00400622B11C7D30F5F778
:10E78000B0FD304609F000FB635D03F00F03022B80
:10E7900024D0072B22D002239620637509F01AFC9F
:10E7A000002009F079FB94F82830C3F30202D3B2B9
:10E7B00019460020CE0700F1010514D5013B134096
:10E7C00094F82820C0B263F3020284F82820253090
:10E7D000BDE87040FFF76ABF0022B3E7032363750B
:10E7E00009F070FBDFE749082846E3E7488000208E
:10E7F00010B50120FEF7CCFE0446B0B901234FF05E
:10E80000000263F302021149114B5B1ADB0860F34B
:10E81000C50263F38F120F490F48F4F761FD4040C2
:10E8200080F311884FF0040002DF4FF6FF73C380BE
:10E83000062303711D2200210830F5F77EFD3C23DD
:10E840002372BDE81040FFF7B5BA00BFE0B3010086
:10E8500010B4010060F801001500020010B5034675
:10E860000A4600F1B401D0F8B400B0B901234FF06A
:10E87000000263F302021C491C4B5B1A60F3C502E1
:10E88000DB081B491B4863F38F12F4F729FD404056
:10E8900080F311884FF0040002DF1C8CA3F8BA400B
:10E8A00083F8BC200724144A83F8B84092F87841D2
:10E8B00083F8B44002F5A872FDF711FE78B9012380
:10E8C0004FF0000263F302020749084B5B1A60F342
:10E8D000C502DB0863F38F1205490848D5E7BDE898
:10E8E000104006F063B800BFE0B3010010B40100AF
:10E8F0009CF90100490302004880002034FA01001D
:10E900002DE9F041804603200F46FEF741FE044604
:10E9100000283FD04FF6FF73C380204B93F8E130BF
:10E920005A0733D0C3F30203DAB2012A18D0042AFB
:10E9300017D001234FF0000263F302021849194B6C
:10E9400019485B1ADB086FF3C50263F38F1217498E
:10E95000F4F7C6FC404080F311884FF0040002DF5A
:10E960000323667A237104F108050236B8F1000F1B
:10E970000ED009F0BFFA00F07F00A855637A1D445D
:10E98000EF70FFF717FA0020BDE8F0810223E8E7F7
:10E990007F20F2E70120BDE8F08100BF4880002021
:10E9A000E0B3010010B40100B0E40100EBF5010098
:10E9B00030B50368002B89B02FDA4468856806906B
:10E9C000A54223F0004334BF1B1B5B1B00249BB2FA
:10E9D00013480590019300930494234603940294F2
:10E9E0002046FEF70DFC30F0020316D001234FF055
:10E9F000000263F302020B490B4B0C485B1ADB0865
:10EA000064F3C50263F38F120949F4F769FC4040CF
:10EA100080F311884FF0040002DF09B030BD00BF61
:10EA200021D50000E0B3010010B401004EFA01004E
:10EA3000DAF7010070B514460E460546FEF7FEFCF7
:10EA40002146FEF7FDFCC41C092C0FD90021084605
:10EA5000FFF7C0F8324600212846FFF7A9FFAB6850
:10EA60001C44262C00D8AC60012070BD002070BD75
:10EA7000F0B58FB002230993FF220023694E6A4D3F
:10EA80000A9304460B938DF823200C9309AB029351
:10EA90000CAB009301960DAB0DF123020121002078
:10EAA000FEF738FC02281CD0099BF3B101234FF07C
:10EAB000000263F302025D495D4B5E485B1A6FF32F
:10EAC000C502DB085C4963F38F12F4F709FC404090
:10EAD00080F311884FF0040002DF01210020FEF7CF
:10EAE00097FC099B022BF8D0DEE79DF82330FF2B23
:10EAF00004D095F8102107329342C7DA5A1FD2B2D8
:10EB0000F92A05D8484A92F810210732934205DBCA
:10EB100000210120FFF75EF80FB0F0BD0AA9E0B2B6
:10EB2000FFF780FB78B901234FF0000263F3020284
:10EB30003E493F4B5B1A60F3C502DB0863F38F125B
:10EB40003D493E48C1E703684568C768002BB8BF28
:10EB500083689DF823009D420BA938BF1D46FFF72F
:10EB600061FB3137044678B901234FF0000263F3AB
:10EB700002022E492E4B5B1A60F3C502DB0863F3D9
:10EB80008F122D492E48A0E78668436802689E428E
:10EB900038BF1E46002A09DA0C9B22F00042921B65
:10EBA0009A4235BF9A1A00230C920C930C9B3D4459
:10EBB0009D420AD200210120FFF70CF89DF8232086
:10EBC00001212046FFF7F4FEA6E701210846FFF7E2
:10EBD00001F82368002B9FDB9E429DD29B1B9BB2BA
:10EBE000069418490591002402939DF8232004946B
:10EBF00003940194009401212046FEF701FB30F0BC
:10EC0000020389D001234FF0000263F30202074997
:10EC1000074B0D485B1A64F3C502DB0863F38F12E0
:10EC2000054952E701D5000048800020E0B301000B
:10EC300010B40100D6000200EDF70100F700020059
:10EC40001501020015D500004EFA010030B5764CD2
:10EC500085B0D0B1A37C052B00F0E48001234FF0F8
:10EC6000000263F302027149714B72485B1A6FF341
:10EC7000C502DB08704963F38F12F4F731FB4040A3
:10EC800080F311884FF0040002DF237C052B03D0B2
:10EC9000637C052B40F0AF8004AB022243F8082DC3
:10ECA000002200930121654B1046FEF7F7FA022877
:10ECB00019D0029820B3029D012D40F08C80237D55
:10ECC000002B00F098805E4B04229A6000221146CF
:10ECD0002846FDF775FC002800F08D804FF00002FB
:10ECE00065F302023DE0012211461046FDF740FCAB
:10ECF000029B022BDDD101210020FEF789FBF7E703
:10ED000002230393237C03F0FF017BB901234FF01F
:10ED1000000263F3020261F3C502454B43494948CF
:10ED20005B1ADB0863F38F124749A6E703AB0122A6
:10ED3000207411460093414BFEF7B0FA022813D01D
:10ED4000039DF5B1039C012C45D100223F4B114698
:10ED50002046FDF735FC054688B34FF0000264F30A
:10ED600002026FF3C50221E0012211461046FDF7B1
:10ED7000FFFB039B022BE3D101210020FEF748FBA0
:10ED8000F7E7A369E26923F00043934234BF2F4BB6
:10ED90002F4B2A4629460120FDF712FC58B34FF0AD
:10EDA0000002012363F3020265F3C5021F49204BF1
:10EDB00028485B1ADB0863F38F1223495DE702469C
:10EDC0000146234B2046FDF7FBFBA0B14FF00002AC
:10EDD00064F30202E8E701234FF0000263F302024A
:10EDE0001249134B1C485B1A6FF3C502DB0863F32F
:10EDF0008F12154941E70022184B11460120FDF7FB
:10EE0000DFFB78B101234FF0000263F302020749F0
:10EE1000074B13485B1A6FF3C502DB0863F38F12CD
:10EE200005492AE705B030BD48800020E0B3010065
:10EE300010B40100D10302008CF8010001D50000DC
:10EE40001CCB00206702020070F80100ECCA002011
:10EE50007CCB0020B9020200B0E40100BCCA002053
:10EE6000B900020037B502AD104B45F8043D044629
:10EE700008F0D4FE002008F019FF0D4808F098FEB5
:10EE80000121204608F0E4FE284608F02DFF62002C
:10EE900002F0FE022521082008F03EFF054940F25D
:10EEA0005B6008F0DBFF03B030BD00BFD6BE898ECB
:10EEB0007120010055555500464B1A7D70B502F082
:10EEC000FF0105461C46B2B101234FF0000263F377
:10EED00002024149414B42485B1A6FF3C502DB080D
:10EEE000404963F38F12F4F7FBF9404080F3118837
:10EEF0004FF0040002DF1B7CDBB2052B4FF0010654
:10EF00000ED04FF0000266F3020261F3C502334BEC
:10EF1000314935485B1ADB0863F38F123149E2E768
:10EF2000A06094F82900267500F00700217463742E
:10EF3000FFF798FF94F8293094F82820C3F3C20310
:10EF400063F3020284F82820FFF7ECFB08F0BAF81C
:10EF500094F8293000B313F0C00F14BF0120002033
:10EF600007F0BEFE821C4178007808F0DBFF05F157
:10EF70000901E268012009F039F809F0DFF82A46B2
:10EF800005211A48FFF756FD054650B10423637565
:10EF9000BDE8704008F026BF13F0C00FE7D0304640
:10EFA000DEE70346124A0146FEF7F6F930F00203A7
:10EFB0000FD001234FF0000263F302020649074B12
:10EFC0000C485B1A65F3C502DB0863F38F12054931
:10EFD00089E770BD48800020E0B3010010B4010053
:10EFE0006DFB010056F8010090FA010060800020DE
:10EFF0000DE200004EFA010008B5054B00229860B2
:10F0000011461046FDF7DCFA08B1FFF729F908BDF3
:10F010000CCB00202DE9F04F14688DB09B46002CDE
:10F020009DF85C300B91824691460A93DBF80060B4
:10F0300003DA169CB44238BF3446B442DFF8BC81D0
:10F040002ED941F2C2530893634B05930025A31BAD
:10F050000093CDF81C8053460695049503950295C0
:10F060000195012229462846FEF77AF830F002037E
:10F070003ED04FF00002012363F3020265F3C502A4
:10F080005649574B57485B1ADB08574963F38F12B1
:10F09000F4F726F9404080F311884FF0040002DFB6
:10F0A0001FD200231A4619461846FFF7F9F841F215
:10F0B000D75300250893341B4C4B0593CDF81C8087
:10F0C000534606950495039502958DE8300001227C
:10F0D00029462846FEF744F830F00203C9D13446E9
:10F0E0000BE000231A4619461846FFF7D9F800230B
:10F0F0001A4619461846FFF7FDF83D4F0B9BFB607B
:10F1000041F2EF530893199B06930025189B059332
:10F11000CDF81C8053460495039502958DE8300088
:10F120002A4629462846FEF71BF830F00203A0D1F4
:10F130000520FFF761FFD7F884319E422DD0CBF830
:10F140000030D9F80030002BBCBF23F00043C9F8D1
:10F150000030D7F88411D9F80020CDF814808A4205
:10F1600038BF0A46A3B292B2002441F21D61069153
:10F17000029301920092049403940A9A2146204635
:10F18000FEF73EF830F0020307D04FF000020123F3
:10F1900063F3020264F3C50272E7FF20FFF784F90C
:10F1A000144B0A9A9A60012211460020FDF708FAD2
:10F1B00078B101234FF0000263F302020749084BC4
:10F1C0000D485B1A6FF3C502DB0863F38F12064923
:10F1D0005EE70DB0BDE8F08FA1E20000E0B30100F2
:10F1E00010B401004EFA010020F80100F5E2000021
:10F1F000488000209CCB0020B900020035DF0000D1
:10F200001FB5154A137C03F0FF04B3B101234FF07F
:10F21000000263F302021149114B12485B1ADB082A
:10F220006FF3C50263F38F120F49F4F759F84040AA
:10F2300080F311884FF0040002DF05231374039458
:10F240000A4C02940193136A009302F11C031832D2
:10F25000FFF7E0FE04B010BD48800020E0B30100DD
:10F2600010B40100B30102003EF80100B9EE000045
:10F2700007B50520FFF7C0FE41F6261300210093D5
:10F280000522104B0846FEF709F830F0020316D0AD
:10F2900001234FF0000263F302020B490B4B0C48B1
:10F2A0005B1ADB086FF3C50263F38F120949F4F7A9
:10F2B00017F8404080F311884FF0040002DF03B0DC
:10F2C0005DF804FB4DEC0000E0B3010010B4010058
:10F2D0004EFA0100A1F80100436810B45C681CB14B
:10F2E000A446002310BC60476FF0220010BC70479A
:10F2F00038B5154B1A782ABB012514481D700AF041
:10F300002FFC0446B8B91249124B4FF0000265F3C6
:10F3100002025B1ADB0860F3C50263F38F120E4929
:10F320000E48F3F7DDFF404080F311884FF00400F2
:10F3300002DFFEF7C3F8636801211B682046984787
:10F340000028F6D138BD00BFD4810020B0DA01001A
:10F35000E0B3010010B40100BBF70100EAFE0100B8
:10F36000024B1868436800215B68184748800020FA
:10F37000F0B5484003274FEA102E082600240EF06F
:10F380000105013E45EA440516F0FF06ECB24FEADE
:10F390005E0EF4D125022DB2C0B24FF0080E3446F5
:10F3A00000F0010646EA44040EF1FF3616F0FF0EA7
:10F3B000E4B24FEA5000F3D12C4304EB0414013FB4
:10F3C0000C4417F0FF07A0B2D5D125244140B1FB72
:10F3D000F4F004FB1010C0B2C40800F00705145D7F
:10F3E0002C41E40707D45943C1F307411046BDE857
:10F3F000F040FEF79BB8F0BD10B590F8F840D0F89B
:10F40000402114F0800F18D1D0F83C31ABB1240763
:10F4100013D4D0F84841A34204BF1C68C0F8484147
:10F4200092B91A680A601960C0F84011C0F8441116
:10F430000B680BB9C0F84C1110BD2AB9D0F83C319B
:10F440000B60C0F83C11EFE7D0F844311A680A604D
:10F450001960EBE710B490F8F84024070A460FD57E
:10F46000D0F8401131B9D0F83C111160C0F83C21FE
:10F4700010BC7047D0F84431196811601A60F7E782
:10F4800010BCFFF7B9BF0000F8B5214F054607F5DE
:10F49000AE700E46FCF7C9FF0446B0B333797179FC
:10F4A000D7F8142143F07F4343F47E0343F44353DE
:10F4B00043F0100343EA0123B17943EA0143D2F850
:10F4C000A410C1F310010B40C2F8A43092F85030E0
:10F4D00043F0200382F85030037943F003030371B3
:10F4E000082209234371C37100211044F4F725FF5A
:10F4F000D5F8A43023721A0A1B0C28466272A37234
:10F500002146FFF7A7FF0020F8BD0120F8BD00BF8E
:10F510004880002010B50446C9B90F48FCF785FFA4
:10F52000B8B1011D94F8F83043F0200384F8F830A6
:10F530000B7843F003030B7001234B700623CB7051
:10F5400040B101462046FFF757FF002010BD0020C4
:10F55000E8E7012010BD00BFA481002070B504467B
:10F560000B480E461546FCF760FF78B1037906722A
:10F5700043F003030371032343711123C3714572E5
:10F5800001462046FFF738FF002070BD012070BD06
:10F59000A4810020000000002DE9F04FCB4D8FB07A
:10F5A0001C462B7C0B918046B3B101234FF0000227
:10F5B00063F30202C649C74BC7485B1A6FF3C50223
:10F5C000DB08C64963F38F12F3F78AFE404080F3ED
:10F5D00011884FF0040002DF94F820300733DBB2CB
:10F5E0002B7494F91D30002B09DA636DE16D02FB79
:10F5F00003330B44A16DE3658B4288BFE165268D23
:10F6000094F874303244668C92B22285324496B2B9
:10F6100094F875209A4240F0A28194F8F8305F0780
:10F6200000F15D8294F8C12094F8C0309A4251D024
:10F630000520FFF7E1FCD5F888310BB19C4249D198
:10F6400094F8C23003F00703052B00F22E81DFE8A7
:10F6500013F0060058000001410041004100A0489D
:10F66000FCF7E3FE0146A8B394F8C230042262F32B
:10F67000020384F8C230037943F0030303711823B3
:10F6800043710F23C371B4F8C4300381B4F8C6309A
:10F690004381B4F8C8308381B4F8CA30C3810023F1
:10F6A0000374C37403754FF0FF3343758375C375DB
:10F6B000037643768376C376037743778377A0F820
:10F6C00011602046FFF798FEB4F84230C5F8884133
:10F6D000A4F8443094F8F52094F8F4309A4200F0FD
:10F6E00037810520FFF788FC94F8F63003F0030219
:10F6F000032A00F2A681DFE812F0F9002B012B01AA
:10F70000450194F8C370EFB17548FCF78EFE0146D1
:10F710000028DFD0037943F0030303711123C37181
:10F72000032343710F23037294F8C33043722046BE
:10F73000FFF762FE94F8C03084F8C1300023C5F8AA
:10F740008831C7E794F91D30002B3EDB94F8741024
:10F7500094F875308B42BDD194F8C230C4F88470EF
:10F76000052262F3020394F8CC2084F8C23001230E
:10F7700084F8883032B3B4F8C43093FBF2F3013329
:10F7800013FB02F3A4F87A30B4F8C830A4F87C3044
:10F79000B4F8CA30A4F87E3094F87830022262F3CC
:10F7A000010394F8C22082F00802C2F3C00262F39F
:10F7B000820384F878300139012384F8763084F8A4
:10F7C000751087E7B4F8C630DCE74548FCF72DFE36
:10F7D000014600283FF47EAF037943F00303037131
:10F7E000182343711023C371B4F8C4300381B4F8F3
:10F7F000C6304381B4F8C8308381B4F8CA30C381BD
:10F8000094F8CC300374B4F8CE30A0F81130B4F8CA
:10F81000D030A0F81330B4F8D230A0F81530B4F8D6
:10F82000D430A0F81730B4F8D630A0F81930B4F8B6
:10F83000D830A0F81B30B4F8DA30A0F81D302046DC
:10F84000FFF7DAFD94F8C03084F8C130C5F888714C
:10F8500040E794F8F83018073FF53CAF0220FDF779
:10F8600097FE00283FF436AF94F8C230032262F3CB
:10F87000020384F8C230238CC38001230371037A0E
:10F8800013430372182343720F23C372B4F8C430B6
:10F890008381B4F8C630C381B4F8C8300382B4F8A9
:10F8A000CA304382FEF786FA14E701234FF00002C4
:10F8B00063F302020649074B5B1A6FF3C502DB08CC
:10F8C000084963F38F1208487EE600BF4880002095
:10F8D000E0B3010010B40100B301020031F90100EE
:10F8E000A4810020E2F80100B0E40100C248FCF766
:10F8F0009CFD014660B394F8F63094F8397001220B
:10F9000062F3010384F8F630DBB2C3F38200C3F381
:10F91000421394F8382063F3C50784F8397094F8DB
:10F92000F77060F3020267F3861284F838200A79D0
:10F93000087242F003020A7103224A7116224B72C6
:10F94000CA712046FFF758FDB4F84230A4F844309D
:10F9500094F8752094F874309A4200F0C080052025
:10F96000FFF74AFB94F87630013B072B00F2DA856B
:10F97000DFE813F07600B7021E0331049704D805C0
:10F980000D05210594F8F42084F8F520C3F38202D4
:10F99000910744D5022262F3840384F8F63094F888
:10F9A000F6305A09900743D5022262F3471384F8D0
:10F9B000F63094F8F62094F83830C2F38201C3F39D
:10F9C000C2038B4294F8783014BF61F384036FF361
:10F9D000840384F8783094F83A30520903F007032E
:10F9E000934294F8783014BF62F347136FF34713D0
:10F9F00084F8783094F8783094F8F72043F00103D5
:10FA0000C2F3400262F3410384F87830082384F89B
:10FA1000763094F87530013B84F8753098E7D70755
:10FA200001D50122B7E712F0040218BF0422B2E7A1
:10FA3000D10701D50122B8E712F0040218BF042251
:10FA4000B3E701234FF0000263F302026B496C4BF2
:10FA50005B1A6FF3C502DB0863F38F12694932E763
:10FA6000D5F888310BB9C5F8884194F8783013F08F
:10FA7000030370D06048FCF7D8FC014678B394F8D3
:10FA800078306FF3010384F87830E38C0633334425
:10FA90009BB2A4F88030027942F0030202710C227A
:10FAA00042710022C27194F888200272D4F8842036
:10FAB00040F2E240B2FBF0F2A1F80920B4F87A205B
:10FAC000A1F80B20B4F87C20A1F80D20B4F87E201A
:10FAD000A1F80F20A1F811302046FFF78DFC94F813
:10FAE000B12094F8B0309A421ED00520FFF784FA76
:10FAF0004148FCF79AFC0146B0B194F8B03084F864
:10FB0000B130037943F00303037102234371C371DE
:10FB100094F8B23003722046FFF76EFCE38F012B9E
:10FB200098BF0133A4F8443094F8E92094F8E83001
:10FB30009A4200F053850520FFF75EFA94F8EA3008
:10FB400003F00303032B00F27485DFE813F0FB04DA
:10FB5000470547056305B4F88070F71BBFB23A0448
:10FB6000BDD494F8742084F8752094F8C01094F8EB
:10FB7000C1208A4209D094F8C22002F00702052A67
:10FB800004BF84F8C110A4F84430D5F888210023BC
:10FB9000944208BFC5F888312B74A28CB4F87A302F
:10FBA0009A4214D1B4F87C10E38C99420FD140F200
:10FBB000E2435A43B4F87E3042F2107101FB032352
:10FBC000013B93FBF2F3E28F9BB29A4234D00220C6
:10FBD000FDF7DEFCE0B901234FF0000263F30202FF
:10FBE0000649074B5B1A60F3C502DB08064963F35D
:10FBF0008F120648E8E400BFA4810020E0B30100B2
:10FC000010B4010007F90100B0F80100150002006E
:10FC1000238CC3800823037100230372B4F87A3065
:10FC2000A0F80930B4F87C30A0F80B30B4F87E307E
:10FC3000A0F80D30FEF7BEF823686668002B09DADD
:10FC4000A06823F00043B0422CBF8044B04423603E
:10FC5000A8EB0308A38CB4F87AA0C54913FB07F3FB
:10FC60009BB2B3FBFAF21FFA82F91AFB09F080B2D9
:10FC7000834280F0C680C01A40F223124243C31769
:10FC800001FB0323A0FB01011944B7A3D3E900231F
:10FC9000F0F786FA20F07F4000EB08030B93238DEA
:10FCA000DFF808B3DB1B4B4423852368B34238BF1E
:10FCB00033460D9394F91D3040F2E248002BD4F8FE
:10FCC00084300C9308FB0AF680F2AC80636DE26D21
:10FCD00003FB172795F82031A64A32F8135094F801
:10FCE0005030C3F3820332F8133094F888201D4457
:10FCF000754305F57425A04B08FB02F205F23F257C
:10FD0000B5FBF3F5730805FB09F0963B0744626603
:10FD100000229F4294BFE765E3656565A36522679E
:10FD2000A0FB0B0190A3D3E90023F0F739FA0B9B5A
:10FD30001B1A0B930C9BB3FBF8F008FB00F08AA393
:10FD4000D3E90023A0FB0B01F0F72AFA751B20F082
:10FD50007F47B4F87E30B4F87C20E28442F2107120
:10FD600001FB0363013BB3FBF6F3E387834BA4F88A
:10FD700024A03344B3FBF6F3A4F84230804B334461
:10FD8000B3FBF6F6931DB1B29942C4BFC2F57F43EF
:10FD9000FA33A4F84A10C8BFC91894F87830C8BF1D
:10FDA00089B213F0040308BFA4F84030A4F8461049
:10FDB0000020012108F0F0FA0022012181461046BE
:10FDC000FCF7D6FB94F820606E4B0736F6B20021A4
:10FDD000009632460846FDF761FA30F002082ED050
:10FDE0004FF00002012363F302026FF3C50266497C
:10FDF000664B67485B1ADB0863F38F126549FFF7B0
:10FE0000E3BB0AFB123292B2A2FB010140F22313C0
:10FE100003FB021154A3D3E90023F0F7C1F9A8EBC7
:10FE200000033BE70C9950A3D3E90023A1FB0B018E
:10FE3000F0F7B6F920F07F40471C354689E7A5FB6F
:10FE40000BAB49A3D3E9002350465946F0F7A8F974
:10FE5000514A20F07F45072320F07F400021434393
:10FE600002FB0133A0FB0201BAEB000019446BEB6B
:10FE700001014FF47A720023F0F792F9E3680D9ACA
:10FE800094F91DE0454902901A441346444A0493EC
:10FE900012EA2E0238BF0A46424907910592089697
:10FEA0000694CDF80C80019500970B9B3246414695
:10FEB0004046FDF755F930F0020007D04FF0000240
:10FEC000012363F3020268F3C50290E7B9F1000F62
:10FED00000F09D83012211460FB0BDE8F04FFCF702
:10FEE00047BB94F8783013B32F48FCF79EFA0746C7
:10FEF00000283FF4F4AD002384F87830E38C063317
:10FF00003344A4F87E30037943F0030303710823DC
:10FF100043710123C371052204F179010830F4F71C
:10FF2000E0F9B4F87E30A7F80D303946D4E5B4F8DE
:10FF30007E30F31A1F043FF5D2AD94F8743084F884
:10FF4000753004F11707052204F179013846F4F7FA
:10FF5000C8F905213846FCF713FC637F60F30503FD
:10FF6000637701232377BAE58D49FD1A0700000066
:10FF70000054CE0940FC010040420F00FF596202CC
:10FF80007FC3C901C5DF0000E0B3010010B4010068
:10FF90004EFA0100B0F801008D49FD1A2108010058
:10FFA0002508010079DF0000A481002000CA9A3BE7
:10FFB00094F87890B9F1000F7FF491ADDA48FCF72E
:10FFC00034FA074600283FF48AAD94F91D30002B1F
:10FFD00000F1040A4DDB04F1F90B5B464A4604F1DB
:10FFE000940104F1840007F0A5FC1022594604F5A1
:10FFF0008D70F4F776F904F58971082204F2331054
:020000021000EC
:10000000F4F76FF994F8113184F8099169F300035A
:1000100084F8113194F8323184F80A9143F00103E5
:1000200084F8323194F8F83084F80B9143F01003DF
:1000300084F80C9184F80D9184F80E9184F80F9156
:1000400084F81091A4F82A91A4F82C91A4F82E9188
:10005000A4F8309184F8F83051462046FFF75AFA58
:1000600039462046FFF7C8F994F8743084F87530A3
:1000700035E594F8F83003F04803082B00F09B8036
:1000800094F87990B9F1000F20D0037943F003037D
:10009000037194F85030980612D5D4F8A43059075B
:1000A0000ED51123FB7103233B7287F809900223BD
:1000B0007B717B7901337B71002384F87930CFE742
:1000C0000D23FB7187F808900123F1E79648FCF7B0
:1000D000ACF98246002800F08C83037943F00303D7
:1000E00003714FF0040B0D23437180F807B000F14A
:1000F000080319460C2268680C93FFF7EDF80C9B77
:100100000822194604F19C00F4F7EBF85A460AF16C
:10011000100104F58B70F4F7E4F85146204604F121
:10012000F90AFFF769F953464A4604F1940104F1CC
:10013000840007F0FFFB1022514604F58D70F4F7A0
:10014000D0F8082204F5897104F23310F4F7C9F8E5
:1001500094F8113184F8099143F0010384F81131C6
:1001600094F8323184F80A9169F3000384F832314B
:1001700094F8F83084F80B9143F0100384F8F830C9
:100180003B7984F80C9143F0030384F80D9184F8D3
:100190000E9184F80F9184F81091A4F82A91A4F894
:1001A0002C91A4F82E91A4F830913B7101237B711E
:1001B0000523FB7154E75146D5F81401FFF7AAF95E
:1001C000D5F8142192F8F83069F3820369F3C30378
:1001D00082F8F83044E794F8501011F0200930D03C
:1001E00094F8743084F875300220FDF7D1F90123BA
:1001F000074668B94FF0000263F302024B494C4BCB
:100200005B1A60F3C502DB0863F38F124949F0E41F
:10021000228C0371037AC28043F003030372092323
:100220004372C372082200210C30F4F786F8D4F828
:10023000A4303B731A0A1B0C7A73BB73FDF7BAFD2B
:100240004DE43948FCF7F1F8074600283FF447AC85
:1002500094F8743084F87530374BC4F8A4300379BF
:1002600043F0030303710923437194F91D30002BFC
:10027000ACBF08230E230822C37149461044F4F78B
:100280005CF8D4F8A4303B721A0A1B0C7A72BB7269
:1002900039462046FFF7B0F8B4F84230A4F84430AD
:1002A0001DE494F8A830DA0724D41F48FCF7BDF801
:1002B000014600283FF413AC94F8743084F875308C
:1002C00094F8A83043F0010384F8A830037943F090
:1002D00003030371062343710C23C37109230372C3
:1002E0006FF00E034372052383724FF0FF33C37226
:1002F0000373CEE713F0020339D094F8743084F816
:1003000075300220FDF744F90123C8B94FF000020F
:1003100063F302020549064B5B1A60F3C502DB0872
:1003200063F38F12054964E4A4810020E0B3010067
:1003300010B40100C4F801007F490100D3F80100A6
:10034000228C0371037AC28043F0030303720623F5
:1003500043720C23C37294F8A9300373B4F8AA3023
:10036000A0F80D30B4F8AC30A0F80F3066E70121EA
:100370004FF0000261F3020263F3C502B549B64BC8
:100380005B1ADB0863F38F12B449FFF79CBAB448D9
:10039000FCF74BF8014600283FF4A1AB94F8743009
:1003A00084F87530037943F003030371012343712B
:1003B0001223C3716DE794F87820D7075CD5A8485D
:1003C000FCF733F8074600283FF489AB94F87830FF
:1003D0006FF3000384F87830DBB2C3F3820959EA83
:1003E000531943D194F8742084F875209807A4F821
:1003F0007A9025D50220FDF7CBF878B901234FF08C
:10040000000263F302029349934B5B1A60F3C50247
:10041000DB0863F38F129349FFF7EBBB238CC38098
:1004200080F808900C23037194F83830C3F3C203AA
:10043000437294F83A30C3F302038372FDF7BAFCB7
:100440003B7943F003033B7105237B711823FB7158
:1004500094F87830C3F382033B7294F87830C3F396
:1004600042137B72B4F87A307B815EE5E38C06330D
:100470003344A4F87A30E3E7B4F87A30F31A190475
:100480003FF52DAB94F8743084F8753012F01C0FE2
:1004900094F8383094F83A1018BFC2F38207C3F3C7
:1004A000C2001CBF67F3C50384F8383012F0E00FB8
:1004B00001F0070108D094F8783094F83A705B099D
:1004C00063F3020784F83A7094F838301F46C3F398
:1004D000801363F3C717930784F838700BD4FBB20B
:1004E000C3F3C203834206D194F83A3003F0070302
:1004F0008B423FF4F4AA0220FDF74AF800283FF4AB
:100500007DAF238CC3800C2303710023037294F806
:100510003830C3F3C203437294F83A30C3F3020392
:1005200083728BE601234FF0000263F30202494914
:10053000494B5B1A6FF3C502DB0863F38F124A491C
:10054000FFF7C1B9FDF70EF80746D5F83001FBF704
:100550009BFF384480B2FF2810D901234FF00002DE
:1005600063F302023B493C4B40485B1A6FF3C50200
:10057000DB0863F38F123E49FFF726B895F83A314E
:1005800083422BD13648FBF750FF014630B394F835
:10059000EA30B4F8F2006086012262F30103B4F895
:1005A000EE20A28584F8EA300B79C88143F003037A
:1005B0000B7109234B711423CB711B230B72002386
:1005C0004B726FF06F038B720A23CB728A812046C5
:1005D000FEF712FFB4F84230A4F8443094F820300B
:1005E00094F91D5023482449A2680394073311EA63
:1005F000250138BF0146DBB28DE80C000291231DB6
:1006000022460B9940460136FEF704FD66840FB082
:10061000BDE8F08FFCF7A6FF0746D5F83001FBF7E1
:1006200033FF384480B2FF2897D895F83A31834297
:1006300024D001234FF0000263F302020549064B68
:100640005B1A6FF3C502DB0863F38F120849FFF7EB
:100650003AB900BFE0B3010010B40100D3F80100C3
:10066000A48100201AF9010031F90100C3FA010048
:10067000F8F80100A90B01006508010094F8E830C2
:1006800084F8E93094F8EA30D5F80C016FF382036E
:1006900084F8EA300023A4F84430B4F8EC30238620
:1006A000B4F8F030E386FBF7EFFED5F8CC300BB1B1
:1006B000013080B2D5F800310BB1013080B2278E05
:1006C00095F810310E37013027F003079842BFB27A
:1006D0006DD0B5F83831BB4269D30220FCF758FF22
:1006E000012300286FD14FF0000263F30202444956
:1006F000444B5B1A60F3C502DB0863F38F12424977
:10070000FFF777BA0BB995F84031013B85F84231D4
:1007100095F84221D5F83C3153F822304946186803
:10072000FBF79DFE95F8402195F85431013A93422C
:1007300010DB01234FF0000263F302023049314B1A
:1007400032485B1A6FF3C502DB0863F38F122E4940
:10075000FEF73ABF013385F8543195F8423195F8E8
:1007600041219342CED1238EB5F83621292B9ABF51
:100770003423A5F83831A5F83871B5F83811B2FB33
:10078000F1F2D2B285F83A21A2B901234FF000016B
:1007900063F3020162F3C5011A4B194A1C489B1A04
:1007A000DB0863F38F110A461749FEF70DBFDFF828
:1007B0006C90D2E7D5F82C01164BFBF70FFE042006
:1007C000FCF7F8FE89E7228C0371037AC28043F0BC
:1007D00003030372092343721523C372238E83819B
:1007E000E38D0382E38EC381A38E4382FDF7E2FA99
:1007F000F4E609493846FBF732FEFFF770B900BF4F
:10080000E0B3010010B40100F8F80100EEFA0100B5
:100810003CFB010078810020A48100209081002011
:10082000FEF7BABEFEF7B8BE10B5044607F0F6F9FB
:10083000002007F03BFA0A4807F0BAF904F110006B
:1008400007F052FA637DA17D1B0243EA0143217D3B
:1008500040F25B601943BDE8104007F0FFBA00BFEB
:10086000712001002DE9F0411C467D4B1A7D0746A1
:1008700002F0FF061D46B2B101234FF0000263F300
:1008800002027849784B79485B1A6FF3C502DB089E
:10089000774963F38F12F2F723FD404080F311880C
:1008A0004FF0040002DF1B7C228CDBB20732934244
:1008B0004FF001010ED04FF0000261F302026A4BCB
:1008C00068496C485B1A66F3C502DB0863F38F1254
:1008D0006749E0E7032285F8186185F81961DBB202
:1008E0002A752E746B74238DC5F81441A860638536
:1008F000204626856975FFF797FF962007F06AFB6B
:1009000094F8382094F83A00D3093146C2F3C20271
:1009100000F0070007F0CCFA95F84121D5F83C31FA
:1009200053F8221020460831FDF7C8F9637F13F011
:10093000400F04F1170259D0608CE18B013803F0AD
:100940003F0380B2FEF714FDFDF7B0FE236EE26DAB
:1009500013440022E265A26D2366934288BF22669B
:10096000A36E626E00261344A366EA68666607F10A
:100970000901304607F03AFB804607F0B3FB3046EA
:1009800007F0CAFBA36E94F83A0003F15006236EF9
:10099000012100F0070006EB430607F006FA464483
:1009A000064494F83A0000F0070002283ED00428DC
:1009B0000CBF4FF4BC73282301211E4407F0F7F944
:1009C000304407F083FB94F82010073120463A4664
:1009D000C9B2FEF72FF8044650B304236B7507F035
:1009E00001FA0220BDE8F041FDF75EBD618DA67FF2
:1009F00001FB0666E17F25200E4496FBF0F100FB2B
:100A00001166F0B2C108E077515C06F0070641FAC2
:100A100006F6F10703F03F0396D4B0FBF3F103FBB6
:100A20001101C9B21046FCF781FD8DE71823C3E719
:100A30000346114A0146FCF7AFFC30F00203D0D068
:100A400001234FF0000263F302020649064B0B48F4
:100A50005B1A64F3C502DB0863F38F1204491AE7DB
:100A600048800020E0B3010010B401006DFB0100DC
:100A70004AF90100FCFB01000DE200004EFA010002
:100A800090F8F8C01CF0800F2DE9F04104460E46A6
:100A90000DD1D0F83C1151B11CF0080FD0F840E155
:100AA00003D190F8EA305B0723D5714521D094F843
:100AB000F83043F0800384F8F83007F0E5F9037864
:100AC000012262F3010300224270D4F83C2103703A
:100AD000DBB25AB143F01003037003786FF347138E
:100AE0000370002383703060BDE8F08162F304136B
:100AF000F2E794F8512194F850310D1DA81813B95C
:100B0000437884F8503122B1AB5C012767F30103CD
:100B1000AB5494F8507194F83980BF1AFFB2477003
:100B2000AB5C6FF30413AB5408F00708B8F1020F85
:100B3000A38E29D0B8F1040F29D0DB080A3B9BB261
:100B40001CF0200F18BF043BB4F82EC018BF9BB296
:100B5000634528BF63469F4281BF4370AB5C43F04F
:100B60001003AB540B681BB1AB5C43F01003AB54E8
:100B7000BEF1000FB1D1D4F8483199421CBFC4F87E
:100B80004411C4F84011A8E79B080B3BD7E794F841
:100B900038805FEAD81815BFA3F51473A3F5D7738F
:100BA0009B111B11023BCAE7F7B51C46624B1A7D2D
:100BB000074602F0FF011D46B2B101234FF00002CB
:100BC00063F302025D495E4B5E485B1A6FF3C50238
:100BD000DB085D4963F38F12F2F782FB404080F33C
:100BE00011884FF0040002DF1B7C228CDBB207323D
:100BF00093420FD001234FF0000263F3020261F32E
:100C0000C5024F4B4D4951485B1ADB0863F38F1205
:100C10004D49E1E785F8181185F819110422DBB276
:100C20002A7529746B74238DC5F8144102206385DD
:100C300021856875AF60FDF737FC01A92046FFF7F5
:100C40001FFF019994F8F8200B7862F3C303C2F3F5
:100C5000400262F382030B702046FFF7E5FD962009
:100C600007F0B8F994F83A0000F0070007F014F91B
:100C700001992046FDF74EF8637F13F0400F04F111
:100C8000170221D0608CE18B013803F03F0380B262
:100C9000FEF76EFBFDF70AFDEA6807F10901012086
:100CA00007F0A4F907F04AFA94F82010073120461B
:100CB0003A46C9B2FDF7BEFE044628B304236B755D
:100CC00007F090F803B0F0BD618DA67F01FB0666CA
:100CD000E17F25200E4496FBF0F100FB1166F0B297
:100CE000C108E077515C06F0070641FA06F6F10705
:100CF00003F03F03CED4B0FBF3F103FB1101C9B203
:100D00001046FCF713FCC5E70346114A0146FCF701
:100D100043FB30F00203D5D001234FF0000263F310
:100D200002020649064B0B485B1A64F3C502DB0856
:100D300063F38F1204494FE748800020E0B30100BD
:100D400010B401006DFB010056F90100FCFB01002D
:100D50000DE200004EFA01002DE9F84FC77A044673
:100D60000D4600F10806192F01F24881DFE817F05F
:100D70001A007B00C100D100FF0027016201D805E5
:100D80009E01CC01FB0126025702C002B301D90229
:100D90004804D104A405BE05A206A2069C07570874
:100DA0008E081309D14ED6F8145195F91D30002B39
:100DB00081F22481417A0020FCF784FB002801F0B5
:100DC0001D81B4F815106B8CCB1A1B0401F1318115
:100DD00095F8743095F875209A4241F02581D6F83F
:100DE00088210AB9C6F88851227B85F88820B4F892
:100DF0000D0040F2E2424243C5F88420207CE27BB1
:100E000042EA0022A5F87A20A07C627C42EA002215
:100E1000A5F87C20E27C207DA5F8801042EA002223
:100E2000A5F87E2095F8782002F0FC026FF382028C
:100E3000013B85F87820012285F8762085F8753009
:100E400095F8C02095F8C130934207D095F8C2308C
:100E500003F00703042B01D185F8C1200020A5F879
:100E60004400BDE8F88FA14BD3F8145195F91D301B
:100E7000002B81F2C380417A0120FCF723FB00287C
:100E800001F0BC80B4F811306A8C9B1A1F0401F188
:100E9000D08095F8742095F875309A420FD00123D0
:100EA0004FF0000263F302029149924B5B1A6FF319
:100EB000C502DB08904963F38F1290489BE005223E
:100EC00004F10C0105F17900F3F70BFA637CA27CC5
:100ED00043EA0223A5F87E30022385F8763095F8A0
:100EE00075300020013B85F8780085F87530BDE845
:100EF000F88F417A0220FCF7E5FA002801F07E80A5
:100F00007A4B227BD3F8143183F8B3200020BDE85C
:100F1000F88F764ED6F8148198F91D30002B81F2A7
:100F20006D80417A0320FCF7CDFA002801F066803D
:100F3000082204F1160108F19400F3F7D2F9D6F86B
:100F40001401042204F11E0100F58970F3F7C9F9B8
:100F5000D6F8143193F8F82042F0040283F8F82010
:100F6000B3F84220A3F8442001232B70CEE75F4D55
:100F7000D5F8146196F91D30002BC1F23F80417AFB
:100F80000420FCF79FFA002801F03880082204F1C1
:100F90000C0106F19C00F3F7A4F9D5F81401042222
:100FA00004F1140100F58B70F3F79BF9D5F81421C7
:100FB00092F8F83043F0040382F8F830A6E74B4B80
:100FC000D3F8145195F8756095F87430B3421AD07F
:100FD00095F87630032B16D001234FF0000263F30F
:100FE00002024349434B46485B1A6FF3C502DB08D4
:100FF000444963F38F12F2F773F9404080F311888C
:101000004FF0040002DF95F91D30002BC0F2F68787
:10101000617A0520FCF756FA002800F0EF870020DF
:10102000013E032385F8780085F8756085F87630F1
:10103000BDE8F88F417A0620FCF744FA002800F05A
:10104000DD872A4B1A7D032A194624D1D3F814319F
:1010500093F8752093F87400904203D093F87600CB
:101060000328B9D1002083F87800013A032083F8DF
:10107000760083F87520D1F8142192F8F8305E06D6
:1010800005D56FF3861382F8F83009232371012305
:101090002B7000F00BBDD3F8142192F8F83003F058
:1010A000FB036FF3C30382F8F830E4E70F4BD3F888
:1010B000145195F91D30002B80F2A087417A082049
:1010C000FCF700FA002800F0998731462846BDE871
:1010D000F84FFEF7D9B9054BD3F8145195F91D30E7
:1010E000002BC0F28B87417A0E20E9E74880002070
:1010F000E0B3010010B40100B5F90100B0FD01003A
:10110000E6FD010059F60100417A0920FCF7DAF901
:10111000002800F07387237B617BB44843F07F4352
:1011200043F47E0343F4435343F01003D0F81421F7
:1011300043EA0123A17B43EA0143D2F8A410C1F39F
:1011400010010B40C2F8A43092F8503043F0200355
:1011500082F8503001232B70D0F814310020A3F80E
:101160004400BDE8F88FA14ED6F8145195F91D3012
:10117000002B80F24387417A0A20FCF7A3F900286C
:1011800000F03C8706F5AE70FBF74FF9014610B949
:101190000120BDE8F88F95F8F83043F044036FF371
:1011A000041385F8F830037943F003030371012336
:1011B00043710B23C371284600F040BD417A0B20D8
:1011C000FCF780F9002800F019878848D0F814410E
:1011D00094F91D30002B1BDB00F5AE70FBF725F9F1
:1011E00001460028D4D094F8F83003F0DF0343F030
:1011F00004036FF3041384F8F830037943F0030316
:101200000371012343710B23CB71204600F016BDFF
:1012100094F8F8306FF3451384F8F83076E6417AA5
:101220000C20FCF74FF9002800F0E8866F48D0F852
:10123000146196F8A83013F0010750D100F5AE7094
:10124000FBF7F3F801460028A2D096F8A83043F047
:10125000010386F8A830037943F0030303710623E2
:1012600043710C23C371092303726FF00E034372A1
:10127000052383724FF0FF33C37203733046FEF7CA
:10128000E9F896F8F83043F0800386F8F83006F075
:10129000FBFD03784770012262F30103D6F83C217D
:1012A0000370DBB2C2B143F010030370237B86F8F6
:1012B000A930A27B637B43EA0223A6F8AA30E37B32
:1012C000227C43EA0223A6F8AC3096F8A83043F01B
:1012D000020386F8A83019E662F30413E5E713F079
:1012E00002037FF413AEA6F8443001232B70DDE730
:1012F000417A0D20FCF7E6F8002800F07F863B4B92
:10130000D3F8142192F8F83003F0FB036FF3C30312
:10131000002082F8F830A2F8440001232B70BDE8C9
:10132000F88F417A0F20FCF7CDF8002800F0668690
:101330002E4BD3F888111A4649B1D3F814018142D3
:1013400005D020220F21BDE8F84FFEF707B9D2F8EB
:10135000140190F91D3090F8C010002B90F8C130A6
:10136000C0F2B080994209D090F8C23013F0070360
:1013700002D0043B012B01D82322E3E790F874103C
:1013800090F87530994203D090F87630032B05D150
:1013900090F8F41090F8F530994201D02A22D1E764
:1013A000B4F80C904B46052B1ED9B4F80E80B8F556
:1013B000486F414618D8C14516D8B4F810C0BCF5DE
:1013C000FA7F11D2B4F812E0AEF10A07BFB240F6CC
:1013D000764A5745734607D80CFB0887B7EB8E0F44
:1013E00002DA277DB84503D21E22ABE748800020F1
:1013F000A0F8C490A0F8C680A0F8C8C0A0F8CAE0C1
:1014000080F8CC7094F816E0677D47EA0E27A0F8C4
:10141000CE7094F818E0E77D47EA0E27A0F8D07068
:1014200094F81AE0677E47EA0E27A0F8D27094F885
:101430001CE0E77E47EA0E27A0F8D47094F81EE07F
:10144000677F47EA0E27A0F8D670E77F94F820E080
:1014500047EA0E27A0F8D87094F8217094F822403B
:1014600047EA0424A0F8DA40848C444511D1C48CA6
:1014700064450ED140F2E244614342F2107404FB31
:101480000313013B93FBF1F3C18F9BB2994200F030
:101490009E8090F8F8301C0740F1938090F8C2309D
:1014A000022161F3020380F8C23090F8C130013BA1
:1014B00080F8C130D2F88831002B7FF427ADC2F814
:1014C000880123E5994204D090F8C230990740F092
:1014D0008780B4F80C904B46052B85D9B4F80E8064
:1014E000B8F5486F80D8C1453FF67EAFB4F810C05C
:1014F000BCF5FA7FBFF478AFB4F812E0AEF10A079A
:10150000BFB240F6764A574573463FF66DAF0CFBC7
:101510000887B7EB8E0FBFF667AF277DB845FFF49E
:1015200063AFA0F8C490A0F8C680A0F8C8C0A0F827
:10153000CAE080F8CC7094F816E0677D47EA0E2781
:10154000A0F8CE7094F818E0E77D47EA0E27A0F8DF
:10155000D07094F81AE0677E47EA0E27A0F8D270A0
:1015600094F81CE0E77E47EA0E27A0F8D47094F8C0
:101570001EE0677F47EA0E27A0F8D670E77F94F851
:1015800020E047EA0E27A0F8D87094F8217094F86C
:10159000224047EA0424A0F8DA40848C444510D164
:1015A000C18C61450DD140F2E241614342F21074B9
:1015B00004FB0313013B93FBF1F3C18F9BB29942F0
:1015C00005D001232B7090F8C230032169E7002376
:1015D00080F8C33090F8C230012103F0F70360E7D0
:1015E00001234FF0000263F30202C649C64BC7480D
:1015F0005B1A6FF3C502DB0863F38F12C449FAE488
:10160000C44BD3F8145195F91D30002BC0F2F68469
:10161000417A1020FBF756FF002800F0EF8495F880
:10162000C02095F8C1309A423FF470AC95F8C230B2
:1016300003F00703042B7FF469ACB4F80CC01FFA65
:101640008CF2052A1ED9B4F80EE01FFA8EF3B3F51A
:10165000486F17D89A4215D8278ABAB2B2F5FA7FDE
:1016600010D2668AB0B2A0F10A0189B240F676487B
:10167000414507D802FB0332B2EB800F02DA227D2C
:10168000934203D21E22102128465CE60020A5F8D2
:101690004400A5F8C4C0A5F8C6E0A5F8C870A5F830
:1016A000CA6085F8CC20A27D637D43EA0223A5F8B9
:1016B000CE30227EE37D43EA0223A5F8D030A27E1D
:1016C000637E43EA0223A5F8D230227FE37E43EA19
:1016D0000223A5F8D430A27F637F43EA0223A5F852
:1016E000D63094F82020E37F43EA0223A5F8D830CF
:1016F00094F8222094F8213043EA0223A5F8DA3046
:1017000095F8C230012262F3020385F8C230BDE8C9
:10171000F88F417A1120FBF7D5FE002800F06E8487
:101720007C4AD2F8143193F8F51093F8F400814212
:10173000217B28D016297FF4E9AB617B23290ED0C9
:1017400093F8382083F8F50093F83900C2F3C20209
:1017500062F30200002283F83900A3F8442093F8D2
:10176000F72092077FF5D2AB0C222172227193F8F9
:101770003820C2F3C202627293F83A30C3F3020314
:10178000A372FFF7F1BB93F8C07093F8C100B842A1
:101790005ED00F297FF4BAAB93F91D00617B00285E
:1017A00018DB1A2916D193F8742093F875409442E7
:1017B00000F0E78001234FF0000263F30202514979
:1017C000514B5B1A6FF3C502DB0863F38F1252496A
:1017D000FFF773BB232921D0D2F88861B34210D020
:1017E00001234FF0000263F302024649464B5B1AA5
:1017F0006FF3C502DB08484963F38F124748FFF7D0
:10180000FABB0026B042C2F88861B8BFD3F8E42022
:1018100083F8C170A3F84460B8BF1A6793F8C22078
:1018200017077FF573AB21720822D98C22719A8C2D
:10183000DB8FA4F809205A437D235343A4F80B10EF
:101840004FF47A7293FBF2F3A4F80D30FFF78CBBE0
:1018500093F8E82093F8E90090421AD014297FF415
:1018600055AB83F8E92093F8EA206FF3820283F8FE
:10187000EA2000200922A3F8440062721522E272D5
:101880001A8EA281DA8D2282DA8E9B8EE2816382A9
:1018900043E503297FF43AAB93F8F82002F0FB020A
:1018A0006FF3C302002083F8F820A3F844000D234F
:1018B000E372637B237330E5417A1220FBF702FE6B
:1018C000002800F09B831348D0F8144100F5AE7057
:1018D000FAF7ABFD014600283FF45AAC037943F018
:1018E000030303710123437113238DE4417A132011
:1018F000FBF7E8FD002800F08183064BD3F8143194
:101900002CE400BFE0B3010010B40100B0E401001A
:1019100059F60100488000201EF601006AFE010011
:10192000417A0720FBF7CEFD002800F06783D64AF6
:10193000D2F8143193F8C11093F8C060B142114647
:101940007ED093F8C20040F0100083F8C20093F9F3
:101950001D00002841DB93F8742093F875409442F1
:101960000FD001234FF0000263F30202C749C84BB6
:101970005B1A6FF3C502DB0863F38F12C549FFF7EB
:101980009CBA93F8C220052161F30202B3F8C61095
:10199000A3F87A10B3F8C810A3F87C10B3F8CA10F3
:1019A000A3F87E1093F8781083F8C220012582F006
:1019B000080265F30101C2F3C002002062F3820154
:1019C000013C83F88850C3F8840083F8781083F8CA
:1019D000754083F87650BDE8F88FD2F8882193429D
:1019E0000ED001234FF0000263F30202A749A84B77
:1019F0005B1A6FF3C502DB0863F38F12A549FDE69E
:101A00000022C1F8882193F8C22083F8C16016072C
:101A10007FF57CAA082222711A2222729A8CD88C15
:101A2000DB8FA4F809205A437D235343A4F80B000D
:101A30004FF47A7293FBF2F3A4F80D30FFF727BB53
:101A400093F8E82093F8E900904209D083F8E92060
:101A500093F8EA206FF3820283F8EA20FFF717BBBE
:101A600093F8F42093F8F50090421BD083F8F5200A
:101A700093F8382093F83900C2F3C20262F30200EF
:101A800083F8390093F8F70080070FD50C202071F8
:101A900000202072627293F83A30C3F30203A372FB
:101AA000FFF7F5BA237B122B7FF4F1AAD1F814319A
:101AB000FFF754BB417A1420FBF704FD002800F027
:101AC0009D82142F2FD17448FAF7AFFC06460028E8
:101AD0003FF45EAB6C4FD7F8143193F8E98093F87C
:101AE000E8C01A8ED98DD88EB3F834E0E045BA46F6
:101AF00094F80B8019D1B8F1140F22D0B8F1150F5A
:101B000000F0A58201234FF0000263F302025F4957
:101B10005F4B62485B1A6FF3C502DB0863F38F12F9
:101B20005F49FFF768BA0026D4E793F8EA7007F038
:101B30000307012FDFD9022FE0D1A8F11407012FED
:101B4000DCD8A7891A2F3ED9B3F82C80474528BF87
:101B50004746B4F81080B8F11B0FB4F80E8034BFBC
:101B600093464FF01B0BB8F5A47F2ED3B3F83290F9
:101B7000C84528BFC846B4F81290B9F5A47F26D34B
:101B8000B9F5296F28BF4FF429695A455AD0FBF798
:101B9000E9FC0446DAF83001FAF776FC204480B21A
:101BA000FF2816D901234FF0000263F302023749E0
:101BB000374B3C485B1A6FF3C502DB0863F38F12A7
:101BC0003749FFF718BA0F46C3E7F046D3E7814617
:101BD000DBE79AF83A31834240F03082DAF8143188
:101BE00093F8E820DF85013A83F8E92093F8EA20AA
:101BF000A3F8ECB042F00302A3F8EE70A3F834802F
:101C0000A3F8F090A3F8F28083F8EA2003238AF87F
